{
	"docs.chain.link/samples/ChainlinkFunctions/FunctionsConsumerExample.sol": {
		"FunctionsConsumerExample": {
			"abi": [
				{
					"inputs": [
						{
							"internalType": "address",
							"name": "router",
							"type": "address"
						}
					],
					"stateMutability": "nonpayable",
					"type": "constructor"
				},
				{
					"inputs": [],
					"name": "EmptyArgs",
					"type": "error"
				},
				{
					"inputs": [],
					"name": "EmptySecrets",
					"type": "error"
				},
				{
					"inputs": [],
					"name": "EmptySource",
					"type": "error"
				},
				{
					"inputs": [],
					"name": "NoInlineSecrets",
					"type": "error"
				},
				{
					"inputs": [],
					"name": "OnlyRouterCanFulfill",
					"type": "error"
				},
				{
					"inputs": [
						{
							"internalType": "bytes32",
							"name": "requestId",
							"type": "bytes32"
						}
					],
					"name": "UnexpectedRequestID",
					"type": "error"
				},
				{
					"anonymous": false,
					"inputs": [
						{
							"indexed": true,
							"internalType": "address",
							"name": "from",
							"type": "address"
						},
						{
							"indexed": true,
							"internalType": "address",
							"name": "to",
							"type": "address"
						}
					],
					"name": "OwnershipTransferRequested",
					"type": "event"
				},
				{
					"anonymous": false,
					"inputs": [
						{
							"indexed": true,
							"internalType": "address",
							"name": "from",
							"type": "address"
						},
						{
							"indexed": true,
							"internalType": "address",
							"name": "to",
							"type": "address"
						}
					],
					"name": "OwnershipTransferred",
					"type": "event"
				},
				{
					"anonymous": false,
					"inputs": [
						{
							"indexed": true,
							"internalType": "bytes32",
							"name": "id",
							"type": "bytes32"
						}
					],
					"name": "RequestFulfilled",
					"type": "event"
				},
				{
					"anonymous": false,
					"inputs": [
						{
							"indexed": true,
							"internalType": "bytes32",
							"name": "id",
							"type": "bytes32"
						}
					],
					"name": "RequestSent",
					"type": "event"
				},
				{
					"anonymous": false,
					"inputs": [
						{
							"indexed": true,
							"internalType": "bytes32",
							"name": "requestId",
							"type": "bytes32"
						},
						{
							"indexed": false,
							"internalType": "bytes",
							"name": "response",
							"type": "bytes"
						},
						{
							"indexed": false,
							"internalType": "bytes",
							"name": "err",
							"type": "bytes"
						}
					],
					"name": "Response",
					"type": "event"
				},
				{
					"inputs": [],
					"name": "acceptOwnership",
					"outputs": [],
					"stateMutability": "nonpayable",
					"type": "function"
				},
				{
					"inputs": [
						{
							"internalType": "bytes32",
							"name": "requestId",
							"type": "bytes32"
						},
						{
							"internalType": "bytes",
							"name": "response",
							"type": "bytes"
						},
						{
							"internalType": "bytes",
							"name": "err",
							"type": "bytes"
						}
					],
					"name": "handleOracleFulfillment",
					"outputs": [],
					"stateMutability": "nonpayable",
					"type": "function"
				},
				{
					"inputs": [],
					"name": "owner",
					"outputs": [
						{
							"internalType": "address",
							"name": "",
							"type": "address"
						}
					],
					"stateMutability": "view",
					"type": "function"
				},
				{
					"inputs": [],
					"name": "s_lastError",
					"outputs": [
						{
							"internalType": "bytes",
							"name": "",
							"type": "bytes"
						}
					],
					"stateMutability": "view",
					"type": "function"
				},
				{
					"inputs": [],
					"name": "s_lastRequestId",
					"outputs": [
						{
							"internalType": "bytes32",
							"name": "",
							"type": "bytes32"
						}
					],
					"stateMutability": "view",
					"type": "function"
				},
				{
					"inputs": [],
					"name": "s_lastResponse",
					"outputs": [
						{
							"internalType": "bytes",
							"name": "",
							"type": "bytes"
						}
					],
					"stateMutability": "view",
					"type": "function"
				},
				{
					"inputs": [
						{
							"internalType": "string",
							"name": "source",
							"type": "string"
						},
						{
							"internalType": "bytes",
							"name": "encryptedSecretsUrls",
							"type": "bytes"
						},
						{
							"internalType": "uint8",
							"name": "donHostedSecretsSlotID",
							"type": "uint8"
						},
						{
							"internalType": "uint64",
							"name": "donHostedSecretsVersion",
							"type": "uint64"
						},
						{
							"internalType": "string[]",
							"name": "args",
							"type": "string[]"
						},
						{
							"internalType": "bytes[]",
							"name": "bytesArgs",
							"type": "bytes[]"
						},
						{
							"internalType": "uint64",
							"name": "subscriptionId",
							"type": "uint64"
						},
						{
							"internalType": "uint32",
							"name": "gasLimit",
							"type": "uint32"
						},
						{
							"internalType": "bytes32",
							"name": "donID",
							"type": "bytes32"
						}
					],
					"name": "sendRequest",
					"outputs": [
						{
							"internalType": "bytes32",
							"name": "requestId",
							"type": "bytes32"
						}
					],
					"stateMutability": "nonpayable",
					"type": "function"
				},
				{
					"inputs": [
						{
							"internalType": "bytes",
							"name": "request",
							"type": "bytes"
						},
						{
							"internalType": "uint64",
							"name": "subscriptionId",
							"type": "uint64"
						},
						{
							"internalType": "uint32",
							"name": "gasLimit",
							"type": "uint32"
						},
						{
							"internalType": "bytes32",
							"name": "donID",
							"type": "bytes32"
						}
					],
					"name": "sendRequestCBOR",
					"outputs": [
						{
							"internalType": "bytes32",
							"name": "requestId",
							"type": "bytes32"
						}
					],
					"stateMutability": "nonpayable",
					"type": "function"
				},
				{
					"inputs": [
						{
							"internalType": "address",
							"name": "to",
							"type": "address"
						}
					],
					"name": "transferOwnership",
					"outputs": [],
					"stateMutability": "nonpayable",
					"type": "function"
				}
			],
			"devdoc": {
				"kind": "dev",
				"methods": {
					"handleOracleFulfillment(bytes32,bytes,bytes)": {
						"details": "Either response or error parameter will be set, but never both.",
						"params": {
							"err": "Aggregated error either from the request's source code or from the execution pipeline.",
							"requestId": "The requestId returned by FunctionsClient.sendRequest().",
							"response": "Aggregated response from the request's source code."
						}
					},
					"sendRequest(string,bytes,uint8,uint64,string[],bytes[],uint64,uint32,bytes32)": {
						"params": {
							"args": "List of arguments accessible from within the source code",
							"bytesArgs": "Array of bytes arguments, represented as hex strings",
							"donHostedSecretsSlotID": "Don hosted secrets slotId",
							"donHostedSecretsVersion": "Don hosted secrets version",
							"encryptedSecretsUrls": "Encrypted URLs where to fetch user secrets",
							"source": "JavaScript source code",
							"subscriptionId": "Billing ID"
						}
					},
					"sendRequestCBOR(bytes,uint64,uint32,bytes32)": {
						"params": {
							"donID": "ID of the job to be invoked",
							"gasLimit": "The maximum amount of gas the request can consume",
							"request": "CBOR-encoded request data",
							"subscriptionId": "Billing ID"
						},
						"returns": {
							"requestId": "The ID of the sent request"
						}
					}
				},
				"version": 1
			},
			"evm": {
				"assembly": "    /* \"docs.chain.link/samples/ChainlinkFunctions/FunctionsConsumerExample.sol\":559:3992  contract FunctionsConsumerExample is FunctionsClient, ConfirmedOwner {... */\n  mstore(0x40, 0xa0)\n    /* \"docs.chain.link/samples/ChainlinkFunctions/FunctionsConsumerExample.sol\":918:1013  constructor(... */\n  callvalue\n  dup1\n  iszero\n  tag_1\n  jumpi\n  0x00\n  dup1\n  revert\ntag_1:\n  pop\n  mload(0x40)\n  sub(codesize, bytecodeSize)\n  dup1\n  bytecodeSize\n  dup4\n  codecopy\n  dup2\n  dup2\n  add\n  0x40\n  mstore\n  dup2\n  add\n  swap1\n  tag_2\n  swap2\n  swap1\n  tag_3\n  jump\t// in\ntag_2:\n    /* \"docs.chain.link/samples/ChainlinkFunctions/FunctionsConsumerExample.sol\":999:1009  msg.sender */\n  caller\n    /* \"@chainlink/contracts@1.2.0/src/v0.8/shared/access/ConfirmedOwner.sol\":355:363  newOwner */\n  dup1\n    /* \"@chainlink/contracts@1.2.0/src/v0.8/shared/access/ConfirmedOwner.sol\":373:374  0 */\n  0x00\n    /* \"docs.chain.link/samples/ChainlinkFunctions/FunctionsConsumerExample.sol\":976:982  router */\n  dup4\n    /* \"@chainlink/contracts@1.2.0/src/v0.8/functions/v1_0_0/FunctionsClient.sol\":764:770  router */\n  dup1\n    /* \"@chainlink/contracts@1.2.0/src/v0.8/functions/v1_0_0/FunctionsClient.sol\":736:771  i_router = IFunctionsRouter(router) */\n  0xffffffffffffffffffffffffffffffffffffffff\n  and\n  0x80\n  dup2\n  0xffffffffffffffffffffffffffffffffffffffff\n  and\n  dup2\n  mstore\n  pop\n  pop\n    /* \"@chainlink/contracts@1.2.0/src/v0.8/functions/v1_0_0/FunctionsClient.sol\":702:776  constructor(address router) {... */\n  pop\n    /* \"@chainlink/contracts@1.2.0/src/v0.8/shared/access/ConfirmedOwnerWithProposal.sol\":618:619  0 */\n  0x00\n    /* \"@chainlink/contracts@1.2.0/src/v0.8/shared/access/ConfirmedOwnerWithProposal.sol\":598:620  newOwner != address(0) */\n  0xffffffffffffffffffffffffffffffffffffffff\n  and\n    /* \"@chainlink/contracts@1.2.0/src/v0.8/shared/access/ConfirmedOwnerWithProposal.sol\":598:606  newOwner */\n  dup3\n    /* \"@chainlink/contracts@1.2.0/src/v0.8/shared/access/ConfirmedOwnerWithProposal.sol\":598:620  newOwner != address(0) */\n  0xffffffffffffffffffffffffffffffffffffffff\n  and\n  sub\n    /* \"@chainlink/contracts@1.2.0/src/v0.8/shared/access/ConfirmedOwnerWithProposal.sol\":590:649  require(newOwner != address(0), \"Cannot set owner to zero\") */\n  tag_10\n  jumpi\n  mload(0x40)\n  0x08c379a000000000000000000000000000000000000000000000000000000000\n  dup2\n  mstore\n  0x04\n  add\n  tag_11\n  swap1\n  tag_12\n  jump\t// in\ntag_11:\n  mload(0x40)\n  dup1\n  swap2\n  sub\n  swap1\n  revert\ntag_10:\n    /* \"@chainlink/contracts@1.2.0/src/v0.8/shared/access/ConfirmedOwnerWithProposal.sol\":666:674  newOwner */\n  dup2\n    /* \"@chainlink/contracts@1.2.0/src/v0.8/shared/access/ConfirmedOwnerWithProposal.sol\":656:663  s_owner */\n  0x00\n  dup1\n    /* \"@chainlink/contracts@1.2.0/src/v0.8/shared/access/ConfirmedOwnerWithProposal.sol\":656:674  s_owner = newOwner */\n  0x0100\n  exp\n  dup2\n  sload\n  dup2\n  0xffffffffffffffffffffffffffffffffffffffff\n  mul\n  not\n  and\n  swap1\n  dup4\n  0xffffffffffffffffffffffffffffffffffffffff\n  and\n  mul\n  or\n  swap1\n  sstore\n  pop\n    /* \"@chainlink/contracts@1.2.0/src/v0.8/shared/access/ConfirmedOwnerWithProposal.sol\":708:709  0 */\n  0x00\n    /* \"@chainlink/contracts@1.2.0/src/v0.8/shared/access/ConfirmedOwnerWithProposal.sol\":684:710  pendingOwner != address(0) */\n  0xffffffffffffffffffffffffffffffffffffffff\n  and\n    /* \"@chainlink/contracts@1.2.0/src/v0.8/shared/access/ConfirmedOwnerWithProposal.sol\":684:696  pendingOwner */\n  dup2\n    /* \"@chainlink/contracts@1.2.0/src/v0.8/shared/access/ConfirmedOwnerWithProposal.sol\":684:710  pendingOwner != address(0) */\n  0xffffffffffffffffffffffffffffffffffffffff\n  and\n  eq\n    /* \"@chainlink/contracts@1.2.0/src/v0.8/shared/access/ConfirmedOwnerWithProposal.sol\":680:759  if (pendingOwner != address(0)) {... */\n  tag_13\n  jumpi\n    /* \"@chainlink/contracts@1.2.0/src/v0.8/shared/access/ConfirmedOwnerWithProposal.sol\":720:752  _transferOwnership(pendingOwner) */\n  tag_14\n    /* \"@chainlink/contracts@1.2.0/src/v0.8/shared/access/ConfirmedOwnerWithProposal.sol\":739:751  pendingOwner */\n  dup2\n    /* \"@chainlink/contracts@1.2.0/src/v0.8/shared/access/ConfirmedOwnerWithProposal.sol\":720:738  _transferOwnership */\n  shl(0x20, tag_15)\n    /* \"@chainlink/contracts@1.2.0/src/v0.8/shared/access/ConfirmedOwnerWithProposal.sol\":720:752  _transferOwnership(pendingOwner) */\n  0x20\n  shr\n  jump\t// in\ntag_14:\n    /* \"@chainlink/contracts@1.2.0/src/v0.8/shared/access/ConfirmedOwnerWithProposal.sol\":680:759  if (pendingOwner != address(0)) {... */\ntag_13:\n    /* \"@chainlink/contracts@1.2.0/src/v0.8/shared/access/ConfirmedOwnerWithProposal.sol\":481:763  constructor(address newOwner, address pendingOwner) {... */\n  pop\n  pop\n    /* \"@chainlink/contracts@1.2.0/src/v0.8/shared/access/ConfirmedOwner.sol\":298:379  constructor(address newOwner) ConfirmedOwnerWithProposal(newOwner, address(0)) {} */\n  pop\n    /* \"docs.chain.link/samples/ChainlinkFunctions/FunctionsConsumerExample.sol\":918:1013  constructor(... */\n  pop\n    /* \"docs.chain.link/samples/ChainlinkFunctions/FunctionsConsumerExample.sol\":559:3992  contract FunctionsConsumerExample is FunctionsClient, ConfirmedOwner {... */\n  jump(tag_18)\n    /* \"@chainlink/contracts@1.2.0/src/v0.8/shared/access/ConfirmedOwnerWithProposal.sol\":1536:1775  function _transferOwnership(address to) private {... */\ntag_15:\n    /* \"@chainlink/contracts@1.2.0/src/v0.8/shared/access/ConfirmedOwnerWithProposal.sol\":1655:1665  msg.sender */\n  caller\n    /* \"@chainlink/contracts@1.2.0/src/v0.8/shared/access/ConfirmedOwnerWithProposal.sol\":1649:1665  to != msg.sender */\n  0xffffffffffffffffffffffffffffffffffffffff\n  and\n    /* \"@chainlink/contracts@1.2.0/src/v0.8/shared/access/ConfirmedOwnerWithProposal.sol\":1649:1651  to */\n  dup2\n    /* \"@chainlink/contracts@1.2.0/src/v0.8/shared/access/ConfirmedOwnerWithProposal.sol\":1649:1665  to != msg.sender */\n  0xffffffffffffffffffffffffffffffffffffffff\n  and\n  sub\n    /* \"@chainlink/contracts@1.2.0/src/v0.8/shared/access/ConfirmedOwnerWithProposal.sol\":1641:1693  require(to != msg.sender, \"Cannot transfer to self\") */\n  tag_20\n  jumpi\n  mload(0x40)\n  0x08c379a000000000000000000000000000000000000000000000000000000000\n  dup2\n  mstore\n  0x04\n  add\n  tag_21\n  swap1\n  tag_22\n  jump\t// in\ntag_21:\n  mload(0x40)\n  dup1\n  swap2\n  sub\n  swap1\n  revert\ntag_20:\n    /* \"@chainlink/contracts@1.2.0/src/v0.8/shared/access/ConfirmedOwnerWithProposal.sol\":1717:1719  to */\n  dup1\n    /* \"@chainlink/contracts@1.2.0/src/v0.8/shared/access/ConfirmedOwnerWithProposal.sol\":1700:1714  s_pendingOwner */\n  0x01\n  0x00\n    /* \"@chainlink/contracts@1.2.0/src/v0.8/shared/access/ConfirmedOwnerWithProposal.sol\":1700:1719  s_pendingOwner = to */\n  0x0100\n  exp\n  dup2\n  sload\n  dup2\n  0xffffffffffffffffffffffffffffffffffffffff\n  mul\n  not\n  and\n  swap1\n  dup4\n  0xffffffffffffffffffffffffffffffffffffffff\n  and\n  mul\n  or\n  swap1\n  sstore\n  pop\n    /* \"@chainlink/contracts@1.2.0/src/v0.8/shared/access/ConfirmedOwnerWithProposal.sol\":1767:1769  to */\n  dup1\n    /* \"@chainlink/contracts@1.2.0/src/v0.8/shared/access/ConfirmedOwnerWithProposal.sol\":1731:1770  OwnershipTransferRequested(s_owner, to) */\n  0xffffffffffffffffffffffffffffffffffffffff\n  and\n    /* \"@chainlink/contracts@1.2.0/src/v0.8/shared/access/ConfirmedOwnerWithProposal.sol\":1758:1765  s_owner */\n  0x00\n  dup1\n  sload\n  swap1\n  0x0100\n  exp\n  swap1\n  div\n  0xffffffffffffffffffffffffffffffffffffffff\n  and\n    /* \"@chainlink/contracts@1.2.0/src/v0.8/shared/access/ConfirmedOwnerWithProposal.sol\":1731:1770  OwnershipTransferRequested(s_owner, to) */\n  0xffffffffffffffffffffffffffffffffffffffff\n  and\n  0xed8889f560326eb138920d842192f0eb3dd22b4f139c87a2c57538e05bae1278\n  mload(0x40)\n  mload(0x40)\n  dup1\n  swap2\n  sub\n  swap1\n  log3\n    /* \"@chainlink/contracts@1.2.0/src/v0.8/shared/access/ConfirmedOwnerWithProposal.sol\":1536:1775  function _transferOwnership(address to) private {... */\n  pop\n  jump\t// out\n    /* \"#utility.yul\":88:205   */\ntag_24:\n    /* \"#utility.yul\":197:198   */\n  0x00\n    /* \"#utility.yul\":194:195   */\n  dup1\n    /* \"#utility.yul\":187:199   */\n  revert\n    /* \"#utility.yul\":334:460   */\ntag_26:\n    /* \"#utility.yul\":371:378   */\n  0x00\n    /* \"#utility.yul\":411:453   */\n  0xffffffffffffffffffffffffffffffffffffffff\n    /* \"#utility.yul\":404:409   */\n  dup3\n    /* \"#utility.yul\":400:454   */\n  and\n    /* \"#utility.yul\":389:454   */\n  swap1\n  pop\n    /* \"#utility.yul\":334:460   */\n  swap2\n  swap1\n  pop\n  jump\t// out\n    /* \"#utility.yul\":466:562   */\ntag_27:\n    /* \"#utility.yul\":503:510   */\n  0x00\n    /* \"#utility.yul\":532:556   */\n  tag_41\n    /* \"#utility.yul\":550:555   */\n  dup3\n    /* \"#utility.yul\":532:556   */\n  tag_26\n  jump\t// in\ntag_41:\n    /* \"#utility.yul\":521:556   */\n  swap1\n  pop\n    /* \"#utility.yul\":466:562   */\n  swap2\n  swap1\n  pop\n  jump\t// out\n    /* \"#utility.yul\":568:690   */\ntag_28:\n    /* \"#utility.yul\":641:665   */\n  tag_43\n    /* \"#utility.yul\":659:664   */\n  dup2\n    /* \"#utility.yul\":641:665   */\n  tag_27\n  jump\t// in\ntag_43:\n    /* \"#utility.yul\":634:639   */\n  dup2\n    /* \"#utility.yul\":631:666   */\n  eq\n    /* \"#utility.yul\":621:684   */\n  tag_44\n  jumpi\n    /* \"#utility.yul\":680:681   */\n  0x00\n    /* \"#utility.yul\":677:678   */\n  dup1\n    /* \"#utility.yul\":670:682   */\n  revert\n    /* \"#utility.yul\":621:684   */\ntag_44:\n    /* \"#utility.yul\":568:690   */\n  pop\n  jump\t// out\n    /* \"#utility.yul\":696:839   */\ntag_29:\n    /* \"#utility.yul\":753:758   */\n  0x00\n    /* \"#utility.yul\":784:790   */\n  dup2\n    /* \"#utility.yul\":778:791   */\n  mload\n    /* \"#utility.yul\":769:791   */\n  swap1\n  pop\n    /* \"#utility.yul\":800:833   */\n  tag_46\n    /* \"#utility.yul\":827:832   */\n  dup2\n    /* \"#utility.yul\":800:833   */\n  tag_28\n  jump\t// in\ntag_46:\n    /* \"#utility.yul\":696:839   */\n  swap3\n  swap2\n  pop\n  pop\n  jump\t// out\n    /* \"#utility.yul\":845:1196   */\ntag_3:\n    /* \"#utility.yul\":915:921   */\n  0x00\n    /* \"#utility.yul\":964:966   */\n  0x20\n    /* \"#utility.yul\":952:961   */\n  dup3\n    /* \"#utility.yul\":943:950   */\n  dup5\n    /* \"#utility.yul\":939:962   */\n  sub\n    /* \"#utility.yul\":935:967   */\n  slt\n    /* \"#utility.yul\":932:1051   */\n  iszero\n  tag_48\n  jumpi\n    /* \"#utility.yul\":970:1049   */\n  tag_49\n  tag_24\n  jump\t// in\ntag_49:\n    /* \"#utility.yul\":932:1051   */\ntag_48:\n    /* \"#utility.yul\":1090:1091   */\n  0x00\n    /* \"#utility.yul\":1115:1179   */\n  tag_50\n    /* \"#utility.yul\":1171:1178   */\n  dup5\n    /* \"#utility.yul\":1162:1168   */\n  dup3\n    /* \"#utility.yul\":1151:1160   */\n  dup6\n    /* \"#utility.yul\":1147:1169   */\n  add\n    /* \"#utility.yul\":1115:1179   */\n  tag_29\n  jump\t// in\ntag_50:\n    /* \"#utility.yul\":1105:1179   */\n  swap2\n  pop\n    /* \"#utility.yul\":1061:1189   */\n  pop\n    /* \"#utility.yul\":845:1196   */\n  swap3\n  swap2\n  pop\n  pop\n  jump\t// out\n    /* \"#utility.yul\":1202:1371   */\ntag_30:\n    /* \"#utility.yul\":1286:1297   */\n  0x00\n    /* \"#utility.yul\":1320:1326   */\n  dup3\n    /* \"#utility.yul\":1315:1318   */\n  dup3\n    /* \"#utility.yul\":1308:1327   */\n  mstore\n    /* \"#utility.yul\":1360:1364   */\n  0x20\n    /* \"#utility.yul\":1355:1358   */\n  dup3\n    /* \"#utility.yul\":1351:1365   */\n  add\n    /* \"#utility.yul\":1336:1365   */\n  swap1\n  pop\n    /* \"#utility.yul\":1202:1371   */\n  swap3\n  swap2\n  pop\n  pop\n  jump\t// out\n    /* \"#utility.yul\":1377:1551   */\ntag_31:\n    /* \"#utility.yul\":1517:1543   */\n  0x43616e6e6f7420736574206f776e657220746f207a65726f0000000000000000\n    /* \"#utility.yul\":1513:1514   */\n  0x00\n    /* \"#utility.yul\":1505:1511   */\n  dup3\n    /* \"#utility.yul\":1501:1515   */\n  add\n    /* \"#utility.yul\":1494:1544   */\n  mstore\n    /* \"#utility.yul\":1377:1551   */\n  pop\n  jump\t// out\n    /* \"#utility.yul\":1557:1923   */\ntag_32:\n    /* \"#utility.yul\":1699:1702   */\n  0x00\n    /* \"#utility.yul\":1720:1787   */\n  tag_54\n    /* \"#utility.yul\":1784:1786   */\n  0x18\n    /* \"#utility.yul\":1779:1782   */\n  dup4\n    /* \"#utility.yul\":1720:1787   */\n  tag_30\n  jump\t// in\ntag_54:\n    /* \"#utility.yul\":1713:1787   */\n  swap2\n  pop\n    /* \"#utility.yul\":1796:1889   */\n  tag_55\n    /* \"#utility.yul\":1885:1888   */\n  dup3\n    /* \"#utility.yul\":1796:1889   */\n  tag_31\n  jump\t// in\ntag_55:\n    /* \"#utility.yul\":1914:1916   */\n  0x20\n    /* \"#utility.yul\":1909:1912   */\n  dup3\n    /* \"#utility.yul\":1905:1917   */\n  add\n    /* \"#utility.yul\":1898:1917   */\n  swap1\n  pop\n    /* \"#utility.yul\":1557:1923   */\n  swap2\n  swap1\n  pop\n  jump\t// out\n    /* \"#utility.yul\":1929:2348   */\ntag_12:\n    /* \"#utility.yul\":2095:2099   */\n  0x00\n    /* \"#utility.yul\":2133:2135   */\n  0x20\n    /* \"#utility.yul\":2122:2131   */\n  dup3\n    /* \"#utility.yul\":2118:2136   */\n  add\n    /* \"#utility.yul\":2110:2136   */\n  swap1\n  pop\n    /* \"#utility.yul\":2182:2191   */\n  dup2\n    /* \"#utility.yul\":2176:2180   */\n  dup2\n    /* \"#utility.yul\":2172:2192   */\n  sub\n    /* \"#utility.yul\":2168:2169   */\n  0x00\n    /* \"#utility.yul\":2157:2166   */\n  dup4\n    /* \"#utility.yul\":2153:2170   */\n  add\n    /* \"#utility.yul\":2146:2193   */\n  mstore\n    /* \"#utility.yul\":2210:2341   */\n  tag_57\n    /* \"#utility.yul\":2336:2340   */\n  dup2\n    /* \"#utility.yul\":2210:2341   */\n  tag_32\n  jump\t// in\ntag_57:\n    /* \"#utility.yul\":2202:2341   */\n  swap1\n  pop\n    /* \"#utility.yul\":1929:2348   */\n  swap2\n  swap1\n  pop\n  jump\t// out\n    /* \"#utility.yul\":2354:2527   */\ntag_33:\n    /* \"#utility.yul\":2494:2519   */\n  0x43616e6e6f74207472616e7366657220746f2073656c66000000000000000000\n    /* \"#utility.yul\":2490:2491   */\n  0x00\n    /* \"#utility.yul\":2482:2488   */\n  dup3\n    /* \"#utility.yul\":2478:2492   */\n  add\n    /* \"#utility.yul\":2471:2520   */\n  mstore\n    /* \"#utility.yul\":2354:2527   */\n  pop\n  jump\t// out\n    /* \"#utility.yul\":2533:2899   */\ntag_34:\n    /* \"#utility.yul\":2675:2678   */\n  0x00\n    /* \"#utility.yul\":2696:2763   */\n  tag_60\n    /* \"#utility.yul\":2760:2762   */\n  0x17\n    /* \"#utility.yul\":2755:2758   */\n  dup4\n    /* \"#utility.yul\":2696:2763   */\n  tag_30\n  jump\t// in\ntag_60:\n    /* \"#utility.yul\":2689:2763   */\n  swap2\n  pop\n    /* \"#utility.yul\":2772:2865   */\n  tag_61\n    /* \"#utility.yul\":2861:2864   */\n  dup3\n    /* \"#utility.yul\":2772:2865   */\n  tag_33\n  jump\t// in\ntag_61:\n    /* \"#utility.yul\":2890:2892   */\n  0x20\n    /* \"#utility.yul\":2885:2888   */\n  dup3\n    /* \"#utility.yul\":2881:2893   */\n  add\n    /* \"#utility.yul\":2874:2893   */\n  swap1\n  pop\n    /* \"#utility.yul\":2533:2899   */\n  swap2\n  swap1\n  pop\n  jump\t// out\n    /* \"#utility.yul\":2905:3324   */\ntag_22:\n    /* \"#utility.yul\":3071:3075   */\n  0x00\n    /* \"#utility.yul\":3109:3111   */\n  0x20\n    /* \"#utility.yul\":3098:3107   */\n  dup3\n    /* \"#utility.yul\":3094:3112   */\n  add\n    /* \"#utility.yul\":3086:3112   */\n  swap1\n  pop\n    /* \"#utility.yul\":3158:3167   */\n  dup2\n    /* \"#utility.yul\":3152:3156   */\n  dup2\n    /* \"#utility.yul\":3148:3168   */\n  sub\n    /* \"#utility.yul\":3144:3145   */\n  0x00\n    /* \"#utility.yul\":3133:3142   */\n  dup4\n    /* \"#utility.yul\":3129:3146   */\n  add\n    /* \"#utility.yul\":3122:3169   */\n  mstore\n    /* \"#utility.yul\":3186:3317   */\n  tag_63\n    /* \"#utility.yul\":3312:3316   */\n  dup2\n    /* \"#utility.yul\":3186:3317   */\n  tag_34\n  jump\t// in\ntag_63:\n    /* \"#utility.yul\":3178:3317   */\n  swap1\n  pop\n    /* \"#utility.yul\":2905:3324   */\n  swap2\n  swap1\n  pop\n  jump\t// out\n    /* \"docs.chain.link/samples/ChainlinkFunctions/FunctionsConsumerExample.sol\":559:3992  contract FunctionsConsumerExample is FunctionsClient, ConfirmedOwner {... */\ntag_18:\n  mload(0x80)\n  codecopy(0x00, dataOffset(sub_0), dataSize(sub_0))\n  0x00\n  assignImmutable(\"0x8e8fab5f003314da8d1873ea7720e8d9f47650136d916064d1edb8a11d682624\")\n  return(0x00, dataSize(sub_0))\nstop\n\nsub_0: assembly {\n        /* \"docs.chain.link/samples/ChainlinkFunctions/FunctionsConsumerExample.sol\":559:3992  contract FunctionsConsumerExample is FunctionsClient, ConfirmedOwner {... */\n      mstore(0x40, 0x80)\n      callvalue\n      dup1\n      iszero\n      tag_1\n      jumpi\n      0x00\n      dup1\n      revert\n    tag_1:\n      pop\n      jumpi(tag_2, lt(calldatasize, 0x04))\n      shr(0xe0, calldataload(0x00))\n      dup1\n      0x79ba5097\n      gt\n      tag_12\n      jumpi\n      dup1\n      0x79ba5097\n      eq\n      tag_7\n      jumpi\n      dup1\n      0x8da5cb5b\n      eq\n      tag_8\n      jumpi\n      dup1\n      0x9681096f\n      eq\n      tag_9\n      jumpi\n      dup1\n      0xb1e21749\n      eq\n      tag_10\n      jumpi\n      dup1\n      0xf2fde38b\n      eq\n      tag_11\n      jumpi\n      jump(tag_2)\n    tag_12:\n      dup1\n      0x0ca76175\n      eq\n      tag_3\n      jumpi\n      dup1\n      0x3944ea3a\n      eq\n      tag_4\n      jumpi\n      dup1\n      0x4b0795a8\n      eq\n      tag_5\n      jumpi\n      dup1\n      0x52a81eeb\n      eq\n      tag_6\n      jumpi\n    tag_2:\n      0x00\n      dup1\n      revert\n        /* \"@chainlink/contracts@1.2.0/src/v0.8/functions/v1_0_0/FunctionsClient.sol\":2078:2364  function handleOracleFulfillment(bytes32 requestId, bytes memory response, bytes memory err) external override {... */\n    tag_3:\n      tag_13\n      0x04\n      dup1\n      calldatasize\n      sub\n      dup2\n      add\n      swap1\n      tag_14\n      swap2\n      swap1\n      tag_15\n      jump\t// in\n    tag_14:\n      tag_16\n      jump\t// in\n    tag_13:\n      stop\n        /* \"docs.chain.link/samples/ChainlinkFunctions/FunctionsConsumerExample.sol\":728:755  bytes public s_lastResponse */\n    tag_4:\n      tag_17\n      tag_18\n      jump\t// in\n    tag_17:\n      mload(0x40)\n      tag_19\n      swap2\n      swap1\n      tag_20\n      jump\t// in\n    tag_19:\n      mload(0x40)\n      dup1\n      swap2\n      sub\n      swap1\n      return\n        /* \"docs.chain.link/samples/ChainlinkFunctions/FunctionsConsumerExample.sol\":761:785  bytes public s_lastError */\n    tag_5:\n      tag_21\n      tag_22\n      jump\t// in\n    tag_21:\n      mload(0x40)\n      tag_23\n      swap2\n      swap1\n      tag_20\n      jump\t// in\n    tag_23:\n      mload(0x40)\n      dup1\n      swap2\n      sub\n      swap1\n      return\n        /* \"docs.chain.link/samples/ChainlinkFunctions/FunctionsConsumerExample.sol\":1515:2579  function sendRequest(... */\n    tag_6:\n      tag_24\n      0x04\n      dup1\n      calldatasize\n      sub\n      dup2\n      add\n      swap1\n      tag_25\n      swap2\n      swap1\n      tag_26\n      jump\t// in\n    tag_25:\n      tag_27\n      jump\t// in\n    tag_24:\n      mload(0x40)\n      tag_28\n      swap2\n      swap1\n      tag_29\n      jump\t// in\n    tag_28:\n      mload(0x40)\n      dup1\n      swap2\n      sub\n      swap1\n      return\n        /* \"@chainlink/contracts@1.2.0/src/v0.8/shared/access/ConfirmedOwnerWithProposal.sol\":1026:1342  function acceptOwnership() external override {... */\n    tag_7:\n      tag_30\n      tag_31\n      jump\t// in\n    tag_30:\n      stop\n        /* \"@chainlink/contracts@1.2.0/src/v0.8/shared/access/ConfirmedOwnerWithProposal.sol\":1382:1463  function owner() public view override returns (address) {... */\n    tag_8:\n      tag_32\n      tag_33\n      jump\t// in\n    tag_32:\n      mload(0x40)\n      tag_34\n      swap2\n      swap1\n      tag_35\n      jump\t// in\n    tag_34:\n      mload(0x40)\n      dup1\n      swap2\n      sub\n      swap1\n      return\n        /* \"docs.chain.link/samples/ChainlinkFunctions/FunctionsConsumerExample.sol\":2909:3275  function sendRequestCBOR(... */\n    tag_9:\n      tag_36\n      0x04\n      dup1\n      calldatasize\n      sub\n      dup2\n      add\n      swap1\n      tag_37\n      swap2\n      swap1\n      tag_38\n      jump\t// in\n    tag_37:\n      tag_39\n      jump\t// in\n    tag_36:\n      mload(0x40)\n      tag_40\n      swap2\n      swap1\n      tag_29\n      jump\t// in\n    tag_40:\n      mload(0x40)\n      dup1\n      swap2\n      sub\n      swap1\n      return\n        /* \"docs.chain.link/samples/ChainlinkFunctions/FunctionsConsumerExample.sol\":692:722  bytes32 public s_lastRequestId */\n    tag_10:\n      tag_41\n      tag_42\n      jump\t// in\n    tag_41:\n      mload(0x40)\n      tag_43\n      swap2\n      swap1\n      tag_29\n      jump\t// in\n    tag_43:\n      mload(0x40)\n      dup1\n      swap2\n      sub\n      swap1\n      return\n        /* \"@chainlink/contracts@1.2.0/src/v0.8/shared/access/ConfirmedOwnerWithProposal.sol\":847:945  function transferOwnership(address to) public override onlyOwner {... */\n    tag_11:\n      tag_44\n      0x04\n      dup1\n      calldatasize\n      sub\n      dup2\n      add\n      swap1\n      tag_45\n      swap2\n      swap1\n      tag_46\n      jump\t// in\n    tag_45:\n      tag_47\n      jump\t// in\n    tag_44:\n      stop\n        /* \"@chainlink/contracts@1.2.0/src/v0.8/functions/v1_0_0/FunctionsClient.sol\":2078:2364  function handleOracleFulfillment(bytes32 requestId, bytes memory response, bytes memory err) external override {... */\n    tag_16:\n        /* \"@chainlink/contracts@1.2.0/src/v0.8/functions/v1_0_0/FunctionsClient.sol\":2221:2229  i_router */\n      immutable(\"0x8e8fab5f003314da8d1873ea7720e8d9f47650136d916064d1edb8a11d682624\")\n        /* \"@chainlink/contracts@1.2.0/src/v0.8/functions/v1_0_0/FunctionsClient.sol\":2199:2230  msg.sender != address(i_router) */\n      0xffffffffffffffffffffffffffffffffffffffff\n      and\n        /* \"@chainlink/contracts@1.2.0/src/v0.8/functions/v1_0_0/FunctionsClient.sol\":2199:2209  msg.sender */\n      caller\n        /* \"@chainlink/contracts@1.2.0/src/v0.8/functions/v1_0_0/FunctionsClient.sol\":2199:2230  msg.sender != address(i_router) */\n      0xffffffffffffffffffffffffffffffffffffffff\n      and\n      eq\n        /* \"@chainlink/contracts@1.2.0/src/v0.8/functions/v1_0_0/FunctionsClient.sol\":2195:2276  if (msg.sender != address(i_router)) {... */\n      tag_49\n      jumpi\n        /* \"@chainlink/contracts@1.2.0/src/v0.8/functions/v1_0_0/FunctionsClient.sol\":2247:2269  OnlyRouterCanFulfill() */\n      mload(0x40)\n      0xc6829f8300000000000000000000000000000000000000000000000000000000\n      dup2\n      mstore\n      0x04\n      add\n      mload(0x40)\n      dup1\n      swap2\n      sub\n      swap1\n      revert\n        /* \"@chainlink/contracts@1.2.0/src/v0.8/functions/v1_0_0/FunctionsClient.sol\":2195:2276  if (msg.sender != address(i_router)) {... */\n    tag_49:\n        /* \"@chainlink/contracts@1.2.0/src/v0.8/functions/v1_0_0/FunctionsClient.sol\":2281:2321  fulfillRequest(requestId, response, err) */\n      tag_50\n        /* \"@chainlink/contracts@1.2.0/src/v0.8/functions/v1_0_0/FunctionsClient.sol\":2296:2305  requestId */\n      dup4\n        /* \"@chainlink/contracts@1.2.0/src/v0.8/functions/v1_0_0/FunctionsClient.sol\":2307:2315  response */\n      dup4\n        /* \"@chainlink/contracts@1.2.0/src/v0.8/functions/v1_0_0/FunctionsClient.sol\":2317:2320  err */\n      dup4\n        /* \"@chainlink/contracts@1.2.0/src/v0.8/functions/v1_0_0/FunctionsClient.sol\":2281:2295  fulfillRequest */\n      tag_51\n        /* \"@chainlink/contracts@1.2.0/src/v0.8/functions/v1_0_0/FunctionsClient.sol\":2281:2321  fulfillRequest(requestId, response, err) */\n      jump\t// in\n    tag_50:\n        /* \"@chainlink/contracts@1.2.0/src/v0.8/functions/v1_0_0/FunctionsClient.sol\":2349:2358  requestId */\n      dup3\n        /* \"@chainlink/contracts@1.2.0/src/v0.8/functions/v1_0_0/FunctionsClient.sol\":2332:2359  RequestFulfilled(requestId) */\n      0x85e1543bf2f84fe80c6badbce3648c8539ad1df4d2b3d822938ca0538be727e6\n      mload(0x40)\n      mload(0x40)\n      dup1\n      swap2\n      sub\n      swap1\n      log2\n        /* \"@chainlink/contracts@1.2.0/src/v0.8/functions/v1_0_0/FunctionsClient.sol\":2078:2364  function handleOracleFulfillment(bytes32 requestId, bytes memory response, bytes memory err) external override {... */\n      pop\n      pop\n      pop\n      jump\t// out\n        /* \"docs.chain.link/samples/ChainlinkFunctions/FunctionsConsumerExample.sol\":728:755  bytes public s_lastResponse */\n    tag_18:\n      0x03\n      dup1\n      sload\n      tag_52\n      swap1\n      tag_53\n      jump\t// in\n    tag_52:\n      dup1\n      0x1f\n      add\n      0x20\n      dup1\n      swap2\n      div\n      mul\n      0x20\n      add\n      mload(0x40)\n      swap1\n      dup2\n      add\n      0x40\n      mstore\n      dup1\n      swap3\n      swap2\n      swap1\n      dup2\n      dup2\n      mstore\n      0x20\n      add\n      dup3\n      dup1\n      sload\n      tag_54\n      swap1\n      tag_53\n      jump\t// in\n    tag_54:\n      dup1\n      iszero\n      tag_55\n      jumpi\n      dup1\n      0x1f\n      lt\n      tag_56\n      jumpi\n      0x0100\n      dup1\n      dup4\n      sload\n      div\n      mul\n      dup4\n      mstore\n      swap2\n      0x20\n      add\n      swap2\n      jump(tag_55)\n    tag_56:\n      dup3\n      add\n      swap2\n      swap1\n      0x00\n      mstore\n      keccak256(0x00, 0x20)\n      swap1\n    tag_57:\n      dup2\n      sload\n      dup2\n      mstore\n      swap1\n      0x01\n      add\n      swap1\n      0x20\n      add\n      dup1\n      dup4\n      gt\n      tag_57\n      jumpi\n      dup3\n      swap1\n      sub\n      0x1f\n      and\n      dup3\n      add\n      swap2\n    tag_55:\n      pop\n      pop\n      pop\n      pop\n      pop\n      dup2\n      jump\t// out\n        /* \"docs.chain.link/samples/ChainlinkFunctions/FunctionsConsumerExample.sol\":761:785  bytes public s_lastError */\n    tag_22:\n      0x04\n      dup1\n      sload\n      tag_58\n      swap1\n      tag_53\n      jump\t// in\n    tag_58:\n      dup1\n      0x1f\n      add\n      0x20\n      dup1\n      swap2\n      div\n      mul\n      0x20\n      add\n      mload(0x40)\n      swap1\n      dup2\n      add\n      0x40\n      mstore\n      dup1\n      swap3\n      swap2\n      swap1\n      dup2\n      dup2\n      mstore\n      0x20\n      add\n      dup3\n      dup1\n      sload\n      tag_59\n      swap1\n      tag_53\n      jump\t// in\n    tag_59:\n      dup1\n      iszero\n      tag_60\n      jumpi\n      dup1\n      0x1f\n      lt\n      tag_61\n      jumpi\n      0x0100\n      dup1\n      dup4\n      sload\n      div\n      mul\n      dup4\n      mstore\n      swap2\n      0x20\n      add\n      swap2\n      jump(tag_60)\n    tag_61:\n      dup3\n      add\n      swap2\n      swap1\n      0x00\n      mstore\n      keccak256(0x00, 0x20)\n      swap1\n    tag_62:\n      dup2\n      sload\n      dup2\n      mstore\n      swap1\n      0x01\n      add\n      swap1\n      0x20\n      add\n      dup1\n      dup4\n      gt\n      tag_62\n      jumpi\n      dup3\n      swap1\n      sub\n      0x1f\n      and\n      dup3\n      add\n      swap2\n    tag_60:\n      pop\n      pop\n      pop\n      pop\n      pop\n      dup2\n      jump\t// out\n        /* \"docs.chain.link/samples/ChainlinkFunctions/FunctionsConsumerExample.sol\":1515:2579  function sendRequest(... */\n    tag_27:\n        /* \"docs.chain.link/samples/ChainlinkFunctions/FunctionsConsumerExample.sol\":1864:1881  bytes32 requestId */\n      0x00\n        /* \"@chainlink/contracts@1.2.0/src/v0.8/shared/access/ConfirmedOwnerWithProposal.sol\":2075:2095  _validateOwnership() */\n      tag_64\n        /* \"@chainlink/contracts@1.2.0/src/v0.8/shared/access/ConfirmedOwnerWithProposal.sol\":2075:2093  _validateOwnership */\n      tag_65\n        /* \"@chainlink/contracts@1.2.0/src/v0.8/shared/access/ConfirmedOwnerWithProposal.sol\":2075:2095  _validateOwnership() */\n      jump\t// in\n    tag_64:\n        /* \"docs.chain.link/samples/ChainlinkFunctions/FunctionsConsumerExample.sol\":1893:1928  FunctionsRequest.Request memory req */\n      tag_67\n      tag_68\n      jump\t// in\n    tag_67:\n        /* \"docs.chain.link/samples/ChainlinkFunctions/FunctionsConsumerExample.sol\":1938:1986  req.initializeRequestForInlineJavaScript(source) */\n      tag_69\n        /* \"docs.chain.link/samples/ChainlinkFunctions/FunctionsConsumerExample.sol\":1979:1985  source */\n      dup12\n        /* \"docs.chain.link/samples/ChainlinkFunctions/FunctionsConsumerExample.sol\":1938:1941  req */\n      dup3\n        /* \"docs.chain.link/samples/ChainlinkFunctions/FunctionsConsumerExample.sol\":1938:1978  req.initializeRequestForInlineJavaScript */\n      tag_70\n      swap1\n        /* \"docs.chain.link/samples/ChainlinkFunctions/FunctionsConsumerExample.sol\":1938:1986  req.initializeRequestForInlineJavaScript(source) */\n      swap2\n      swap1\n      0xffffffff\n      and\n      jump\t// in\n    tag_69:\n        /* \"docs.chain.link/samples/ChainlinkFunctions/FunctionsConsumerExample.sol\":2030:2031  0 */\n      0x00\n        /* \"docs.chain.link/samples/ChainlinkFunctions/FunctionsConsumerExample.sol\":2000:2020  encryptedSecretsUrls */\n      dup11\n        /* \"docs.chain.link/samples/ChainlinkFunctions/FunctionsConsumerExample.sol\":2000:2027  encryptedSecretsUrls.length */\n      mload\n        /* \"docs.chain.link/samples/ChainlinkFunctions/FunctionsConsumerExample.sol\":2000:2031  encryptedSecretsUrls.length > 0 */\n      gt\n        /* \"docs.chain.link/samples/ChainlinkFunctions/FunctionsConsumerExample.sol\":1996:2281  if (encryptedSecretsUrls.length > 0)... */\n      iszero\n      tag_71\n      jumpi\n        /* \"docs.chain.link/samples/ChainlinkFunctions/FunctionsConsumerExample.sol\":2045:2090  req.addSecretsReference(encryptedSecretsUrls) */\n      tag_72\n        /* \"docs.chain.link/samples/ChainlinkFunctions/FunctionsConsumerExample.sol\":2069:2089  encryptedSecretsUrls */\n      dup11\n        /* \"docs.chain.link/samples/ChainlinkFunctions/FunctionsConsumerExample.sol\":2045:2048  req */\n      dup3\n        /* \"docs.chain.link/samples/ChainlinkFunctions/FunctionsConsumerExample.sol\":2045:2068  req.addSecretsReference */\n      tag_73\n      swap1\n        /* \"docs.chain.link/samples/ChainlinkFunctions/FunctionsConsumerExample.sol\":2045:2090  req.addSecretsReference(encryptedSecretsUrls) */\n      swap2\n      swap1\n      0xffffffff\n      and\n      jump\t// in\n    tag_72:\n        /* \"docs.chain.link/samples/ChainlinkFunctions/FunctionsConsumerExample.sol\":1996:2281  if (encryptedSecretsUrls.length > 0)... */\n      jump(tag_74)\n    tag_71:\n        /* \"docs.chain.link/samples/ChainlinkFunctions/FunctionsConsumerExample.sol\":2135:2136  0 */\n      0x00\n        /* \"docs.chain.link/samples/ChainlinkFunctions/FunctionsConsumerExample.sol\":2109:2132  donHostedSecretsVersion */\n      dup9\n        /* \"docs.chain.link/samples/ChainlinkFunctions/FunctionsConsumerExample.sol\":2109:2136  donHostedSecretsVersion > 0 */\n      0xffffffffffffffff\n      and\n      gt\n        /* \"docs.chain.link/samples/ChainlinkFunctions/FunctionsConsumerExample.sol\":2105:2281  if (donHostedSecretsVersion > 0) {... */\n      iszero\n      tag_75\n      jumpi\n        /* \"docs.chain.link/samples/ChainlinkFunctions/FunctionsConsumerExample.sol\":2152:2270  req.addDONHostedSecrets(... */\n      tag_76\n        /* \"docs.chain.link/samples/ChainlinkFunctions/FunctionsConsumerExample.sol\":2193:2215  donHostedSecretsSlotID */\n      dup10\n        /* \"docs.chain.link/samples/ChainlinkFunctions/FunctionsConsumerExample.sol\":2233:2256  donHostedSecretsVersion */\n      dup10\n        /* \"docs.chain.link/samples/ChainlinkFunctions/FunctionsConsumerExample.sol\":2152:2155  req */\n      dup4\n        /* \"docs.chain.link/samples/ChainlinkFunctions/FunctionsConsumerExample.sol\":2152:2175  req.addDONHostedSecrets */\n      tag_77\n      swap1\n        /* \"docs.chain.link/samples/ChainlinkFunctions/FunctionsConsumerExample.sol\":2152:2270  req.addDONHostedSecrets(... */\n      swap3\n      swap2\n      swap1\n      0xffffffff\n      and\n      jump\t// in\n    tag_76:\n        /* \"docs.chain.link/samples/ChainlinkFunctions/FunctionsConsumerExample.sol\":2105:2281  if (donHostedSecretsVersion > 0) {... */\n    tag_75:\n        /* \"docs.chain.link/samples/ChainlinkFunctions/FunctionsConsumerExample.sol\":1996:2281  if (encryptedSecretsUrls.length > 0)... */\n    tag_74:\n        /* \"docs.chain.link/samples/ChainlinkFunctions/FunctionsConsumerExample.sol\":2308:2309  0 */\n      0x00\n        /* \"docs.chain.link/samples/ChainlinkFunctions/FunctionsConsumerExample.sol\":2294:2298  args */\n      dup8\n        /* \"docs.chain.link/samples/ChainlinkFunctions/FunctionsConsumerExample.sol\":2294:2305  args.length */\n      mload\n        /* \"docs.chain.link/samples/ChainlinkFunctions/FunctionsConsumerExample.sol\":2294:2309  args.length > 0 */\n      gt\n        /* \"docs.chain.link/samples/ChainlinkFunctions/FunctionsConsumerExample.sol\":2290:2328  if (args.length > 0) req.setArgs(args) */\n      iszero\n      tag_78\n      jumpi\n        /* \"docs.chain.link/samples/ChainlinkFunctions/FunctionsConsumerExample.sol\":2311:2328  req.setArgs(args) */\n      tag_79\n        /* \"docs.chain.link/samples/ChainlinkFunctions/FunctionsConsumerExample.sol\":2323:2327  args */\n      dup8\n        /* \"docs.chain.link/samples/ChainlinkFunctions/FunctionsConsumerExample.sol\":2311:2314  req */\n      dup3\n        /* \"docs.chain.link/samples/ChainlinkFunctions/FunctionsConsumerExample.sol\":2311:2322  req.setArgs */\n      tag_80\n      swap1\n        /* \"docs.chain.link/samples/ChainlinkFunctions/FunctionsConsumerExample.sol\":2311:2328  req.setArgs(args) */\n      swap2\n      swap1\n      0xffffffff\n      and\n      jump\t// in\n    tag_79:\n        /* \"docs.chain.link/samples/ChainlinkFunctions/FunctionsConsumerExample.sol\":2290:2328  if (args.length > 0) req.setArgs(args) */\n    tag_78:\n        /* \"docs.chain.link/samples/ChainlinkFunctions/FunctionsConsumerExample.sol\":2361:2362  0 */\n      0x00\n        /* \"docs.chain.link/samples/ChainlinkFunctions/FunctionsConsumerExample.sol\":2342:2351  bytesArgs */\n      dup7\n        /* \"docs.chain.link/samples/ChainlinkFunctions/FunctionsConsumerExample.sol\":2342:2358  bytesArgs.length */\n      mload\n        /* \"docs.chain.link/samples/ChainlinkFunctions/FunctionsConsumerExample.sol\":2342:2362  bytesArgs.length > 0 */\n      gt\n        /* \"docs.chain.link/samples/ChainlinkFunctions/FunctionsConsumerExample.sol\":2338:2391  if (bytesArgs.length > 0) req.setBytesArgs(bytesArgs) */\n      iszero\n      tag_81\n      jumpi\n        /* \"docs.chain.link/samples/ChainlinkFunctions/FunctionsConsumerExample.sol\":2364:2391  req.setBytesArgs(bytesArgs) */\n      tag_82\n        /* \"docs.chain.link/samples/ChainlinkFunctions/FunctionsConsumerExample.sol\":2381:2390  bytesArgs */\n      dup7\n        /* \"docs.chain.link/samples/ChainlinkFunctions/FunctionsConsumerExample.sol\":2364:2367  req */\n      dup3\n        /* \"docs.chain.link/samples/ChainlinkFunctions/FunctionsConsumerExample.sol\":2364:2380  req.setBytesArgs */\n      tag_83\n      swap1\n        /* \"docs.chain.link/samples/ChainlinkFunctions/FunctionsConsumerExample.sol\":2364:2391  req.setBytesArgs(bytesArgs) */\n      swap2\n      swap1\n      0xffffffff\n      and\n      jump\t// in\n    tag_82:\n        /* \"docs.chain.link/samples/ChainlinkFunctions/FunctionsConsumerExample.sol\":2338:2391  if (bytesArgs.length > 0) req.setBytesArgs(bytesArgs) */\n    tag_81:\n        /* \"docs.chain.link/samples/ChainlinkFunctions/FunctionsConsumerExample.sol\":2419:2540  _sendRequest(... */\n      tag_84\n        /* \"docs.chain.link/samples/ChainlinkFunctions/FunctionsConsumerExample.sol\":2445:2461  req.encodeCBOR() */\n      tag_85\n        /* \"docs.chain.link/samples/ChainlinkFunctions/FunctionsConsumerExample.sol\":2445:2448  req */\n      dup3\n        /* \"docs.chain.link/samples/ChainlinkFunctions/FunctionsConsumerExample.sol\":2445:2459  req.encodeCBOR */\n      tag_86\n        /* \"docs.chain.link/samples/ChainlinkFunctions/FunctionsConsumerExample.sol\":2445:2461  req.encodeCBOR() */\n      jump\t// in\n    tag_85:\n        /* \"docs.chain.link/samples/ChainlinkFunctions/FunctionsConsumerExample.sol\":2475:2489  subscriptionId */\n      dup7\n        /* \"docs.chain.link/samples/ChainlinkFunctions/FunctionsConsumerExample.sol\":2503:2511  gasLimit */\n      dup7\n        /* \"docs.chain.link/samples/ChainlinkFunctions/FunctionsConsumerExample.sol\":2525:2530  donID */\n      dup7\n        /* \"docs.chain.link/samples/ChainlinkFunctions/FunctionsConsumerExample.sol\":2419:2431  _sendRequest */\n      tag_87\n        /* \"docs.chain.link/samples/ChainlinkFunctions/FunctionsConsumerExample.sol\":2419:2540  _sendRequest(... */\n      jump\t// in\n    tag_84:\n        /* \"docs.chain.link/samples/ChainlinkFunctions/FunctionsConsumerExample.sol\":2401:2416  s_lastRequestId */\n      0x02\n        /* \"docs.chain.link/samples/ChainlinkFunctions/FunctionsConsumerExample.sol\":2401:2540  s_lastRequestId = _sendRequest(... */\n      dup2\n      swap1\n      sstore\n      pop\n        /* \"docs.chain.link/samples/ChainlinkFunctions/FunctionsConsumerExample.sol\":2557:2572  s_lastRequestId */\n      sload(0x02)\n        /* \"docs.chain.link/samples/ChainlinkFunctions/FunctionsConsumerExample.sol\":2550:2572  return s_lastRequestId */\n      swap2\n      pop\n      pop\n        /* \"docs.chain.link/samples/ChainlinkFunctions/FunctionsConsumerExample.sol\":1515:2579  function sendRequest(... */\n      swap10\n      swap9\n      pop\n      pop\n      pop\n      pop\n      pop\n      pop\n      pop\n      pop\n      pop\n      jump\t// out\n        /* \"@chainlink/contracts@1.2.0/src/v0.8/shared/access/ConfirmedOwnerWithProposal.sol\":1026:1342  function acceptOwnership() external override {... */\n    tag_31:\n        /* \"@chainlink/contracts@1.2.0/src/v0.8/shared/access/ConfirmedOwnerWithProposal.sol\":1150:1164  s_pendingOwner */\n      0x01\n      0x00\n      swap1\n      sload\n      swap1\n      0x0100\n      exp\n      swap1\n      div\n      0xffffffffffffffffffffffffffffffffffffffff\n      and\n        /* \"@chainlink/contracts@1.2.0/src/v0.8/shared/access/ConfirmedOwnerWithProposal.sol\":1136:1164  msg.sender == s_pendingOwner */\n      0xffffffffffffffffffffffffffffffffffffffff\n      and\n        /* \"@chainlink/contracts@1.2.0/src/v0.8/shared/access/ConfirmedOwnerWithProposal.sol\":1136:1146  msg.sender */\n      caller\n        /* \"@chainlink/contracts@1.2.0/src/v0.8/shared/access/ConfirmedOwnerWithProposal.sol\":1136:1164  msg.sender == s_pendingOwner */\n      0xffffffffffffffffffffffffffffffffffffffff\n      and\n      eq\n        /* \"@chainlink/contracts@1.2.0/src/v0.8/shared/access/ConfirmedOwnerWithProposal.sol\":1128:1191  require(msg.sender == s_pendingOwner, \"Must be proposed owner\") */\n      tag_89\n      jumpi\n      mload(0x40)\n      0x08c379a000000000000000000000000000000000000000000000000000000000\n      dup2\n      mstore\n      0x04\n      add\n      tag_90\n      swap1\n      tag_91\n      jump\t// in\n    tag_90:\n      mload(0x40)\n      dup1\n      swap2\n      sub\n      swap1\n      revert\n    tag_89:\n        /* \"@chainlink/contracts@1.2.0/src/v0.8/shared/access/ConfirmedOwnerWithProposal.sol\":1198:1214  address oldOwner */\n      0x00\n        /* \"@chainlink/contracts@1.2.0/src/v0.8/shared/access/ConfirmedOwnerWithProposal.sol\":1217:1224  s_owner */\n      dup1\n      0x00\n      swap1\n      sload\n      swap1\n      0x0100\n      exp\n      swap1\n      div\n      0xffffffffffffffffffffffffffffffffffffffff\n      and\n        /* \"@chainlink/contracts@1.2.0/src/v0.8/shared/access/ConfirmedOwnerWithProposal.sol\":1198:1224  address oldOwner = s_owner */\n      swap1\n      pop\n        /* \"@chainlink/contracts@1.2.0/src/v0.8/shared/access/ConfirmedOwnerWithProposal.sol\":1240:1250  msg.sender */\n      caller\n        /* \"@chainlink/contracts@1.2.0/src/v0.8/shared/access/ConfirmedOwnerWithProposal.sol\":1230:1237  s_owner */\n      0x00\n      dup1\n        /* \"@chainlink/contracts@1.2.0/src/v0.8/shared/access/ConfirmedOwnerWithProposal.sol\":1230:1250  s_owner = msg.sender */\n      0x0100\n      exp\n      dup2\n      sload\n      dup2\n      0xffffffffffffffffffffffffffffffffffffffff\n      mul\n      not\n      and\n      swap1\n      dup4\n      0xffffffffffffffffffffffffffffffffffffffff\n      and\n      mul\n      or\n      swap1\n      sstore\n      pop\n        /* \"@chainlink/contracts@1.2.0/src/v0.8/shared/access/ConfirmedOwnerWithProposal.sol\":1281:1282  0 */\n      0x00\n        /* \"@chainlink/contracts@1.2.0/src/v0.8/shared/access/ConfirmedOwnerWithProposal.sol\":1256:1270  s_pendingOwner */\n      0x01\n      0x00\n        /* \"@chainlink/contracts@1.2.0/src/v0.8/shared/access/ConfirmedOwnerWithProposal.sol\":1256:1283  s_pendingOwner = address(0) */\n      0x0100\n      exp\n      dup2\n      sload\n      dup2\n      0xffffffffffffffffffffffffffffffffffffffff\n      mul\n      not\n      and\n      swap1\n      dup4\n      0xffffffffffffffffffffffffffffffffffffffff\n      and\n      mul\n      or\n      swap1\n      sstore\n      pop\n        /* \"@chainlink/contracts@1.2.0/src/v0.8/shared/access/ConfirmedOwnerWithProposal.sol\":1326:1336  msg.sender */\n      caller\n        /* \"@chainlink/contracts@1.2.0/src/v0.8/shared/access/ConfirmedOwnerWithProposal.sol\":1295:1337  OwnershipTransferred(oldOwner, msg.sender) */\n      0xffffffffffffffffffffffffffffffffffffffff\n      and\n        /* \"@chainlink/contracts@1.2.0/src/v0.8/shared/access/ConfirmedOwnerWithProposal.sol\":1316:1324  oldOwner */\n      dup2\n        /* \"@chainlink/contracts@1.2.0/src/v0.8/shared/access/ConfirmedOwnerWithProposal.sol\":1295:1337  OwnershipTransferred(oldOwner, msg.sender) */\n      0xffffffffffffffffffffffffffffffffffffffff\n      and\n      0x8be0079c531659141344cd1fd0a4f28419497f9722a3daafe3b4186f6b6457e0\n      mload(0x40)\n      mload(0x40)\n      dup1\n      swap2\n      sub\n      swap1\n      log3\n        /* \"@chainlink/contracts@1.2.0/src/v0.8/shared/access/ConfirmedOwnerWithProposal.sol\":1071:1342  {... */\n      pop\n        /* \"@chainlink/contracts@1.2.0/src/v0.8/shared/access/ConfirmedOwnerWithProposal.sol\":1026:1342  function acceptOwnership() external override {... */\n      jump\t// out\n        /* \"@chainlink/contracts@1.2.0/src/v0.8/shared/access/ConfirmedOwnerWithProposal.sol\":1382:1463  function owner() public view override returns (address) {... */\n    tag_33:\n        /* \"@chainlink/contracts@1.2.0/src/v0.8/shared/access/ConfirmedOwnerWithProposal.sol\":1429:1436  address */\n      0x00\n        /* \"@chainlink/contracts@1.2.0/src/v0.8/shared/access/ConfirmedOwnerWithProposal.sol\":1451:1458  s_owner */\n      dup1\n      0x00\n      swap1\n      sload\n      swap1\n      0x0100\n      exp\n      swap1\n      div\n      0xffffffffffffffffffffffffffffffffffffffff\n      and\n        /* \"@chainlink/contracts@1.2.0/src/v0.8/shared/access/ConfirmedOwnerWithProposal.sol\":1444:1458  return s_owner */\n      swap1\n      pop\n        /* \"@chainlink/contracts@1.2.0/src/v0.8/shared/access/ConfirmedOwnerWithProposal.sol\":1382:1463  function owner() public view override returns (address) {... */\n      swap1\n      jump\t// out\n        /* \"docs.chain.link/samples/ChainlinkFunctions/FunctionsConsumerExample.sol\":2909:3275  function sendRequestCBOR(... */\n    tag_39:\n        /* \"docs.chain.link/samples/ChainlinkFunctions/FunctionsConsumerExample.sol\":3077:3094  bytes32 requestId */\n      0x00\n        /* \"@chainlink/contracts@1.2.0/src/v0.8/shared/access/ConfirmedOwnerWithProposal.sol\":2075:2095  _validateOwnership() */\n      tag_94\n        /* \"@chainlink/contracts@1.2.0/src/v0.8/shared/access/ConfirmedOwnerWithProposal.sol\":2075:2093  _validateOwnership */\n      tag_65\n        /* \"@chainlink/contracts@1.2.0/src/v0.8/shared/access/ConfirmedOwnerWithProposal.sol\":2075:2095  _validateOwnership() */\n      jump\t// in\n    tag_94:\n        /* \"docs.chain.link/samples/ChainlinkFunctions/FunctionsConsumerExample.sol\":3124:3236  _sendRequest(... */\n      tag_96\n        /* \"docs.chain.link/samples/ChainlinkFunctions/FunctionsConsumerExample.sol\":3150:3157  request */\n      dup6\n        /* \"docs.chain.link/samples/ChainlinkFunctions/FunctionsConsumerExample.sol\":3171:3185  subscriptionId */\n      dup6\n        /* \"docs.chain.link/samples/ChainlinkFunctions/FunctionsConsumerExample.sol\":3199:3207  gasLimit */\n      dup6\n        /* \"docs.chain.link/samples/ChainlinkFunctions/FunctionsConsumerExample.sol\":3221:3226  donID */\n      dup6\n        /* \"docs.chain.link/samples/ChainlinkFunctions/FunctionsConsumerExample.sol\":3124:3136  _sendRequest */\n      tag_87\n        /* \"docs.chain.link/samples/ChainlinkFunctions/FunctionsConsumerExample.sol\":3124:3236  _sendRequest(... */\n      jump\t// in\n    tag_96:\n        /* \"docs.chain.link/samples/ChainlinkFunctions/FunctionsConsumerExample.sol\":3106:3121  s_lastRequestId */\n      0x02\n        /* \"docs.chain.link/samples/ChainlinkFunctions/FunctionsConsumerExample.sol\":3106:3236  s_lastRequestId = _sendRequest(... */\n      dup2\n      swap1\n      sstore\n      pop\n        /* \"docs.chain.link/samples/ChainlinkFunctions/FunctionsConsumerExample.sol\":3253:3268  s_lastRequestId */\n      sload(0x02)\n        /* \"docs.chain.link/samples/ChainlinkFunctions/FunctionsConsumerExample.sol\":3246:3268  return s_lastRequestId */\n      swap1\n      pop\n        /* \"docs.chain.link/samples/ChainlinkFunctions/FunctionsConsumerExample.sol\":2909:3275  function sendRequestCBOR(... */\n      swap5\n      swap4\n      pop\n      pop\n      pop\n      pop\n      jump\t// out\n        /* \"docs.chain.link/samples/ChainlinkFunctions/FunctionsConsumerExample.sol\":692:722  bytes32 public s_lastRequestId */\n    tag_42:\n      sload(0x02)\n      dup2\n      jump\t// out\n        /* \"@chainlink/contracts@1.2.0/src/v0.8/shared/access/ConfirmedOwnerWithProposal.sol\":847:945  function transferOwnership(address to) public override onlyOwner {... */\n    tag_47:\n        /* \"@chainlink/contracts@1.2.0/src/v0.8/shared/access/ConfirmedOwnerWithProposal.sol\":2075:2095  _validateOwnership() */\n      tag_98\n        /* \"@chainlink/contracts@1.2.0/src/v0.8/shared/access/ConfirmedOwnerWithProposal.sol\":2075:2093  _validateOwnership */\n      tag_65\n        /* \"@chainlink/contracts@1.2.0/src/v0.8/shared/access/ConfirmedOwnerWithProposal.sol\":2075:2095  _validateOwnership() */\n      jump\t// in\n    tag_98:\n        /* \"@chainlink/contracts@1.2.0/src/v0.8/shared/access/ConfirmedOwnerWithProposal.sol\":918:940  _transferOwnership(to) */\n      tag_100\n        /* \"@chainlink/contracts@1.2.0/src/v0.8/shared/access/ConfirmedOwnerWithProposal.sol\":937:939  to */\n      dup2\n        /* \"@chainlink/contracts@1.2.0/src/v0.8/shared/access/ConfirmedOwnerWithProposal.sol\":918:936  _transferOwnership */\n      tag_101\n        /* \"@chainlink/contracts@1.2.0/src/v0.8/shared/access/ConfirmedOwnerWithProposal.sol\":918:940  _transferOwnership(to) */\n      jump\t// in\n    tag_100:\n        /* \"@chainlink/contracts@1.2.0/src/v0.8/shared/access/ConfirmedOwnerWithProposal.sol\":847:945  function transferOwnership(address to) public override onlyOwner {... */\n      pop\n      jump\t// out\n        /* \"docs.chain.link/samples/ChainlinkFunctions/FunctionsConsumerExample.sol\":3621:3990  function fulfillRequest(... */\n    tag_51:\n        /* \"docs.chain.link/samples/ChainlinkFunctions/FunctionsConsumerExample.sol\":3786:3795  requestId */\n      dup3\n        /* \"docs.chain.link/samples/ChainlinkFunctions/FunctionsConsumerExample.sol\":3767:3782  s_lastRequestId */\n      sload(0x02)\n        /* \"docs.chain.link/samples/ChainlinkFunctions/FunctionsConsumerExample.sol\":3767:3795  s_lastRequestId != requestId */\n      eq\n        /* \"docs.chain.link/samples/ChainlinkFunctions/FunctionsConsumerExample.sol\":3763:3859  if (s_lastRequestId != requestId) {... */\n      tag_103\n      jumpi\n        /* \"docs.chain.link/samples/ChainlinkFunctions/FunctionsConsumerExample.sol\":3838:3847  requestId */\n      dup3\n        /* \"docs.chain.link/samples/ChainlinkFunctions/FunctionsConsumerExample.sol\":3818:3848  UnexpectedRequestID(requestId) */\n      mload(0x40)\n      0xd068bf5b00000000000000000000000000000000000000000000000000000000\n      dup2\n      mstore\n      0x04\n      add\n      tag_104\n      swap2\n      swap1\n      tag_29\n      jump\t// in\n    tag_104:\n      mload(0x40)\n      dup1\n      swap2\n      sub\n      swap1\n      revert\n        /* \"docs.chain.link/samples/ChainlinkFunctions/FunctionsConsumerExample.sol\":3763:3859  if (s_lastRequestId != requestId) {... */\n    tag_103:\n        /* \"docs.chain.link/samples/ChainlinkFunctions/FunctionsConsumerExample.sol\":3885:3893  response */\n      dup2\n        /* \"docs.chain.link/samples/ChainlinkFunctions/FunctionsConsumerExample.sol\":3868:3882  s_lastResponse */\n      0x03\n        /* \"docs.chain.link/samples/ChainlinkFunctions/FunctionsConsumerExample.sol\":3868:3893  s_lastResponse = response */\n      swap1\n      dup2\n      tag_105\n      swap2\n      swap1\n      tag_106\n      jump\t// in\n    tag_105:\n      pop\n        /* \"docs.chain.link/samples/ChainlinkFunctions/FunctionsConsumerExample.sol\":3917:3920  err */\n      dup1\n        /* \"docs.chain.link/samples/ChainlinkFunctions/FunctionsConsumerExample.sol\":3903:3914  s_lastError */\n      0x04\n        /* \"docs.chain.link/samples/ChainlinkFunctions/FunctionsConsumerExample.sol\":3903:3920  s_lastError = err */\n      swap1\n      dup2\n      tag_107\n      swap2\n      swap1\n      tag_106\n      jump\t// in\n    tag_107:\n      pop\n        /* \"docs.chain.link/samples/ChainlinkFunctions/FunctionsConsumerExample.sol\":3944:3953  requestId */\n      dup3\n        /* \"docs.chain.link/samples/ChainlinkFunctions/FunctionsConsumerExample.sol\":3935:3983  Response(requestId, s_lastResponse, s_lastError) */\n      0x7873807bf6ddc50401cd3d29bbe0decee23fd4d68d273f4b5eb83cded4d2f172\n        /* \"docs.chain.link/samples/ChainlinkFunctions/FunctionsConsumerExample.sol\":3955:3969  s_lastResponse */\n      0x03\n        /* \"docs.chain.link/samples/ChainlinkFunctions/FunctionsConsumerExample.sol\":3971:3982  s_lastError */\n      0x04\n        /* \"docs.chain.link/samples/ChainlinkFunctions/FunctionsConsumerExample.sol\":3935:3983  Response(requestId, s_lastResponse, s_lastError) */\n      mload(0x40)\n      tag_108\n      swap3\n      swap2\n      swap1\n      tag_109\n      jump\t// in\n    tag_108:\n      mload(0x40)\n      dup1\n      swap2\n      sub\n      swap1\n      log2\n        /* \"docs.chain.link/samples/ChainlinkFunctions/FunctionsConsumerExample.sol\":3621:3990  function fulfillRequest(... */\n      pop\n      pop\n      pop\n      jump\t// out\n        /* \"@chainlink/contracts@1.2.0/src/v0.8/shared/access/ConfirmedOwnerWithProposal.sol\":1809:1971  function _validateOwnership() internal view {... */\n    tag_65:\n        /* \"@chainlink/contracts@1.2.0/src/v0.8/shared/access/ConfirmedOwnerWithProposal.sol\":1932:1939  s_owner */\n      0x00\n      dup1\n      sload\n      swap1\n      0x0100\n      exp\n      swap1\n      div\n      0xffffffffffffffffffffffffffffffffffffffff\n      and\n        /* \"@chainlink/contracts@1.2.0/src/v0.8/shared/access/ConfirmedOwnerWithProposal.sol\":1918:1939  msg.sender == s_owner */\n      0xffffffffffffffffffffffffffffffffffffffff\n      and\n        /* \"@chainlink/contracts@1.2.0/src/v0.8/shared/access/ConfirmedOwnerWithProposal.sol\":1918:1928  msg.sender */\n      caller\n        /* \"@chainlink/contracts@1.2.0/src/v0.8/shared/access/ConfirmedOwnerWithProposal.sol\":1918:1939  msg.sender == s_owner */\n      0xffffffffffffffffffffffffffffffffffffffff\n      and\n      eq\n        /* \"@chainlink/contracts@1.2.0/src/v0.8/shared/access/ConfirmedOwnerWithProposal.sol\":1910:1966  require(msg.sender == s_owner, \"Only callable by owner\") */\n      tag_111\n      jumpi\n      mload(0x40)\n      0x08c379a000000000000000000000000000000000000000000000000000000000\n      dup2\n      mstore\n      0x04\n      add\n      tag_112\n      swap1\n      tag_113\n      jump\t// in\n    tag_112:\n      mload(0x40)\n      dup1\n      swap2\n      sub\n      swap1\n      revert\n    tag_111:\n        /* \"@chainlink/contracts@1.2.0/src/v0.8/shared/access/ConfirmedOwnerWithProposal.sol\":1809:1971  function _validateOwnership() internal view {... */\n      jump\t// out\n        /* \"@chainlink/contracts@1.2.0/src/v0.8/functions/v1_0_0/libraries/FunctionsRequest.sol\":4323:4530  function initializeRequestForInlineJavaScript(Request memory self, string memory javaScriptSource) internal pure {... */\n    tag_70:\n        /* \"@chainlink/contracts@1.2.0/src/v0.8/functions/v1_0_0/libraries/FunctionsRequest.sol\":4442:4525  initializeRequest(self, Location.Inline, CodeLanguage.JavaScript, javaScriptSource) */\n      tag_115\n        /* \"@chainlink/contracts@1.2.0/src/v0.8/functions/v1_0_0/libraries/FunctionsRequest.sol\":4460:4464  self */\n      dup3\n        /* \"@chainlink/contracts@1.2.0/src/v0.8/functions/v1_0_0/libraries/FunctionsRequest.sol\":4466:4481  Location.Inline */\n      0x00\n        /* \"@chainlink/contracts@1.2.0/src/v0.8/functions/v1_0_0/libraries/FunctionsRequest.sol\":4483:4506  CodeLanguage.JavaScript */\n      dup1\n        /* \"@chainlink/contracts@1.2.0/src/v0.8/functions/v1_0_0/libraries/FunctionsRequest.sol\":4508:4524  javaScriptSource */\n      dup5\n        /* \"@chainlink/contracts@1.2.0/src/v0.8/functions/v1_0_0/libraries/FunctionsRequest.sol\":4442:4459  initializeRequest */\n      tag_116\n        /* \"@chainlink/contracts@1.2.0/src/v0.8/functions/v1_0_0/libraries/FunctionsRequest.sol\":4442:4525  initializeRequest(self, Location.Inline, CodeLanguage.JavaScript, javaScriptSource) */\n      jump\t// in\n    tag_115:\n        /* \"@chainlink/contracts@1.2.0/src/v0.8/functions/v1_0_0/libraries/FunctionsRequest.sol\":4323:4530  function initializeRequestForInlineJavaScript(Request memory self, string memory javaScriptSource) internal pure {... */\n      pop\n      pop\n      jump\t// out\n        /* \"@chainlink/contracts@1.2.0/src/v0.8/functions/v1_0_0/libraries/FunctionsRequest.sol\":4748:5036  function addSecretsReference(Request memory self, bytes memory encryptedSecretsReference) internal pure {... */\n    tag_73:\n        /* \"@chainlink/contracts@1.2.0/src/v0.8/functions/v1_0_0/libraries/FunctionsRequest.sol\":4898:4899  0 */\n      0x00\n        /* \"@chainlink/contracts@1.2.0/src/v0.8/functions/v1_0_0/libraries/FunctionsRequest.sol\":4862:4887  encryptedSecretsReference */\n      dup2\n        /* \"@chainlink/contracts@1.2.0/src/v0.8/functions/v1_0_0/libraries/FunctionsRequest.sol\":4862:4894  encryptedSecretsReference.length */\n      mload\n        /* \"@chainlink/contracts@1.2.0/src/v0.8/functions/v1_0_0/libraries/FunctionsRequest.sol\":4862:4899  encryptedSecretsReference.length == 0 */\n      sub\n        /* \"@chainlink/contracts@1.2.0/src/v0.8/functions/v1_0_0/libraries/FunctionsRequest.sol\":4858:4922  if (encryptedSecretsReference.length == 0) revert EmptySecrets() */\n      tag_118\n      jumpi\n        /* \"@chainlink/contracts@1.2.0/src/v0.8/functions/v1_0_0/libraries/FunctionsRequest.sol\":4908:4922  EmptySecrets() */\n      mload(0x40)\n      0xe889636f00000000000000000000000000000000000000000000000000000000\n      dup2\n      mstore\n      0x04\n      add\n      mload(0x40)\n      dup1\n      swap2\n      sub\n      swap1\n      revert\n        /* \"@chainlink/contracts@1.2.0/src/v0.8/functions/v1_0_0/libraries/FunctionsRequest.sol\":4858:4922  if (encryptedSecretsReference.length == 0) revert EmptySecrets() */\n    tag_118:\n        /* \"@chainlink/contracts@1.2.0/src/v0.8/functions/v1_0_0/libraries/FunctionsRequest.sol\":4952:4967  Location.Remote */\n      0x01\n        /* \"@chainlink/contracts@1.2.0/src/v0.8/functions/v1_0_0/libraries/FunctionsRequest.sol\":4929:4933  self */\n      dup3\n        /* \"@chainlink/contracts@1.2.0/src/v0.8/functions/v1_0_0/libraries/FunctionsRequest.sol\":4929:4949  self.secretsLocation */\n      0x20\n      add\n        /* \"@chainlink/contracts@1.2.0/src/v0.8/functions/v1_0_0/libraries/FunctionsRequest.sol\":4929:4967  self.secretsLocation = Location.Remote */\n      swap1\n      0x02\n      dup2\n      gt\n      iszero\n      tag_119\n      jumpi\n      tag_120\n      tag_121\n      jump\t// in\n    tag_120:\n    tag_119:\n      swap1\n      dup2\n      0x02\n      dup2\n      gt\n      iszero\n      tag_122\n      jumpi\n      tag_123\n      tag_121\n      jump\t// in\n    tag_123:\n    tag_122:\n      dup2\n      mstore\n      pop\n      pop\n        /* \"@chainlink/contracts@1.2.0/src/v0.8/functions/v1_0_0/libraries/FunctionsRequest.sol\":5006:5031  encryptedSecretsReference */\n      dup1\n        /* \"@chainlink/contracts@1.2.0/src/v0.8/functions/v1_0_0/libraries/FunctionsRequest.sol\":4973:4977  self */\n      dup3\n        /* \"@chainlink/contracts@1.2.0/src/v0.8/functions/v1_0_0/libraries/FunctionsRequest.sol\":4973:5003  self.encryptedSecretsReference */\n      0x80\n      add\n        /* \"@chainlink/contracts@1.2.0/src/v0.8/functions/v1_0_0/libraries/FunctionsRequest.sol\":4973:5031  self.encryptedSecretsReference = encryptedSecretsReference */\n      dup2\n      swap1\n      mstore\n      pop\n        /* \"@chainlink/contracts@1.2.0/src/v0.8/functions/v1_0_0/libraries/FunctionsRequest.sol\":4748:5036  function addSecretsReference(Request memory self, bytes memory encryptedSecretsReference) internal pure {... */\n      pop\n      pop\n      jump\t// out\n        /* \"@chainlink/contracts@1.2.0/src/v0.8/functions/v1_0_0/libraries/FunctionsRequest.sol\":5263:5668  function addDONHostedSecrets(Request memory self, uint8 slotID, uint64 version) internal pure {... */\n    tag_77:\n        /* \"@chainlink/contracts@1.2.0/src/v0.8/functions/v1_0_0/libraries/FunctionsRequest.sol\":5363:5392  CBOR.CBORBuffer memory buffer */\n      0x00\n        /* \"@chainlink/contracts@1.2.0/src/v0.8/functions/v1_0_0/libraries/FunctionsRequest.sol\":5395:5427  CBOR.create(DEFAULT_BUFFER_SIZE) */\n      tag_125\n        /* \"@chainlink/contracts@1.2.0/src/v0.8/functions/v1_0_0/libraries/FunctionsRequest.sol\":375:378  256 */\n      0x0100\n        /* \"@chainlink/contracts@1.2.0/src/v0.8/functions/v1_0_0/libraries/FunctionsRequest.sol\":5395:5406  CBOR.create */\n      tag_126\n        /* \"@chainlink/contracts@1.2.0/src/v0.8/functions/v1_0_0/libraries/FunctionsRequest.sol\":5395:5427  CBOR.create(DEFAULT_BUFFER_SIZE) */\n      jump\t// in\n    tag_125:\n        /* \"@chainlink/contracts@1.2.0/src/v0.8/functions/v1_0_0/libraries/FunctionsRequest.sol\":5363:5427  CBOR.CBORBuffer memory buffer = CBOR.create(DEFAULT_BUFFER_SIZE) */\n      swap1\n      pop\n        /* \"@chainlink/contracts@1.2.0/src/v0.8/functions/v1_0_0/libraries/FunctionsRequest.sol\":5434:5462  buffer.writeString(\"slotID\") */\n      tag_127\n      mload(0x40)\n      dup1\n      0x40\n      add\n      0x40\n      mstore\n      dup1\n      0x06\n      dup2\n      mstore\n      0x20\n      add\n      0x736c6f7449440000000000000000000000000000000000000000000000000000\n      dup2\n      mstore\n      pop\n        /* \"@chainlink/contracts@1.2.0/src/v0.8/functions/v1_0_0/libraries/FunctionsRequest.sol\":5434:5440  buffer */\n      dup3\n        /* \"@chainlink/contracts@1.2.0/src/v0.8/functions/v1_0_0/libraries/FunctionsRequest.sol\":5434:5452  buffer.writeString */\n      tag_128\n      swap1\n        /* \"@chainlink/contracts@1.2.0/src/v0.8/functions/v1_0_0/libraries/FunctionsRequest.sol\":5434:5462  buffer.writeString(\"slotID\") */\n      swap2\n      swap1\n      0xffffffff\n      and\n      jump\t// in\n    tag_127:\n        /* \"@chainlink/contracts@1.2.0/src/v0.8/functions/v1_0_0/libraries/FunctionsRequest.sol\":5468:5494  buffer.writeUInt64(slotID) */\n      tag_129\n        /* \"@chainlink/contracts@1.2.0/src/v0.8/functions/v1_0_0/libraries/FunctionsRequest.sol\":5487:5493  slotID */\n      dup4\n        /* \"@chainlink/contracts@1.2.0/src/v0.8/functions/v1_0_0/libraries/FunctionsRequest.sol\":5468:5494  buffer.writeUInt64(slotID) */\n      0xff\n      and\n        /* \"@chainlink/contracts@1.2.0/src/v0.8/functions/v1_0_0/libraries/FunctionsRequest.sol\":5468:5474  buffer */\n      dup3\n        /* \"@chainlink/contracts@1.2.0/src/v0.8/functions/v1_0_0/libraries/FunctionsRequest.sol\":5468:5486  buffer.writeUInt64 */\n      tag_130\n      swap1\n        /* \"@chainlink/contracts@1.2.0/src/v0.8/functions/v1_0_0/libraries/FunctionsRequest.sol\":5468:5494  buffer.writeUInt64(slotID) */\n      swap2\n      swap1\n      0xffffffff\n      and\n      jump\t// in\n    tag_129:\n        /* \"@chainlink/contracts@1.2.0/src/v0.8/functions/v1_0_0/libraries/FunctionsRequest.sol\":5500:5529  buffer.writeString(\"version\") */\n      tag_131\n      mload(0x40)\n      dup1\n      0x40\n      add\n      0x40\n      mstore\n      dup1\n      0x07\n      dup2\n      mstore\n      0x20\n      add\n      0x76657273696f6e00000000000000000000000000000000000000000000000000\n      dup2\n      mstore\n      pop\n        /* \"@chainlink/contracts@1.2.0/src/v0.8/functions/v1_0_0/libraries/FunctionsRequest.sol\":5500:5506  buffer */\n      dup3\n        /* \"@chainlink/contracts@1.2.0/src/v0.8/functions/v1_0_0/libraries/FunctionsRequest.sol\":5500:5518  buffer.writeString */\n      tag_128\n      swap1\n        /* \"@chainlink/contracts@1.2.0/src/v0.8/functions/v1_0_0/libraries/FunctionsRequest.sol\":5500:5529  buffer.writeString(\"version\") */\n      swap2\n      swap1\n      0xffffffff\n      and\n      jump\t// in\n    tag_131:\n        /* \"@chainlink/contracts@1.2.0/src/v0.8/functions/v1_0_0/libraries/FunctionsRequest.sol\":5535:5562  buffer.writeUInt64(version) */\n      tag_132\n        /* \"@chainlink/contracts@1.2.0/src/v0.8/functions/v1_0_0/libraries/FunctionsRequest.sol\":5554:5561  version */\n      dup3\n        /* \"@chainlink/contracts@1.2.0/src/v0.8/functions/v1_0_0/libraries/FunctionsRequest.sol\":5535:5541  buffer */\n      dup3\n        /* \"@chainlink/contracts@1.2.0/src/v0.8/functions/v1_0_0/libraries/FunctionsRequest.sol\":5535:5553  buffer.writeUInt64 */\n      tag_130\n      swap1\n        /* \"@chainlink/contracts@1.2.0/src/v0.8/functions/v1_0_0/libraries/FunctionsRequest.sol\":5535:5562  buffer.writeUInt64(version) */\n      swap2\n      swap1\n      0xffffffff\n      and\n      jump\t// in\n    tag_132:\n        /* \"@chainlink/contracts@1.2.0/src/v0.8/functions/v1_0_0/libraries/FunctionsRequest.sol\":5592:5610  Location.DONHosted */\n      0x02\n        /* \"@chainlink/contracts@1.2.0/src/v0.8/functions/v1_0_0/libraries/FunctionsRequest.sol\":5569:5573  self */\n      dup5\n        /* \"@chainlink/contracts@1.2.0/src/v0.8/functions/v1_0_0/libraries/FunctionsRequest.sol\":5569:5589  self.secretsLocation */\n      0x20\n      add\n        /* \"@chainlink/contracts@1.2.0/src/v0.8/functions/v1_0_0/libraries/FunctionsRequest.sol\":5569:5610  self.secretsLocation = Location.DONHosted */\n      swap1\n      0x02\n      dup2\n      gt\n      iszero\n      tag_133\n      jumpi\n      tag_134\n      tag_121\n      jump\t// in\n    tag_134:\n    tag_133:\n      swap1\n      dup2\n      0x02\n      dup2\n      gt\n      iszero\n      tag_135\n      jumpi\n      tag_136\n      tag_121\n      jump\t// in\n    tag_136:\n    tag_135:\n      dup2\n      mstore\n      pop\n      pop\n        /* \"@chainlink/contracts@1.2.0/src/v0.8/functions/v1_0_0/libraries/FunctionsRequest.sol\":5649:5655  buffer */\n      dup1\n        /* \"@chainlink/contracts@1.2.0/src/v0.8/functions/v1_0_0/libraries/FunctionsRequest.sol\":5649:5659  buffer.buf */\n      0x00\n      add\n      mload\n        /* \"@chainlink/contracts@1.2.0/src/v0.8/functions/v1_0_0/libraries/FunctionsRequest.sol\":5649:5663  buffer.buf.buf */\n      0x00\n      add\n      mload\n        /* \"@chainlink/contracts@1.2.0/src/v0.8/functions/v1_0_0/libraries/FunctionsRequest.sol\":5616:5620  self */\n      dup5\n        /* \"@chainlink/contracts@1.2.0/src/v0.8/functions/v1_0_0/libraries/FunctionsRequest.sol\":5616:5646  self.encryptedSecretsReference */\n      0x80\n      add\n        /* \"@chainlink/contracts@1.2.0/src/v0.8/functions/v1_0_0/libraries/FunctionsRequest.sol\":5616:5663  self.encryptedSecretsReference = buffer.buf.buf */\n      dup2\n      swap1\n      mstore\n      pop\n        /* \"@chainlink/contracts@1.2.0/src/v0.8/functions/v1_0_0/libraries/FunctionsRequest.sol\":5357:5668  {... */\n      pop\n        /* \"@chainlink/contracts@1.2.0/src/v0.8/functions/v1_0_0/libraries/FunctionsRequest.sol\":5263:5668  function addDONHostedSecrets(Request memory self, uint8 slotID, uint64 version) internal pure {... */\n      pop\n      pop\n      pop\n      jump\t// out\n        /* \"@chainlink/contracts@1.2.0/src/v0.8/functions/v1_0_0/libraries/FunctionsRequest.sol\":5827:5975  function setArgs(Request memory self, string[] memory args) internal pure {... */\n    tag_80:\n        /* \"@chainlink/contracts@1.2.0/src/v0.8/functions/v1_0_0/libraries/FunctionsRequest.sol\":5926:5927  0 */\n      0x00\n        /* \"@chainlink/contracts@1.2.0/src/v0.8/functions/v1_0_0/libraries/FunctionsRequest.sol\":5911:5915  args */\n      dup2\n        /* \"@chainlink/contracts@1.2.0/src/v0.8/functions/v1_0_0/libraries/FunctionsRequest.sol\":5911:5922  args.length */\n      mload\n        /* \"@chainlink/contracts@1.2.0/src/v0.8/functions/v1_0_0/libraries/FunctionsRequest.sol\":5911:5927  args.length == 0 */\n      sub\n        /* \"@chainlink/contracts@1.2.0/src/v0.8/functions/v1_0_0/libraries/FunctionsRequest.sol\":5907:5947  if (args.length == 0) revert EmptyArgs() */\n      tag_138\n      jumpi\n        /* \"@chainlink/contracts@1.2.0/src/v0.8/functions/v1_0_0/libraries/FunctionsRequest.sol\":5936:5947  EmptyArgs() */\n      mload(0x40)\n      0xfe936cb700000000000000000000000000000000000000000000000000000000\n      dup2\n      mstore\n      0x04\n      add\n      mload(0x40)\n      dup1\n      swap2\n      sub\n      swap1\n      revert\n        /* \"@chainlink/contracts@1.2.0/src/v0.8/functions/v1_0_0/libraries/FunctionsRequest.sol\":5907:5947  if (args.length == 0) revert EmptyArgs() */\n    tag_138:\n        /* \"@chainlink/contracts@1.2.0/src/v0.8/functions/v1_0_0/libraries/FunctionsRequest.sol\":5966:5970  args */\n      dup1\n        /* \"@chainlink/contracts@1.2.0/src/v0.8/functions/v1_0_0/libraries/FunctionsRequest.sol\":5954:5958  self */\n      dup3\n        /* \"@chainlink/contracts@1.2.0/src/v0.8/functions/v1_0_0/libraries/FunctionsRequest.sol\":5954:5963  self.args */\n      0xa0\n      add\n        /* \"@chainlink/contracts@1.2.0/src/v0.8/functions/v1_0_0/libraries/FunctionsRequest.sol\":5954:5970  self.args = args */\n      dup2\n      swap1\n      mstore\n      pop\n        /* \"@chainlink/contracts@1.2.0/src/v0.8/functions/v1_0_0/libraries/FunctionsRequest.sol\":5827:5975  function setArgs(Request memory self, string[] memory args) internal pure {... */\n      pop\n      pop\n      jump\t// out\n        /* \"@chainlink/contracts@1.2.0/src/v0.8/functions/v1_0_0/libraries/FunctionsRequest.sol\":6139:6296  function setBytesArgs(Request memory self, bytes[] memory args) internal pure {... */\n    tag_83:\n        /* \"@chainlink/contracts@1.2.0/src/v0.8/functions/v1_0_0/libraries/FunctionsRequest.sol\":6242:6243  0 */\n      0x00\n        /* \"@chainlink/contracts@1.2.0/src/v0.8/functions/v1_0_0/libraries/FunctionsRequest.sol\":6227:6231  args */\n      dup2\n        /* \"@chainlink/contracts@1.2.0/src/v0.8/functions/v1_0_0/libraries/FunctionsRequest.sol\":6227:6238  args.length */\n      mload\n        /* \"@chainlink/contracts@1.2.0/src/v0.8/functions/v1_0_0/libraries/FunctionsRequest.sol\":6227:6243  args.length == 0 */\n      sub\n        /* \"@chainlink/contracts@1.2.0/src/v0.8/functions/v1_0_0/libraries/FunctionsRequest.sol\":6223:6263  if (args.length == 0) revert EmptyArgs() */\n      tag_140\n      jumpi\n        /* \"@chainlink/contracts@1.2.0/src/v0.8/functions/v1_0_0/libraries/FunctionsRequest.sol\":6252:6263  EmptyArgs() */\n      mload(0x40)\n      0xfe936cb700000000000000000000000000000000000000000000000000000000\n      dup2\n      mstore\n      0x04\n      add\n      mload(0x40)\n      dup1\n      swap2\n      sub\n      swap1\n      revert\n        /* \"@chainlink/contracts@1.2.0/src/v0.8/functions/v1_0_0/libraries/FunctionsRequest.sol\":6223:6263  if (args.length == 0) revert EmptyArgs() */\n    tag_140:\n        /* \"@chainlink/contracts@1.2.0/src/v0.8/functions/v1_0_0/libraries/FunctionsRequest.sol\":6287:6291  args */\n      dup1\n        /* \"@chainlink/contracts@1.2.0/src/v0.8/functions/v1_0_0/libraries/FunctionsRequest.sol\":6270:6274  self */\n      dup3\n        /* \"@chainlink/contracts@1.2.0/src/v0.8/functions/v1_0_0/libraries/FunctionsRequest.sol\":6270:6284  self.bytesArgs */\n      0xc0\n      add\n        /* \"@chainlink/contracts@1.2.0/src/v0.8/functions/v1_0_0/libraries/FunctionsRequest.sol\":6270:6291  self.bytesArgs = args */\n      dup2\n      swap1\n      mstore\n      pop\n        /* \"@chainlink/contracts@1.2.0/src/v0.8/functions/v1_0_0/libraries/FunctionsRequest.sol\":6139:6296  function setBytesArgs(Request memory self, bytes[] memory args) internal pure {... */\n      pop\n      pop\n      jump\t// out\n        /* \"@chainlink/contracts@1.2.0/src/v0.8/functions/v1_0_0/libraries/FunctionsRequest.sol\":2158:3428  function encodeCBOR(Request memory self) internal pure returns (bytes memory) {... */\n    tag_86:\n        /* \"@chainlink/contracts@1.2.0/src/v0.8/functions/v1_0_0/libraries/FunctionsRequest.sol\":2222:2234  bytes memory */\n      0x60\n        /* \"@chainlink/contracts@1.2.0/src/v0.8/functions/v1_0_0/libraries/FunctionsRequest.sol\":2242:2271  CBOR.CBORBuffer memory buffer */\n      0x00\n        /* \"@chainlink/contracts@1.2.0/src/v0.8/functions/v1_0_0/libraries/FunctionsRequest.sol\":2274:2306  CBOR.create(DEFAULT_BUFFER_SIZE) */\n      tag_142\n        /* \"@chainlink/contracts@1.2.0/src/v0.8/functions/v1_0_0/libraries/FunctionsRequest.sol\":375:378  256 */\n      0x0100\n        /* \"@chainlink/contracts@1.2.0/src/v0.8/functions/v1_0_0/libraries/FunctionsRequest.sol\":2274:2285  CBOR.create */\n      tag_126\n        /* \"@chainlink/contracts@1.2.0/src/v0.8/functions/v1_0_0/libraries/FunctionsRequest.sol\":2274:2306  CBOR.create(DEFAULT_BUFFER_SIZE) */\n      jump\t// in\n    tag_142:\n        /* \"@chainlink/contracts@1.2.0/src/v0.8/functions/v1_0_0/libraries/FunctionsRequest.sol\":2242:2306  CBOR.CBORBuffer memory buffer = CBOR.create(DEFAULT_BUFFER_SIZE) */\n      swap1\n      pop\n        /* \"@chainlink/contracts@1.2.0/src/v0.8/functions/v1_0_0/libraries/FunctionsRequest.sol\":2313:2347  buffer.writeString(\"codeLocation\") */\n      tag_143\n      mload(0x40)\n      dup1\n      0x40\n      add\n      0x40\n      mstore\n      dup1\n      0x0c\n      dup2\n      mstore\n      0x20\n      add\n      0x636f64654c6f636174696f6e0000000000000000000000000000000000000000\n      dup2\n      mstore\n      pop\n        /* \"@chainlink/contracts@1.2.0/src/v0.8/functions/v1_0_0/libraries/FunctionsRequest.sol\":2313:2319  buffer */\n      dup3\n        /* \"@chainlink/contracts@1.2.0/src/v0.8/functions/v1_0_0/libraries/FunctionsRequest.sol\":2313:2331  buffer.writeString */\n      tag_128\n      swap1\n        /* \"@chainlink/contracts@1.2.0/src/v0.8/functions/v1_0_0/libraries/FunctionsRequest.sol\":2313:2347  buffer.writeString(\"codeLocation\") */\n      swap2\n      swap1\n      0xffffffff\n      and\n      jump\t// in\n    tag_143:\n        /* \"@chainlink/contracts@1.2.0/src/v0.8/functions/v1_0_0/libraries/FunctionsRequest.sol\":2353:2400  buffer.writeUInt256(uint256(self.codeLocation)) */\n      tag_144\n        /* \"@chainlink/contracts@1.2.0/src/v0.8/functions/v1_0_0/libraries/FunctionsRequest.sol\":2381:2385  self */\n      dup4\n        /* \"@chainlink/contracts@1.2.0/src/v0.8/functions/v1_0_0/libraries/FunctionsRequest.sol\":2381:2398  self.codeLocation */\n      0x00\n      add\n      mload\n        /* \"@chainlink/contracts@1.2.0/src/v0.8/functions/v1_0_0/libraries/FunctionsRequest.sol\":2373:2399  uint256(self.codeLocation) */\n      0x02\n      dup2\n      gt\n      iszero\n      tag_145\n      jumpi\n      tag_146\n      tag_121\n      jump\t// in\n    tag_146:\n    tag_145:\n        /* \"@chainlink/contracts@1.2.0/src/v0.8/functions/v1_0_0/libraries/FunctionsRequest.sol\":2353:2359  buffer */\n      dup3\n        /* \"@chainlink/contracts@1.2.0/src/v0.8/functions/v1_0_0/libraries/FunctionsRequest.sol\":2353:2372  buffer.writeUInt256 */\n      tag_147\n      swap1\n        /* \"@chainlink/contracts@1.2.0/src/v0.8/functions/v1_0_0/libraries/FunctionsRequest.sol\":2353:2400  buffer.writeUInt256(uint256(self.codeLocation)) */\n      swap2\n      swap1\n      0xffffffff\n      and\n      jump\t// in\n    tag_144:\n        /* \"@chainlink/contracts@1.2.0/src/v0.8/functions/v1_0_0/libraries/FunctionsRequest.sol\":2407:2437  buffer.writeString(\"language\") */\n      tag_148\n      mload(0x40)\n      dup1\n      0x40\n      add\n      0x40\n      mstore\n      dup1\n      0x08\n      dup2\n      mstore\n      0x20\n      add\n      0x6c616e6775616765000000000000000000000000000000000000000000000000\n      dup2\n      mstore\n      pop\n        /* \"@chainlink/contracts@1.2.0/src/v0.8/functions/v1_0_0/libraries/FunctionsRequest.sol\":2407:2413  buffer */\n      dup3\n        /* \"@chainlink/contracts@1.2.0/src/v0.8/functions/v1_0_0/libraries/FunctionsRequest.sol\":2407:2425  buffer.writeString */\n      tag_128\n      swap1\n        /* \"@chainlink/contracts@1.2.0/src/v0.8/functions/v1_0_0/libraries/FunctionsRequest.sol\":2407:2437  buffer.writeString(\"language\") */\n      swap2\n      swap1\n      0xffffffff\n      and\n      jump\t// in\n    tag_148:\n        /* \"@chainlink/contracts@1.2.0/src/v0.8/functions/v1_0_0/libraries/FunctionsRequest.sol\":2443:2486  buffer.writeUInt256(uint256(self.language)) */\n      tag_149\n        /* \"@chainlink/contracts@1.2.0/src/v0.8/functions/v1_0_0/libraries/FunctionsRequest.sol\":2471:2475  self */\n      dup4\n        /* \"@chainlink/contracts@1.2.0/src/v0.8/functions/v1_0_0/libraries/FunctionsRequest.sol\":2471:2484  self.language */\n      0x40\n      add\n      mload\n        /* \"@chainlink/contracts@1.2.0/src/v0.8/functions/v1_0_0/libraries/FunctionsRequest.sol\":2463:2485  uint256(self.language) */\n      0x00\n      dup2\n      gt\n      iszero\n      tag_150\n      jumpi\n      tag_151\n      tag_121\n      jump\t// in\n    tag_151:\n    tag_150:\n        /* \"@chainlink/contracts@1.2.0/src/v0.8/functions/v1_0_0/libraries/FunctionsRequest.sol\":2443:2449  buffer */\n      dup3\n        /* \"@chainlink/contracts@1.2.0/src/v0.8/functions/v1_0_0/libraries/FunctionsRequest.sol\":2443:2462  buffer.writeUInt256 */\n      tag_147\n      swap1\n        /* \"@chainlink/contracts@1.2.0/src/v0.8/functions/v1_0_0/libraries/FunctionsRequest.sol\":2443:2486  buffer.writeUInt256(uint256(self.language)) */\n      swap2\n      swap1\n      0xffffffff\n      and\n      jump\t// in\n    tag_149:\n        /* \"@chainlink/contracts@1.2.0/src/v0.8/functions/v1_0_0/libraries/FunctionsRequest.sol\":2493:2521  buffer.writeString(\"source\") */\n      tag_152\n      mload(0x40)\n      dup1\n      0x40\n      add\n      0x40\n      mstore\n      dup1\n      0x06\n      dup2\n      mstore\n      0x20\n      add\n      0x736f757263650000000000000000000000000000000000000000000000000000\n      dup2\n      mstore\n      pop\n        /* \"@chainlink/contracts@1.2.0/src/v0.8/functions/v1_0_0/libraries/FunctionsRequest.sol\":2493:2499  buffer */\n      dup3\n        /* \"@chainlink/contracts@1.2.0/src/v0.8/functions/v1_0_0/libraries/FunctionsRequest.sol\":2493:2511  buffer.writeString */\n      tag_128\n      swap1\n        /* \"@chainlink/contracts@1.2.0/src/v0.8/functions/v1_0_0/libraries/FunctionsRequest.sol\":2493:2521  buffer.writeString(\"source\") */\n      swap2\n      swap1\n      0xffffffff\n      and\n      jump\t// in\n    tag_152:\n        /* \"@chainlink/contracts@1.2.0/src/v0.8/functions/v1_0_0/libraries/FunctionsRequest.sol\":2527:2558  buffer.writeString(self.source) */\n      tag_153\n        /* \"@chainlink/contracts@1.2.0/src/v0.8/functions/v1_0_0/libraries/FunctionsRequest.sol\":2546:2550  self */\n      dup4\n        /* \"@chainlink/contracts@1.2.0/src/v0.8/functions/v1_0_0/libraries/FunctionsRequest.sol\":2546:2557  self.source */\n      0x60\n      add\n      mload\n        /* \"@chainlink/contracts@1.2.0/src/v0.8/functions/v1_0_0/libraries/FunctionsRequest.sol\":2527:2533  buffer */\n      dup3\n        /* \"@chainlink/contracts@1.2.0/src/v0.8/functions/v1_0_0/libraries/FunctionsRequest.sol\":2527:2545  buffer.writeString */\n      tag_128\n      swap1\n        /* \"@chainlink/contracts@1.2.0/src/v0.8/functions/v1_0_0/libraries/FunctionsRequest.sol\":2527:2558  buffer.writeString(self.source) */\n      swap2\n      swap1\n      0xffffffff\n      and\n      jump\t// in\n    tag_153:\n        /* \"@chainlink/contracts@1.2.0/src/v0.8/functions/v1_0_0/libraries/FunctionsRequest.sol\":2588:2589  0 */\n      0x00\n        /* \"@chainlink/contracts@1.2.0/src/v0.8/functions/v1_0_0/libraries/FunctionsRequest.sol\":2569:2573  self */\n      dup4\n        /* \"@chainlink/contracts@1.2.0/src/v0.8/functions/v1_0_0/libraries/FunctionsRequest.sol\":2569:2578  self.args */\n      0xa0\n      add\n      mload\n        /* \"@chainlink/contracts@1.2.0/src/v0.8/functions/v1_0_0/libraries/FunctionsRequest.sol\":2569:2585  self.args.length */\n      mload\n        /* \"@chainlink/contracts@1.2.0/src/v0.8/functions/v1_0_0/libraries/FunctionsRequest.sol\":2569:2589  self.args.length > 0 */\n      gt\n        /* \"@chainlink/contracts@1.2.0/src/v0.8/functions/v1_0_0/libraries/FunctionsRequest.sol\":2565:2792  if (self.args.length > 0) {... */\n      iszero\n      tag_154\n      jumpi\n        /* \"@chainlink/contracts@1.2.0/src/v0.8/functions/v1_0_0/libraries/FunctionsRequest.sol\":2599:2625  buffer.writeString(\"args\") */\n      tag_155\n      mload(0x40)\n      dup1\n      0x40\n      add\n      0x40\n      mstore\n      dup1\n      0x04\n      dup2\n      mstore\n      0x20\n      add\n      0x6172677300000000000000000000000000000000000000000000000000000000\n      dup2\n      mstore\n      pop\n        /* \"@chainlink/contracts@1.2.0/src/v0.8/functions/v1_0_0/libraries/FunctionsRequest.sol\":2599:2605  buffer */\n      dup3\n        /* \"@chainlink/contracts@1.2.0/src/v0.8/functions/v1_0_0/libraries/FunctionsRequest.sol\":2599:2617  buffer.writeString */\n      tag_128\n      swap1\n        /* \"@chainlink/contracts@1.2.0/src/v0.8/functions/v1_0_0/libraries/FunctionsRequest.sol\":2599:2625  buffer.writeString(\"args\") */\n      swap2\n      swap1\n      0xffffffff\n      and\n      jump\t// in\n    tag_155:\n        /* \"@chainlink/contracts@1.2.0/src/v0.8/functions/v1_0_0/libraries/FunctionsRequest.sol\":2633:2652  buffer.startArray() */\n      tag_156\n        /* \"@chainlink/contracts@1.2.0/src/v0.8/functions/v1_0_0/libraries/FunctionsRequest.sol\":2633:2639  buffer */\n      dup2\n        /* \"@chainlink/contracts@1.2.0/src/v0.8/functions/v1_0_0/libraries/FunctionsRequest.sol\":2633:2650  buffer.startArray */\n      tag_157\n        /* \"@chainlink/contracts@1.2.0/src/v0.8/functions/v1_0_0/libraries/FunctionsRequest.sol\":2633:2652  buffer.startArray() */\n      jump\t// in\n    tag_156:\n        /* \"@chainlink/contracts@1.2.0/src/v0.8/functions/v1_0_0/libraries/FunctionsRequest.sol\":2665:2674  uint256 i */\n      0x00\n        /* \"@chainlink/contracts@1.2.0/src/v0.8/functions/v1_0_0/libraries/FunctionsRequest.sol\":2660:2758  for (uint256 i = 0; i < self.args.length; ++i) {... */\n    tag_158:\n        /* \"@chainlink/contracts@1.2.0/src/v0.8/functions/v1_0_0/libraries/FunctionsRequest.sol\":2684:2688  self */\n      dup4\n        /* \"@chainlink/contracts@1.2.0/src/v0.8/functions/v1_0_0/libraries/FunctionsRequest.sol\":2684:2693  self.args */\n      0xa0\n      add\n      mload\n        /* \"@chainlink/contracts@1.2.0/src/v0.8/functions/v1_0_0/libraries/FunctionsRequest.sol\":2684:2700  self.args.length */\n      mload\n        /* \"@chainlink/contracts@1.2.0/src/v0.8/functions/v1_0_0/libraries/FunctionsRequest.sol\":2680:2681  i */\n      dup2\n        /* \"@chainlink/contracts@1.2.0/src/v0.8/functions/v1_0_0/libraries/FunctionsRequest.sol\":2680:2700  i < self.args.length */\n      lt\n        /* \"@chainlink/contracts@1.2.0/src/v0.8/functions/v1_0_0/libraries/FunctionsRequest.sol\":2660:2758  for (uint256 i = 0; i < self.args.length; ++i) {... */\n      iszero\n      tag_159\n      jumpi\n        /* \"@chainlink/contracts@1.2.0/src/v0.8/functions/v1_0_0/libraries/FunctionsRequest.sol\":2717:2749  buffer.writeString(self.args[i]) */\n      tag_161\n        /* \"@chainlink/contracts@1.2.0/src/v0.8/functions/v1_0_0/libraries/FunctionsRequest.sol\":2736:2740  self */\n      dup5\n        /* \"@chainlink/contracts@1.2.0/src/v0.8/functions/v1_0_0/libraries/FunctionsRequest.sol\":2736:2745  self.args */\n      0xa0\n      add\n      mload\n        /* \"@chainlink/contracts@1.2.0/src/v0.8/functions/v1_0_0/libraries/FunctionsRequest.sol\":2746:2747  i */\n      dup3\n        /* \"@chainlink/contracts@1.2.0/src/v0.8/functions/v1_0_0/libraries/FunctionsRequest.sol\":2736:2748  self.args[i] */\n      dup2\n      mload\n      dup2\n      lt\n      tag_162\n      jumpi\n      tag_163\n      tag_164\n      jump\t// in\n    tag_163:\n    tag_162:\n      0x20\n      mul\n      0x20\n      add\n      add\n      mload\n        /* \"@chainlink/contracts@1.2.0/src/v0.8/functions/v1_0_0/libraries/FunctionsRequest.sol\":2717:2723  buffer */\n      dup4\n        /* \"@chainlink/contracts@1.2.0/src/v0.8/functions/v1_0_0/libraries/FunctionsRequest.sol\":2717:2735  buffer.writeString */\n      tag_128\n      swap1\n        /* \"@chainlink/contracts@1.2.0/src/v0.8/functions/v1_0_0/libraries/FunctionsRequest.sol\":2717:2749  buffer.writeString(self.args[i]) */\n      swap2\n      swap1\n      0xffffffff\n      and\n      jump\t// in\n    tag_161:\n        /* \"@chainlink/contracts@1.2.0/src/v0.8/functions/v1_0_0/libraries/FunctionsRequest.sol\":2702:2705  ++i */\n      dup1\n      tag_165\n      swap1\n      tag_166\n      jump\t// in\n    tag_165:\n      swap1\n      pop\n        /* \"@chainlink/contracts@1.2.0/src/v0.8/functions/v1_0_0/libraries/FunctionsRequest.sol\":2660:2758  for (uint256 i = 0; i < self.args.length; ++i) {... */\n      jump(tag_158)\n    tag_159:\n      pop\n        /* \"@chainlink/contracts@1.2.0/src/v0.8/functions/v1_0_0/libraries/FunctionsRequest.sol\":2765:2785  buffer.endSequence() */\n      tag_167\n        /* \"@chainlink/contracts@1.2.0/src/v0.8/functions/v1_0_0/libraries/FunctionsRequest.sol\":2765:2771  buffer */\n      dup2\n        /* \"@chainlink/contracts@1.2.0/src/v0.8/functions/v1_0_0/libraries/FunctionsRequest.sol\":2765:2783  buffer.endSequence */\n      tag_168\n        /* \"@chainlink/contracts@1.2.0/src/v0.8/functions/v1_0_0/libraries/FunctionsRequest.sol\":2765:2785  buffer.endSequence() */\n      jump\t// in\n    tag_167:\n        /* \"@chainlink/contracts@1.2.0/src/v0.8/functions/v1_0_0/libraries/FunctionsRequest.sol\":2565:2792  if (self.args.length > 0) {... */\n    tag_154:\n        /* \"@chainlink/contracts@1.2.0/src/v0.8/functions/v1_0_0/libraries/FunctionsRequest.sol\":2842:2843  0 */\n      0x00\n        /* \"@chainlink/contracts@1.2.0/src/v0.8/functions/v1_0_0/libraries/FunctionsRequest.sol\":2802:2806  self */\n      dup4\n        /* \"@chainlink/contracts@1.2.0/src/v0.8/functions/v1_0_0/libraries/FunctionsRequest.sol\":2802:2832  self.encryptedSecretsReference */\n      0x80\n      add\n      mload\n        /* \"@chainlink/contracts@1.2.0/src/v0.8/functions/v1_0_0/libraries/FunctionsRequest.sol\":2802:2839  self.encryptedSecretsReference.length */\n      mload\n        /* \"@chainlink/contracts@1.2.0/src/v0.8/functions/v1_0_0/libraries/FunctionsRequest.sol\":2802:2843  self.encryptedSecretsReference.length > 0 */\n      gt\n        /* \"@chainlink/contracts@1.2.0/src/v0.8/functions/v1_0_0/libraries/FunctionsRequest.sol\":2798:3144  if (self.encryptedSecretsReference.length > 0) {... */\n      iszero\n      tag_169\n      jumpi\n        /* \"@chainlink/contracts@1.2.0/src/v0.8/functions/v1_0_0/libraries/FunctionsRequest.sol\":2881:2896  Location.Inline */\n      0x00\n        /* \"@chainlink/contracts@1.2.0/src/v0.8/functions/v1_0_0/libraries/FunctionsRequest.sol\":2857:2896  self.secretsLocation == Location.Inline */\n      0x02\n      dup2\n      gt\n      iszero\n      tag_170\n      jumpi\n      tag_171\n      tag_121\n      jump\t// in\n    tag_171:\n    tag_170:\n        /* \"@chainlink/contracts@1.2.0/src/v0.8/functions/v1_0_0/libraries/FunctionsRequest.sol\":2857:2861  self */\n      dup4\n        /* \"@chainlink/contracts@1.2.0/src/v0.8/functions/v1_0_0/libraries/FunctionsRequest.sol\":2857:2877  self.secretsLocation */\n      0x20\n      add\n      mload\n        /* \"@chainlink/contracts@1.2.0/src/v0.8/functions/v1_0_0/libraries/FunctionsRequest.sol\":2857:2896  self.secretsLocation == Location.Inline */\n      0x02\n      dup2\n      gt\n      iszero\n      tag_172\n      jumpi\n      tag_173\n      tag_121\n      jump\t// in\n    tag_173:\n    tag_172:\n      sub\n        /* \"@chainlink/contracts@1.2.0/src/v0.8/functions/v1_0_0/libraries/FunctionsRequest.sol\":2853:2941  if (self.secretsLocation == Location.Inline) {... */\n      tag_174\n      jumpi\n        /* \"@chainlink/contracts@1.2.0/src/v0.8/functions/v1_0_0/libraries/FunctionsRequest.sol\":2915:2932  NoInlineSecrets() */\n      mload(0x40)\n      0xa80d31f700000000000000000000000000000000000000000000000000000000\n      dup2\n      mstore\n      0x04\n      add\n      mload(0x40)\n      dup1\n      swap2\n      sub\n      swap1\n      revert\n        /* \"@chainlink/contracts@1.2.0/src/v0.8/functions/v1_0_0/libraries/FunctionsRequest.sol\":2853:2941  if (self.secretsLocation == Location.Inline) {... */\n    tag_174:\n        /* \"@chainlink/contracts@1.2.0/src/v0.8/functions/v1_0_0/libraries/FunctionsRequest.sol\":2948:2985  buffer.writeString(\"secretsLocation\") */\n      tag_175\n      mload(0x40)\n      dup1\n      0x40\n      add\n      0x40\n      mstore\n      dup1\n      0x0f\n      dup2\n      mstore\n      0x20\n      add\n      0x736563726574734c6f636174696f6e0000000000000000000000000000000000\n      dup2\n      mstore\n      pop\n        /* \"@chainlink/contracts@1.2.0/src/v0.8/functions/v1_0_0/libraries/FunctionsRequest.sol\":2948:2954  buffer */\n      dup3\n        /* \"@chainlink/contracts@1.2.0/src/v0.8/functions/v1_0_0/libraries/FunctionsRequest.sol\":2948:2966  buffer.writeString */\n      tag_128\n      swap1\n        /* \"@chainlink/contracts@1.2.0/src/v0.8/functions/v1_0_0/libraries/FunctionsRequest.sol\":2948:2985  buffer.writeString(\"secretsLocation\") */\n      swap2\n      swap1\n      0xffffffff\n      and\n      jump\t// in\n    tag_175:\n        /* \"@chainlink/contracts@1.2.0/src/v0.8/functions/v1_0_0/libraries/FunctionsRequest.sol\":2993:3043  buffer.writeUInt256(uint256(self.secretsLocation)) */\n      tag_176\n        /* \"@chainlink/contracts@1.2.0/src/v0.8/functions/v1_0_0/libraries/FunctionsRequest.sol\":3021:3025  self */\n      dup4\n        /* \"@chainlink/contracts@1.2.0/src/v0.8/functions/v1_0_0/libraries/FunctionsRequest.sol\":3021:3041  self.secretsLocation */\n      0x20\n      add\n      mload\n        /* \"@chainlink/contracts@1.2.0/src/v0.8/functions/v1_0_0/libraries/FunctionsRequest.sol\":3013:3042  uint256(self.secretsLocation) */\n      0x02\n      dup2\n      gt\n      iszero\n      tag_177\n      jumpi\n      tag_178\n      tag_121\n      jump\t// in\n    tag_178:\n    tag_177:\n        /* \"@chainlink/contracts@1.2.0/src/v0.8/functions/v1_0_0/libraries/FunctionsRequest.sol\":2993:2999  buffer */\n      dup3\n        /* \"@chainlink/contracts@1.2.0/src/v0.8/functions/v1_0_0/libraries/FunctionsRequest.sol\":2993:3012  buffer.writeUInt256 */\n      tag_147\n      swap1\n        /* \"@chainlink/contracts@1.2.0/src/v0.8/functions/v1_0_0/libraries/FunctionsRequest.sol\":2993:3043  buffer.writeUInt256(uint256(self.secretsLocation)) */\n      swap2\n      swap1\n      0xffffffff\n      and\n      jump\t// in\n    tag_176:\n        /* \"@chainlink/contracts@1.2.0/src/v0.8/functions/v1_0_0/libraries/FunctionsRequest.sol\":3051:3080  buffer.writeString(\"secrets\") */\n      tag_179\n      mload(0x40)\n      dup1\n      0x40\n      add\n      0x40\n      mstore\n      dup1\n      0x07\n      dup2\n      mstore\n      0x20\n      add\n      0x7365637265747300000000000000000000000000000000000000000000000000\n      dup2\n      mstore\n      pop\n        /* \"@chainlink/contracts@1.2.0/src/v0.8/functions/v1_0_0/libraries/FunctionsRequest.sol\":3051:3057  buffer */\n      dup3\n        /* \"@chainlink/contracts@1.2.0/src/v0.8/functions/v1_0_0/libraries/FunctionsRequest.sol\":3051:3069  buffer.writeString */\n      tag_128\n      swap1\n        /* \"@chainlink/contracts@1.2.0/src/v0.8/functions/v1_0_0/libraries/FunctionsRequest.sol\":3051:3080  buffer.writeString(\"secrets\") */\n      swap2\n      swap1\n      0xffffffff\n      and\n      jump\t// in\n    tag_179:\n        /* \"@chainlink/contracts@1.2.0/src/v0.8/functions/v1_0_0/libraries/FunctionsRequest.sol\":3088:3137  buffer.writeBytes(self.encryptedSecretsReference) */\n      tag_180\n        /* \"@chainlink/contracts@1.2.0/src/v0.8/functions/v1_0_0/libraries/FunctionsRequest.sol\":3106:3110  self */\n      dup4\n        /* \"@chainlink/contracts@1.2.0/src/v0.8/functions/v1_0_0/libraries/FunctionsRequest.sol\":3106:3136  self.encryptedSecretsReference */\n      0x80\n      add\n      mload\n        /* \"@chainlink/contracts@1.2.0/src/v0.8/functions/v1_0_0/libraries/FunctionsRequest.sol\":3088:3094  buffer */\n      dup3\n        /* \"@chainlink/contracts@1.2.0/src/v0.8/functions/v1_0_0/libraries/FunctionsRequest.sol\":3088:3105  buffer.writeBytes */\n      tag_181\n      swap1\n        /* \"@chainlink/contracts@1.2.0/src/v0.8/functions/v1_0_0/libraries/FunctionsRequest.sol\":3088:3137  buffer.writeBytes(self.encryptedSecretsReference) */\n      swap2\n      swap1\n      0xffffffff\n      and\n      jump\t// in\n    tag_180:\n        /* \"@chainlink/contracts@1.2.0/src/v0.8/functions/v1_0_0/libraries/FunctionsRequest.sol\":2798:3144  if (self.encryptedSecretsReference.length > 0) {... */\n    tag_169:\n        /* \"@chainlink/contracts@1.2.0/src/v0.8/functions/v1_0_0/libraries/FunctionsRequest.sol\":3178:3179  0 */\n      0x00\n        /* \"@chainlink/contracts@1.2.0/src/v0.8/functions/v1_0_0/libraries/FunctionsRequest.sol\":3154:3158  self */\n      dup4\n        /* \"@chainlink/contracts@1.2.0/src/v0.8/functions/v1_0_0/libraries/FunctionsRequest.sol\":3154:3168  self.bytesArgs */\n      0xc0\n      add\n      mload\n        /* \"@chainlink/contracts@1.2.0/src/v0.8/functions/v1_0_0/libraries/FunctionsRequest.sol\":3154:3175  self.bytesArgs.length */\n      mload\n        /* \"@chainlink/contracts@1.2.0/src/v0.8/functions/v1_0_0/libraries/FunctionsRequest.sol\":3154:3179  self.bytesArgs.length > 0 */\n      gt\n        /* \"@chainlink/contracts@1.2.0/src/v0.8/functions/v1_0_0/libraries/FunctionsRequest.sol\":3150:3396  if (self.bytesArgs.length > 0) {... */\n      iszero\n      tag_182\n      jumpi\n        /* \"@chainlink/contracts@1.2.0/src/v0.8/functions/v1_0_0/libraries/FunctionsRequest.sol\":3189:3220  buffer.writeString(\"bytesArgs\") */\n      tag_183\n      mload(0x40)\n      dup1\n      0x40\n      add\n      0x40\n      mstore\n      dup1\n      0x09\n      dup2\n      mstore\n      0x20\n      add\n      0x6279746573417267730000000000000000000000000000000000000000000000\n      dup2\n      mstore\n      pop\n        /* \"@chainlink/contracts@1.2.0/src/v0.8/functions/v1_0_0/libraries/FunctionsRequest.sol\":3189:3195  buffer */\n      dup3\n        /* \"@chainlink/contracts@1.2.0/src/v0.8/functions/v1_0_0/libraries/FunctionsRequest.sol\":3189:3207  buffer.writeString */\n      tag_128\n      swap1\n        /* \"@chainlink/contracts@1.2.0/src/v0.8/functions/v1_0_0/libraries/FunctionsRequest.sol\":3189:3220  buffer.writeString(\"bytesArgs\") */\n      swap2\n      swap1\n      0xffffffff\n      and\n      jump\t// in\n    tag_183:\n        /* \"@chainlink/contracts@1.2.0/src/v0.8/functions/v1_0_0/libraries/FunctionsRequest.sol\":3228:3247  buffer.startArray() */\n      tag_184\n        /* \"@chainlink/contracts@1.2.0/src/v0.8/functions/v1_0_0/libraries/FunctionsRequest.sol\":3228:3234  buffer */\n      dup2\n        /* \"@chainlink/contracts@1.2.0/src/v0.8/functions/v1_0_0/libraries/FunctionsRequest.sol\":3228:3245  buffer.startArray */\n      tag_157\n        /* \"@chainlink/contracts@1.2.0/src/v0.8/functions/v1_0_0/libraries/FunctionsRequest.sol\":3228:3247  buffer.startArray() */\n      jump\t// in\n    tag_184:\n        /* \"@chainlink/contracts@1.2.0/src/v0.8/functions/v1_0_0/libraries/FunctionsRequest.sol\":3260:3269  uint256 i */\n      0x00\n        /* \"@chainlink/contracts@1.2.0/src/v0.8/functions/v1_0_0/libraries/FunctionsRequest.sol\":3255:3362  for (uint256 i = 0; i < self.bytesArgs.length; ++i) {... */\n    tag_185:\n        /* \"@chainlink/contracts@1.2.0/src/v0.8/functions/v1_0_0/libraries/FunctionsRequest.sol\":3279:3283  self */\n      dup4\n        /* \"@chainlink/contracts@1.2.0/src/v0.8/functions/v1_0_0/libraries/FunctionsRequest.sol\":3279:3293  self.bytesArgs */\n      0xc0\n      add\n      mload\n        /* \"@chainlink/contracts@1.2.0/src/v0.8/functions/v1_0_0/libraries/FunctionsRequest.sol\":3279:3300  self.bytesArgs.length */\n      mload\n        /* \"@chainlink/contracts@1.2.0/src/v0.8/functions/v1_0_0/libraries/FunctionsRequest.sol\":3275:3276  i */\n      dup2\n        /* \"@chainlink/contracts@1.2.0/src/v0.8/functions/v1_0_0/libraries/FunctionsRequest.sol\":3275:3300  i < self.bytesArgs.length */\n      lt\n        /* \"@chainlink/contracts@1.2.0/src/v0.8/functions/v1_0_0/libraries/FunctionsRequest.sol\":3255:3362  for (uint256 i = 0; i < self.bytesArgs.length; ++i) {... */\n      iszero\n      tag_186\n      jumpi\n        /* \"@chainlink/contracts@1.2.0/src/v0.8/functions/v1_0_0/libraries/FunctionsRequest.sol\":3317:3353  buffer.writeBytes(self.bytesArgs[i]) */\n      tag_188\n        /* \"@chainlink/contracts@1.2.0/src/v0.8/functions/v1_0_0/libraries/FunctionsRequest.sol\":3335:3339  self */\n      dup5\n        /* \"@chainlink/contracts@1.2.0/src/v0.8/functions/v1_0_0/libraries/FunctionsRequest.sol\":3335:3349  self.bytesArgs */\n      0xc0\n      add\n      mload\n        /* \"@chainlink/contracts@1.2.0/src/v0.8/functions/v1_0_0/libraries/FunctionsRequest.sol\":3350:3351  i */\n      dup3\n        /* \"@chainlink/contracts@1.2.0/src/v0.8/functions/v1_0_0/libraries/FunctionsRequest.sol\":3335:3352  self.bytesArgs[i] */\n      dup2\n      mload\n      dup2\n      lt\n      tag_189\n      jumpi\n      tag_190\n      tag_164\n      jump\t// in\n    tag_190:\n    tag_189:\n      0x20\n      mul\n      0x20\n      add\n      add\n      mload\n        /* \"@chainlink/contracts@1.2.0/src/v0.8/functions/v1_0_0/libraries/FunctionsRequest.sol\":3317:3323  buffer */\n      dup4\n        /* \"@chainlink/contracts@1.2.0/src/v0.8/functions/v1_0_0/libraries/FunctionsRequest.sol\":3317:3334  buffer.writeBytes */\n      tag_181\n      swap1\n        /* \"@chainlink/contracts@1.2.0/src/v0.8/functions/v1_0_0/libraries/FunctionsRequest.sol\":3317:3353  buffer.writeBytes(self.bytesArgs[i]) */\n      swap2\n      swap1\n      0xffffffff\n      and\n      jump\t// in\n    tag_188:\n        /* \"@chainlink/contracts@1.2.0/src/v0.8/functions/v1_0_0/libraries/FunctionsRequest.sol\":3302:3305  ++i */\n      dup1\n      tag_191\n      swap1\n      tag_166\n      jump\t// in\n    tag_191:\n      swap1\n      pop\n        /* \"@chainlink/contracts@1.2.0/src/v0.8/functions/v1_0_0/libraries/FunctionsRequest.sol\":3255:3362  for (uint256 i = 0; i < self.bytesArgs.length; ++i) {... */\n      jump(tag_185)\n    tag_186:\n      pop\n        /* \"@chainlink/contracts@1.2.0/src/v0.8/functions/v1_0_0/libraries/FunctionsRequest.sol\":3369:3389  buffer.endSequence() */\n      tag_192\n        /* \"@chainlink/contracts@1.2.0/src/v0.8/functions/v1_0_0/libraries/FunctionsRequest.sol\":3369:3375  buffer */\n      dup2\n        /* \"@chainlink/contracts@1.2.0/src/v0.8/functions/v1_0_0/libraries/FunctionsRequest.sol\":3369:3387  buffer.endSequence */\n      tag_168\n        /* \"@chainlink/contracts@1.2.0/src/v0.8/functions/v1_0_0/libraries/FunctionsRequest.sol\":3369:3389  buffer.endSequence() */\n      jump\t// in\n    tag_192:\n        /* \"@chainlink/contracts@1.2.0/src/v0.8/functions/v1_0_0/libraries/FunctionsRequest.sol\":3150:3396  if (self.bytesArgs.length > 0) {... */\n    tag_182:\n        /* \"@chainlink/contracts@1.2.0/src/v0.8/functions/v1_0_0/libraries/FunctionsRequest.sol\":3409:3415  buffer */\n      dup1\n        /* \"@chainlink/contracts@1.2.0/src/v0.8/functions/v1_0_0/libraries/FunctionsRequest.sol\":3409:3419  buffer.buf */\n      0x00\n      add\n      mload\n        /* \"@chainlink/contracts@1.2.0/src/v0.8/functions/v1_0_0/libraries/FunctionsRequest.sol\":3409:3423  buffer.buf.buf */\n      0x00\n      add\n      mload\n        /* \"@chainlink/contracts@1.2.0/src/v0.8/functions/v1_0_0/libraries/FunctionsRequest.sol\":3402:3423  return buffer.buf.buf */\n      swap2\n      pop\n      pop\n        /* \"@chainlink/contracts@1.2.0/src/v0.8/functions/v1_0_0/libraries/FunctionsRequest.sol\":2158:3428  function encodeCBOR(Request memory self) internal pure returns (bytes memory) {... */\n      swap2\n      swap1\n      pop\n      jump\t// out\n        /* \"@chainlink/contracts@1.2.0/src/v0.8/functions/v1_0_0/FunctionsClient.sol\":1158:1537  function _sendRequest(... */\n    tag_87:\n        /* \"@chainlink/contracts@1.2.0/src/v0.8/functions/v1_0_0/FunctionsClient.sol\":1300:1307  bytes32 */\n      0x00\n        /* \"@chainlink/contracts@1.2.0/src/v0.8/functions/v1_0_0/FunctionsClient.sol\":1315:1332  bytes32 requestId */\n      dup1\n        /* \"@chainlink/contracts@1.2.0/src/v0.8/functions/v1_0_0/FunctionsClient.sol\":1335:1343  i_router */\n      immutable(\"0x8e8fab5f003314da8d1873ea7720e8d9f47650136d916064d1edb8a11d682624\")\n        /* \"@chainlink/contracts@1.2.0/src/v0.8/functions/v1_0_0/FunctionsClient.sol\":1335:1355  i_router.sendRequest */\n      0xffffffffffffffffffffffffffffffffffffffff\n      and\n      0x461d2762\n        /* \"@chainlink/contracts@1.2.0/src/v0.8/functions/v1_0_0/FunctionsClient.sol\":1363:1377  subscriptionId */\n      dup7\n        /* \"@chainlink/contracts@1.2.0/src/v0.8/functions/v1_0_0/FunctionsClient.sol\":1385:1389  data */\n      dup9\n        /* \"@chainlink/contracts@1.2.0/src/v0.8/functions/v1_0_0/libraries/FunctionsRequest.sol\":322:323  1 */\n      0x01\n        /* \"@chainlink/contracts@1.2.0/src/v0.8/functions/v1_0_0/FunctionsClient.sol\":1442:1458  callbackGasLimit */\n      dup9\n        /* \"@chainlink/contracts@1.2.0/src/v0.8/functions/v1_0_0/FunctionsClient.sol\":1466:1471  donId */\n      dup9\n        /* \"@chainlink/contracts@1.2.0/src/v0.8/functions/v1_0_0/FunctionsClient.sol\":1335:1477  i_router.sendRequest(... */\n      mload(0x40)\n      dup7\n      0xffffffff\n      and\n      0xe0\n      shl\n      dup2\n      mstore\n      0x04\n      add\n      tag_194\n      swap6\n      swap5\n      swap4\n      swap3\n      swap2\n      swap1\n      tag_195\n      jump\t// in\n    tag_194:\n      0x20\n      mload(0x40)\n      dup1\n      dup4\n      sub\n      dup2\n      0x00\n      dup8\n      gas\n      call\n      iszero\n      dup1\n      iszero\n      tag_197\n      jumpi\n      returndatasize\n      0x00\n      dup1\n      returndatacopy\n      revert(0x00, returndatasize)\n    tag_197:\n      pop\n      pop\n      pop\n      pop\n      mload(0x40)\n      returndatasize\n      not(0x1f)\n      0x1f\n      dup3\n      add\n      and\n      dup3\n      add\n      dup1\n      0x40\n      mstore\n      pop\n      dup2\n      add\n      swap1\n      tag_198\n      swap2\n      swap1\n      tag_199\n      jump\t// in\n    tag_198:\n        /* \"@chainlink/contracts@1.2.0/src/v0.8/functions/v1_0_0/FunctionsClient.sol\":1315:1477  bytes32 requestId = i_router.sendRequest(... */\n      swap1\n      pop\n        /* \"@chainlink/contracts@1.2.0/src/v0.8/functions/v1_0_0/FunctionsClient.sol\":1500:1509  requestId */\n      dup1\n        /* \"@chainlink/contracts@1.2.0/src/v0.8/functions/v1_0_0/FunctionsClient.sol\":1488:1510  RequestSent(requestId) */\n      0x1131472297a800fee664d1d89cfa8f7676ff07189ecc53f80bbb5f4969099db8\n      mload(0x40)\n      mload(0x40)\n      dup1\n      swap2\n      sub\n      swap1\n      log2\n        /* \"@chainlink/contracts@1.2.0/src/v0.8/functions/v1_0_0/FunctionsClient.sol\":1523:1532  requestId */\n      dup1\n        /* \"@chainlink/contracts@1.2.0/src/v0.8/functions/v1_0_0/FunctionsClient.sol\":1516:1532  return requestId */\n      swap2\n      pop\n      pop\n        /* \"@chainlink/contracts@1.2.0/src/v0.8/functions/v1_0_0/FunctionsClient.sol\":1158:1537  function _sendRequest(... */\n      swap5\n      swap4\n      pop\n      pop\n      pop\n      pop\n      jump\t// out\n        /* \"@chainlink/contracts@1.2.0/src/v0.8/shared/access/ConfirmedOwnerWithProposal.sol\":1536:1775  function _transferOwnership(address to) private {... */\n    tag_101:\n        /* \"@chainlink/contracts@1.2.0/src/v0.8/shared/access/ConfirmedOwnerWithProposal.sol\":1655:1665  msg.sender */\n      caller\n        /* \"@chainlink/contracts@1.2.0/src/v0.8/shared/access/ConfirmedOwnerWithProposal.sol\":1649:1665  to != msg.sender */\n      0xffffffffffffffffffffffffffffffffffffffff\n      and\n        /* \"@chainlink/contracts@1.2.0/src/v0.8/shared/access/ConfirmedOwnerWithProposal.sol\":1649:1651  to */\n      dup2\n        /* \"@chainlink/contracts@1.2.0/src/v0.8/shared/access/ConfirmedOwnerWithProposal.sol\":1649:1665  to != msg.sender */\n      0xffffffffffffffffffffffffffffffffffffffff\n      and\n      sub\n        /* \"@chainlink/contracts@1.2.0/src/v0.8/shared/access/ConfirmedOwnerWithProposal.sol\":1641:1693  require(to != msg.sender, \"Cannot transfer to self\") */\n      tag_201\n      jumpi\n      mload(0x40)\n      0x08c379a000000000000000000000000000000000000000000000000000000000\n      dup2\n      mstore\n      0x04\n      add\n      tag_202\n      swap1\n      tag_203\n      jump\t// in\n    tag_202:\n      mload(0x40)\n      dup1\n      swap2\n      sub\n      swap1\n      revert\n    tag_201:\n        /* \"@chainlink/contracts@1.2.0/src/v0.8/shared/access/ConfirmedOwnerWithProposal.sol\":1717:1719  to */\n      dup1\n        /* \"@chainlink/contracts@1.2.0/src/v0.8/shared/access/ConfirmedOwnerWithProposal.sol\":1700:1714  s_pendingOwner */\n      0x01\n      0x00\n        /* \"@chainlink/contracts@1.2.0/src/v0.8/shared/access/ConfirmedOwnerWithProposal.sol\":1700:1719  s_pendingOwner = to */\n      0x0100\n      exp\n      dup2\n      sload\n      dup2\n      0xffffffffffffffffffffffffffffffffffffffff\n      mul\n      not\n      and\n      swap1\n      dup4\n      0xffffffffffffffffffffffffffffffffffffffff\n      and\n      mul\n      or\n      swap1\n      sstore\n      pop\n        /* \"@chainlink/contracts@1.2.0/src/v0.8/shared/access/ConfirmedOwnerWithProposal.sol\":1767:1769  to */\n      dup1\n        /* \"@chainlink/contracts@1.2.0/src/v0.8/shared/access/ConfirmedOwnerWithProposal.sol\":1731:1770  OwnershipTransferRequested(s_owner, to) */\n      0xffffffffffffffffffffffffffffffffffffffff\n      and\n        /* \"@chainlink/contracts@1.2.0/src/v0.8/shared/access/ConfirmedOwnerWithProposal.sol\":1758:1765  s_owner */\n      0x00\n      dup1\n      sload\n      swap1\n      0x0100\n      exp\n      swap1\n      div\n      0xffffffffffffffffffffffffffffffffffffffff\n      and\n        /* \"@chainlink/contracts@1.2.0/src/v0.8/shared/access/ConfirmedOwnerWithProposal.sol\":1731:1770  OwnershipTransferRequested(s_owner, to) */\n      0xffffffffffffffffffffffffffffffffffffffff\n      and\n      0xed8889f560326eb138920d842192f0eb3dd22b4f139c87a2c57538e05bae1278\n      mload(0x40)\n      mload(0x40)\n      dup1\n      swap2\n      sub\n      swap1\n      log3\n        /* \"@chainlink/contracts@1.2.0/src/v0.8/shared/access/ConfirmedOwnerWithProposal.sol\":1536:1775  function _transferOwnership(address to) private {... */\n      pop\n      jump\t// out\n        /* \"@chainlink/contracts@1.2.0/src/v0.8/functions/v1_0_0/libraries/FunctionsRequest.sol\":3777:4084  function initializeRequest(... */\n    tag_116:\n        /* \"@chainlink/contracts@1.2.0/src/v0.8/functions/v1_0_0/libraries/FunctionsRequest.sol\":3961:3962  0 */\n      0x00\n        /* \"@chainlink/contracts@1.2.0/src/v0.8/functions/v1_0_0/libraries/FunctionsRequest.sol\":3943:3949  source */\n      dup2\n        /* \"@chainlink/contracts@1.2.0/src/v0.8/functions/v1_0_0/libraries/FunctionsRequest.sol\":3937:3957  bytes(source).length */\n      mload\n        /* \"@chainlink/contracts@1.2.0/src/v0.8/functions/v1_0_0/libraries/FunctionsRequest.sol\":3937:3962  bytes(source).length == 0 */\n      sub\n        /* \"@chainlink/contracts@1.2.0/src/v0.8/functions/v1_0_0/libraries/FunctionsRequest.sol\":3933:3984  if (bytes(source).length == 0) revert EmptySource() */\n      tag_205\n      jumpi\n        /* \"@chainlink/contracts@1.2.0/src/v0.8/functions/v1_0_0/libraries/FunctionsRequest.sol\":3971:3984  EmptySource() */\n      mload(0x40)\n      0x22ce3edd00000000000000000000000000000000000000000000000000000000\n      dup2\n      mstore\n      0x04\n      add\n      mload(0x40)\n      dup1\n      swap2\n      sub\n      swap1\n      revert\n        /* \"@chainlink/contracts@1.2.0/src/v0.8/functions/v1_0_0/libraries/FunctionsRequest.sol\":3933:3984  if (bytes(source).length == 0) revert EmptySource() */\n    tag_205:\n        /* \"@chainlink/contracts@1.2.0/src/v0.8/functions/v1_0_0/libraries/FunctionsRequest.sol\":4011:4023  codeLocation */\n      dup3\n        /* \"@chainlink/contracts@1.2.0/src/v0.8/functions/v1_0_0/libraries/FunctionsRequest.sol\":3991:3995  self */\n      dup5\n        /* \"@chainlink/contracts@1.2.0/src/v0.8/functions/v1_0_0/libraries/FunctionsRequest.sol\":3991:4008  self.codeLocation */\n      0x00\n      add\n        /* \"@chainlink/contracts@1.2.0/src/v0.8/functions/v1_0_0/libraries/FunctionsRequest.sol\":3991:4023  self.codeLocation = codeLocation */\n      swap1\n      0x02\n      dup2\n      gt\n      iszero\n      tag_206\n      jumpi\n      tag_207\n      tag_121\n      jump\t// in\n    tag_207:\n    tag_206:\n      swap1\n      dup2\n      0x02\n      dup2\n      gt\n      iszero\n      tag_208\n      jumpi\n      tag_209\n      tag_121\n      jump\t// in\n    tag_209:\n    tag_208:\n      dup2\n      mstore\n      pop\n      pop\n        /* \"@chainlink/contracts@1.2.0/src/v0.8/functions/v1_0_0/libraries/FunctionsRequest.sol\":4045:4053  language */\n      dup2\n        /* \"@chainlink/contracts@1.2.0/src/v0.8/functions/v1_0_0/libraries/FunctionsRequest.sol\":4029:4033  self */\n      dup5\n        /* \"@chainlink/contracts@1.2.0/src/v0.8/functions/v1_0_0/libraries/FunctionsRequest.sol\":4029:4042  self.language */\n      0x40\n      add\n        /* \"@chainlink/contracts@1.2.0/src/v0.8/functions/v1_0_0/libraries/FunctionsRequest.sol\":4029:4053  self.language = language */\n      swap1\n      0x00\n      dup2\n      gt\n      iszero\n      tag_210\n      jumpi\n      tag_211\n      tag_121\n      jump\t// in\n    tag_211:\n    tag_210:\n      swap1\n      dup2\n      0x00\n      dup2\n      gt\n      iszero\n      tag_212\n      jumpi\n      tag_213\n      tag_121\n      jump\t// in\n    tag_213:\n    tag_212:\n      dup2\n      mstore\n      pop\n      pop\n        /* \"@chainlink/contracts@1.2.0/src/v0.8/functions/v1_0_0/libraries/FunctionsRequest.sol\":4073:4079  source */\n      dup1\n        /* \"@chainlink/contracts@1.2.0/src/v0.8/functions/v1_0_0/libraries/FunctionsRequest.sol\":4059:4063  self */\n      dup5\n        /* \"@chainlink/contracts@1.2.0/src/v0.8/functions/v1_0_0/libraries/FunctionsRequest.sol\":4059:4070  self.source */\n      0x60\n      add\n        /* \"@chainlink/contracts@1.2.0/src/v0.8/functions/v1_0_0/libraries/FunctionsRequest.sol\":4059:4079  self.source = source */\n      dup2\n      swap1\n      mstore\n      pop\n        /* \"@chainlink/contracts@1.2.0/src/v0.8/functions/v1_0_0/libraries/FunctionsRequest.sol\":3777:4084  function initializeRequest(... */\n      pop\n      pop\n      pop\n      pop\n      jump\t// out\n        /* \"@chainlink/contracts@1.2.0/src/v0.8/vendor/solidity-cborutils/v2.0.0/CBOR.sol\":1490:1663  function create(uint256 capacity) internal pure returns(CBORBuffer memory cbor) {... */\n    tag_126:\n        /* \"@chainlink/contracts@1.2.0/src/v0.8/vendor/solidity-cborutils/v2.0.0/CBOR.sol\":1546:1568  CBORBuffer memory cbor */\n      tag_214\n      tag_215\n      jump\t// in\n    tag_214:\n        /* \"@chainlink/contracts@1.2.0/src/v0.8/vendor/solidity-cborutils/v2.0.0/CBOR.sol\":1580:1611  Buffer.init(cbor.buf, capacity) */\n      tag_217\n        /* \"@chainlink/contracts@1.2.0/src/v0.8/vendor/solidity-cborutils/v2.0.0/CBOR.sol\":1592:1596  cbor */\n      dup2\n        /* \"@chainlink/contracts@1.2.0/src/v0.8/vendor/solidity-cborutils/v2.0.0/CBOR.sol\":1592:1600  cbor.buf */\n      0x00\n      add\n      mload\n        /* \"@chainlink/contracts@1.2.0/src/v0.8/vendor/solidity-cborutils/v2.0.0/CBOR.sol\":1602:1610  capacity */\n      dup4\n        /* \"@chainlink/contracts@1.2.0/src/v0.8/vendor/solidity-cborutils/v2.0.0/CBOR.sol\":1580:1591  Buffer.init */\n      tag_218\n        /* \"@chainlink/contracts@1.2.0/src/v0.8/vendor/solidity-cborutils/v2.0.0/CBOR.sol\":1580:1611  Buffer.init(cbor.buf, capacity) */\n      jump\t// in\n    tag_217:\n      pop\n        /* \"@chainlink/contracts@1.2.0/src/v0.8/vendor/solidity-cborutils/v2.0.0/CBOR.sol\":1634:1635  0 */\n      0x00\n        /* \"@chainlink/contracts@1.2.0/src/v0.8/vendor/solidity-cborutils/v2.0.0/CBOR.sol\":1621:1625  cbor */\n      dup2\n        /* \"@chainlink/contracts@1.2.0/src/v0.8/vendor/solidity-cborutils/v2.0.0/CBOR.sol\":1621:1631  cbor.depth */\n      0x20\n      add\n        /* \"@chainlink/contracts@1.2.0/src/v0.8/vendor/solidity-cborutils/v2.0.0/CBOR.sol\":1621:1635  cbor.depth = 0 */\n      dup2\n      dup2\n      mstore\n      pop\n      pop\n        /* \"@chainlink/contracts@1.2.0/src/v0.8/vendor/solidity-cborutils/v2.0.0/CBOR.sol\":1490:1663  function create(uint256 capacity) internal pure returns(CBORBuffer memory cbor) {... */\n      swap2\n      swap1\n      pop\n      jump\t// out\n        /* \"@chainlink/contracts@1.2.0/src/v0.8/vendor/solidity-cborutils/v2.0.0/CBOR.sol\":3021:3225  function writeString(CBORBuffer memory buf, string memory value) internal pure {... */\n    tag_128:\n        /* \"@chainlink/contracts@1.2.0/src/v0.8/vendor/solidity-cborutils/v2.0.0/CBOR.sol\":3110:3180  writeFixedNumeric(buf, MAJOR_TYPE_STRING, uint64(bytes(value).length)) */\n      tag_220\n        /* \"@chainlink/contracts@1.2.0/src/v0.8/vendor/solidity-cborutils/v2.0.0/CBOR.sol\":3128:3131  buf */\n      dup3\n        /* \"@chainlink/contracts@1.2.0/src/v0.8/vendor/solidity-cborutils/v2.0.0/CBOR.sol\":998:999  3 */\n      0x03\n        /* \"@chainlink/contracts@1.2.0/src/v0.8/vendor/solidity-cborutils/v2.0.0/CBOR.sol\":3165:3170  value */\n      dup4\n        /* \"@chainlink/contracts@1.2.0/src/v0.8/vendor/solidity-cborutils/v2.0.0/CBOR.sol\":3159:3178  bytes(value).length */\n      mload\n        /* \"@chainlink/contracts@1.2.0/src/v0.8/vendor/solidity-cborutils/v2.0.0/CBOR.sol\":3110:3127  writeFixedNumeric */\n      tag_221\n        /* \"@chainlink/contracts@1.2.0/src/v0.8/vendor/solidity-cborutils/v2.0.0/CBOR.sol\":3110:3180  writeFixedNumeric(buf, MAJOR_TYPE_STRING, uint64(bytes(value).length)) */\n      jump\t// in\n    tag_220:\n        /* \"@chainlink/contracts@1.2.0/src/v0.8/vendor/solidity-cborutils/v2.0.0/CBOR.sol\":3190:3218  buf.buf.append(bytes(value)) */\n      tag_222\n        /* \"@chainlink/contracts@1.2.0/src/v0.8/vendor/solidity-cborutils/v2.0.0/CBOR.sol\":3211:3216  value */\n      dup2\n        /* \"@chainlink/contracts@1.2.0/src/v0.8/vendor/solidity-cborutils/v2.0.0/CBOR.sol\":3190:3193  buf */\n      dup4\n        /* \"@chainlink/contracts@1.2.0/src/v0.8/vendor/solidity-cborutils/v2.0.0/CBOR.sol\":3190:3197  buf.buf */\n      0x00\n      add\n      mload\n        /* \"@chainlink/contracts@1.2.0/src/v0.8/vendor/solidity-cborutils/v2.0.0/CBOR.sol\":3190:3204  buf.buf.append */\n      tag_223\n      swap1\n        /* \"@chainlink/contracts@1.2.0/src/v0.8/vendor/solidity-cborutils/v2.0.0/CBOR.sol\":3190:3218  buf.buf.append(bytes(value)) */\n      swap2\n      swap1\n      0xffffffff\n      and\n      jump\t// in\n    tag_222:\n      pop\n        /* \"@chainlink/contracts@1.2.0/src/v0.8/vendor/solidity-cborutils/v2.0.0/CBOR.sol\":3021:3225  function writeString(CBORBuffer memory buf, string memory value) internal pure {... */\n      pop\n      pop\n      jump\t// out\n        /* \"@chainlink/contracts@1.2.0/src/v0.8/vendor/solidity-cborutils/v2.0.0/CBOR.sol\":2406:2540  function writeUInt64(CBORBuffer memory buf, uint64 value) internal pure {... */\n    tag_130:\n        /* \"@chainlink/contracts@1.2.0/src/v0.8/vendor/solidity-cborutils/v2.0.0/CBOR.sol\":2488:2533  writeFixedNumeric(buf, MAJOR_TYPE_INT, value) */\n      tag_225\n        /* \"@chainlink/contracts@1.2.0/src/v0.8/vendor/solidity-cborutils/v2.0.0/CBOR.sol\":2506:2509  buf */\n      dup3\n        /* \"@chainlink/contracts@1.2.0/src/v0.8/vendor/solidity-cborutils/v2.0.0/CBOR.sol\":843:844  0 */\n      0x00\n        /* \"@chainlink/contracts@1.2.0/src/v0.8/vendor/solidity-cborutils/v2.0.0/CBOR.sol\":2527:2532  value */\n      dup4\n        /* \"@chainlink/contracts@1.2.0/src/v0.8/vendor/solidity-cborutils/v2.0.0/CBOR.sol\":2488:2505  writeFixedNumeric */\n      tag_221\n        /* \"@chainlink/contracts@1.2.0/src/v0.8/vendor/solidity-cborutils/v2.0.0/CBOR.sol\":2488:2533  writeFixedNumeric(buf, MAJOR_TYPE_INT, value) */\n      jump\t// in\n    tag_225:\n        /* \"@chainlink/contracts@1.2.0/src/v0.8/vendor/solidity-cborutils/v2.0.0/CBOR.sol\":2406:2540  function writeUInt64(CBORBuffer memory buf, uint64 value) internal pure {... */\n      pop\n      pop\n      jump\t// out\n        /* \"@chainlink/contracts@1.2.0/src/v0.8/vendor/solidity-cborutils/v2.0.0/CBOR.sol\":1832:2034  function writeUInt256(CBORBuffer memory buf, uint256 value) internal pure {... */\n    tag_147:\n        /* \"@chainlink/contracts@1.2.0/src/v0.8/vendor/solidity-cborutils/v2.0.0/CBOR.sol\":1916:1983  buf.buf.appendUint8(uint8((MAJOR_TYPE_TAG << 5) | TAG_TYPE_BIGNUM)) */\n      tag_227\n        /* \"@chainlink/contracts@1.2.0/src/v0.8/vendor/solidity-cborutils/v2.0.0/CBOR.sol\":1246:1247  2 */\n      0x02\n        /* \"@chainlink/contracts@1.2.0/src/v0.8/vendor/solidity-cborutils/v2.0.0/CBOR.sol\":1961:1962  5 */\n      0x05\n        /* \"@chainlink/contracts@1.2.0/src/v0.8/vendor/solidity-cborutils/v2.0.0/CBOR.sol\":1141:1142  6 */\n      0x06\n        /* \"@chainlink/contracts@1.2.0/src/v0.8/vendor/solidity-cborutils/v2.0.0/CBOR.sol\":1943:1962  MAJOR_TYPE_TAG << 5 */\n      0xff\n      and\n      swap1\n      shl\n        /* \"@chainlink/contracts@1.2.0/src/v0.8/vendor/solidity-cborutils/v2.0.0/CBOR.sol\":1942:1981  (MAJOR_TYPE_TAG << 5) | TAG_TYPE_BIGNUM */\n      or\n        /* \"@chainlink/contracts@1.2.0/src/v0.8/vendor/solidity-cborutils/v2.0.0/CBOR.sol\":1916:1919  buf */\n      dup4\n        /* \"@chainlink/contracts@1.2.0/src/v0.8/vendor/solidity-cborutils/v2.0.0/CBOR.sol\":1916:1923  buf.buf */\n      0x00\n      add\n      mload\n        /* \"@chainlink/contracts@1.2.0/src/v0.8/vendor/solidity-cborutils/v2.0.0/CBOR.sol\":1916:1935  buf.buf.appendUint8 */\n      tag_228\n      swap1\n        /* \"@chainlink/contracts@1.2.0/src/v0.8/vendor/solidity-cborutils/v2.0.0/CBOR.sol\":1916:1983  buf.buf.appendUint8(uint8((MAJOR_TYPE_TAG << 5) | TAG_TYPE_BIGNUM)) */\n      swap2\n      swap1\n      0xffffffff\n      and\n      jump\t// in\n    tag_227:\n      pop\n        /* \"@chainlink/contracts@1.2.0/src/v0.8/vendor/solidity-cborutils/v2.0.0/CBOR.sol\":1993:2027  writeBytes(buf, abi.encode(value)) */\n      tag_229\n        /* \"@chainlink/contracts@1.2.0/src/v0.8/vendor/solidity-cborutils/v2.0.0/CBOR.sol\":2004:2007  buf */\n      dup3\n        /* \"@chainlink/contracts@1.2.0/src/v0.8/vendor/solidity-cborutils/v2.0.0/CBOR.sol\":2020:2025  value */\n      dup3\n        /* \"@chainlink/contracts@1.2.0/src/v0.8/vendor/solidity-cborutils/v2.0.0/CBOR.sol\":2009:2026  abi.encode(value) */\n      add(0x20, mload(0x40))\n      tag_230\n      swap2\n      swap1\n      tag_231\n      jump\t// in\n    tag_230:\n      mload(0x40)\n      0x20\n      dup2\n      dup4\n      sub\n      sub\n      dup2\n      mstore\n      swap1\n      0x40\n      mstore\n        /* \"@chainlink/contracts@1.2.0/src/v0.8/vendor/solidity-cborutils/v2.0.0/CBOR.sol\":1993:2003  writeBytes */\n      tag_181\n        /* \"@chainlink/contracts@1.2.0/src/v0.8/vendor/solidity-cborutils/v2.0.0/CBOR.sol\":1993:2027  writeBytes(buf, abi.encode(value)) */\n      jump\t// in\n    tag_229:\n        /* \"@chainlink/contracts@1.2.0/src/v0.8/vendor/solidity-cborutils/v2.0.0/CBOR.sol\":1832:2034  function writeUInt256(CBORBuffer memory buf, uint256 value) internal pure {... */\n      pop\n      pop\n      jump\t// out\n        /* \"@chainlink/contracts@1.2.0/src/v0.8/vendor/solidity-cborutils/v2.0.0/CBOR.sol\":3607:3753  function startArray(CBORBuffer memory buf) internal pure {... */\n    tag_157:\n        /* \"@chainlink/contracts@1.2.0/src/v0.8/vendor/solidity-cborutils/v2.0.0/CBOR.sol\":3674:3722  writeIndefiniteLengthType(buf, MAJOR_TYPE_ARRAY) */\n      tag_233\n        /* \"@chainlink/contracts@1.2.0/src/v0.8/vendor/solidity-cborutils/v2.0.0/CBOR.sol\":3700:3703  buf */\n      dup2\n        /* \"@chainlink/contracts@1.2.0/src/v0.8/vendor/solidity-cborutils/v2.0.0/CBOR.sol\":1047:1048  4 */\n      0x04\n        /* \"@chainlink/contracts@1.2.0/src/v0.8/vendor/solidity-cborutils/v2.0.0/CBOR.sol\":3674:3699  writeIndefiniteLengthType */\n      tag_234\n        /* \"@chainlink/contracts@1.2.0/src/v0.8/vendor/solidity-cborutils/v2.0.0/CBOR.sol\":3674:3722  writeIndefiniteLengthType(buf, MAJOR_TYPE_ARRAY) */\n      jump\t// in\n    tag_233:\n        /* \"@chainlink/contracts@1.2.0/src/v0.8/vendor/solidity-cborutils/v2.0.0/CBOR.sol\":3745:3746  1 */\n      0x01\n        /* \"@chainlink/contracts@1.2.0/src/v0.8/vendor/solidity-cborutils/v2.0.0/CBOR.sol\":3732:3735  buf */\n      dup2\n        /* \"@chainlink/contracts@1.2.0/src/v0.8/vendor/solidity-cborutils/v2.0.0/CBOR.sol\":3732:3741  buf.depth */\n      0x20\n      add\n        /* \"@chainlink/contracts@1.2.0/src/v0.8/vendor/solidity-cborutils/v2.0.0/CBOR.sol\":3732:3746  buf.depth += 1 */\n      dup2\n      dup2\n      mload\n      tag_235\n      swap2\n      swap1\n      tag_236\n      jump\t// in\n    tag_235:\n      swap2\n      pop\n      dup2\n      dup2\n      mstore\n      pop\n      pop\n        /* \"@chainlink/contracts@1.2.0/src/v0.8/vendor/solidity-cborutils/v2.0.0/CBOR.sol\":3607:3753  function startArray(CBORBuffer memory buf) internal pure {... */\n      pop\n      jump\t// out\n        /* \"@chainlink/contracts@1.2.0/src/v0.8/vendor/solidity-cborutils/v2.0.0/CBOR.sol\":4211:4365  function endSequence(CBORBuffer memory buf) internal pure {... */\n    tag_168:\n        /* \"@chainlink/contracts@1.2.0/src/v0.8/vendor/solidity-cborutils/v2.0.0/CBOR.sol\":4279:4334  writeIndefiniteLengthType(buf, MAJOR_TYPE_CONTENT_FREE) */\n      tag_238\n        /* \"@chainlink/contracts@1.2.0/src/v0.8/vendor/solidity-cborutils/v2.0.0/CBOR.sol\":4305:4308  buf */\n      dup2\n        /* \"@chainlink/contracts@1.2.0/src/v0.8/vendor/solidity-cborutils/v2.0.0/CBOR.sol\":1197:1198  7 */\n      0x07\n        /* \"@chainlink/contracts@1.2.0/src/v0.8/vendor/solidity-cborutils/v2.0.0/CBOR.sol\":4279:4304  writeIndefiniteLengthType */\n      tag_234\n        /* \"@chainlink/contracts@1.2.0/src/v0.8/vendor/solidity-cborutils/v2.0.0/CBOR.sol\":4279:4334  writeIndefiniteLengthType(buf, MAJOR_TYPE_CONTENT_FREE) */\n      jump\t// in\n    tag_238:\n        /* \"@chainlink/contracts@1.2.0/src/v0.8/vendor/solidity-cborutils/v2.0.0/CBOR.sol\":4357:4358  1 */\n      0x01\n        /* \"@chainlink/contracts@1.2.0/src/v0.8/vendor/solidity-cborutils/v2.0.0/CBOR.sol\":4344:4347  buf */\n      dup2\n        /* \"@chainlink/contracts@1.2.0/src/v0.8/vendor/solidity-cborutils/v2.0.0/CBOR.sol\":4344:4353  buf.depth */\n      0x20\n      add\n        /* \"@chainlink/contracts@1.2.0/src/v0.8/vendor/solidity-cborutils/v2.0.0/CBOR.sol\":4344:4358  buf.depth -= 1 */\n      dup2\n      dup2\n      mload\n      tag_239\n      swap2\n      swap1\n      tag_240\n      jump\t// in\n    tag_239:\n      swap2\n      pop\n      dup2\n      dup2\n      mstore\n      pop\n      pop\n        /* \"@chainlink/contracts@1.2.0/src/v0.8/vendor/solidity-cborutils/v2.0.0/CBOR.sol\":4211:4365  function endSequence(CBORBuffer memory buf) internal pure {... */\n      pop\n      jump\t// out\n        /* \"@chainlink/contracts@1.2.0/src/v0.8/vendor/solidity-cborutils/v2.0.0/CBOR.sol\":2828:3015  function writeBytes(CBORBuffer memory buf, bytes memory value) internal pure {... */\n    tag_181:\n        /* \"@chainlink/contracts@1.2.0/src/v0.8/vendor/solidity-cborutils/v2.0.0/CBOR.sol\":2915:2977  writeFixedNumeric(buf, MAJOR_TYPE_BYTES, uint64(value.length)) */\n      tag_242\n        /* \"@chainlink/contracts@1.2.0/src/v0.8/vendor/solidity-cborutils/v2.0.0/CBOR.sol\":2933:2936  buf */\n      dup3\n        /* \"@chainlink/contracts@1.2.0/src/v0.8/vendor/solidity-cborutils/v2.0.0/CBOR.sol\":948:949  2 */\n      0x02\n        /* \"@chainlink/contracts@1.2.0/src/v0.8/vendor/solidity-cborutils/v2.0.0/CBOR.sol\":2963:2968  value */\n      dup4\n        /* \"@chainlink/contracts@1.2.0/src/v0.8/vendor/solidity-cborutils/v2.0.0/CBOR.sol\":2963:2975  value.length */\n      mload\n        /* \"@chainlink/contracts@1.2.0/src/v0.8/vendor/solidity-cborutils/v2.0.0/CBOR.sol\":2915:2932  writeFixedNumeric */\n      tag_221\n        /* \"@chainlink/contracts@1.2.0/src/v0.8/vendor/solidity-cborutils/v2.0.0/CBOR.sol\":2915:2977  writeFixedNumeric(buf, MAJOR_TYPE_BYTES, uint64(value.length)) */\n      jump\t// in\n    tag_242:\n        /* \"@chainlink/contracts@1.2.0/src/v0.8/vendor/solidity-cborutils/v2.0.0/CBOR.sol\":2987:3008  buf.buf.append(value) */\n      tag_243\n        /* \"@chainlink/contracts@1.2.0/src/v0.8/vendor/solidity-cborutils/v2.0.0/CBOR.sol\":3002:3007  value */\n      dup2\n        /* \"@chainlink/contracts@1.2.0/src/v0.8/vendor/solidity-cborutils/v2.0.0/CBOR.sol\":2987:2990  buf */\n      dup4\n        /* \"@chainlink/contracts@1.2.0/src/v0.8/vendor/solidity-cborutils/v2.0.0/CBOR.sol\":2987:2994  buf.buf */\n      0x00\n      add\n      mload\n        /* \"@chainlink/contracts@1.2.0/src/v0.8/vendor/solidity-cborutils/v2.0.0/CBOR.sol\":2987:3001  buf.buf.append */\n      tag_223\n      swap1\n        /* \"@chainlink/contracts@1.2.0/src/v0.8/vendor/solidity-cborutils/v2.0.0/CBOR.sol\":2987:3008  buf.buf.append(value) */\n      swap2\n      swap1\n      0xffffffff\n      and\n      jump\t// in\n    tag_243:\n      pop\n        /* \"@chainlink/contracts@1.2.0/src/v0.8/vendor/solidity-cborutils/v2.0.0/CBOR.sol\":2828:3015  function writeBytes(CBORBuffer memory buf, bytes memory value) internal pure {... */\n      pop\n      pop\n      jump\t// out\n        /* \"@chainlink/contracts@1.2.0/src/v0.8/vendor/@ensdomains/buffer/v0.1.0/Buffer.sol\":1020:1575  function init(buffer memory buf, uint capacity) internal pure returns(buffer memory) {... */\n    tag_218:\n        /* \"@chainlink/contracts@1.2.0/src/v0.8/vendor/@ensdomains/buffer/v0.1.0/Buffer.sol\":1090:1103  buffer memory */\n      tag_244\n      tag_245\n      jump\t// in\n    tag_244:\n        /* \"@chainlink/contracts@1.2.0/src/v0.8/vendor/@ensdomains/buffer/v0.1.0/Buffer.sol\":1136:1137  0 */\n      0x00\n        /* \"@chainlink/contracts@1.2.0/src/v0.8/vendor/@ensdomains/buffer/v0.1.0/Buffer.sol\":1130:1132  32 */\n      0x20\n        /* \"@chainlink/contracts@1.2.0/src/v0.8/vendor/@ensdomains/buffer/v0.1.0/Buffer.sol\":1119:1127  capacity */\n      dup4\n        /* \"@chainlink/contracts@1.2.0/src/v0.8/vendor/@ensdomains/buffer/v0.1.0/Buffer.sol\":1119:1132  capacity % 32 */\n      tag_247\n      swap2\n      swap1\n      tag_248\n      jump\t// in\n    tag_247:\n        /* \"@chainlink/contracts@1.2.0/src/v0.8/vendor/@ensdomains/buffer/v0.1.0/Buffer.sol\":1119:1137  capacity % 32 != 0 */\n      eq\n        /* \"@chainlink/contracts@1.2.0/src/v0.8/vendor/@ensdomains/buffer/v0.1.0/Buffer.sol\":1115:1196  if (capacity % 32 != 0) {... */\n      tag_249\n      jumpi\n        /* \"@chainlink/contracts@1.2.0/src/v0.8/vendor/@ensdomains/buffer/v0.1.0/Buffer.sol\":1182:1184  32 */\n      0x20\n        /* \"@chainlink/contracts@1.2.0/src/v0.8/vendor/@ensdomains/buffer/v0.1.0/Buffer.sol\":1171:1179  capacity */\n      dup3\n        /* \"@chainlink/contracts@1.2.0/src/v0.8/vendor/@ensdomains/buffer/v0.1.0/Buffer.sol\":1171:1184  capacity % 32 */\n      tag_250\n      swap2\n      swap1\n      tag_248\n      jump\t// in\n    tag_250:\n        /* \"@chainlink/contracts@1.2.0/src/v0.8/vendor/@ensdomains/buffer/v0.1.0/Buffer.sol\":1165:1167  32 */\n      0x20\n        /* \"@chainlink/contracts@1.2.0/src/v0.8/vendor/@ensdomains/buffer/v0.1.0/Buffer.sol\":1165:1185  32 - (capacity % 32) */\n      tag_251\n      swap2\n      swap1\n      tag_240\n      jump\t// in\n    tag_251:\n        /* \"@chainlink/contracts@1.2.0/src/v0.8/vendor/@ensdomains/buffer/v0.1.0/Buffer.sol\":1153:1185  capacity += 32 - (capacity % 32) */\n      dup3\n      tag_252\n      swap2\n      swap1\n      tag_236\n      jump\t// in\n    tag_252:\n      swap2\n      pop\n        /* \"@chainlink/contracts@1.2.0/src/v0.8/vendor/@ensdomains/buffer/v0.1.0/Buffer.sol\":1115:1196  if (capacity % 32 != 0) {... */\n    tag_249:\n        /* \"@chainlink/contracts@1.2.0/src/v0.8/vendor/@ensdomains/buffer/v0.1.0/Buffer.sol\":1266:1274  capacity */\n      dup2\n        /* \"@chainlink/contracts@1.2.0/src/v0.8/vendor/@ensdomains/buffer/v0.1.0/Buffer.sol\":1251:1254  buf */\n      dup4\n        /* \"@chainlink/contracts@1.2.0/src/v0.8/vendor/@ensdomains/buffer/v0.1.0/Buffer.sol\":1251:1263  buf.capacity */\n      0x20\n      add\n        /* \"@chainlink/contracts@1.2.0/src/v0.8/vendor/@ensdomains/buffer/v0.1.0/Buffer.sol\":1251:1274  buf.capacity = capacity */\n      dup2\n      dup2\n      mstore\n      pop\n      pop\n        /* \"@chainlink/contracts@1.2.0/src/v0.8/vendor/@ensdomains/buffer/v0.1.0/Buffer.sol\":1324:1328  0x40 */\n      0x40\n        /* \"@chainlink/contracts@1.2.0/src/v0.8/vendor/@ensdomains/buffer/v0.1.0/Buffer.sol\":1318:1329  mload(0x40) */\n      mload\n        /* \"@chainlink/contracts@1.2.0/src/v0.8/vendor/@ensdomains/buffer/v0.1.0/Buffer.sol\":1354:1357  ptr */\n      dup1\n        /* \"@chainlink/contracts@1.2.0/src/v0.8/vendor/@ensdomains/buffer/v0.1.0/Buffer.sol\":1349:1352  buf */\n      dup5\n        /* \"@chainlink/contracts@1.2.0/src/v0.8/vendor/@ensdomains/buffer/v0.1.0/Buffer.sol\":1342:1358  mstore(buf, ptr) */\n      mstore\n        /* \"@chainlink/contracts@1.2.0/src/v0.8/vendor/@ensdomains/buffer/v0.1.0/Buffer.sol\":1383:1384  0 */\n      0x00\n        /* \"@chainlink/contracts@1.2.0/src/v0.8/vendor/@ensdomains/buffer/v0.1.0/Buffer.sol\":1378:1381  ptr */\n      dup2\n        /* \"@chainlink/contracts@1.2.0/src/v0.8/vendor/@ensdomains/buffer/v0.1.0/Buffer.sol\":1371:1385  mstore(ptr, 0) */\n      mstore\n        /* \"@chainlink/contracts@1.2.0/src/v0.8/vendor/@ensdomains/buffer/v0.1.0/Buffer.sol\":1426:1434  capacity */\n      dup3\n        /* \"@chainlink/contracts@1.2.0/src/v0.8/vendor/@ensdomains/buffer/v0.1.0/Buffer.sol\":1421:1424  ptr */\n      dup2\n        /* \"@chainlink/contracts@1.2.0/src/v0.8/vendor/@ensdomains/buffer/v0.1.0/Buffer.sol\":1417:1435  add(ptr, capacity) */\n      add\n        /* \"@chainlink/contracts@1.2.0/src/v0.8/vendor/@ensdomains/buffer/v0.1.0/Buffer.sol\":1413:1415  32 */\n      0x20\n        /* \"@chainlink/contracts@1.2.0/src/v0.8/vendor/@ensdomains/buffer/v0.1.0/Buffer.sol\":1409:1436  add(32, add(ptr, capacity)) */\n      add\n        /* \"@chainlink/contracts@1.2.0/src/v0.8/vendor/@ensdomains/buffer/v0.1.0/Buffer.sol\":1460:1463  ptr */\n      dup2\n        /* \"@chainlink/contracts@1.2.0/src/v0.8/vendor/@ensdomains/buffer/v0.1.0/Buffer.sol\":1455:1458  fpm */\n      dup2\n        /* \"@chainlink/contracts@1.2.0/src/v0.8/vendor/@ensdomains/buffer/v0.1.0/Buffer.sol\":1452:1464  lt(fpm, ptr) */\n      lt\n        /* \"@chainlink/contracts@1.2.0/src/v0.8/vendor/@ensdomains/buffer/v0.1.0/Buffer.sol\":1449:1509  if lt(fpm, ptr) {... */\n      iszero\n      tag_253\n      jumpi\n        /* \"@chainlink/contracts@1.2.0/src/v0.8/vendor/@ensdomains/buffer/v0.1.0/Buffer.sol\":1493:1494  0 */\n      0x00\n        /* \"@chainlink/contracts@1.2.0/src/v0.8/vendor/@ensdomains/buffer/v0.1.0/Buffer.sol\":1490:1491  0 */\n      dup1\n        /* \"@chainlink/contracts@1.2.0/src/v0.8/vendor/@ensdomains/buffer/v0.1.0/Buffer.sol\":1483:1495  revert(0, 0) */\n      revert\n        /* \"@chainlink/contracts@1.2.0/src/v0.8/vendor/@ensdomains/buffer/v0.1.0/Buffer.sol\":1449:1509  if lt(fpm, ptr) {... */\n    tag_253:\n        /* \"@chainlink/contracts@1.2.0/src/v0.8/vendor/@ensdomains/buffer/v0.1.0/Buffer.sol\":1535:1538  fpm */\n      dup1\n        /* \"@chainlink/contracts@1.2.0/src/v0.8/vendor/@ensdomains/buffer/v0.1.0/Buffer.sol\":1529:1533  0x40 */\n      0x40\n        /* \"@chainlink/contracts@1.2.0/src/v0.8/vendor/@ensdomains/buffer/v0.1.0/Buffer.sol\":1522:1539  mstore(0x40, fpm) */\n      mstore\n        /* \"@chainlink/contracts@1.2.0/src/v0.8/vendor/@ensdomains/buffer/v0.1.0/Buffer.sol\":1293:1549  {... */\n      pop\n      pop\n        /* \"@chainlink/contracts@1.2.0/src/v0.8/vendor/@ensdomains/buffer/v0.1.0/Buffer.sol\":1565:1568  buf */\n      dup3\n        /* \"@chainlink/contracts@1.2.0/src/v0.8/vendor/@ensdomains/buffer/v0.1.0/Buffer.sol\":1558:1568  return buf */\n      swap1\n      pop\n        /* \"@chainlink/contracts@1.2.0/src/v0.8/vendor/@ensdomains/buffer/v0.1.0/Buffer.sol\":1020:1575  function init(buffer memory buf, uint capacity) internal pure returns(buffer memory) {... */\n      swap3\n      swap2\n      pop\n      pop\n      jump\t// out\n        /* \"@chainlink/contracts@1.2.0/src/v0.8/vendor/solidity-cborutils/v2.0.0/CBOR.sol\":6156:6915  function writeFixedNumeric(... */\n    tag_221:\n        /* \"@chainlink/contracts@1.2.0/src/v0.8/vendor/solidity-cborutils/v2.0.0/CBOR.sol\":6299:6301  23 */\n      0x17\n        /* \"@chainlink/contracts@1.2.0/src/v0.8/vendor/solidity-cborutils/v2.0.0/CBOR.sol\":6290:6295  value */\n      dup2\n        /* \"@chainlink/contracts@1.2.0/src/v0.8/vendor/solidity-cborutils/v2.0.0/CBOR.sol\":6290:6301  value <= 23 */\n      0xffffffffffffffff\n      and\n      gt\n        /* \"@chainlink/contracts@1.2.0/src/v0.8/vendor/solidity-cborutils/v2.0.0/CBOR.sol\":6286:6909  if (value <= 23) {... */\n      tag_255\n      jumpi\n        /* \"@chainlink/contracts@1.2.0/src/v0.8/vendor/solidity-cborutils/v2.0.0/CBOR.sol\":6317:6365  buf.buf.appendUint8(uint8((major << 5) | value)) */\n      tag_256\n        /* \"@chainlink/contracts@1.2.0/src/v0.8/vendor/solidity-cborutils/v2.0.0/CBOR.sol\":6358:6363  value */\n      dup2\n        /* \"@chainlink/contracts@1.2.0/src/v0.8/vendor/solidity-cborutils/v2.0.0/CBOR.sol\":6353:6354  5 */\n      0x05\n        /* \"@chainlink/contracts@1.2.0/src/v0.8/vendor/solidity-cborutils/v2.0.0/CBOR.sol\":6344:6349  major */\n      dup5\n        /* \"@chainlink/contracts@1.2.0/src/v0.8/vendor/solidity-cborutils/v2.0.0/CBOR.sol\":6344:6354  major << 5 */\n      0xff\n      and\n      swap1\n      shl\n        /* \"@chainlink/contracts@1.2.0/src/v0.8/vendor/solidity-cborutils/v2.0.0/CBOR.sol\":6343:6363  (major << 5) | value */\n      0xff\n      and\n      or\n        /* \"@chainlink/contracts@1.2.0/src/v0.8/vendor/solidity-cborutils/v2.0.0/CBOR.sol\":6317:6320  buf */\n      dup5\n        /* \"@chainlink/contracts@1.2.0/src/v0.8/vendor/solidity-cborutils/v2.0.0/CBOR.sol\":6317:6324  buf.buf */\n      0x00\n      add\n      mload\n        /* \"@chainlink/contracts@1.2.0/src/v0.8/vendor/solidity-cborutils/v2.0.0/CBOR.sol\":6317:6336  buf.buf.appendUint8 */\n      tag_228\n      swap1\n        /* \"@chainlink/contracts@1.2.0/src/v0.8/vendor/solidity-cborutils/v2.0.0/CBOR.sol\":6317:6365  buf.buf.appendUint8(uint8((major << 5) | value)) */\n      swap2\n      swap1\n      0xffffffff\n      and\n      jump\t// in\n    tag_256:\n      pop\n        /* \"@chainlink/contracts@1.2.0/src/v0.8/vendor/solidity-cborutils/v2.0.0/CBOR.sol\":6286:6909  if (value <= 23) {... */\n      jump(tag_257)\n    tag_255:\n        /* \"@chainlink/contracts@1.2.0/src/v0.8/vendor/solidity-cborutils/v2.0.0/CBOR.sol\":6395:6399  0xFF */\n      0xff\n        /* \"@chainlink/contracts@1.2.0/src/v0.8/vendor/solidity-cborutils/v2.0.0/CBOR.sol\":6386:6391  value */\n      dup2\n        /* \"@chainlink/contracts@1.2.0/src/v0.8/vendor/solidity-cborutils/v2.0.0/CBOR.sol\":6386:6399  value <= 0xFF */\n      0xffffffffffffffff\n      and\n      gt\n        /* \"@chainlink/contracts@1.2.0/src/v0.8/vendor/solidity-cborutils/v2.0.0/CBOR.sol\":6382:6909  if (value <= 0xFF) {... */\n      tag_258\n      jumpi\n        /* \"@chainlink/contracts@1.2.0/src/v0.8/vendor/solidity-cborutils/v2.0.0/CBOR.sol\":6415:6460  buf.buf.appendUint8(uint8((major << 5) | 24)) */\n      tag_259\n        /* \"@chainlink/contracts@1.2.0/src/v0.8/vendor/solidity-cborutils/v2.0.0/CBOR.sol\":6456:6458  24 */\n      0x18\n        /* \"@chainlink/contracts@1.2.0/src/v0.8/vendor/solidity-cborutils/v2.0.0/CBOR.sol\":6451:6452  5 */\n      0x05\n        /* \"@chainlink/contracts@1.2.0/src/v0.8/vendor/solidity-cborutils/v2.0.0/CBOR.sol\":6442:6447  major */\n      dup5\n        /* \"@chainlink/contracts@1.2.0/src/v0.8/vendor/solidity-cborutils/v2.0.0/CBOR.sol\":6442:6452  major << 5 */\n      0xff\n      and\n      swap1\n      shl\n        /* \"@chainlink/contracts@1.2.0/src/v0.8/vendor/solidity-cborutils/v2.0.0/CBOR.sol\":6441:6458  (major << 5) | 24 */\n      or\n        /* \"@chainlink/contracts@1.2.0/src/v0.8/vendor/solidity-cborutils/v2.0.0/CBOR.sol\":6415:6418  buf */\n      dup5\n        /* \"@chainlink/contracts@1.2.0/src/v0.8/vendor/solidity-cborutils/v2.0.0/CBOR.sol\":6415:6422  buf.buf */\n      0x00\n      add\n      mload\n        /* \"@chainlink/contracts@1.2.0/src/v0.8/vendor/solidity-cborutils/v2.0.0/CBOR.sol\":6415:6434  buf.buf.appendUint8 */\n      tag_228\n      swap1\n        /* \"@chainlink/contracts@1.2.0/src/v0.8/vendor/solidity-cborutils/v2.0.0/CBOR.sol\":6415:6460  buf.buf.appendUint8(uint8((major << 5) | 24)) */\n      swap2\n      swap1\n      0xffffffff\n      and\n      jump\t// in\n    tag_259:\n      pop\n        /* \"@chainlink/contracts@1.2.0/src/v0.8/vendor/solidity-cborutils/v2.0.0/CBOR.sol\":6474:6501  buf.buf.appendInt(value, 1) */\n      tag_260\n        /* \"@chainlink/contracts@1.2.0/src/v0.8/vendor/solidity-cborutils/v2.0.0/CBOR.sol\":6492:6497  value */\n      dup2\n        /* \"@chainlink/contracts@1.2.0/src/v0.8/vendor/solidity-cborutils/v2.0.0/CBOR.sol\":6474:6501  buf.buf.appendInt(value, 1) */\n      0xffffffffffffffff\n      and\n        /* \"@chainlink/contracts@1.2.0/src/v0.8/vendor/solidity-cborutils/v2.0.0/CBOR.sol\":6499:6500  1 */\n      0x01\n        /* \"@chainlink/contracts@1.2.0/src/v0.8/vendor/solidity-cborutils/v2.0.0/CBOR.sol\":6474:6477  buf */\n      dup6\n        /* \"@chainlink/contracts@1.2.0/src/v0.8/vendor/solidity-cborutils/v2.0.0/CBOR.sol\":6474:6481  buf.buf */\n      0x00\n      add\n      mload\n        /* \"@chainlink/contracts@1.2.0/src/v0.8/vendor/solidity-cborutils/v2.0.0/CBOR.sol\":6474:6491  buf.buf.appendInt */\n      tag_261\n      swap1\n        /* \"@chainlink/contracts@1.2.0/src/v0.8/vendor/solidity-cborutils/v2.0.0/CBOR.sol\":6474:6501  buf.buf.appendInt(value, 1) */\n      swap3\n      swap2\n      swap1\n      0xffffffff\n      and\n      jump\t// in\n    tag_260:\n      pop\n        /* \"@chainlink/contracts@1.2.0/src/v0.8/vendor/solidity-cborutils/v2.0.0/CBOR.sol\":6382:6909  if (value <= 0xFF) {... */\n      jump(tag_262)\n    tag_258:\n        /* \"@chainlink/contracts@1.2.0/src/v0.8/vendor/solidity-cborutils/v2.0.0/CBOR.sol\":6531:6537  0xFFFF */\n      0xffff\n        /* \"@chainlink/contracts@1.2.0/src/v0.8/vendor/solidity-cborutils/v2.0.0/CBOR.sol\":6522:6527  value */\n      dup2\n        /* \"@chainlink/contracts@1.2.0/src/v0.8/vendor/solidity-cborutils/v2.0.0/CBOR.sol\":6522:6537  value <= 0xFFFF */\n      0xffffffffffffffff\n      and\n      gt\n        /* \"@chainlink/contracts@1.2.0/src/v0.8/vendor/solidity-cborutils/v2.0.0/CBOR.sol\":6518:6909  if (value <= 0xFFFF) {... */\n      tag_263\n      jumpi\n        /* \"@chainlink/contracts@1.2.0/src/v0.8/vendor/solidity-cborutils/v2.0.0/CBOR.sol\":6553:6598  buf.buf.appendUint8(uint8((major << 5) | 25)) */\n      tag_264\n        /* \"@chainlink/contracts@1.2.0/src/v0.8/vendor/solidity-cborutils/v2.0.0/CBOR.sol\":6594:6596  25 */\n      0x19\n        /* \"@chainlink/contracts@1.2.0/src/v0.8/vendor/solidity-cborutils/v2.0.0/CBOR.sol\":6589:6590  5 */\n      0x05\n        /* \"@chainlink/contracts@1.2.0/src/v0.8/vendor/solidity-cborutils/v2.0.0/CBOR.sol\":6580:6585  major */\n      dup5\n        /* \"@chainlink/contracts@1.2.0/src/v0.8/vendor/solidity-cborutils/v2.0.0/CBOR.sol\":6580:6590  major << 5 */\n      0xff\n      and\n      swap1\n      shl\n        /* \"@chainlink/contracts@1.2.0/src/v0.8/vendor/solidity-cborutils/v2.0.0/CBOR.sol\":6579:6596  (major << 5) | 25 */\n      or\n        /* \"@chainlink/contracts@1.2.0/src/v0.8/vendor/solidity-cborutils/v2.0.0/CBOR.sol\":6553:6556  buf */\n      dup5\n        /* \"@chainlink/contracts@1.2.0/src/v0.8/vendor/solidity-cborutils/v2.0.0/CBOR.sol\":6553:6560  buf.buf */\n      0x00\n      add\n      mload\n        /* \"@chainlink/contracts@1.2.0/src/v0.8/vendor/solidity-cborutils/v2.0.0/CBOR.sol\":6553:6572  buf.buf.appendUint8 */\n      tag_228\n      swap1\n        /* \"@chainlink/contracts@1.2.0/src/v0.8/vendor/solidity-cborutils/v2.0.0/CBOR.sol\":6553:6598  buf.buf.appendUint8(uint8((major << 5) | 25)) */\n      swap2\n      swap1\n      0xffffffff\n      and\n      jump\t// in\n    tag_264:\n      pop\n        /* \"@chainlink/contracts@1.2.0/src/v0.8/vendor/solidity-cborutils/v2.0.0/CBOR.sol\":6612:6639  buf.buf.appendInt(value, 2) */\n      tag_265\n        /* \"@chainlink/contracts@1.2.0/src/v0.8/vendor/solidity-cborutils/v2.0.0/CBOR.sol\":6630:6635  value */\n      dup2\n        /* \"@chainlink/contracts@1.2.0/src/v0.8/vendor/solidity-cborutils/v2.0.0/CBOR.sol\":6612:6639  buf.buf.appendInt(value, 2) */\n      0xffffffffffffffff\n      and\n        /* \"@chainlink/contracts@1.2.0/src/v0.8/vendor/solidity-cborutils/v2.0.0/CBOR.sol\":6637:6638  2 */\n      0x02\n        /* \"@chainlink/contracts@1.2.0/src/v0.8/vendor/solidity-cborutils/v2.0.0/CBOR.sol\":6612:6615  buf */\n      dup6\n        /* \"@chainlink/contracts@1.2.0/src/v0.8/vendor/solidity-cborutils/v2.0.0/CBOR.sol\":6612:6619  buf.buf */\n      0x00\n      add\n      mload\n        /* \"@chainlink/contracts@1.2.0/src/v0.8/vendor/solidity-cborutils/v2.0.0/CBOR.sol\":6612:6629  buf.buf.appendInt */\n      tag_261\n      swap1\n        /* \"@chainlink/contracts@1.2.0/src/v0.8/vendor/solidity-cborutils/v2.0.0/CBOR.sol\":6612:6639  buf.buf.appendInt(value, 2) */\n      swap3\n      swap2\n      swap1\n      0xffffffff\n      and\n      jump\t// in\n    tag_265:\n      pop\n        /* \"@chainlink/contracts@1.2.0/src/v0.8/vendor/solidity-cborutils/v2.0.0/CBOR.sol\":6518:6909  if (value <= 0xFFFF) {... */\n      jump(tag_266)\n    tag_263:\n        /* \"@chainlink/contracts@1.2.0/src/v0.8/vendor/solidity-cborutils/v2.0.0/CBOR.sol\":6669:6679  0xFFFFFFFF */\n      0xffffffff\n        /* \"@chainlink/contracts@1.2.0/src/v0.8/vendor/solidity-cborutils/v2.0.0/CBOR.sol\":6660:6665  value */\n      dup2\n        /* \"@chainlink/contracts@1.2.0/src/v0.8/vendor/solidity-cborutils/v2.0.0/CBOR.sol\":6660:6679  value <= 0xFFFFFFFF */\n      0xffffffffffffffff\n      and\n      gt\n        /* \"@chainlink/contracts@1.2.0/src/v0.8/vendor/solidity-cborutils/v2.0.0/CBOR.sol\":6656:6909  if (value <= 0xFFFFFFFF) {... */\n      tag_267\n      jumpi\n        /* \"@chainlink/contracts@1.2.0/src/v0.8/vendor/solidity-cborutils/v2.0.0/CBOR.sol\":6695:6740  buf.buf.appendUint8(uint8((major << 5) | 26)) */\n      tag_268\n        /* \"@chainlink/contracts@1.2.0/src/v0.8/vendor/solidity-cborutils/v2.0.0/CBOR.sol\":6736:6738  26 */\n      0x1a\n        /* \"@chainlink/contracts@1.2.0/src/v0.8/vendor/solidity-cborutils/v2.0.0/CBOR.sol\":6731:6732  5 */\n      0x05\n        /* \"@chainlink/contracts@1.2.0/src/v0.8/vendor/solidity-cborutils/v2.0.0/CBOR.sol\":6722:6727  major */\n      dup5\n        /* \"@chainlink/contracts@1.2.0/src/v0.8/vendor/solidity-cborutils/v2.0.0/CBOR.sol\":6722:6732  major << 5 */\n      0xff\n      and\n      swap1\n      shl\n        /* \"@chainlink/contracts@1.2.0/src/v0.8/vendor/solidity-cborutils/v2.0.0/CBOR.sol\":6721:6738  (major << 5) | 26 */\n      or\n        /* \"@chainlink/contracts@1.2.0/src/v0.8/vendor/solidity-cborutils/v2.0.0/CBOR.sol\":6695:6698  buf */\n      dup5\n        /* \"@chainlink/contracts@1.2.0/src/v0.8/vendor/solidity-cborutils/v2.0.0/CBOR.sol\":6695:6702  buf.buf */\n      0x00\n      add\n      mload\n        /* \"@chainlink/contracts@1.2.0/src/v0.8/vendor/solidity-cborutils/v2.0.0/CBOR.sol\":6695:6714  buf.buf.appendUint8 */\n      tag_228\n      swap1\n        /* \"@chainlink/contracts@1.2.0/src/v0.8/vendor/solidity-cborutils/v2.0.0/CBOR.sol\":6695:6740  buf.buf.appendUint8(uint8((major << 5) | 26)) */\n      swap2\n      swap1\n      0xffffffff\n      and\n      jump\t// in\n    tag_268:\n      pop\n        /* \"@chainlink/contracts@1.2.0/src/v0.8/vendor/solidity-cborutils/v2.0.0/CBOR.sol\":6754:6781  buf.buf.appendInt(value, 4) */\n      tag_269\n        /* \"@chainlink/contracts@1.2.0/src/v0.8/vendor/solidity-cborutils/v2.0.0/CBOR.sol\":6772:6777  value */\n      dup2\n        /* \"@chainlink/contracts@1.2.0/src/v0.8/vendor/solidity-cborutils/v2.0.0/CBOR.sol\":6754:6781  buf.buf.appendInt(value, 4) */\n      0xffffffffffffffff\n      and\n        /* \"@chainlink/contracts@1.2.0/src/v0.8/vendor/solidity-cborutils/v2.0.0/CBOR.sol\":6779:6780  4 */\n      0x04\n        /* \"@chainlink/contracts@1.2.0/src/v0.8/vendor/solidity-cborutils/v2.0.0/CBOR.sol\":6754:6757  buf */\n      dup6\n        /* \"@chainlink/contracts@1.2.0/src/v0.8/vendor/solidity-cborutils/v2.0.0/CBOR.sol\":6754:6761  buf.buf */\n      0x00\n      add\n      mload\n        /* \"@chainlink/contracts@1.2.0/src/v0.8/vendor/solidity-cborutils/v2.0.0/CBOR.sol\":6754:6771  buf.buf.appendInt */\n      tag_261\n      swap1\n        /* \"@chainlink/contracts@1.2.0/src/v0.8/vendor/solidity-cborutils/v2.0.0/CBOR.sol\":6754:6781  buf.buf.appendInt(value, 4) */\n      swap3\n      swap2\n      swap1\n      0xffffffff\n      and\n      jump\t// in\n    tag_269:\n      pop\n        /* \"@chainlink/contracts@1.2.0/src/v0.8/vendor/solidity-cborutils/v2.0.0/CBOR.sol\":6656:6909  if (value <= 0xFFFFFFFF) {... */\n      jump(tag_270)\n    tag_267:\n        /* \"@chainlink/contracts@1.2.0/src/v0.8/vendor/solidity-cborutils/v2.0.0/CBOR.sol\":6812:6857  buf.buf.appendUint8(uint8((major << 5) | 27)) */\n      tag_271\n        /* \"@chainlink/contracts@1.2.0/src/v0.8/vendor/solidity-cborutils/v2.0.0/CBOR.sol\":6853:6855  27 */\n      0x1b\n        /* \"@chainlink/contracts@1.2.0/src/v0.8/vendor/solidity-cborutils/v2.0.0/CBOR.sol\":6848:6849  5 */\n      0x05\n        /* \"@chainlink/contracts@1.2.0/src/v0.8/vendor/solidity-cborutils/v2.0.0/CBOR.sol\":6839:6844  major */\n      dup5\n        /* \"@chainlink/contracts@1.2.0/src/v0.8/vendor/solidity-cborutils/v2.0.0/CBOR.sol\":6839:6849  major << 5 */\n      0xff\n      and\n      swap1\n      shl\n        /* \"@chainlink/contracts@1.2.0/src/v0.8/vendor/solidity-cborutils/v2.0.0/CBOR.sol\":6838:6855  (major << 5) | 27 */\n      or\n        /* \"@chainlink/contracts@1.2.0/src/v0.8/vendor/solidity-cborutils/v2.0.0/CBOR.sol\":6812:6815  buf */\n      dup5\n        /* \"@chainlink/contracts@1.2.0/src/v0.8/vendor/solidity-cborutils/v2.0.0/CBOR.sol\":6812:6819  buf.buf */\n      0x00\n      add\n      mload\n        /* \"@chainlink/contracts@1.2.0/src/v0.8/vendor/solidity-cborutils/v2.0.0/CBOR.sol\":6812:6831  buf.buf.appendUint8 */\n      tag_228\n      swap1\n        /* \"@chainlink/contracts@1.2.0/src/v0.8/vendor/solidity-cborutils/v2.0.0/CBOR.sol\":6812:6857  buf.buf.appendUint8(uint8((major << 5) | 27)) */\n      swap2\n      swap1\n      0xffffffff\n      and\n      jump\t// in\n    tag_271:\n      pop\n        /* \"@chainlink/contracts@1.2.0/src/v0.8/vendor/solidity-cborutils/v2.0.0/CBOR.sol\":6871:6898  buf.buf.appendInt(value, 8) */\n      tag_272\n        /* \"@chainlink/contracts@1.2.0/src/v0.8/vendor/solidity-cborutils/v2.0.0/CBOR.sol\":6889:6894  value */\n      dup2\n        /* \"@chainlink/contracts@1.2.0/src/v0.8/vendor/solidity-cborutils/v2.0.0/CBOR.sol\":6871:6898  buf.buf.appendInt(value, 8) */\n      0xffffffffffffffff\n      and\n        /* \"@chainlink/contracts@1.2.0/src/v0.8/vendor/solidity-cborutils/v2.0.0/CBOR.sol\":6896:6897  8 */\n      0x08\n        /* \"@chainlink/contracts@1.2.0/src/v0.8/vendor/solidity-cborutils/v2.0.0/CBOR.sol\":6871:6874  buf */\n      dup6\n        /* \"@chainlink/contracts@1.2.0/src/v0.8/vendor/solidity-cborutils/v2.0.0/CBOR.sol\":6871:6878  buf.buf */\n      0x00\n      add\n      mload\n        /* \"@chainlink/contracts@1.2.0/src/v0.8/vendor/solidity-cborutils/v2.0.0/CBOR.sol\":6871:6888  buf.buf.appendInt */\n      tag_261\n      swap1\n        /* \"@chainlink/contracts@1.2.0/src/v0.8/vendor/solidity-cborutils/v2.0.0/CBOR.sol\":6871:6898  buf.buf.appendInt(value, 8) */\n      swap3\n      swap2\n      swap1\n      0xffffffff\n      and\n      jump\t// in\n    tag_272:\n      pop\n        /* \"@chainlink/contracts@1.2.0/src/v0.8/vendor/solidity-cborutils/v2.0.0/CBOR.sol\":6656:6909  if (value <= 0xFFFFFFFF) {... */\n    tag_270:\n        /* \"@chainlink/contracts@1.2.0/src/v0.8/vendor/solidity-cborutils/v2.0.0/CBOR.sol\":6518:6909  if (value <= 0xFFFF) {... */\n    tag_266:\n        /* \"@chainlink/contracts@1.2.0/src/v0.8/vendor/solidity-cborutils/v2.0.0/CBOR.sol\":6382:6909  if (value <= 0xFF) {... */\n    tag_262:\n        /* \"@chainlink/contracts@1.2.0/src/v0.8/vendor/solidity-cborutils/v2.0.0/CBOR.sol\":6286:6909  if (value <= 23) {... */\n    tag_257:\n        /* \"@chainlink/contracts@1.2.0/src/v0.8/vendor/solidity-cborutils/v2.0.0/CBOR.sol\":6156:6915  function writeFixedNumeric(... */\n      pop\n      pop\n      pop\n      jump\t// out\n        /* \"@chainlink/contracts@1.2.0/src/v0.8/vendor/@ensdomains/buffer/v0.1.0/Buffer.sol\":4539:4685  function append(buffer memory buf, bytes memory data) internal pure returns (buffer memory) {... */\n    tag_223:\n        /* \"@chainlink/contracts@1.2.0/src/v0.8/vendor/@ensdomains/buffer/v0.1.0/Buffer.sol\":4616:4629  buffer memory */\n      tag_273\n      tag_245\n      jump\t// in\n    tag_273:\n        /* \"@chainlink/contracts@1.2.0/src/v0.8/vendor/@ensdomains/buffer/v0.1.0/Buffer.sol\":4648:4678  append(buf, data, data.length) */\n      tag_275\n        /* \"@chainlink/contracts@1.2.0/src/v0.8/vendor/@ensdomains/buffer/v0.1.0/Buffer.sol\":4655:4658  buf */\n      dup4\n        /* \"@chainlink/contracts@1.2.0/src/v0.8/vendor/@ensdomains/buffer/v0.1.0/Buffer.sol\":4660:4664  data */\n      dup4\n        /* \"@chainlink/contracts@1.2.0/src/v0.8/vendor/@ensdomains/buffer/v0.1.0/Buffer.sol\":4666:4670  data */\n      dup5\n        /* \"@chainlink/contracts@1.2.0/src/v0.8/vendor/@ensdomains/buffer/v0.1.0/Buffer.sol\":4666:4677  data.length */\n      mload\n        /* \"@chainlink/contracts@1.2.0/src/v0.8/vendor/@ensdomains/buffer/v0.1.0/Buffer.sol\":4648:4654  append */\n      tag_276\n        /* \"@chainlink/contracts@1.2.0/src/v0.8/vendor/@ensdomains/buffer/v0.1.0/Buffer.sol\":4648:4678  append(buf, data, data.length) */\n      jump\t// in\n    tag_275:\n        /* \"@chainlink/contracts@1.2.0/src/v0.8/vendor/@ensdomains/buffer/v0.1.0/Buffer.sol\":4641:4678  return append(buf, data, data.length) */\n      swap1\n      pop\n        /* \"@chainlink/contracts@1.2.0/src/v0.8/vendor/@ensdomains/buffer/v0.1.0/Buffer.sol\":4539:4685  function append(buffer memory buf, bytes memory data) internal pure returns (buffer memory) {... */\n      swap3\n      swap2\n      pop\n      pop\n      jump\t// out\n        /* \"@chainlink/contracts@1.2.0/src/v0.8/vendor/@ensdomains/buffer/v0.1.0/Buffer.sol\":4948:5647  function appendUint8(buffer memory buf, uint8 data) internal pure returns(buffer memory) {... */\n    tag_228:\n        /* \"@chainlink/contracts@1.2.0/src/v0.8/vendor/@ensdomains/buffer/v0.1.0/Buffer.sol\":5022:5035  buffer memory */\n      tag_277\n      tag_245\n      jump\t// in\n    tag_277:\n        /* \"@chainlink/contracts@1.2.0/src/v0.8/vendor/@ensdomains/buffer/v0.1.0/Buffer.sol\":5047:5055  uint off */\n      0x00\n        /* \"@chainlink/contracts@1.2.0/src/v0.8/vendor/@ensdomains/buffer/v0.1.0/Buffer.sol\":5058:5061  buf */\n      dup4\n        /* \"@chainlink/contracts@1.2.0/src/v0.8/vendor/@ensdomains/buffer/v0.1.0/Buffer.sol\":5058:5065  buf.buf */\n      0x00\n      add\n      mload\n        /* \"@chainlink/contracts@1.2.0/src/v0.8/vendor/@ensdomains/buffer/v0.1.0/Buffer.sol\":5058:5072  buf.buf.length */\n      mload\n        /* \"@chainlink/contracts@1.2.0/src/v0.8/vendor/@ensdomains/buffer/v0.1.0/Buffer.sol\":5047:5072  uint off = buf.buf.length */\n      swap1\n      pop\n        /* \"@chainlink/contracts@1.2.0/src/v0.8/vendor/@ensdomains/buffer/v0.1.0/Buffer.sol\":5082:5097  uint offPlusOne */\n      0x00\n        /* \"@chainlink/contracts@1.2.0/src/v0.8/vendor/@ensdomains/buffer/v0.1.0/Buffer.sol\":5106:5107  1 */\n      0x01\n        /* \"@chainlink/contracts@1.2.0/src/v0.8/vendor/@ensdomains/buffer/v0.1.0/Buffer.sol\":5100:5103  off */\n      dup3\n        /* \"@chainlink/contracts@1.2.0/src/v0.8/vendor/@ensdomains/buffer/v0.1.0/Buffer.sol\":5100:5107  off + 1 */\n      tag_279\n      swap2\n      swap1\n      tag_236\n      jump\t// in\n    tag_279:\n        /* \"@chainlink/contracts@1.2.0/src/v0.8/vendor/@ensdomains/buffer/v0.1.0/Buffer.sol\":5082:5107  uint offPlusOne = off + 1 */\n      swap1\n      pop\n        /* \"@chainlink/contracts@1.2.0/src/v0.8/vendor/@ensdomains/buffer/v0.1.0/Buffer.sol\":5128:5131  buf */\n      dup5\n        /* \"@chainlink/contracts@1.2.0/src/v0.8/vendor/@ensdomains/buffer/v0.1.0/Buffer.sol\":5128:5140  buf.capacity */\n      0x20\n      add\n      mload\n        /* \"@chainlink/contracts@1.2.0/src/v0.8/vendor/@ensdomains/buffer/v0.1.0/Buffer.sol\":5121:5124  off */\n      dup3\n        /* \"@chainlink/contracts@1.2.0/src/v0.8/vendor/@ensdomains/buffer/v0.1.0/Buffer.sol\":5121:5140  off >= buf.capacity */\n      lt\n        /* \"@chainlink/contracts@1.2.0/src/v0.8/vendor/@ensdomains/buffer/v0.1.0/Buffer.sol\":5117:5194  if (off >= buf.capacity) {... */\n      tag_280\n      jumpi\n        /* \"@chainlink/contracts@1.2.0/src/v0.8/vendor/@ensdomains/buffer/v0.1.0/Buffer.sol\":5156:5183  resize(buf, offPlusOne * 2) */\n      tag_281\n        /* \"@chainlink/contracts@1.2.0/src/v0.8/vendor/@ensdomains/buffer/v0.1.0/Buffer.sol\":5163:5166  buf */\n      dup6\n        /* \"@chainlink/contracts@1.2.0/src/v0.8/vendor/@ensdomains/buffer/v0.1.0/Buffer.sol\":5181:5182  2 */\n      0x02\n        /* \"@chainlink/contracts@1.2.0/src/v0.8/vendor/@ensdomains/buffer/v0.1.0/Buffer.sol\":5168:5178  offPlusOne */\n      dup4\n        /* \"@chainlink/contracts@1.2.0/src/v0.8/vendor/@ensdomains/buffer/v0.1.0/Buffer.sol\":5168:5182  offPlusOne * 2 */\n      tag_282\n      swap2\n      swap1\n      tag_283\n      jump\t// in\n    tag_282:\n        /* \"@chainlink/contracts@1.2.0/src/v0.8/vendor/@ensdomains/buffer/v0.1.0/Buffer.sol\":5156:5162  resize */\n      tag_284\n        /* \"@chainlink/contracts@1.2.0/src/v0.8/vendor/@ensdomains/buffer/v0.1.0/Buffer.sol\":5156:5183  resize(buf, offPlusOne * 2) */\n      jump\t// in\n    tag_281:\n        /* \"@chainlink/contracts@1.2.0/src/v0.8/vendor/@ensdomains/buffer/v0.1.0/Buffer.sol\":5117:5194  if (off >= buf.capacity) {... */\n    tag_280:\n        /* \"@chainlink/contracts@1.2.0/src/v0.8/vendor/@ensdomains/buffer/v0.1.0/Buffer.sol\":5296:5299  buf */\n      dup5\n        /* \"@chainlink/contracts@1.2.0/src/v0.8/vendor/@ensdomains/buffer/v0.1.0/Buffer.sol\":5290:5300  mload(buf) */\n      mload\n        /* \"@chainlink/contracts@1.2.0/src/v0.8/vendor/@ensdomains/buffer/v0.1.0/Buffer.sol\":5417:5419  32 */\n      0x20\n        /* \"@chainlink/contracts@1.2.0/src/v0.8/vendor/@ensdomains/buffer/v0.1.0/Buffer.sol\":5411:5414  off */\n      dup4\n        /* \"@chainlink/contracts@1.2.0/src/v0.8/vendor/@ensdomains/buffer/v0.1.0/Buffer.sol\":5403:5409  bufptr */\n      dup3\n        /* \"@chainlink/contracts@1.2.0/src/v0.8/vendor/@ensdomains/buffer/v0.1.0/Buffer.sol\":5399:5415  add(bufptr, off) */\n      add\n        /* \"@chainlink/contracts@1.2.0/src/v0.8/vendor/@ensdomains/buffer/v0.1.0/Buffer.sol\":5395:5420  add(add(bufptr, off), 32) */\n      add\n        /* \"@chainlink/contracts@1.2.0/src/v0.8/vendor/@ensdomains/buffer/v0.1.0/Buffer.sol\":5447:5451  data */\n      dup6\n        /* \"@chainlink/contracts@1.2.0/src/v0.8/vendor/@ensdomains/buffer/v0.1.0/Buffer.sol\":5441:5445  dest */\n      dup2\n        /* \"@chainlink/contracts@1.2.0/src/v0.8/vendor/@ensdomains/buffer/v0.1.0/Buffer.sol\":5433:5452  mstore8(dest, data) */\n      mstore8\n        /* \"@chainlink/contracts@1.2.0/src/v0.8/vendor/@ensdomains/buffer/v0.1.0/Buffer.sol\":5543:5549  bufptr */\n      dup2\n        /* \"@chainlink/contracts@1.2.0/src/v0.8/vendor/@ensdomains/buffer/v0.1.0/Buffer.sol\":5537:5550  mload(bufptr) */\n      mload\n        /* \"@chainlink/contracts@1.2.0/src/v0.8/vendor/@ensdomains/buffer/v0.1.0/Buffer.sol\":5525:5535  offPlusOne */\n      dup4\n        /* \"@chainlink/contracts@1.2.0/src/v0.8/vendor/@ensdomains/buffer/v0.1.0/Buffer.sol\":5522:5551  gt(offPlusOne, mload(bufptr)) */\n      gt\n        /* \"@chainlink/contracts@1.2.0/src/v0.8/vendor/@ensdomains/buffer/v0.1.0/Buffer.sol\":5519:5610  if gt(offPlusOne, mload(bufptr)) {... */\n      iszero\n      tag_285\n      jumpi\n        /* \"@chainlink/contracts@1.2.0/src/v0.8/vendor/@ensdomains/buffer/v0.1.0/Buffer.sol\":5585:5595  offPlusOne */\n      dup3\n        /* \"@chainlink/contracts@1.2.0/src/v0.8/vendor/@ensdomains/buffer/v0.1.0/Buffer.sol\":5577:5583  bufptr */\n      dup3\n        /* \"@chainlink/contracts@1.2.0/src/v0.8/vendor/@ensdomains/buffer/v0.1.0/Buffer.sol\":5570:5596  mstore(bufptr, offPlusOne) */\n      mstore\n        /* \"@chainlink/contracts@1.2.0/src/v0.8/vendor/@ensdomains/buffer/v0.1.0/Buffer.sol\":5519:5610  if gt(offPlusOne, mload(bufptr)) {... */\n    tag_285:\n        /* \"@chainlink/contracts@1.2.0/src/v0.8/vendor/@ensdomains/buffer/v0.1.0/Buffer.sol\":5213:5620  {... */\n      pop\n      pop\n        /* \"@chainlink/contracts@1.2.0/src/v0.8/vendor/@ensdomains/buffer/v0.1.0/Buffer.sol\":5637:5640  buf */\n      dup5\n        /* \"@chainlink/contracts@1.2.0/src/v0.8/vendor/@ensdomains/buffer/v0.1.0/Buffer.sol\":5630:5640  return buf */\n      swap3\n      pop\n      pop\n      pop\n        /* \"@chainlink/contracts@1.2.0/src/v0.8/vendor/@ensdomains/buffer/v0.1.0/Buffer.sol\":4948:5647  function appendUint8(buffer memory buf, uint8 data) internal pure returns(buffer memory) {... */\n      swap3\n      swap2\n      pop\n      pop\n      jump\t// out\n        /* \"@chainlink/contracts@1.2.0/src/v0.8/vendor/solidity-cborutils/v2.0.0/CBOR.sol\":6921:7087  function writeIndefiniteLengthType(CBORBuffer memory buf, uint8 major)... */\n    tag_234:\n        /* \"@chainlink/contracts@1.2.0/src/v0.8/vendor/solidity-cborutils/v2.0.0/CBOR.sol\":7035:7080  buf.buf.appendUint8(uint8((major << 5) | 31)) */\n      tag_287\n        /* \"@chainlink/contracts@1.2.0/src/v0.8/vendor/solidity-cborutils/v2.0.0/CBOR.sol\":7076:7078  31 */\n      0x1f\n        /* \"@chainlink/contracts@1.2.0/src/v0.8/vendor/solidity-cborutils/v2.0.0/CBOR.sol\":7071:7072  5 */\n      0x05\n        /* \"@chainlink/contracts@1.2.0/src/v0.8/vendor/solidity-cborutils/v2.0.0/CBOR.sol\":7062:7067  major */\n      dup4\n        /* \"@chainlink/contracts@1.2.0/src/v0.8/vendor/solidity-cborutils/v2.0.0/CBOR.sol\":7062:7072  major << 5 */\n      0xff\n      and\n      swap1\n      shl\n        /* \"@chainlink/contracts@1.2.0/src/v0.8/vendor/solidity-cborutils/v2.0.0/CBOR.sol\":7061:7078  (major << 5) | 31 */\n      or\n        /* \"@chainlink/contracts@1.2.0/src/v0.8/vendor/solidity-cborutils/v2.0.0/CBOR.sol\":7035:7038  buf */\n      dup4\n        /* \"@chainlink/contracts@1.2.0/src/v0.8/vendor/solidity-cborutils/v2.0.0/CBOR.sol\":7035:7042  buf.buf */\n      0x00\n      add\n      mload\n        /* \"@chainlink/contracts@1.2.0/src/v0.8/vendor/solidity-cborutils/v2.0.0/CBOR.sol\":7035:7054  buf.buf.appendUint8 */\n      tag_228\n      swap1\n        /* \"@chainlink/contracts@1.2.0/src/v0.8/vendor/solidity-cborutils/v2.0.0/CBOR.sol\":7035:7080  buf.buf.appendUint8(uint8((major << 5) | 31)) */\n      swap2\n      swap1\n      0xffffffff\n      and\n      jump\t// in\n    tag_287:\n      pop\n        /* \"@chainlink/contracts@1.2.0/src/v0.8/vendor/solidity-cborutils/v2.0.0/CBOR.sol\":6921:7087  function writeIndefiniteLengthType(CBORBuffer memory buf, uint8 major)... */\n      pop\n      pop\n      jump\t// out\n        /* \"@chainlink/contracts@1.2.0/src/v0.8/vendor/@ensdomains/buffer/v0.1.0/Buffer.sol\":8083:8878  function appendInt(buffer memory buf, uint data, uint len) internal pure returns(buffer memory) {... */\n    tag_261:\n        /* \"@chainlink/contracts@1.2.0/src/v0.8/vendor/@ensdomains/buffer/v0.1.0/Buffer.sol\":8164:8177  buffer memory */\n      tag_288\n      tag_245\n      jump\t// in\n    tag_288:\n        /* \"@chainlink/contracts@1.2.0/src/v0.8/vendor/@ensdomains/buffer/v0.1.0/Buffer.sol\":8189:8197  uint off */\n      0x00\n        /* \"@chainlink/contracts@1.2.0/src/v0.8/vendor/@ensdomains/buffer/v0.1.0/Buffer.sol\":8200:8203  buf */\n      dup5\n        /* \"@chainlink/contracts@1.2.0/src/v0.8/vendor/@ensdomains/buffer/v0.1.0/Buffer.sol\":8200:8207  buf.buf */\n      0x00\n      add\n      mload\n        /* \"@chainlink/contracts@1.2.0/src/v0.8/vendor/@ensdomains/buffer/v0.1.0/Buffer.sol\":8200:8214  buf.buf.length */\n      mload\n        /* \"@chainlink/contracts@1.2.0/src/v0.8/vendor/@ensdomains/buffer/v0.1.0/Buffer.sol\":8189:8214  uint off = buf.buf.length */\n      swap1\n      pop\n        /* \"@chainlink/contracts@1.2.0/src/v0.8/vendor/@ensdomains/buffer/v0.1.0/Buffer.sol\":8224:8240  uint newCapacity */\n      0x00\n        /* \"@chainlink/contracts@1.2.0/src/v0.8/vendor/@ensdomains/buffer/v0.1.0/Buffer.sol\":8249:8252  off */\n      dup2\n        /* \"@chainlink/contracts@1.2.0/src/v0.8/vendor/@ensdomains/buffer/v0.1.0/Buffer.sol\":8243:8246  len */\n      dup5\n        /* \"@chainlink/contracts@1.2.0/src/v0.8/vendor/@ensdomains/buffer/v0.1.0/Buffer.sol\":8243:8252  len + off */\n      tag_290\n      swap2\n      swap1\n      tag_236\n      jump\t// in\n    tag_290:\n        /* \"@chainlink/contracts@1.2.0/src/v0.8/vendor/@ensdomains/buffer/v0.1.0/Buffer.sol\":8224:8252  uint newCapacity = len + off */\n      swap1\n      pop\n        /* \"@chainlink/contracts@1.2.0/src/v0.8/vendor/@ensdomains/buffer/v0.1.0/Buffer.sol\":8280:8283  buf */\n      dup6\n        /* \"@chainlink/contracts@1.2.0/src/v0.8/vendor/@ensdomains/buffer/v0.1.0/Buffer.sol\":8280:8292  buf.capacity */\n      0x20\n      add\n      mload\n        /* \"@chainlink/contracts@1.2.0/src/v0.8/vendor/@ensdomains/buffer/v0.1.0/Buffer.sol\":8266:8277  newCapacity */\n      dup2\n        /* \"@chainlink/contracts@1.2.0/src/v0.8/vendor/@ensdomains/buffer/v0.1.0/Buffer.sol\":8266:8292  newCapacity > buf.capacity */\n      gt\n        /* \"@chainlink/contracts@1.2.0/src/v0.8/vendor/@ensdomains/buffer/v0.1.0/Buffer.sol\":8262:8347  if (newCapacity > buf.capacity) {... */\n      iszero\n      tag_291\n      jumpi\n        /* \"@chainlink/contracts@1.2.0/src/v0.8/vendor/@ensdomains/buffer/v0.1.0/Buffer.sol\":8308:8336  resize(buf, newCapacity * 2) */\n      tag_292\n        /* \"@chainlink/contracts@1.2.0/src/v0.8/vendor/@ensdomains/buffer/v0.1.0/Buffer.sol\":8315:8318  buf */\n      dup7\n        /* \"@chainlink/contracts@1.2.0/src/v0.8/vendor/@ensdomains/buffer/v0.1.0/Buffer.sol\":8334:8335  2 */\n      0x02\n        /* \"@chainlink/contracts@1.2.0/src/v0.8/vendor/@ensdomains/buffer/v0.1.0/Buffer.sol\":8320:8331  newCapacity */\n      dup4\n        /* \"@chainlink/contracts@1.2.0/src/v0.8/vendor/@ensdomains/buffer/v0.1.0/Buffer.sol\":8320:8335  newCapacity * 2 */\n      tag_293\n      swap2\n      swap1\n      tag_283\n      jump\t// in\n    tag_293:\n        /* \"@chainlink/contracts@1.2.0/src/v0.8/vendor/@ensdomains/buffer/v0.1.0/Buffer.sol\":8308:8314  resize */\n      tag_284\n        /* \"@chainlink/contracts@1.2.0/src/v0.8/vendor/@ensdomains/buffer/v0.1.0/Buffer.sol\":8308:8336  resize(buf, newCapacity * 2) */\n      jump\t// in\n    tag_292:\n        /* \"@chainlink/contracts@1.2.0/src/v0.8/vendor/@ensdomains/buffer/v0.1.0/Buffer.sol\":8262:8347  if (newCapacity > buf.capacity) {... */\n    tag_291:\n        /* \"@chainlink/contracts@1.2.0/src/v0.8/vendor/@ensdomains/buffer/v0.1.0/Buffer.sol\":8357:8366  uint mask */\n      0x00\n        /* \"@chainlink/contracts@1.2.0/src/v0.8/vendor/@ensdomains/buffer/v0.1.0/Buffer.sol\":8384:8385  1 */\n      0x01\n        /* \"@chainlink/contracts@1.2.0/src/v0.8/vendor/@ensdomains/buffer/v0.1.0/Buffer.sol\":8377:8380  len */\n      dup6\n        /* \"@chainlink/contracts@1.2.0/src/v0.8/vendor/@ensdomains/buffer/v0.1.0/Buffer.sol\":8370:8373  256 */\n      0x0100\n        /* \"@chainlink/contracts@1.2.0/src/v0.8/vendor/@ensdomains/buffer/v0.1.0/Buffer.sol\":8370:8380  256 ** len */\n      tag_294\n      swap2\n      swap1\n      tag_295\n      jump\t// in\n    tag_294:\n        /* \"@chainlink/contracts@1.2.0/src/v0.8/vendor/@ensdomains/buffer/v0.1.0/Buffer.sol\":8369:8385  (256 ** len) - 1 */\n      tag_296\n      swap2\n      swap1\n      tag_240\n      jump\t// in\n    tag_296:\n        /* \"@chainlink/contracts@1.2.0/src/v0.8/vendor/@ensdomains/buffer/v0.1.0/Buffer.sol\":8357:8385  uint mask = (256 ** len) - 1 */\n      swap1\n      pop\n        /* \"@chainlink/contracts@1.2.0/src/v0.8/vendor/@ensdomains/buffer/v0.1.0/Buffer.sol\":8487:8490  buf */\n      dup7\n        /* \"@chainlink/contracts@1.2.0/src/v0.8/vendor/@ensdomains/buffer/v0.1.0/Buffer.sol\":8481:8491  mload(buf) */\n      mload\n        /* \"@chainlink/contracts@1.2.0/src/v0.8/vendor/@ensdomains/buffer/v0.1.0/Buffer.sol\":8606:8617  newCapacity */\n      dup3\n        /* \"@chainlink/contracts@1.2.0/src/v0.8/vendor/@ensdomains/buffer/v0.1.0/Buffer.sol\":8598:8604  bufptr */\n      dup2\n        /* \"@chainlink/contracts@1.2.0/src/v0.8/vendor/@ensdomains/buffer/v0.1.0/Buffer.sol\":8594:8618  add(bufptr, newCapacity) */\n      add\n        /* \"@chainlink/contracts@1.2.0/src/v0.8/vendor/@ensdomains/buffer/v0.1.0/Buffer.sol\":8676:8680  data */\n      dup8\n        /* \"@chainlink/contracts@1.2.0/src/v0.8/vendor/@ensdomains/buffer/v0.1.0/Buffer.sol\":8668:8672  mask */\n      dup4\n        /* \"@chainlink/contracts@1.2.0/src/v0.8/vendor/@ensdomains/buffer/v0.1.0/Buffer.sol\":8664:8673  not(mask) */\n      not\n        /* \"@chainlink/contracts@1.2.0/src/v0.8/vendor/@ensdomains/buffer/v0.1.0/Buffer.sol\":8657:8661  dest */\n      dup3\n        /* \"@chainlink/contracts@1.2.0/src/v0.8/vendor/@ensdomains/buffer/v0.1.0/Buffer.sol\":8651:8662  mload(dest) */\n      mload\n        /* \"@chainlink/contracts@1.2.0/src/v0.8/vendor/@ensdomains/buffer/v0.1.0/Buffer.sol\":8647:8674  and(mload(dest), not(mask)) */\n      and\n        /* \"@chainlink/contracts@1.2.0/src/v0.8/vendor/@ensdomains/buffer/v0.1.0/Buffer.sol\":8644:8681  or(and(mload(dest), not(mask)), data) */\n      or\n        /* \"@chainlink/contracts@1.2.0/src/v0.8/vendor/@ensdomains/buffer/v0.1.0/Buffer.sol\":8638:8642  dest */\n      dup2\n        /* \"@chainlink/contracts@1.2.0/src/v0.8/vendor/@ensdomains/buffer/v0.1.0/Buffer.sol\":8631:8682  mstore(dest, or(and(mload(dest), not(mask)), data)) */\n      mstore\n        /* \"@chainlink/contracts@1.2.0/src/v0.8/vendor/@ensdomains/buffer/v0.1.0/Buffer.sol\":8774:8780  bufptr */\n      dup2\n        /* \"@chainlink/contracts@1.2.0/src/v0.8/vendor/@ensdomains/buffer/v0.1.0/Buffer.sol\":8768:8781  mload(bufptr) */\n      mload\n        /* \"@chainlink/contracts@1.2.0/src/v0.8/vendor/@ensdomains/buffer/v0.1.0/Buffer.sol\":8755:8766  newCapacity */\n      dup5\n        /* \"@chainlink/contracts@1.2.0/src/v0.8/vendor/@ensdomains/buffer/v0.1.0/Buffer.sol\":8752:8782  gt(newCapacity, mload(bufptr)) */\n      gt\n        /* \"@chainlink/contracts@1.2.0/src/v0.8/vendor/@ensdomains/buffer/v0.1.0/Buffer.sol\":8749:8842  if gt(newCapacity, mload(bufptr)) {... */\n      iszero\n      tag_297\n      jumpi\n        /* \"@chainlink/contracts@1.2.0/src/v0.8/vendor/@ensdomains/buffer/v0.1.0/Buffer.sol\":8816:8827  newCapacity */\n      dup4\n        /* \"@chainlink/contracts@1.2.0/src/v0.8/vendor/@ensdomains/buffer/v0.1.0/Buffer.sol\":8808:8814  bufptr */\n      dup3\n        /* \"@chainlink/contracts@1.2.0/src/v0.8/vendor/@ensdomains/buffer/v0.1.0/Buffer.sol\":8801:8828  mstore(bufptr, newCapacity) */\n      mstore\n        /* \"@chainlink/contracts@1.2.0/src/v0.8/vendor/@ensdomains/buffer/v0.1.0/Buffer.sol\":8749:8842  if gt(newCapacity, mload(bufptr)) {... */\n    tag_297:\n        /* \"@chainlink/contracts@1.2.0/src/v0.8/vendor/@ensdomains/buffer/v0.1.0/Buffer.sol\":8404:8852  {... */\n      pop\n      pop\n        /* \"@chainlink/contracts@1.2.0/src/v0.8/vendor/@ensdomains/buffer/v0.1.0/Buffer.sol\":8868:8871  buf */\n      dup7\n        /* \"@chainlink/contracts@1.2.0/src/v0.8/vendor/@ensdomains/buffer/v0.1.0/Buffer.sol\":8861:8871  return buf */\n      swap4\n      pop\n      pop\n      pop\n      pop\n        /* \"@chainlink/contracts@1.2.0/src/v0.8/vendor/@ensdomains/buffer/v0.1.0/Buffer.sol\":8083:8878  function appendInt(buffer memory buf, uint data, uint len) internal pure returns(buffer memory) {... */\n      swap4\n      swap3\n      pop\n      pop\n      pop\n      jump\t// out\n        /* \"@chainlink/contracts@1.2.0/src/v0.8/vendor/@ensdomains/buffer/v0.1.0/Buffer.sol\":2844:4271  function append(buffer memory buf, bytes memory data, uint len) internal pure returns(buffer memory) {... */\n    tag_276:\n        /* \"@chainlink/contracts@1.2.0/src/v0.8/vendor/@ensdomains/buffer/v0.1.0/Buffer.sol\":2930:2943  buffer memory */\n      tag_298\n      tag_245\n      jump\t// in\n    tag_298:\n        /* \"@chainlink/contracts@1.2.0/src/v0.8/vendor/@ensdomains/buffer/v0.1.0/Buffer.sol\":2970:2974  data */\n      dup3\n        /* \"@chainlink/contracts@1.2.0/src/v0.8/vendor/@ensdomains/buffer/v0.1.0/Buffer.sol\":2970:2981  data.length */\n      mload\n        /* \"@chainlink/contracts@1.2.0/src/v0.8/vendor/@ensdomains/buffer/v0.1.0/Buffer.sol\":2963:2966  len */\n      dup3\n        /* \"@chainlink/contracts@1.2.0/src/v0.8/vendor/@ensdomains/buffer/v0.1.0/Buffer.sol\":2963:2981  len <= data.length */\n      gt\n      iszero\n        /* \"@chainlink/contracts@1.2.0/src/v0.8/vendor/@ensdomains/buffer/v0.1.0/Buffer.sol\":2955:2982  require(len <= data.length) */\n      tag_300\n      jumpi\n      0x00\n      dup1\n      revert\n    tag_300:\n        /* \"@chainlink/contracts@1.2.0/src/v0.8/vendor/@ensdomains/buffer/v0.1.0/Buffer.sol\":2993:3001  uint off */\n      0x00\n        /* \"@chainlink/contracts@1.2.0/src/v0.8/vendor/@ensdomains/buffer/v0.1.0/Buffer.sol\":3004:3007  buf */\n      dup5\n        /* \"@chainlink/contracts@1.2.0/src/v0.8/vendor/@ensdomains/buffer/v0.1.0/Buffer.sol\":3004:3011  buf.buf */\n      0x00\n      add\n      mload\n        /* \"@chainlink/contracts@1.2.0/src/v0.8/vendor/@ensdomains/buffer/v0.1.0/Buffer.sol\":3004:3018  buf.buf.length */\n      mload\n        /* \"@chainlink/contracts@1.2.0/src/v0.8/vendor/@ensdomains/buffer/v0.1.0/Buffer.sol\":2993:3018  uint off = buf.buf.length */\n      swap1\n      pop\n        /* \"@chainlink/contracts@1.2.0/src/v0.8/vendor/@ensdomains/buffer/v0.1.0/Buffer.sol\":3028:3044  uint newCapacity */\n      0x00\n        /* \"@chainlink/contracts@1.2.0/src/v0.8/vendor/@ensdomains/buffer/v0.1.0/Buffer.sol\":3053:3056  len */\n      dup4\n        /* \"@chainlink/contracts@1.2.0/src/v0.8/vendor/@ensdomains/buffer/v0.1.0/Buffer.sol\":3047:3050  off */\n      dup3\n        /* \"@chainlink/contracts@1.2.0/src/v0.8/vendor/@ensdomains/buffer/v0.1.0/Buffer.sol\":3047:3056  off + len */\n      tag_301\n      swap2\n      swap1\n      tag_236\n      jump\t// in\n    tag_301:\n        /* \"@chainlink/contracts@1.2.0/src/v0.8/vendor/@ensdomains/buffer/v0.1.0/Buffer.sol\":3028:3056  uint newCapacity = off + len */\n      swap1\n      pop\n        /* \"@chainlink/contracts@1.2.0/src/v0.8/vendor/@ensdomains/buffer/v0.1.0/Buffer.sol\":3084:3087  buf */\n      dup6\n        /* \"@chainlink/contracts@1.2.0/src/v0.8/vendor/@ensdomains/buffer/v0.1.0/Buffer.sol\":3084:3096  buf.capacity */\n      0x20\n      add\n      mload\n        /* \"@chainlink/contracts@1.2.0/src/v0.8/vendor/@ensdomains/buffer/v0.1.0/Buffer.sol\":3070:3081  newCapacity */\n      dup2\n        /* \"@chainlink/contracts@1.2.0/src/v0.8/vendor/@ensdomains/buffer/v0.1.0/Buffer.sol\":3070:3096  newCapacity > buf.capacity */\n      gt\n        /* \"@chainlink/contracts@1.2.0/src/v0.8/vendor/@ensdomains/buffer/v0.1.0/Buffer.sol\":3066:3151  if (newCapacity > buf.capacity) {... */\n      iszero\n      tag_302\n      jumpi\n        /* \"@chainlink/contracts@1.2.0/src/v0.8/vendor/@ensdomains/buffer/v0.1.0/Buffer.sol\":3112:3140  resize(buf, newCapacity * 2) */\n      tag_303\n        /* \"@chainlink/contracts@1.2.0/src/v0.8/vendor/@ensdomains/buffer/v0.1.0/Buffer.sol\":3119:3122  buf */\n      dup7\n        /* \"@chainlink/contracts@1.2.0/src/v0.8/vendor/@ensdomains/buffer/v0.1.0/Buffer.sol\":3138:3139  2 */\n      0x02\n        /* \"@chainlink/contracts@1.2.0/src/v0.8/vendor/@ensdomains/buffer/v0.1.0/Buffer.sol\":3124:3135  newCapacity */\n      dup4\n        /* \"@chainlink/contracts@1.2.0/src/v0.8/vendor/@ensdomains/buffer/v0.1.0/Buffer.sol\":3124:3139  newCapacity * 2 */\n      tag_304\n      swap2\n      swap1\n      tag_283\n      jump\t// in\n    tag_304:\n        /* \"@chainlink/contracts@1.2.0/src/v0.8/vendor/@ensdomains/buffer/v0.1.0/Buffer.sol\":3112:3118  resize */\n      tag_284\n        /* \"@chainlink/contracts@1.2.0/src/v0.8/vendor/@ensdomains/buffer/v0.1.0/Buffer.sol\":3112:3140  resize(buf, newCapacity * 2) */\n      jump\t// in\n    tag_303:\n        /* \"@chainlink/contracts@1.2.0/src/v0.8/vendor/@ensdomains/buffer/v0.1.0/Buffer.sol\":3066:3151  if (newCapacity > buf.capacity) {... */\n    tag_302:\n        /* \"@chainlink/contracts@1.2.0/src/v0.8/vendor/@ensdomains/buffer/v0.1.0/Buffer.sol\":3161:3170  uint dest */\n      0x00\n        /* \"@chainlink/contracts@1.2.0/src/v0.8/vendor/@ensdomains/buffer/v0.1.0/Buffer.sol\":3180:3188  uint src */\n      dup1\n        /* \"@chainlink/contracts@1.2.0/src/v0.8/vendor/@ensdomains/buffer/v0.1.0/Buffer.sol\":3290:3293  buf */\n      dup8\n        /* \"@chainlink/contracts@1.2.0/src/v0.8/vendor/@ensdomains/buffer/v0.1.0/Buffer.sol\":3284:3294  mload(buf) */\n      mload\n        /* \"@chainlink/contracts@1.2.0/src/v0.8/vendor/@ensdomains/buffer/v0.1.0/Buffer.sol\":3373:3379  bufptr */\n      dup1\n        /* \"@chainlink/contracts@1.2.0/src/v0.8/vendor/@ensdomains/buffer/v0.1.0/Buffer.sol\":3367:3380  mload(bufptr) */\n      mload\n        /* \"@chainlink/contracts@1.2.0/src/v0.8/vendor/@ensdomains/buffer/v0.1.0/Buffer.sol\":3501:3504  off */\n      dup6\n        /* \"@chainlink/contracts@1.2.0/src/v0.8/vendor/@ensdomains/buffer/v0.1.0/Buffer.sol\":3496:3498  32 */\n      0x20\n        /* \"@chainlink/contracts@1.2.0/src/v0.8/vendor/@ensdomains/buffer/v0.1.0/Buffer.sol\":3488:3494  bufptr */\n      dup4\n        /* \"@chainlink/contracts@1.2.0/src/v0.8/vendor/@ensdomains/buffer/v0.1.0/Buffer.sol\":3484:3499  add(bufptr, 32) */\n      add\n        /* \"@chainlink/contracts@1.2.0/src/v0.8/vendor/@ensdomains/buffer/v0.1.0/Buffer.sol\":3480:3505  add(add(bufptr, 32), off) */\n      add\n        /* \"@chainlink/contracts@1.2.0/src/v0.8/vendor/@ensdomains/buffer/v0.1.0/Buffer.sol\":3472:3505  dest := add(add(bufptr, 32), off) */\n      swap4\n      pop\n        /* \"@chainlink/contracts@1.2.0/src/v0.8/vendor/@ensdomains/buffer/v0.1.0/Buffer.sol\":3595:3601  buflen */\n      dup1\n        /* \"@chainlink/contracts@1.2.0/src/v0.8/vendor/@ensdomains/buffer/v0.1.0/Buffer.sol\":3582:3593  newCapacity */\n      dup6\n        /* \"@chainlink/contracts@1.2.0/src/v0.8/vendor/@ensdomains/buffer/v0.1.0/Buffer.sol\":3579:3602  gt(newCapacity, buflen) */\n      gt\n        /* \"@chainlink/contracts@1.2.0/src/v0.8/vendor/@ensdomains/buffer/v0.1.0/Buffer.sol\":3576:3662  if gt(newCapacity, buflen) {... */\n      iszero\n      tag_305\n      jumpi\n        /* \"@chainlink/contracts@1.2.0/src/v0.8/vendor/@ensdomains/buffer/v0.1.0/Buffer.sol\":3636:3647  newCapacity */\n      dup5\n        /* \"@chainlink/contracts@1.2.0/src/v0.8/vendor/@ensdomains/buffer/v0.1.0/Buffer.sol\":3628:3634  bufptr */\n      dup3\n        /* \"@chainlink/contracts@1.2.0/src/v0.8/vendor/@ensdomains/buffer/v0.1.0/Buffer.sol\":3621:3648  mstore(bufptr, newCapacity) */\n      mstore\n        /* \"@chainlink/contracts@1.2.0/src/v0.8/vendor/@ensdomains/buffer/v0.1.0/Buffer.sol\":3576:3662  if gt(newCapacity, buflen) {... */\n    tag_305:\n        /* \"@chainlink/contracts@1.2.0/src/v0.8/vendor/@ensdomains/buffer/v0.1.0/Buffer.sol\":3692:3694  32 */\n      0x20\n        /* \"@chainlink/contracts@1.2.0/src/v0.8/vendor/@ensdomains/buffer/v0.1.0/Buffer.sol\":3686:3690  data */\n      dup10\n        /* \"@chainlink/contracts@1.2.0/src/v0.8/vendor/@ensdomains/buffer/v0.1.0/Buffer.sol\":3682:3695  add(data, 32) */\n      add\n        /* \"@chainlink/contracts@1.2.0/src/v0.8/vendor/@ensdomains/buffer/v0.1.0/Buffer.sol\":3675:3695  src := add(data, 32) */\n      swap3\n      pop\n        /* \"@chainlink/contracts@1.2.0/src/v0.8/vendor/@ensdomains/buffer/v0.1.0/Buffer.sol\":3207:3705  {... */\n      pop\n      pop\n        /* \"@chainlink/contracts@1.2.0/src/v0.8/vendor/@ensdomains/buffer/v0.1.0/Buffer.sol\":3765:3930  for (; len >= 32; len -= 32) {... */\n    tag_306:\n        /* \"@chainlink/contracts@1.2.0/src/v0.8/vendor/@ensdomains/buffer/v0.1.0/Buffer.sol\":3779:3781  32 */\n      0x20\n        /* \"@chainlink/contracts@1.2.0/src/v0.8/vendor/@ensdomains/buffer/v0.1.0/Buffer.sol\":3772:3775  len */\n      dup7\n        /* \"@chainlink/contracts@1.2.0/src/v0.8/vendor/@ensdomains/buffer/v0.1.0/Buffer.sol\":3772:3781  len >= 32 */\n      lt\n        /* \"@chainlink/contracts@1.2.0/src/v0.8/vendor/@ensdomains/buffer/v0.1.0/Buffer.sol\":3765:3930  for (; len >= 32; len -= 32) {... */\n      tag_307\n      jumpi\n        /* \"@chainlink/contracts@1.2.0/src/v0.8/vendor/@ensdomains/buffer/v0.1.0/Buffer.sol\":3854:3857  src */\n      dup1\n        /* \"@chainlink/contracts@1.2.0/src/v0.8/vendor/@ensdomains/buffer/v0.1.0/Buffer.sol\":3848:3858  mload(src) */\n      mload\n        /* \"@chainlink/contracts@1.2.0/src/v0.8/vendor/@ensdomains/buffer/v0.1.0/Buffer.sol\":3842:3846  dest */\n      dup3\n        /* \"@chainlink/contracts@1.2.0/src/v0.8/vendor/@ensdomains/buffer/v0.1.0/Buffer.sol\":3835:3859  mstore(dest, mload(src)) */\n      mstore\n        /* \"@chainlink/contracts@1.2.0/src/v0.8/vendor/@ensdomains/buffer/v0.1.0/Buffer.sol\":3894:3896  32 */\n      0x20\n        /* \"@chainlink/contracts@1.2.0/src/v0.8/vendor/@ensdomains/buffer/v0.1.0/Buffer.sol\":3886:3896  dest += 32 */\n      dup3\n      tag_309\n      swap2\n      swap1\n      tag_236\n      jump\t// in\n    tag_309:\n      swap2\n      pop\n        /* \"@chainlink/contracts@1.2.0/src/v0.8/vendor/@ensdomains/buffer/v0.1.0/Buffer.sol\":3917:3919  32 */\n      0x20\n        /* \"@chainlink/contracts@1.2.0/src/v0.8/vendor/@ensdomains/buffer/v0.1.0/Buffer.sol\":3910:3919  src += 32 */\n      dup2\n      tag_310\n      swap2\n      swap1\n      tag_236\n      jump\t// in\n    tag_310:\n      swap1\n      pop\n        /* \"@chainlink/contracts@1.2.0/src/v0.8/vendor/@ensdomains/buffer/v0.1.0/Buffer.sol\":3790:3792  32 */\n      0x20\n        /* \"@chainlink/contracts@1.2.0/src/v0.8/vendor/@ensdomains/buffer/v0.1.0/Buffer.sol\":3783:3792  len -= 32 */\n      dup7\n      tag_311\n      swap2\n      swap1\n      tag_240\n      jump\t// in\n    tag_311:\n      swap6\n      pop\n        /* \"@chainlink/contracts@1.2.0/src/v0.8/vendor/@ensdomains/buffer/v0.1.0/Buffer.sol\":3765:3930  for (; len >= 32; len -= 32) {... */\n      jump(tag_306)\n    tag_307:\n        /* \"@chainlink/contracts@1.2.0/src/v0.8/vendor/@ensdomains/buffer/v0.1.0/Buffer.sol\":3996:4005  uint mask */\n      0x00\n        /* \"@chainlink/contracts@1.2.0/src/v0.8/vendor/@ensdomains/buffer/v0.1.0/Buffer.sol\":4030:4031  1 */\n      0x01\n        /* \"@chainlink/contracts@1.2.0/src/v0.8/vendor/@ensdomains/buffer/v0.1.0/Buffer.sol\":4022:4025  len */\n      dup8\n        /* \"@chainlink/contracts@1.2.0/src/v0.8/vendor/@ensdomains/buffer/v0.1.0/Buffer.sol\":4017:4019  32 */\n      0x20\n        /* \"@chainlink/contracts@1.2.0/src/v0.8/vendor/@ensdomains/buffer/v0.1.0/Buffer.sol\":4017:4025  32 - len */\n      sub\n        /* \"@chainlink/contracts@1.2.0/src/v0.8/vendor/@ensdomains/buffer/v0.1.0/Buffer.sol\":4009:4012  256 */\n      0x0100\n        /* \"@chainlink/contracts@1.2.0/src/v0.8/vendor/@ensdomains/buffer/v0.1.0/Buffer.sol\":4009:4026  256 ** (32 - len) */\n      exp\n        /* \"@chainlink/contracts@1.2.0/src/v0.8/vendor/@ensdomains/buffer/v0.1.0/Buffer.sol\":4008:4031  (256 ** (32 - len)) - 1 */\n      sub\n        /* \"@chainlink/contracts@1.2.0/src/v0.8/vendor/@ensdomains/buffer/v0.1.0/Buffer.sol\":3996:4031  uint mask = (256 ** (32 - len)) - 1 */\n      swap1\n      pop\n        /* \"@chainlink/contracts@1.2.0/src/v0.8/vendor/@ensdomains/buffer/v0.1.0/Buffer.sol\":4107:4111  mask */\n      dup1\n        /* \"@chainlink/contracts@1.2.0/src/v0.8/vendor/@ensdomains/buffer/v0.1.0/Buffer.sol\":4103:4112  not(mask) */\n      not\n        /* \"@chainlink/contracts@1.2.0/src/v0.8/vendor/@ensdomains/buffer/v0.1.0/Buffer.sol\":4097:4100  src */\n      dup3\n        /* \"@chainlink/contracts@1.2.0/src/v0.8/vendor/@ensdomains/buffer/v0.1.0/Buffer.sol\":4091:4101  mload(src) */\n      mload\n        /* \"@chainlink/contracts@1.2.0/src/v0.8/vendor/@ensdomains/buffer/v0.1.0/Buffer.sol\":4087:4113  and(mload(src), not(mask)) */\n      and\n        /* \"@chainlink/contracts@1.2.0/src/v0.8/vendor/@ensdomains/buffer/v0.1.0/Buffer.sol\":4163:4167  mask */\n      dup2\n        /* \"@chainlink/contracts@1.2.0/src/v0.8/vendor/@ensdomains/buffer/v0.1.0/Buffer.sol\":4156:4160  dest */\n      dup5\n        /* \"@chainlink/contracts@1.2.0/src/v0.8/vendor/@ensdomains/buffer/v0.1.0/Buffer.sol\":4150:4161  mload(dest) */\n      mload\n        /* \"@chainlink/contracts@1.2.0/src/v0.8/vendor/@ensdomains/buffer/v0.1.0/Buffer.sol\":4146:4168  and(mload(dest), mask) */\n      and\n        /* \"@chainlink/contracts@1.2.0/src/v0.8/vendor/@ensdomains/buffer/v0.1.0/Buffer.sol\":4211:4218  srcpart */\n      dup2\n        /* \"@chainlink/contracts@1.2.0/src/v0.8/vendor/@ensdomains/buffer/v0.1.0/Buffer.sol\":4201:4209  destpart */\n      dup2\n        /* \"@chainlink/contracts@1.2.0/src/v0.8/vendor/@ensdomains/buffer/v0.1.0/Buffer.sol\":4198:4219  or(destpart, srcpart) */\n      or\n        /* \"@chainlink/contracts@1.2.0/src/v0.8/vendor/@ensdomains/buffer/v0.1.0/Buffer.sol\":4192:4196  dest */\n      dup6\n        /* \"@chainlink/contracts@1.2.0/src/v0.8/vendor/@ensdomains/buffer/v0.1.0/Buffer.sol\":4185:4220  mstore(dest, or(destpart, srcpart)) */\n      mstore\n        /* \"@chainlink/contracts@1.2.0/src/v0.8/vendor/@ensdomains/buffer/v0.1.0/Buffer.sol\":4054:4234  {... */\n      pop\n      pop\n      pop\n        /* \"@chainlink/contracts@1.2.0/src/v0.8/vendor/@ensdomains/buffer/v0.1.0/Buffer.sol\":4261:4264  buf */\n      dup8\n        /* \"@chainlink/contracts@1.2.0/src/v0.8/vendor/@ensdomains/buffer/v0.1.0/Buffer.sol\":4254:4264  return buf */\n      swap5\n      pop\n      pop\n      pop\n      pop\n      pop\n        /* \"@chainlink/contracts@1.2.0/src/v0.8/vendor/@ensdomains/buffer/v0.1.0/Buffer.sol\":2844:4271  function append(buffer memory buf, bytes memory data, uint len) internal pure returns(buffer memory) {... */\n      swap4\n      swap3\n      pop\n      pop\n      pop\n      jump\t// out\n        /* \"@chainlink/contracts@1.2.0/src/v0.8/vendor/@ensdomains/buffer/v0.1.0/Buffer.sol\":2004:2171  function resize(buffer memory buf, uint capacity) private pure {... */\n    tag_284:\n        /* \"@chainlink/contracts@1.2.0/src/v0.8/vendor/@ensdomains/buffer/v0.1.0/Buffer.sol\":2077:2096  bytes memory oldbuf */\n      0x00\n        /* \"@chainlink/contracts@1.2.0/src/v0.8/vendor/@ensdomains/buffer/v0.1.0/Buffer.sol\":2099:2102  buf */\n      dup3\n        /* \"@chainlink/contracts@1.2.0/src/v0.8/vendor/@ensdomains/buffer/v0.1.0/Buffer.sol\":2099:2106  buf.buf */\n      0x00\n      add\n      mload\n        /* \"@chainlink/contracts@1.2.0/src/v0.8/vendor/@ensdomains/buffer/v0.1.0/Buffer.sol\":2077:2106  bytes memory oldbuf = buf.buf */\n      swap1\n      pop\n        /* \"@chainlink/contracts@1.2.0/src/v0.8/vendor/@ensdomains/buffer/v0.1.0/Buffer.sol\":2116:2135  init(buf, capacity) */\n      tag_313\n        /* \"@chainlink/contracts@1.2.0/src/v0.8/vendor/@ensdomains/buffer/v0.1.0/Buffer.sol\":2121:2124  buf */\n      dup4\n        /* \"@chainlink/contracts@1.2.0/src/v0.8/vendor/@ensdomains/buffer/v0.1.0/Buffer.sol\":2126:2134  capacity */\n      dup4\n        /* \"@chainlink/contracts@1.2.0/src/v0.8/vendor/@ensdomains/buffer/v0.1.0/Buffer.sol\":2116:2120  init */\n      tag_218\n        /* \"@chainlink/contracts@1.2.0/src/v0.8/vendor/@ensdomains/buffer/v0.1.0/Buffer.sol\":2116:2135  init(buf, capacity) */\n      jump\t// in\n    tag_313:\n      pop\n        /* \"@chainlink/contracts@1.2.0/src/v0.8/vendor/@ensdomains/buffer/v0.1.0/Buffer.sol\":2145:2164  append(buf, oldbuf) */\n      tag_314\n        /* \"@chainlink/contracts@1.2.0/src/v0.8/vendor/@ensdomains/buffer/v0.1.0/Buffer.sol\":2152:2155  buf */\n      dup4\n        /* \"@chainlink/contracts@1.2.0/src/v0.8/vendor/@ensdomains/buffer/v0.1.0/Buffer.sol\":2157:2163  oldbuf */\n      dup3\n        /* \"@chainlink/contracts@1.2.0/src/v0.8/vendor/@ensdomains/buffer/v0.1.0/Buffer.sol\":2145:2151  append */\n      tag_223\n        /* \"@chainlink/contracts@1.2.0/src/v0.8/vendor/@ensdomains/buffer/v0.1.0/Buffer.sol\":2145:2164  append(buf, oldbuf) */\n      jump\t// in\n    tag_314:\n      pop\n        /* \"@chainlink/contracts@1.2.0/src/v0.8/vendor/@ensdomains/buffer/v0.1.0/Buffer.sol\":2067:2171  {... */\n      pop\n        /* \"@chainlink/contracts@1.2.0/src/v0.8/vendor/@ensdomains/buffer/v0.1.0/Buffer.sol\":2004:2171  function resize(buffer memory buf, uint capacity) private pure {... */\n      pop\n      pop\n      jump\t// out\n    tag_68:\n      mload(0x40)\n      dup1\n      0xe0\n      add\n      0x40\n      mstore\n      dup1\n      0x00\n      0x02\n      dup2\n      gt\n      iszero\n      tag_315\n      jumpi\n      tag_316\n      tag_121\n      jump\t// in\n    tag_316:\n    tag_315:\n      dup2\n      mstore\n      0x20\n      add\n      0x00\n      0x02\n      dup2\n      gt\n      iszero\n      tag_317\n      jumpi\n      tag_318\n      tag_121\n      jump\t// in\n    tag_318:\n    tag_317:\n      dup2\n      mstore\n      0x20\n      add\n      0x00\n      dup1\n      dup2\n      gt\n      iszero\n      tag_319\n      jumpi\n      tag_320\n      tag_121\n      jump\t// in\n    tag_320:\n    tag_319:\n      dup2\n      mstore\n      0x20\n      add\n      0x60\n      dup2\n      mstore\n      0x20\n      add\n      0x60\n      dup2\n      mstore\n      0x20\n      add\n      0x60\n      dup2\n      mstore\n      0x20\n      add\n      0x60\n      dup2\n      mstore\n      pop\n      swap1\n      jump\t// out\n    tag_215:\n      mload(0x40)\n      dup1\n      0x40\n      add\n      0x40\n      mstore\n      dup1\n      tag_321\n      tag_245\n      jump\t// in\n    tag_321:\n      dup2\n      mstore\n      0x20\n      add\n      0x00\n      dup2\n      mstore\n      pop\n      swap1\n      jump\t// out\n    tag_245:\n      mload(0x40)\n      dup1\n      0x40\n      add\n      0x40\n      mstore\n      dup1\n      0x60\n      dup2\n      mstore\n      0x20\n      add\n      0x00\n      dup2\n      mstore\n      pop\n      swap1\n      jump\t// out\n        /* \"#utility.yul\":7:82   */\n    tag_322:\n        /* \"#utility.yul\":40:46   */\n      0x00\n        /* \"#utility.yul\":73:75   */\n      0x40\n        /* \"#utility.yul\":67:76   */\n      mload\n        /* \"#utility.yul\":57:76   */\n      swap1\n      pop\n        /* \"#utility.yul\":7:82   */\n      swap1\n      jump\t// out\n        /* \"#utility.yul\":88:205   */\n    tag_323:\n        /* \"#utility.yul\":197:198   */\n      0x00\n        /* \"#utility.yul\":194:195   */\n      dup1\n        /* \"#utility.yul\":187:199   */\n      revert\n        /* \"#utility.yul\":211:328   */\n    tag_324:\n        /* \"#utility.yul\":320:321   */\n      0x00\n        /* \"#utility.yul\":317:318   */\n      dup1\n        /* \"#utility.yul\":310:322   */\n      revert\n        /* \"#utility.yul\":334:411   */\n    tag_325:\n        /* \"#utility.yul\":371:378   */\n      0x00\n        /* \"#utility.yul\":400:405   */\n      dup2\n        /* \"#utility.yul\":389:405   */\n      swap1\n      pop\n        /* \"#utility.yul\":334:411   */\n      swap2\n      swap1\n      pop\n      jump\t// out\n        /* \"#utility.yul\":417:539   */\n    tag_326:\n        /* \"#utility.yul\":490:514   */\n      tag_409\n        /* \"#utility.yul\":508:513   */\n      dup2\n        /* \"#utility.yul\":490:514   */\n      tag_325\n      jump\t// in\n    tag_409:\n        /* \"#utility.yul\":483:488   */\n      dup2\n        /* \"#utility.yul\":480:515   */\n      eq\n        /* \"#utility.yul\":470:533   */\n      tag_410\n      jumpi\n        /* \"#utility.yul\":529:530   */\n      0x00\n        /* \"#utility.yul\":526:527   */\n      dup1\n        /* \"#utility.yul\":519:531   */\n      revert\n        /* \"#utility.yul\":470:533   */\n    tag_410:\n        /* \"#utility.yul\":417:539   */\n      pop\n      jump\t// out\n        /* \"#utility.yul\":545:684   */\n    tag_327:\n        /* \"#utility.yul\":591:596   */\n      0x00\n        /* \"#utility.yul\":629:635   */\n      dup2\n        /* \"#utility.yul\":616:636   */\n      calldataload\n        /* \"#utility.yul\":607:636   */\n      swap1\n      pop\n        /* \"#utility.yul\":645:678   */\n      tag_412\n        /* \"#utility.yul\":672:677   */\n      dup2\n        /* \"#utility.yul\":645:678   */\n      tag_326\n      jump\t// in\n    tag_412:\n        /* \"#utility.yul\":545:684   */\n      swap3\n      swap2\n      pop\n      pop\n      jump\t// out\n        /* \"#utility.yul\":690:807   */\n    tag_328:\n        /* \"#utility.yul\":799:800   */\n      0x00\n        /* \"#utility.yul\":796:797   */\n      dup1\n        /* \"#utility.yul\":789:801   */\n      revert\n        /* \"#utility.yul\":813:930   */\n    tag_329:\n        /* \"#utility.yul\":922:923   */\n      0x00\n        /* \"#utility.yul\":919:920   */\n      dup1\n        /* \"#utility.yul\":912:924   */\n      revert\n        /* \"#utility.yul\":936:1038   */\n    tag_330:\n        /* \"#utility.yul\":977:983   */\n      0x00\n        /* \"#utility.yul\":1028:1030   */\n      0x1f\n        /* \"#utility.yul\":1024:1031   */\n      not\n        /* \"#utility.yul\":1019:1021   */\n      0x1f\n        /* \"#utility.yul\":1012:1017   */\n      dup4\n        /* \"#utility.yul\":1008:1022   */\n      add\n        /* \"#utility.yul\":1004:1032   */\n      and\n        /* \"#utility.yul\":994:1032   */\n      swap1\n      pop\n        /* \"#utility.yul\":936:1038   */\n      swap2\n      swap1\n      pop\n      jump\t// out\n        /* \"#utility.yul\":1044:1224   */\n    tag_331:\n        /* \"#utility.yul\":1092:1169   */\n      0x4e487b7100000000000000000000000000000000000000000000000000000000\n        /* \"#utility.yul\":1089:1090   */\n      0x00\n        /* \"#utility.yul\":1082:1170   */\n      mstore\n        /* \"#utility.yul\":1189:1193   */\n      0x41\n        /* \"#utility.yul\":1186:1187   */\n      0x04\n        /* \"#utility.yul\":1179:1194   */\n      mstore\n        /* \"#utility.yul\":1213:1217   */\n      0x24\n        /* \"#utility.yul\":1210:1211   */\n      0x00\n        /* \"#utility.yul\":1203:1218   */\n      revert\n        /* \"#utility.yul\":1230:1511   */\n    tag_332:\n        /* \"#utility.yul\":1313:1340   */\n      tag_418\n        /* \"#utility.yul\":1335:1339   */\n      dup3\n        /* \"#utility.yul\":1313:1340   */\n      tag_330\n      jump\t// in\n    tag_418:\n        /* \"#utility.yul\":1305:1311   */\n      dup2\n        /* \"#utility.yul\":1301:1341   */\n      add\n        /* \"#utility.yul\":1443:1449   */\n      dup2\n        /* \"#utility.yul\":1431:1441   */\n      dup2\n        /* \"#utility.yul\":1428:1450   */\n      lt\n        /* \"#utility.yul\":1407:1425   */\n      0xffffffffffffffff\n        /* \"#utility.yul\":1395:1405   */\n      dup3\n        /* \"#utility.yul\":1392:1426   */\n      gt\n        /* \"#utility.yul\":1389:1451   */\n      or\n        /* \"#utility.yul\":1386:1474   */\n      iszero\n      tag_419\n      jumpi\n        /* \"#utility.yul\":1454:1472   */\n      tag_420\n      tag_331\n      jump\t// in\n    tag_420:\n        /* \"#utility.yul\":1386:1474   */\n    tag_419:\n        /* \"#utility.yul\":1494:1504   */\n      dup1\n        /* \"#utility.yul\":1490:1492   */\n      0x40\n        /* \"#utility.yul\":1483:1505   */\n      mstore\n        /* \"#utility.yul\":1273:1511   */\n      pop\n        /* \"#utility.yul\":1230:1511   */\n      pop\n      pop\n      jump\t// out\n        /* \"#utility.yul\":1517:1646   */\n    tag_333:\n        /* \"#utility.yul\":1551:1557   */\n      0x00\n        /* \"#utility.yul\":1578:1598   */\n      tag_422\n      tag_322\n      jump\t// in\n    tag_422:\n        /* \"#utility.yul\":1568:1598   */\n      swap1\n      pop\n        /* \"#utility.yul\":1607:1640   */\n      tag_423\n        /* \"#utility.yul\":1635:1639   */\n      dup3\n        /* \"#utility.yul\":1627:1633   */\n      dup3\n        /* \"#utility.yul\":1607:1640   */\n      tag_332\n      jump\t// in\n    tag_423:\n        /* \"#utility.yul\":1517:1646   */\n      swap2\n      swap1\n      pop\n      jump\t// out\n        /* \"#utility.yul\":1652:1959   */\n    tag_334:\n        /* \"#utility.yul\":1713:1717   */\n      0x00\n        /* \"#utility.yul\":1803:1821   */\n      0xffffffffffffffff\n        /* \"#utility.yul\":1795:1801   */\n      dup3\n        /* \"#utility.yul\":1792:1822   */\n      gt\n        /* \"#utility.yul\":1789:1845   */\n      iszero\n      tag_425\n      jumpi\n        /* \"#utility.yul\":1825:1843   */\n      tag_426\n      tag_331\n      jump\t// in\n    tag_426:\n        /* \"#utility.yul\":1789:1845   */\n    tag_425:\n        /* \"#utility.yul\":1863:1892   */\n      tag_427\n        /* \"#utility.yul\":1885:1891   */\n      dup3\n        /* \"#utility.yul\":1863:1892   */\n      tag_330\n      jump\t// in\n    tag_427:\n        /* \"#utility.yul\":1855:1892   */\n      swap1\n      pop\n        /* \"#utility.yul\":1947:1951   */\n      0x20\n        /* \"#utility.yul\":1941:1945   */\n      dup2\n        /* \"#utility.yul\":1937:1952   */\n      add\n        /* \"#utility.yul\":1929:1952   */\n      swap1\n      pop\n        /* \"#utility.yul\":1652:1959   */\n      swap2\n      swap1\n      pop\n      jump\t// out\n        /* \"#utility.yul\":1965:2111   */\n    tag_335:\n        /* \"#utility.yul\":2062:2068   */\n      dup3\n        /* \"#utility.yul\":2057:2060   */\n      dup2\n        /* \"#utility.yul\":2052:2055   */\n      dup4\n        /* \"#utility.yul\":2039:2069   */\n      calldatacopy\n        /* \"#utility.yul\":2103:2104   */\n      0x00\n        /* \"#utility.yul\":2094:2100   */\n      dup4\n        /* \"#utility.yul\":2089:2092   */\n      dup4\n        /* \"#utility.yul\":2085:2101   */\n      add\n        /* \"#utility.yul\":2078:2105   */\n      mstore\n        /* \"#utility.yul\":1965:2111   */\n      pop\n      pop\n      pop\n      jump\t// out\n        /* \"#utility.yul\":2117:2540   */\n    tag_336:\n        /* \"#utility.yul\":2194:2199   */\n      0x00\n        /* \"#utility.yul\":2219:2284   */\n      tag_430\n        /* \"#utility.yul\":2235:2283   */\n      tag_431\n        /* \"#utility.yul\":2276:2282   */\n      dup5\n        /* \"#utility.yul\":2235:2283   */\n      tag_334\n      jump\t// in\n    tag_431:\n        /* \"#utility.yul\":2219:2284   */\n      tag_333\n      jump\t// in\n    tag_430:\n        /* \"#utility.yul\":2210:2284   */\n      swap1\n      pop\n        /* \"#utility.yul\":2307:2313   */\n      dup3\n        /* \"#utility.yul\":2300:2305   */\n      dup2\n        /* \"#utility.yul\":2293:2314   */\n      mstore\n        /* \"#utility.yul\":2345:2349   */\n      0x20\n        /* \"#utility.yul\":2338:2343   */\n      dup2\n        /* \"#utility.yul\":2334:2350   */\n      add\n        /* \"#utility.yul\":2383:2386   */\n      dup5\n        /* \"#utility.yul\":2374:2380   */\n      dup5\n        /* \"#utility.yul\":2369:2372   */\n      dup5\n        /* \"#utility.yul\":2365:2381   */\n      add\n        /* \"#utility.yul\":2362:2387   */\n      gt\n        /* \"#utility.yul\":2359:2471   */\n      iszero\n      tag_432\n      jumpi\n        /* \"#utility.yul\":2390:2469   */\n      tag_433\n      tag_329\n      jump\t// in\n    tag_433:\n        /* \"#utility.yul\":2359:2471   */\n    tag_432:\n        /* \"#utility.yul\":2480:2534   */\n      tag_434\n        /* \"#utility.yul\":2527:2533   */\n      dup5\n        /* \"#utility.yul\":2522:2525   */\n      dup3\n        /* \"#utility.yul\":2517:2520   */\n      dup6\n        /* \"#utility.yul\":2480:2534   */\n      tag_335\n      jump\t// in\n    tag_434:\n        /* \"#utility.yul\":2200:2540   */\n      pop\n        /* \"#utility.yul\":2117:2540   */\n      swap4\n      swap3\n      pop\n      pop\n      pop\n      jump\t// out\n        /* \"#utility.yul\":2559:2897   */\n    tag_337:\n        /* \"#utility.yul\":2614:2619   */\n      0x00\n        /* \"#utility.yul\":2663:2666   */\n      dup3\n        /* \"#utility.yul\":2656:2660   */\n      0x1f\n        /* \"#utility.yul\":2648:2654   */\n      dup4\n        /* \"#utility.yul\":2644:2661   */\n      add\n        /* \"#utility.yul\":2640:2667   */\n      slt\n        /* \"#utility.yul\":2630:2752   */\n      tag_436\n      jumpi\n        /* \"#utility.yul\":2671:2750   */\n      tag_437\n      tag_328\n      jump\t// in\n    tag_437:\n        /* \"#utility.yul\":2630:2752   */\n    tag_436:\n        /* \"#utility.yul\":2788:2794   */\n      dup2\n        /* \"#utility.yul\":2775:2795   */\n      calldataload\n        /* \"#utility.yul\":2813:2891   */\n      tag_438\n        /* \"#utility.yul\":2887:2890   */\n      dup5\n        /* \"#utility.yul\":2879:2885   */\n      dup3\n        /* \"#utility.yul\":2872:2876   */\n      0x20\n        /* \"#utility.yul\":2864:2870   */\n      dup7\n        /* \"#utility.yul\":2860:2877   */\n      add\n        /* \"#utility.yul\":2813:2891   */\n      tag_336\n      jump\t// in\n    tag_438:\n        /* \"#utility.yul\":2804:2891   */\n      swap2\n      pop\n        /* \"#utility.yul\":2620:2897   */\n      pop\n        /* \"#utility.yul\":2559:2897   */\n      swap3\n      swap2\n      pop\n      pop\n      jump\t// out\n        /* \"#utility.yul\":2903:3878   */\n    tag_15:\n        /* \"#utility.yul\":2998:3004   */\n      0x00\n        /* \"#utility.yul\":3006:3012   */\n      dup1\n        /* \"#utility.yul\":3014:3020   */\n      0x00\n        /* \"#utility.yul\":3063:3065   */\n      0x60\n        /* \"#utility.yul\":3051:3060   */\n      dup5\n        /* \"#utility.yul\":3042:3049   */\n      dup7\n        /* \"#utility.yul\":3038:3061   */\n      sub\n        /* \"#utility.yul\":3034:3066   */\n      slt\n        /* \"#utility.yul\":3031:3150   */\n      iszero\n      tag_440\n      jumpi\n        /* \"#utility.yul\":3069:3148   */\n      tag_441\n      tag_323\n      jump\t// in\n    tag_441:\n        /* \"#utility.yul\":3031:3150   */\n    tag_440:\n        /* \"#utility.yul\":3189:3190   */\n      0x00\n        /* \"#utility.yul\":3214:3267   */\n      tag_442\n        /* \"#utility.yul\":3259:3266   */\n      dup7\n        /* \"#utility.yul\":3250:3256   */\n      dup3\n        /* \"#utility.yul\":3239:3248   */\n      dup8\n        /* \"#utility.yul\":3235:3257   */\n      add\n        /* \"#utility.yul\":3214:3267   */\n      tag_327\n      jump\t// in\n    tag_442:\n        /* \"#utility.yul\":3204:3267   */\n      swap4\n      pop\n        /* \"#utility.yul\":3160:3277   */\n      pop\n        /* \"#utility.yul\":3344:3346   */\n      0x20\n        /* \"#utility.yul\":3333:3342   */\n      dup5\n        /* \"#utility.yul\":3329:3347   */\n      add\n        /* \"#utility.yul\":3316:3348   */\n      calldataload\n        /* \"#utility.yul\":3375:3393   */\n      0xffffffffffffffff\n        /* \"#utility.yul\":3367:3373   */\n      dup2\n        /* \"#utility.yul\":3364:3394   */\n      gt\n        /* \"#utility.yul\":3361:3478   */\n      iszero\n      tag_443\n      jumpi\n        /* \"#utility.yul\":3397:3476   */\n      tag_444\n      tag_324\n      jump\t// in\n    tag_444:\n        /* \"#utility.yul\":3361:3478   */\n    tag_443:\n        /* \"#utility.yul\":3502:3564   */\n      tag_445\n        /* \"#utility.yul\":3556:3563   */\n      dup7\n        /* \"#utility.yul\":3547:3553   */\n      dup3\n        /* \"#utility.yul\":3536:3545   */\n      dup8\n        /* \"#utility.yul\":3532:3554   */\n      add\n        /* \"#utility.yul\":3502:3564   */\n      tag_337\n      jump\t// in\n    tag_445:\n        /* \"#utility.yul\":3492:3564   */\n      swap3\n      pop\n        /* \"#utility.yul\":3287:3574   */\n      pop\n        /* \"#utility.yul\":3641:3643   */\n      0x40\n        /* \"#utility.yul\":3630:3639   */\n      dup5\n        /* \"#utility.yul\":3626:3644   */\n      add\n        /* \"#utility.yul\":3613:3645   */\n      calldataload\n        /* \"#utility.yul\":3672:3690   */\n      0xffffffffffffffff\n        /* \"#utility.yul\":3664:3670   */\n      dup2\n        /* \"#utility.yul\":3661:3691   */\n      gt\n        /* \"#utility.yul\":3658:3775   */\n      iszero\n      tag_446\n      jumpi\n        /* \"#utility.yul\":3694:3773   */\n      tag_447\n      tag_324\n      jump\t// in\n    tag_447:\n        /* \"#utility.yul\":3658:3775   */\n    tag_446:\n        /* \"#utility.yul\":3799:3861   */\n      tag_448\n        /* \"#utility.yul\":3853:3860   */\n      dup7\n        /* \"#utility.yul\":3844:3850   */\n      dup3\n        /* \"#utility.yul\":3833:3842   */\n      dup8\n        /* \"#utility.yul\":3829:3851   */\n      add\n        /* \"#utility.yul\":3799:3861   */\n      tag_337\n      jump\t// in\n    tag_448:\n        /* \"#utility.yul\":3789:3861   */\n      swap2\n      pop\n        /* \"#utility.yul\":3584:3871   */\n      pop\n        /* \"#utility.yul\":2903:3878   */\n      swap3\n      pop\n      swap3\n      pop\n      swap3\n      jump\t// out\n        /* \"#utility.yul\":3884:3982   */\n    tag_338:\n        /* \"#utility.yul\":3935:3941   */\n      0x00\n        /* \"#utility.yul\":3969:3974   */\n      dup2\n        /* \"#utility.yul\":3963:3975   */\n      mload\n        /* \"#utility.yul\":3953:3975   */\n      swap1\n      pop\n        /* \"#utility.yul\":3884:3982   */\n      swap2\n      swap1\n      pop\n      jump\t// out\n        /* \"#utility.yul\":3988:4156   */\n    tag_339:\n        /* \"#utility.yul\":4071:4082   */\n      0x00\n        /* \"#utility.yul\":4105:4111   */\n      dup3\n        /* \"#utility.yul\":4100:4103   */\n      dup3\n        /* \"#utility.yul\":4093:4112   */\n      mstore\n        /* \"#utility.yul\":4145:4149   */\n      0x20\n        /* \"#utility.yul\":4140:4143   */\n      dup3\n        /* \"#utility.yul\":4136:4150   */\n      add\n        /* \"#utility.yul\":4121:4150   */\n      swap1\n      pop\n        /* \"#utility.yul\":3988:4156   */\n      swap3\n      swap2\n      pop\n      pop\n      jump\t// out\n        /* \"#utility.yul\":4162:4408   */\n    tag_340:\n        /* \"#utility.yul\":4243:4244   */\n      0x00\n        /* \"#utility.yul\":4253:4366   */\n    tag_452:\n        /* \"#utility.yul\":4267:4273   */\n      dup4\n        /* \"#utility.yul\":4264:4265   */\n      dup2\n        /* \"#utility.yul\":4261:4274   */\n      lt\n        /* \"#utility.yul\":4253:4366   */\n      iszero\n      tag_454\n      jumpi\n        /* \"#utility.yul\":4352:4353   */\n      dup1\n        /* \"#utility.yul\":4347:4350   */\n      dup3\n        /* \"#utility.yul\":4343:4354   */\n      add\n        /* \"#utility.yul\":4337:4355   */\n      mload\n        /* \"#utility.yul\":4333:4334   */\n      dup2\n        /* \"#utility.yul\":4328:4331   */\n      dup5\n        /* \"#utility.yul\":4324:4335   */\n      add\n        /* \"#utility.yul\":4317:4356   */\n      mstore\n        /* \"#utility.yul\":4289:4291   */\n      0x20\n        /* \"#utility.yul\":4286:4287   */\n      dup2\n        /* \"#utility.yul\":4282:4292   */\n      add\n        /* \"#utility.yul\":4277:4292   */\n      swap1\n      pop\n        /* \"#utility.yul\":4253:4366   */\n      jump(tag_452)\n    tag_454:\n        /* \"#utility.yul\":4400:4401   */\n      0x00\n        /* \"#utility.yul\":4391:4397   */\n      dup5\n        /* \"#utility.yul\":4386:4389   */\n      dup5\n        /* \"#utility.yul\":4382:4398   */\n      add\n        /* \"#utility.yul\":4375:4402   */\n      mstore\n        /* \"#utility.yul\":4224:4408   */\n      pop\n        /* \"#utility.yul\":4162:4408   */\n      pop\n      pop\n      pop\n      jump\t// out\n        /* \"#utility.yul\":4414:4787   */\n    tag_341:\n        /* \"#utility.yul\":4500:4503   */\n      0x00\n        /* \"#utility.yul\":4528:4566   */\n      tag_456\n        /* \"#utility.yul\":4560:4565   */\n      dup3\n        /* \"#utility.yul\":4528:4566   */\n      tag_338\n      jump\t// in\n    tag_456:\n        /* \"#utility.yul\":4582:4652   */\n      tag_457\n        /* \"#utility.yul\":4645:4651   */\n      dup2\n        /* \"#utility.yul\":4640:4643   */\n      dup6\n        /* \"#utility.yul\":4582:4652   */\n      tag_339\n      jump\t// in\n    tag_457:\n        /* \"#utility.yul\":4575:4652   */\n      swap4\n      pop\n        /* \"#utility.yul\":4661:4726   */\n      tag_458\n        /* \"#utility.yul\":4719:4725   */\n      dup2\n        /* \"#utility.yul\":4714:4717   */\n      dup6\n        /* \"#utility.yul\":4707:4711   */\n      0x20\n        /* \"#utility.yul\":4700:4705   */\n      dup7\n        /* \"#utility.yul\":4696:4712   */\n      add\n        /* \"#utility.yul\":4661:4726   */\n      tag_340\n      jump\t// in\n    tag_458:\n        /* \"#utility.yul\":4751:4780   */\n      tag_459\n        /* \"#utility.yul\":4773:4779   */\n      dup2\n        /* \"#utility.yul\":4751:4780   */\n      tag_330\n      jump\t// in\n    tag_459:\n        /* \"#utility.yul\":4746:4749   */\n      dup5\n        /* \"#utility.yul\":4742:4781   */\n      add\n        /* \"#utility.yul\":4735:4781   */\n      swap2\n      pop\n        /* \"#utility.yul\":4504:4787   */\n      pop\n        /* \"#utility.yul\":4414:4787   */\n      swap3\n      swap2\n      pop\n      pop\n      jump\t// out\n        /* \"#utility.yul\":4793:5102   */\n    tag_20:\n        /* \"#utility.yul\":4904:4908   */\n      0x00\n        /* \"#utility.yul\":4942:4944   */\n      0x20\n        /* \"#utility.yul\":4931:4940   */\n      dup3\n        /* \"#utility.yul\":4927:4945   */\n      add\n        /* \"#utility.yul\":4919:4945   */\n      swap1\n      pop\n        /* \"#utility.yul\":4991:5000   */\n      dup2\n        /* \"#utility.yul\":4985:4989   */\n      dup2\n        /* \"#utility.yul\":4981:5001   */\n      sub\n        /* \"#utility.yul\":4977:4978   */\n      0x00\n        /* \"#utility.yul\":4966:4975   */\n      dup4\n        /* \"#utility.yul\":4962:4979   */\n      add\n        /* \"#utility.yul\":4955:5002   */\n      mstore\n        /* \"#utility.yul\":5019:5095   */\n      tag_461\n        /* \"#utility.yul\":5090:5094   */\n      dup2\n        /* \"#utility.yul\":5081:5087   */\n      dup5\n        /* \"#utility.yul\":5019:5095   */\n      tag_341\n      jump\t// in\n    tag_461:\n        /* \"#utility.yul\":5011:5095   */\n      swap1\n      pop\n        /* \"#utility.yul\":4793:5102   */\n      swap3\n      swap2\n      pop\n      pop\n      jump\t// out\n        /* \"#utility.yul\":5108:5416   */\n    tag_342:\n        /* \"#utility.yul\":5170:5174   */\n      0x00\n        /* \"#utility.yul\":5260:5278   */\n      0xffffffffffffffff\n        /* \"#utility.yul\":5252:5258   */\n      dup3\n        /* \"#utility.yul\":5249:5279   */\n      gt\n        /* \"#utility.yul\":5246:5302   */\n      iszero\n      tag_463\n      jumpi\n        /* \"#utility.yul\":5282:5300   */\n      tag_464\n      tag_331\n      jump\t// in\n    tag_464:\n        /* \"#utility.yul\":5246:5302   */\n    tag_463:\n        /* \"#utility.yul\":5320:5349   */\n      tag_465\n        /* \"#utility.yul\":5342:5348   */\n      dup3\n        /* \"#utility.yul\":5320:5349   */\n      tag_330\n      jump\t// in\n    tag_465:\n        /* \"#utility.yul\":5312:5349   */\n      swap1\n      pop\n        /* \"#utility.yul\":5404:5408   */\n      0x20\n        /* \"#utility.yul\":5398:5402   */\n      dup2\n        /* \"#utility.yul\":5394:5409   */\n      add\n        /* \"#utility.yul\":5386:5409   */\n      swap1\n      pop\n        /* \"#utility.yul\":5108:5416   */\n      swap2\n      swap1\n      pop\n      jump\t// out\n        /* \"#utility.yul\":5422:5847   */\n    tag_343:\n        /* \"#utility.yul\":5500:5505   */\n      0x00\n        /* \"#utility.yul\":5525:5591   */\n      tag_467\n        /* \"#utility.yul\":5541:5590   */\n      tag_468\n        /* \"#utility.yul\":5583:5589   */\n      dup5\n        /* \"#utility.yul\":5541:5590   */\n      tag_342\n      jump\t// in\n    tag_468:\n        /* \"#utility.yul\":5525:5591   */\n      tag_333\n      jump\t// in\n    tag_467:\n        /* \"#utility.yul\":5516:5591   */\n      swap1\n      pop\n        /* \"#utility.yul\":5614:5620   */\n      dup3\n        /* \"#utility.yul\":5607:5612   */\n      dup2\n        /* \"#utility.yul\":5600:5621   */\n      mstore\n        /* \"#utility.yul\":5652:5656   */\n      0x20\n        /* \"#utility.yul\":5645:5650   */\n      dup2\n        /* \"#utility.yul\":5641:5657   */\n      add\n        /* \"#utility.yul\":5690:5693   */\n      dup5\n        /* \"#utility.yul\":5681:5687   */\n      dup5\n        /* \"#utility.yul\":5676:5679   */\n      dup5\n        /* \"#utility.yul\":5672:5688   */\n      add\n        /* \"#utility.yul\":5669:5694   */\n      gt\n        /* \"#utility.yul\":5666:5778   */\n      iszero\n      tag_469\n      jumpi\n        /* \"#utility.yul\":5697:5776   */\n      tag_470\n      tag_329\n      jump\t// in\n    tag_470:\n        /* \"#utility.yul\":5666:5778   */\n    tag_469:\n        /* \"#utility.yul\":5787:5841   */\n      tag_471\n        /* \"#utility.yul\":5834:5840   */\n      dup5\n        /* \"#utility.yul\":5829:5832   */\n      dup3\n        /* \"#utility.yul\":5824:5827   */\n      dup6\n        /* \"#utility.yul\":5787:5841   */\n      tag_335\n      jump\t// in\n    tag_471:\n        /* \"#utility.yul\":5506:5847   */\n      pop\n        /* \"#utility.yul\":5422:5847   */\n      swap4\n      swap3\n      pop\n      pop\n      pop\n      jump\t// out\n        /* \"#utility.yul\":5867:6207   */\n    tag_344:\n        /* \"#utility.yul\":5923:5928   */\n      0x00\n        /* \"#utility.yul\":5972:5975   */\n      dup3\n        /* \"#utility.yul\":5965:5969   */\n      0x1f\n        /* \"#utility.yul\":5957:5963   */\n      dup4\n        /* \"#utility.yul\":5953:5970   */\n      add\n        /* \"#utility.yul\":5949:5976   */\n      slt\n        /* \"#utility.yul\":5939:6061   */\n      tag_473\n      jumpi\n        /* \"#utility.yul\":5980:6059   */\n      tag_474\n      tag_328\n      jump\t// in\n    tag_474:\n        /* \"#utility.yul\":5939:6061   */\n    tag_473:\n        /* \"#utility.yul\":6097:6103   */\n      dup2\n        /* \"#utility.yul\":6084:6104   */\n      calldataload\n        /* \"#utility.yul\":6122:6201   */\n      tag_475\n        /* \"#utility.yul\":6197:6200   */\n      dup5\n        /* \"#utility.yul\":6189:6195   */\n      dup3\n        /* \"#utility.yul\":6182:6186   */\n      0x20\n        /* \"#utility.yul\":6174:6180   */\n      dup7\n        /* \"#utility.yul\":6170:6187   */\n      add\n        /* \"#utility.yul\":6122:6201   */\n      tag_343\n      jump\t// in\n    tag_475:\n        /* \"#utility.yul\":6113:6201   */\n      swap2\n      pop\n        /* \"#utility.yul\":5929:6207   */\n      pop\n        /* \"#utility.yul\":5867:6207   */\n      swap3\n      swap2\n      pop\n      pop\n      jump\t// out\n        /* \"#utility.yul\":6213:6299   */\n    tag_345:\n        /* \"#utility.yul\":6248:6255   */\n      0x00\n        /* \"#utility.yul\":6288:6292   */\n      0xff\n        /* \"#utility.yul\":6281:6286   */\n      dup3\n        /* \"#utility.yul\":6277:6293   */\n      and\n        /* \"#utility.yul\":6266:6293   */\n      swap1\n      pop\n        /* \"#utility.yul\":6213:6299   */\n      swap2\n      swap1\n      pop\n      jump\t// out\n        /* \"#utility.yul\":6305:6423   */\n    tag_346:\n        /* \"#utility.yul\":6376:6398   */\n      tag_478\n        /* \"#utility.yul\":6392:6397   */\n      dup2\n        /* \"#utility.yul\":6376:6398   */\n      tag_345\n      jump\t// in\n    tag_478:\n        /* \"#utility.yul\":6369:6374   */\n      dup2\n        /* \"#utility.yul\":6366:6399   */\n      eq\n        /* \"#utility.yul\":6356:6417   */\n      tag_479\n      jumpi\n        /* \"#utility.yul\":6413:6414   */\n      0x00\n        /* \"#utility.yul\":6410:6411   */\n      dup1\n        /* \"#utility.yul\":6403:6415   */\n      revert\n        /* \"#utility.yul\":6356:6417   */\n    tag_479:\n        /* \"#utility.yul\":6305:6423   */\n      pop\n      jump\t// out\n        /* \"#utility.yul\":6429:6564   */\n    tag_347:\n        /* \"#utility.yul\":6473:6478   */\n      0x00\n        /* \"#utility.yul\":6511:6517   */\n      dup2\n        /* \"#utility.yul\":6498:6518   */\n      calldataload\n        /* \"#utility.yul\":6489:6518   */\n      swap1\n      pop\n        /* \"#utility.yul\":6527:6558   */\n      tag_481\n        /* \"#utility.yul\":6552:6557   */\n      dup2\n        /* \"#utility.yul\":6527:6558   */\n      tag_346\n      jump\t// in\n    tag_481:\n        /* \"#utility.yul\":6429:6564   */\n      swap3\n      swap2\n      pop\n      pop\n      jump\t// out\n        /* \"#utility.yul\":6570:6671   */\n    tag_348:\n        /* \"#utility.yul\":6606:6613   */\n      0x00\n        /* \"#utility.yul\":6646:6664   */\n      0xffffffffffffffff\n        /* \"#utility.yul\":6639:6644   */\n      dup3\n        /* \"#utility.yul\":6635:6665   */\n      and\n        /* \"#utility.yul\":6624:6665   */\n      swap1\n      pop\n        /* \"#utility.yul\":6570:6671   */\n      swap2\n      swap1\n      pop\n      jump\t// out\n        /* \"#utility.yul\":6677:6797   */\n    tag_349:\n        /* \"#utility.yul\":6749:6772   */\n      tag_484\n        /* \"#utility.yul\":6766:6771   */\n      dup2\n        /* \"#utility.yul\":6749:6772   */\n      tag_348\n      jump\t// in\n    tag_484:\n        /* \"#utility.yul\":6742:6747   */\n      dup2\n        /* \"#utility.yul\":6739:6773   */\n      eq\n        /* \"#utility.yul\":6729:6791   */\n      tag_485\n      jumpi\n        /* \"#utility.yul\":6787:6788   */\n      0x00\n        /* \"#utility.yul\":6784:6785   */\n      dup1\n        /* \"#utility.yul\":6777:6789   */\n      revert\n        /* \"#utility.yul\":6729:6791   */\n    tag_485:\n        /* \"#utility.yul\":6677:6797   */\n      pop\n      jump\t// out\n        /* \"#utility.yul\":6803:6940   */\n    tag_350:\n        /* \"#utility.yul\":6848:6853   */\n      0x00\n        /* \"#utility.yul\":6886:6892   */\n      dup2\n        /* \"#utility.yul\":6873:6893   */\n      calldataload\n        /* \"#utility.yul\":6864:6893   */\n      swap1\n      pop\n        /* \"#utility.yul\":6902:6934   */\n      tag_487\n        /* \"#utility.yul\":6928:6933   */\n      dup2\n        /* \"#utility.yul\":6902:6934   */\n      tag_349\n      jump\t// in\n    tag_487:\n        /* \"#utility.yul\":6803:6940   */\n      swap3\n      swap2\n      pop\n      pop\n      jump\t// out\n        /* \"#utility.yul\":6946:7267   */\n    tag_351:\n        /* \"#utility.yul\":7033:7037   */\n      0x00\n        /* \"#utility.yul\":7123:7141   */\n      0xffffffffffffffff\n        /* \"#utility.yul\":7115:7121   */\n      dup3\n        /* \"#utility.yul\":7112:7142   */\n      gt\n        /* \"#utility.yul\":7109:7165   */\n      iszero\n      tag_489\n      jumpi\n        /* \"#utility.yul\":7145:7163   */\n      tag_490\n      tag_331\n      jump\t// in\n    tag_490:\n        /* \"#utility.yul\":7109:7165   */\n    tag_489:\n        /* \"#utility.yul\":7195:7199   */\n      0x20\n        /* \"#utility.yul\":7187:7193   */\n      dup3\n        /* \"#utility.yul\":7183:7200   */\n      mul\n        /* \"#utility.yul\":7175:7200   */\n      swap1\n      pop\n        /* \"#utility.yul\":7255:7259   */\n      0x20\n        /* \"#utility.yul\":7249:7253   */\n      dup2\n        /* \"#utility.yul\":7245:7260   */\n      add\n        /* \"#utility.yul\":7237:7260   */\n      swap1\n      pop\n        /* \"#utility.yul\":6946:7267   */\n      swap2\n      swap1\n      pop\n      jump\t// out\n        /* \"#utility.yul\":7273:7390   */\n    tag_352:\n        /* \"#utility.yul\":7382:7383   */\n      0x00\n        /* \"#utility.yul\":7379:7380   */\n      dup1\n        /* \"#utility.yul\":7372:7384   */\n      revert\n        /* \"#utility.yul\":7412:8357   */\n    tag_353:\n        /* \"#utility.yul\":7518:7523   */\n      0x00\n        /* \"#utility.yul\":7543:7634   */\n      tag_493\n        /* \"#utility.yul\":7559:7633   */\n      tag_494\n        /* \"#utility.yul\":7626:7632   */\n      dup5\n        /* \"#utility.yul\":7559:7633   */\n      tag_351\n      jump\t// in\n    tag_494:\n        /* \"#utility.yul\":7543:7634   */\n      tag_333\n      jump\t// in\n    tag_493:\n        /* \"#utility.yul\":7534:7634   */\n      swap1\n      pop\n        /* \"#utility.yul\":7654:7659   */\n      dup1\n        /* \"#utility.yul\":7683:7689   */\n      dup4\n        /* \"#utility.yul\":7676:7681   */\n      dup3\n        /* \"#utility.yul\":7669:7690   */\n      mstore\n        /* \"#utility.yul\":7717:7721   */\n      0x20\n        /* \"#utility.yul\":7710:7715   */\n      dup3\n        /* \"#utility.yul\":7706:7722   */\n      add\n        /* \"#utility.yul\":7699:7722   */\n      swap1\n      pop\n        /* \"#utility.yul\":7770:7774   */\n      0x20\n        /* \"#utility.yul\":7762:7768   */\n      dup5\n        /* \"#utility.yul\":7758:7775   */\n      mul\n        /* \"#utility.yul\":7750:7756   */\n      dup4\n        /* \"#utility.yul\":7746:7776   */\n      add\n        /* \"#utility.yul\":7799:7802   */\n      dup6\n        /* \"#utility.yul\":7791:7797   */\n      dup2\n        /* \"#utility.yul\":7788:7803   */\n      gt\n        /* \"#utility.yul\":7785:7907   */\n      iszero\n      tag_495\n      jumpi\n        /* \"#utility.yul\":7818:7897   */\n      tag_496\n      tag_352\n      jump\t// in\n    tag_496:\n        /* \"#utility.yul\":7785:7907   */\n    tag_495:\n        /* \"#utility.yul\":7933:7939   */\n      dup4\n        /* \"#utility.yul\":7916:8351   */\n    tag_497:\n        /* \"#utility.yul\":7950:7956   */\n      dup2\n        /* \"#utility.yul\":7945:7948   */\n      dup2\n        /* \"#utility.yul\":7942:7957   */\n      lt\n        /* \"#utility.yul\":7916:8351   */\n      iszero\n      tag_499\n      jumpi\n        /* \"#utility.yul\":8039:8042   */\n      dup1\n        /* \"#utility.yul\":8026:8043   */\n      calldataload\n        /* \"#utility.yul\":8075:8093   */\n      0xffffffffffffffff\n        /* \"#utility.yul\":8062:8073   */\n      dup2\n        /* \"#utility.yul\":8059:8094   */\n      gt\n        /* \"#utility.yul\":8056:8178   */\n      iszero\n      tag_500\n      jumpi\n        /* \"#utility.yul\":8097:8176   */\n      tag_501\n      tag_328\n      jump\t// in\n    tag_501:\n        /* \"#utility.yul\":8056:8178   */\n    tag_500:\n        /* \"#utility.yul\":8221:8232   */\n      dup1\n        /* \"#utility.yul\":8213:8219   */\n      dup7\n        /* \"#utility.yul\":8209:8233   */\n      add\n        /* \"#utility.yul\":8259:8306   */\n      tag_502\n        /* \"#utility.yul\":8302:8305   */\n      dup10\n        /* \"#utility.yul\":8290:8300   */\n      dup3\n        /* \"#utility.yul\":8259:8306   */\n      tag_344\n      jump\t// in\n    tag_502:\n        /* \"#utility.yul\":8254:8257   */\n      dup6\n        /* \"#utility.yul\":8247:8307   */\n      mstore\n        /* \"#utility.yul\":8336:8340   */\n      0x20\n        /* \"#utility.yul\":8331:8334   */\n      dup6\n        /* \"#utility.yul\":8327:8341   */\n      add\n        /* \"#utility.yul\":8320:8341   */\n      swap5\n      pop\n        /* \"#utility.yul\":7992:8351   */\n      pop\n      pop\n        /* \"#utility.yul\":7976:7980   */\n      0x20\n        /* \"#utility.yul\":7971:7974   */\n      dup2\n        /* \"#utility.yul\":7967:7981   */\n      add\n        /* \"#utility.yul\":7960:7981   */\n      swap1\n      pop\n        /* \"#utility.yul\":7916:8351   */\n      jump(tag_497)\n    tag_499:\n        /* \"#utility.yul\":7920:7941   */\n      pop\n        /* \"#utility.yul\":7524:8357   */\n      pop\n      pop\n        /* \"#utility.yul\":7412:8357   */\n      swap4\n      swap3\n      pop\n      pop\n      pop\n      jump\t// out\n        /* \"#utility.yul\":8379:8769   */\n    tag_354:\n        /* \"#utility.yul\":8460:8465   */\n      0x00\n        /* \"#utility.yul\":8509:8512   */\n      dup3\n        /* \"#utility.yul\":8502:8506   */\n      0x1f\n        /* \"#utility.yul\":8494:8500   */\n      dup4\n        /* \"#utility.yul\":8490:8507   */\n      add\n        /* \"#utility.yul\":8486:8513   */\n      slt\n        /* \"#utility.yul\":8476:8598   */\n      tag_504\n      jumpi\n        /* \"#utility.yul\":8517:8596   */\n      tag_505\n      tag_328\n      jump\t// in\n    tag_505:\n        /* \"#utility.yul\":8476:8598   */\n    tag_504:\n        /* \"#utility.yul\":8634:8640   */\n      dup2\n        /* \"#utility.yul\":8621:8641   */\n      calldataload\n        /* \"#utility.yul\":8659:8763   */\n      tag_506\n        /* \"#utility.yul\":8759:8762   */\n      dup5\n        /* \"#utility.yul\":8751:8757   */\n      dup3\n        /* \"#utility.yul\":8744:8748   */\n      0x20\n        /* \"#utility.yul\":8736:8742   */\n      dup7\n        /* \"#utility.yul\":8732:8749   */\n      add\n        /* \"#utility.yul\":8659:8763   */\n      tag_353\n      jump\t// in\n    tag_506:\n        /* \"#utility.yul\":8650:8763   */\n      swap2\n      pop\n        /* \"#utility.yul\":8466:8769   */\n      pop\n        /* \"#utility.yul\":8379:8769   */\n      swap3\n      swap2\n      pop\n      pop\n      jump\t// out\n        /* \"#utility.yul\":8775:9095   */\n    tag_355:\n        /* \"#utility.yul\":8861:8865   */\n      0x00\n        /* \"#utility.yul\":8951:8969   */\n      0xffffffffffffffff\n        /* \"#utility.yul\":8943:8949   */\n      dup3\n        /* \"#utility.yul\":8940:8970   */\n      gt\n        /* \"#utility.yul\":8937:8993   */\n      iszero\n      tag_508\n      jumpi\n        /* \"#utility.yul\":8973:8991   */\n      tag_509\n      tag_331\n      jump\t// in\n    tag_509:\n        /* \"#utility.yul\":8937:8993   */\n    tag_508:\n        /* \"#utility.yul\":9023:9027   */\n      0x20\n        /* \"#utility.yul\":9015:9021   */\n      dup3\n        /* \"#utility.yul\":9011:9028   */\n      mul\n        /* \"#utility.yul\":9003:9028   */\n      swap1\n      pop\n        /* \"#utility.yul\":9083:9087   */\n      0x20\n        /* \"#utility.yul\":9077:9081   */\n      dup2\n        /* \"#utility.yul\":9073:9088   */\n      add\n        /* \"#utility.yul\":9065:9088   */\n      swap1\n      pop\n        /* \"#utility.yul\":8775:9095   */\n      swap2\n      swap1\n      pop\n      jump\t// out\n        /* \"#utility.yul\":9116:10058   */\n    tag_356:\n        /* \"#utility.yul\":9221:9226   */\n      0x00\n        /* \"#utility.yul\":9246:9336   */\n      tag_511\n        /* \"#utility.yul\":9262:9335   */\n      tag_512\n        /* \"#utility.yul\":9328:9334   */\n      dup5\n        /* \"#utility.yul\":9262:9335   */\n      tag_355\n      jump\t// in\n    tag_512:\n        /* \"#utility.yul\":9246:9336   */\n      tag_333\n      jump\t// in\n    tag_511:\n        /* \"#utility.yul\":9237:9336   */\n      swap1\n      pop\n        /* \"#utility.yul\":9356:9361   */\n      dup1\n        /* \"#utility.yul\":9385:9391   */\n      dup4\n        /* \"#utility.yul\":9378:9383   */\n      dup3\n        /* \"#utility.yul\":9371:9392   */\n      mstore\n        /* \"#utility.yul\":9419:9423   */\n      0x20\n        /* \"#utility.yul\":9412:9417   */\n      dup3\n        /* \"#utility.yul\":9408:9424   */\n      add\n        /* \"#utility.yul\":9401:9424   */\n      swap1\n      pop\n        /* \"#utility.yul\":9472:9476   */\n      0x20\n        /* \"#utility.yul\":9464:9470   */\n      dup5\n        /* \"#utility.yul\":9460:9477   */\n      mul\n        /* \"#utility.yul\":9452:9458   */\n      dup4\n        /* \"#utility.yul\":9448:9478   */\n      add\n        /* \"#utility.yul\":9501:9504   */\n      dup6\n        /* \"#utility.yul\":9493:9499   */\n      dup2\n        /* \"#utility.yul\":9490:9505   */\n      gt\n        /* \"#utility.yul\":9487:9609   */\n      iszero\n      tag_513\n      jumpi\n        /* \"#utility.yul\":9520:9599   */\n      tag_514\n      tag_352\n      jump\t// in\n    tag_514:\n        /* \"#utility.yul\":9487:9609   */\n    tag_513:\n        /* \"#utility.yul\":9635:9641   */\n      dup4\n        /* \"#utility.yul\":9618:10052   */\n    tag_515:\n        /* \"#utility.yul\":9652:9658   */\n      dup2\n        /* \"#utility.yul\":9647:9650   */\n      dup2\n        /* \"#utility.yul\":9644:9659   */\n      lt\n        /* \"#utility.yul\":9618:10052   */\n      iszero\n      tag_517\n      jumpi\n        /* \"#utility.yul\":9741:9744   */\n      dup1\n        /* \"#utility.yul\":9728:9745   */\n      calldataload\n        /* \"#utility.yul\":9777:9795   */\n      0xffffffffffffffff\n        /* \"#utility.yul\":9764:9775   */\n      dup2\n        /* \"#utility.yul\":9761:9796   */\n      gt\n        /* \"#utility.yul\":9758:9880   */\n      iszero\n      tag_518\n      jumpi\n        /* \"#utility.yul\":9799:9878   */\n      tag_519\n      tag_328\n      jump\t// in\n    tag_519:\n        /* \"#utility.yul\":9758:9880   */\n    tag_518:\n        /* \"#utility.yul\":9923:9934   */\n      dup1\n        /* \"#utility.yul\":9915:9921   */\n      dup7\n        /* \"#utility.yul\":9911:9935   */\n      add\n        /* \"#utility.yul\":9961:10007   */\n      tag_520\n        /* \"#utility.yul\":10003:10006   */\n      dup10\n        /* \"#utility.yul\":9991:10001   */\n      dup3\n        /* \"#utility.yul\":9961:10007   */\n      tag_337\n      jump\t// in\n    tag_520:\n        /* \"#utility.yul\":9956:9959   */\n      dup6\n        /* \"#utility.yul\":9949:10008   */\n      mstore\n        /* \"#utility.yul\":10037:10041   */\n      0x20\n        /* \"#utility.yul\":10032:10035   */\n      dup6\n        /* \"#utility.yul\":10028:10042   */\n      add\n        /* \"#utility.yul\":10021:10042   */\n      swap5\n      pop\n        /* \"#utility.yul\":9694:10052   */\n      pop\n      pop\n        /* \"#utility.yul\":9678:9682   */\n      0x20\n        /* \"#utility.yul\":9673:9676   */\n      dup2\n        /* \"#utility.yul\":9669:9683   */\n      add\n        /* \"#utility.yul\":9662:9683   */\n      swap1\n      pop\n        /* \"#utility.yul\":9618:10052   */\n      jump(tag_515)\n    tag_517:\n        /* \"#utility.yul\":9622:9643   */\n      pop\n        /* \"#utility.yul\":9227:10058   */\n      pop\n      pop\n        /* \"#utility.yul\":9116:10058   */\n      swap4\n      swap3\n      pop\n      pop\n      pop\n      jump\t// out\n        /* \"#utility.yul\":10079:10467   */\n    tag_357:\n        /* \"#utility.yul\":10159:10164   */\n      0x00\n        /* \"#utility.yul\":10208:10211   */\n      dup3\n        /* \"#utility.yul\":10201:10205   */\n      0x1f\n        /* \"#utility.yul\":10193:10199   */\n      dup4\n        /* \"#utility.yul\":10189:10206   */\n      add\n        /* \"#utility.yul\":10185:10212   */\n      slt\n        /* \"#utility.yul\":10175:10297   */\n      tag_522\n      jumpi\n        /* \"#utility.yul\":10216:10295   */\n      tag_523\n      tag_328\n      jump\t// in\n    tag_523:\n        /* \"#utility.yul\":10175:10297   */\n    tag_522:\n        /* \"#utility.yul\":10333:10339   */\n      dup2\n        /* \"#utility.yul\":10320:10340   */\n      calldataload\n        /* \"#utility.yul\":10358:10461   */\n      tag_524\n        /* \"#utility.yul\":10457:10460   */\n      dup5\n        /* \"#utility.yul\":10449:10455   */\n      dup3\n        /* \"#utility.yul\":10442:10446   */\n      0x20\n        /* \"#utility.yul\":10434:10440   */\n      dup7\n        /* \"#utility.yul\":10430:10447   */\n      add\n        /* \"#utility.yul\":10358:10461   */\n      tag_356\n      jump\t// in\n    tag_524:\n        /* \"#utility.yul\":10349:10461   */\n      swap2\n      pop\n        /* \"#utility.yul\":10165:10467   */\n      pop\n        /* \"#utility.yul\":10079:10467   */\n      swap3\n      swap2\n      pop\n      pop\n      jump\t// out\n        /* \"#utility.yul\":10473:10566   */\n    tag_358:\n        /* \"#utility.yul\":10509:10516   */\n      0x00\n        /* \"#utility.yul\":10549:10559   */\n      0xffffffff\n        /* \"#utility.yul\":10542:10547   */\n      dup3\n        /* \"#utility.yul\":10538:10560   */\n      and\n        /* \"#utility.yul\":10527:10560   */\n      swap1\n      pop\n        /* \"#utility.yul\":10473:10566   */\n      swap2\n      swap1\n      pop\n      jump\t// out\n        /* \"#utility.yul\":10572:10692   */\n    tag_359:\n        /* \"#utility.yul\":10644:10667   */\n      tag_527\n        /* \"#utility.yul\":10661:10666   */\n      dup2\n        /* \"#utility.yul\":10644:10667   */\n      tag_358\n      jump\t// in\n    tag_527:\n        /* \"#utility.yul\":10637:10642   */\n      dup2\n        /* \"#utility.yul\":10634:10668   */\n      eq\n        /* \"#utility.yul\":10624:10686   */\n      tag_528\n      jumpi\n        /* \"#utility.yul\":10682:10683   */\n      0x00\n        /* \"#utility.yul\":10679:10680   */\n      dup1\n        /* \"#utility.yul\":10672:10684   */\n      revert\n        /* \"#utility.yul\":10624:10686   */\n    tag_528:\n        /* \"#utility.yul\":10572:10692   */\n      pop\n      jump\t// out\n        /* \"#utility.yul\":10698:10835   */\n    tag_360:\n        /* \"#utility.yul\":10743:10748   */\n      0x00\n        /* \"#utility.yul\":10781:10787   */\n      dup2\n        /* \"#utility.yul\":10768:10788   */\n      calldataload\n        /* \"#utility.yul\":10759:10788   */\n      swap1\n      pop\n        /* \"#utility.yul\":10797:10829   */\n      tag_530\n        /* \"#utility.yul\":10823:10828   */\n      dup2\n        /* \"#utility.yul\":10797:10829   */\n      tag_359\n      jump\t// in\n    tag_530:\n        /* \"#utility.yul\":10698:10835   */\n      swap3\n      swap2\n      pop\n      pop\n      jump\t// out\n        /* \"#utility.yul\":10841:13142   */\n    tag_26:\n        /* \"#utility.yul\":11055:11061   */\n      0x00\n        /* \"#utility.yul\":11063:11069   */\n      dup1\n        /* \"#utility.yul\":11071:11077   */\n      0x00\n        /* \"#utility.yul\":11079:11085   */\n      dup1\n        /* \"#utility.yul\":11087:11093   */\n      0x00\n        /* \"#utility.yul\":11095:11101   */\n      dup1\n        /* \"#utility.yul\":11103:11109   */\n      0x00\n        /* \"#utility.yul\":11111:11117   */\n      dup1\n        /* \"#utility.yul\":11119:11125   */\n      0x00\n        /* \"#utility.yul\":11168:11171   */\n      0x0120\n        /* \"#utility.yul\":11156:11165   */\n      dup11\n        /* \"#utility.yul\":11147:11154   */\n      dup13\n        /* \"#utility.yul\":11143:11166   */\n      sub\n        /* \"#utility.yul\":11139:11172   */\n      slt\n        /* \"#utility.yul\":11136:11256   */\n      iszero\n      tag_532\n      jumpi\n        /* \"#utility.yul\":11175:11254   */\n      tag_533\n      tag_323\n      jump\t// in\n    tag_533:\n        /* \"#utility.yul\":11136:11256   */\n    tag_532:\n        /* \"#utility.yul\":11323:11324   */\n      0x00\n        /* \"#utility.yul\":11312:11321   */\n      dup11\n        /* \"#utility.yul\":11308:11325   */\n      add\n        /* \"#utility.yul\":11295:11326   */\n      calldataload\n        /* \"#utility.yul\":11353:11371   */\n      0xffffffffffffffff\n        /* \"#utility.yul\":11345:11351   */\n      dup2\n        /* \"#utility.yul\":11342:11372   */\n      gt\n        /* \"#utility.yul\":11339:11456   */\n      iszero\n      tag_534\n      jumpi\n        /* \"#utility.yul\":11375:11454   */\n      tag_535\n      tag_324\n      jump\t// in\n    tag_535:\n        /* \"#utility.yul\":11339:11456   */\n    tag_534:\n        /* \"#utility.yul\":11480:11543   */\n      tag_536\n        /* \"#utility.yul\":11535:11542   */\n      dup13\n        /* \"#utility.yul\":11526:11532   */\n      dup3\n        /* \"#utility.yul\":11515:11524   */\n      dup14\n        /* \"#utility.yul\":11511:11533   */\n      add\n        /* \"#utility.yul\":11480:11543   */\n      tag_344\n      jump\t// in\n    tag_536:\n        /* \"#utility.yul\":11470:11543   */\n      swap10\n      pop\n        /* \"#utility.yul\":11266:11553   */\n      pop\n        /* \"#utility.yul\":11620:11622   */\n      0x20\n        /* \"#utility.yul\":11609:11618   */\n      dup11\n        /* \"#utility.yul\":11605:11623   */\n      add\n        /* \"#utility.yul\":11592:11624   */\n      calldataload\n        /* \"#utility.yul\":11651:11669   */\n      0xffffffffffffffff\n        /* \"#utility.yul\":11643:11649   */\n      dup2\n        /* \"#utility.yul\":11640:11670   */\n      gt\n        /* \"#utility.yul\":11637:11754   */\n      iszero\n      tag_537\n      jumpi\n        /* \"#utility.yul\":11673:11752   */\n      tag_538\n      tag_324\n      jump\t// in\n    tag_538:\n        /* \"#utility.yul\":11637:11754   */\n    tag_537:\n        /* \"#utility.yul\":11778:11840   */\n      tag_539\n        /* \"#utility.yul\":11832:11839   */\n      dup13\n        /* \"#utility.yul\":11823:11829   */\n      dup3\n        /* \"#utility.yul\":11812:11821   */\n      dup14\n        /* \"#utility.yul\":11808:11830   */\n      add\n        /* \"#utility.yul\":11778:11840   */\n      tag_337\n      jump\t// in\n    tag_539:\n        /* \"#utility.yul\":11768:11840   */\n      swap9\n      pop\n        /* \"#utility.yul\":11563:11850   */\n      pop\n        /* \"#utility.yul\":11889:11891   */\n      0x40\n        /* \"#utility.yul\":11915:11966   */\n      tag_540\n        /* \"#utility.yul\":11958:11965   */\n      dup13\n        /* \"#utility.yul\":11949:11955   */\n      dup3\n        /* \"#utility.yul\":11938:11947   */\n      dup14\n        /* \"#utility.yul\":11934:11956   */\n      add\n        /* \"#utility.yul\":11915:11966   */\n      tag_347\n      jump\t// in\n    tag_540:\n        /* \"#utility.yul\":11905:11966   */\n      swap8\n      pop\n        /* \"#utility.yul\":11860:11976   */\n      pop\n        /* \"#utility.yul\":12015:12017   */\n      0x60\n        /* \"#utility.yul\":12041:12093   */\n      tag_541\n        /* \"#utility.yul\":12085:12092   */\n      dup13\n        /* \"#utility.yul\":12076:12082   */\n      dup3\n        /* \"#utility.yul\":12065:12074   */\n      dup14\n        /* \"#utility.yul\":12061:12083   */\n      add\n        /* \"#utility.yul\":12041:12093   */\n      tag_350\n      jump\t// in\n    tag_541:\n        /* \"#utility.yul\":12031:12093   */\n      swap7\n      pop\n        /* \"#utility.yul\":11986:12103   */\n      pop\n        /* \"#utility.yul\":12170:12173   */\n      0x80\n        /* \"#utility.yul\":12159:12168   */\n      dup11\n        /* \"#utility.yul\":12155:12174   */\n      add\n        /* \"#utility.yul\":12142:12175   */\n      calldataload\n        /* \"#utility.yul\":12202:12220   */\n      0xffffffffffffffff\n        /* \"#utility.yul\":12194:12200   */\n      dup2\n        /* \"#utility.yul\":12191:12221   */\n      gt\n        /* \"#utility.yul\":12188:12305   */\n      iszero\n      tag_542\n      jumpi\n        /* \"#utility.yul\":12224:12303   */\n      tag_543\n      tag_324\n      jump\t// in\n    tag_543:\n        /* \"#utility.yul\":12188:12305   */\n    tag_542:\n        /* \"#utility.yul\":12329:12417   */\n      tag_544\n        /* \"#utility.yul\":12409:12416   */\n      dup13\n        /* \"#utility.yul\":12400:12406   */\n      dup3\n        /* \"#utility.yul\":12389:12398   */\n      dup14\n        /* \"#utility.yul\":12385:12407   */\n      add\n        /* \"#utility.yul\":12329:12417   */\n      tag_354\n      jump\t// in\n    tag_544:\n        /* \"#utility.yul\":12319:12417   */\n      swap6\n      pop\n        /* \"#utility.yul\":12113:12427   */\n      pop\n        /* \"#utility.yul\":12494:12497   */\n      0xa0\n        /* \"#utility.yul\":12483:12492   */\n      dup11\n        /* \"#utility.yul\":12479:12498   */\n      add\n        /* \"#utility.yul\":12466:12499   */\n      calldataload\n        /* \"#utility.yul\":12526:12544   */\n      0xffffffffffffffff\n        /* \"#utility.yul\":12518:12524   */\n      dup2\n        /* \"#utility.yul\":12515:12545   */\n      gt\n        /* \"#utility.yul\":12512:12629   */\n      iszero\n      tag_545\n      jumpi\n        /* \"#utility.yul\":12548:12627   */\n      tag_546\n      tag_324\n      jump\t// in\n    tag_546:\n        /* \"#utility.yul\":12512:12629   */\n    tag_545:\n        /* \"#utility.yul\":12653:12740   */\n      tag_547\n        /* \"#utility.yul\":12732:12739   */\n      dup13\n        /* \"#utility.yul\":12723:12729   */\n      dup3\n        /* \"#utility.yul\":12712:12721   */\n      dup14\n        /* \"#utility.yul\":12708:12730   */\n      add\n        /* \"#utility.yul\":12653:12740   */\n      tag_357\n      jump\t// in\n    tag_547:\n        /* \"#utility.yul\":12643:12740   */\n      swap5\n      pop\n        /* \"#utility.yul\":12437:12750   */\n      pop\n        /* \"#utility.yul\":12789:12792   */\n      0xc0\n        /* \"#utility.yul\":12816:12868   */\n      tag_548\n        /* \"#utility.yul\":12860:12867   */\n      dup13\n        /* \"#utility.yul\":12851:12857   */\n      dup3\n        /* \"#utility.yul\":12840:12849   */\n      dup14\n        /* \"#utility.yul\":12836:12858   */\n      add\n        /* \"#utility.yul\":12816:12868   */\n      tag_350\n      jump\t// in\n    tag_548:\n        /* \"#utility.yul\":12806:12868   */\n      swap4\n      pop\n        /* \"#utility.yul\":12760:12878   */\n      pop\n        /* \"#utility.yul\":12917:12920   */\n      0xe0\n        /* \"#utility.yul\":12944:12996   */\n      tag_549\n        /* \"#utility.yul\":12988:12995   */\n      dup13\n        /* \"#utility.yul\":12979:12985   */\n      dup3\n        /* \"#utility.yul\":12968:12977   */\n      dup14\n        /* \"#utility.yul\":12964:12986   */\n      add\n        /* \"#utility.yul\":12944:12996   */\n      tag_360\n      jump\t// in\n    tag_549:\n        /* \"#utility.yul\":12934:12996   */\n      swap3\n      pop\n        /* \"#utility.yul\":12888:13006   */\n      pop\n        /* \"#utility.yul\":13045:13048   */\n      0x0100\n        /* \"#utility.yul\":13072:13125   */\n      tag_550\n        /* \"#utility.yul\":13117:13124   */\n      dup13\n        /* \"#utility.yul\":13108:13114   */\n      dup3\n        /* \"#utility.yul\":13097:13106   */\n      dup14\n        /* \"#utility.yul\":13093:13115   */\n      add\n        /* \"#utility.yul\":13072:13125   */\n      tag_327\n      jump\t// in\n    tag_550:\n        /* \"#utility.yul\":13062:13125   */\n      swap2\n      pop\n        /* \"#utility.yul\":13016:13135   */\n      pop\n        /* \"#utility.yul\":10841:13142   */\n      swap3\n      swap6\n      swap9\n      pop\n      swap3\n      swap6\n      swap9\n      pop\n      swap3\n      swap6\n      swap9\n      jump\t// out\n        /* \"#utility.yul\":13148:13266   */\n    tag_361:\n        /* \"#utility.yul\":13235:13259   */\n      tag_552\n        /* \"#utility.yul\":13253:13258   */\n      dup2\n        /* \"#utility.yul\":13235:13259   */\n      tag_325\n      jump\t// in\n    tag_552:\n        /* \"#utility.yul\":13230:13233   */\n      dup3\n        /* \"#utility.yul\":13223:13260   */\n      mstore\n        /* \"#utility.yul\":13148:13266   */\n      pop\n      pop\n      jump\t// out\n        /* \"#utility.yul\":13272:13494   */\n    tag_29:\n        /* \"#utility.yul\":13365:13369   */\n      0x00\n        /* \"#utility.yul\":13403:13405   */\n      0x20\n        /* \"#utility.yul\":13392:13401   */\n      dup3\n        /* \"#utility.yul\":13388:13406   */\n      add\n        /* \"#utility.yul\":13380:13406   */\n      swap1\n      pop\n        /* \"#utility.yul\":13416:13487   */\n      tag_554\n        /* \"#utility.yul\":13484:13485   */\n      0x00\n        /* \"#utility.yul\":13473:13482   */\n      dup4\n        /* \"#utility.yul\":13469:13486   */\n      add\n        /* \"#utility.yul\":13460:13466   */\n      dup5\n        /* \"#utility.yul\":13416:13487   */\n      tag_361\n      jump\t// in\n    tag_554:\n        /* \"#utility.yul\":13272:13494   */\n      swap3\n      swap2\n      pop\n      pop\n      jump\t// out\n        /* \"#utility.yul\":13500:13626   */\n    tag_362:\n        /* \"#utility.yul\":13537:13544   */\n      0x00\n        /* \"#utility.yul\":13577:13619   */\n      0xffffffffffffffffffffffffffffffffffffffff\n        /* \"#utility.yul\":13570:13575   */\n      dup3\n        /* \"#utility.yul\":13566:13620   */\n      and\n        /* \"#utility.yul\":13555:13620   */\n      swap1\n      pop\n        /* \"#utility.yul\":13500:13626   */\n      swap2\n      swap1\n      pop\n      jump\t// out\n        /* \"#utility.yul\":13632:13728   */\n    tag_363:\n        /* \"#utility.yul\":13669:13676   */\n      0x00\n        /* \"#utility.yul\":13698:13722   */\n      tag_557\n        /* \"#utility.yul\":13716:13721   */\n      dup3\n        /* \"#utility.yul\":13698:13722   */\n      tag_362\n      jump\t// in\n    tag_557:\n        /* \"#utility.yul\":13687:13722   */\n      swap1\n      pop\n        /* \"#utility.yul\":13632:13728   */\n      swap2\n      swap1\n      pop\n      jump\t// out\n        /* \"#utility.yul\":13734:13852   */\n    tag_364:\n        /* \"#utility.yul\":13821:13845   */\n      tag_559\n        /* \"#utility.yul\":13839:13844   */\n      dup2\n        /* \"#utility.yul\":13821:13845   */\n      tag_363\n      jump\t// in\n    tag_559:\n        /* \"#utility.yul\":13816:13819   */\n      dup3\n        /* \"#utility.yul\":13809:13846   */\n      mstore\n        /* \"#utility.yul\":13734:13852   */\n      pop\n      pop\n      jump\t// out\n        /* \"#utility.yul\":13858:14080   */\n    tag_35:\n        /* \"#utility.yul\":13951:13955   */\n      0x00\n        /* \"#utility.yul\":13989:13991   */\n      0x20\n        /* \"#utility.yul\":13978:13987   */\n      dup3\n        /* \"#utility.yul\":13974:13992   */\n      add\n        /* \"#utility.yul\":13966:13992   */\n      swap1\n      pop\n        /* \"#utility.yul\":14002:14073   */\n      tag_561\n        /* \"#utility.yul\":14070:14071   */\n      0x00\n        /* \"#utility.yul\":14059:14068   */\n      dup4\n        /* \"#utility.yul\":14055:14072   */\n      add\n        /* \"#utility.yul\":14046:14052   */\n      dup5\n        /* \"#utility.yul\":14002:14073   */\n      tag_364\n      jump\t// in\n    tag_561:\n        /* \"#utility.yul\":13858:14080   */\n      swap3\n      swap2\n      pop\n      pop\n      jump\t// out\n        /* \"#utility.yul\":14086:15025   */\n    tag_38:\n        /* \"#utility.yul\":14179:14185   */\n      0x00\n        /* \"#utility.yul\":14187:14193   */\n      dup1\n        /* \"#utility.yul\":14195:14201   */\n      0x00\n        /* \"#utility.yul\":14203:14209   */\n      dup1\n        /* \"#utility.yul\":14252:14255   */\n      0x80\n        /* \"#utility.yul\":14240:14249   */\n      dup6\n        /* \"#utility.yul\":14231:14238   */\n      dup8\n        /* \"#utility.yul\":14227:14250   */\n      sub\n        /* \"#utility.yul\":14223:14256   */\n      slt\n        /* \"#utility.yul\":14220:14340   */\n      iszero\n      tag_563\n      jumpi\n        /* \"#utility.yul\":14259:14338   */\n      tag_564\n      tag_323\n      jump\t// in\n    tag_564:\n        /* \"#utility.yul\":14220:14340   */\n    tag_563:\n        /* \"#utility.yul\":14407:14408   */\n      0x00\n        /* \"#utility.yul\":14396:14405   */\n      dup6\n        /* \"#utility.yul\":14392:14409   */\n      add\n        /* \"#utility.yul\":14379:14410   */\n      calldataload\n        /* \"#utility.yul\":14437:14455   */\n      0xffffffffffffffff\n        /* \"#utility.yul\":14429:14435   */\n      dup2\n        /* \"#utility.yul\":14426:14456   */\n      gt\n        /* \"#utility.yul\":14423:14540   */\n      iszero\n      tag_565\n      jumpi\n        /* \"#utility.yul\":14459:14538   */\n      tag_566\n      tag_324\n      jump\t// in\n    tag_566:\n        /* \"#utility.yul\":14423:14540   */\n    tag_565:\n        /* \"#utility.yul\":14564:14626   */\n      tag_567\n        /* \"#utility.yul\":14618:14625   */\n      dup8\n        /* \"#utility.yul\":14609:14615   */\n      dup3\n        /* \"#utility.yul\":14598:14607   */\n      dup9\n        /* \"#utility.yul\":14594:14616   */\n      add\n        /* \"#utility.yul\":14564:14626   */\n      tag_337\n      jump\t// in\n    tag_567:\n        /* \"#utility.yul\":14554:14626   */\n      swap5\n      pop\n        /* \"#utility.yul\":14350:14636   */\n      pop\n        /* \"#utility.yul\":14675:14677   */\n      0x20\n        /* \"#utility.yul\":14701:14753   */\n      tag_568\n        /* \"#utility.yul\":14745:14752   */\n      dup8\n        /* \"#utility.yul\":14736:14742   */\n      dup3\n        /* \"#utility.yul\":14725:14734   */\n      dup9\n        /* \"#utility.yul\":14721:14743   */\n      add\n        /* \"#utility.yul\":14701:14753   */\n      tag_350\n      jump\t// in\n    tag_568:\n        /* \"#utility.yul\":14691:14753   */\n      swap4\n      pop\n        /* \"#utility.yul\":14646:14763   */\n      pop\n        /* \"#utility.yul\":14802:14804   */\n      0x40\n        /* \"#utility.yul\":14828:14880   */\n      tag_569\n        /* \"#utility.yul\":14872:14879   */\n      dup8\n        /* \"#utility.yul\":14863:14869   */\n      dup3\n        /* \"#utility.yul\":14852:14861   */\n      dup9\n        /* \"#utility.yul\":14848:14870   */\n      add\n        /* \"#utility.yul\":14828:14880   */\n      tag_360\n      jump\t// in\n    tag_569:\n        /* \"#utility.yul\":14818:14880   */\n      swap3\n      pop\n        /* \"#utility.yul\":14773:14890   */\n      pop\n        /* \"#utility.yul\":14929:14931   */\n      0x60\n        /* \"#utility.yul\":14955:15008   */\n      tag_570\n        /* \"#utility.yul\":15000:15007   */\n      dup8\n        /* \"#utility.yul\":14991:14997   */\n      dup3\n        /* \"#utility.yul\":14980:14989   */\n      dup9\n        /* \"#utility.yul\":14976:14998   */\n      add\n        /* \"#utility.yul\":14955:15008   */\n      tag_327\n      jump\t// in\n    tag_570:\n        /* \"#utility.yul\":14945:15008   */\n      swap2\n      pop\n        /* \"#utility.yul\":14900:15018   */\n      pop\n        /* \"#utility.yul\":14086:15025   */\n      swap3\n      swap6\n      swap2\n      swap5\n      pop\n      swap3\n      pop\n      jump\t// out\n        /* \"#utility.yul\":15031:15153   */\n    tag_365:\n        /* \"#utility.yul\":15104:15128   */\n      tag_572\n        /* \"#utility.yul\":15122:15127   */\n      dup2\n        /* \"#utility.yul\":15104:15128   */\n      tag_363\n      jump\t// in\n    tag_572:\n        /* \"#utility.yul\":15097:15102   */\n      dup2\n        /* \"#utility.yul\":15094:15129   */\n      eq\n        /* \"#utility.yul\":15084:15147   */\n      tag_573\n      jumpi\n        /* \"#utility.yul\":15143:15144   */\n      0x00\n        /* \"#utility.yul\":15140:15141   */\n      dup1\n        /* \"#utility.yul\":15133:15145   */\n      revert\n        /* \"#utility.yul\":15084:15147   */\n    tag_573:\n        /* \"#utility.yul\":15031:15153   */\n      pop\n      jump\t// out\n        /* \"#utility.yul\":15159:15298   */\n    tag_366:\n        /* \"#utility.yul\":15205:15210   */\n      0x00\n        /* \"#utility.yul\":15243:15249   */\n      dup2\n        /* \"#utility.yul\":15230:15250   */\n      calldataload\n        /* \"#utility.yul\":15221:15250   */\n      swap1\n      pop\n        /* \"#utility.yul\":15259:15292   */\n      tag_575\n        /* \"#utility.yul\":15286:15291   */\n      dup2\n        /* \"#utility.yul\":15259:15292   */\n      tag_365\n      jump\t// in\n    tag_575:\n        /* \"#utility.yul\":15159:15298   */\n      swap3\n      swap2\n      pop\n      pop\n      jump\t// out\n        /* \"#utility.yul\":15304:15633   */\n    tag_46:\n        /* \"#utility.yul\":15363:15369   */\n      0x00\n        /* \"#utility.yul\":15412:15414   */\n      0x20\n        /* \"#utility.yul\":15400:15409   */\n      dup3\n        /* \"#utility.yul\":15391:15398   */\n      dup5\n        /* \"#utility.yul\":15387:15410   */\n      sub\n        /* \"#utility.yul\":15383:15415   */\n      slt\n        /* \"#utility.yul\":15380:15499   */\n      iszero\n      tag_577\n      jumpi\n        /* \"#utility.yul\":15418:15497   */\n      tag_578\n      tag_323\n      jump\t// in\n    tag_578:\n        /* \"#utility.yul\":15380:15499   */\n    tag_577:\n        /* \"#utility.yul\":15538:15539   */\n      0x00\n        /* \"#utility.yul\":15563:15616   */\n      tag_579\n        /* \"#utility.yul\":15608:15615   */\n      dup5\n        /* \"#utility.yul\":15599:15605   */\n      dup3\n        /* \"#utility.yul\":15588:15597   */\n      dup6\n        /* \"#utility.yul\":15584:15606   */\n      add\n        /* \"#utility.yul\":15563:15616   */\n      tag_366\n      jump\t// in\n    tag_579:\n        /* \"#utility.yul\":15553:15616   */\n      swap2\n      pop\n        /* \"#utility.yul\":15509:15626   */\n      pop\n        /* \"#utility.yul\":15304:15633   */\n      swap3\n      swap2\n      pop\n      pop\n      jump\t// out\n        /* \"#utility.yul\":15639:15819   */\n    tag_367:\n        /* \"#utility.yul\":15687:15764   */\n      0x4e487b7100000000000000000000000000000000000000000000000000000000\n        /* \"#utility.yul\":15684:15685   */\n      0x00\n        /* \"#utility.yul\":15677:15765   */\n      mstore\n        /* \"#utility.yul\":15784:15788   */\n      0x22\n        /* \"#utility.yul\":15781:15782   */\n      0x04\n        /* \"#utility.yul\":15774:15789   */\n      mstore\n        /* \"#utility.yul\":15808:15812   */\n      0x24\n        /* \"#utility.yul\":15805:15806   */\n      0x00\n        /* \"#utility.yul\":15798:15813   */\n      revert\n        /* \"#utility.yul\":15825:16145   */\n    tag_53:\n        /* \"#utility.yul\":15869:15875   */\n      0x00\n        /* \"#utility.yul\":15906:15907   */\n      0x02\n        /* \"#utility.yul\":15900:15904   */\n      dup3\n        /* \"#utility.yul\":15896:15908   */\n      div\n        /* \"#utility.yul\":15886:15908   */\n      swap1\n      pop\n        /* \"#utility.yul\":15953:15954   */\n      0x01\n        /* \"#utility.yul\":15947:15951   */\n      dup3\n        /* \"#utility.yul\":15943:15955   */\n      and\n        /* \"#utility.yul\":15974:15992   */\n      dup1\n        /* \"#utility.yul\":15964:16045   */\n      tag_582\n      jumpi\n        /* \"#utility.yul\":16030:16034   */\n      0x7f\n        /* \"#utility.yul\":16022:16028   */\n      dup3\n        /* \"#utility.yul\":16018:16035   */\n      and\n        /* \"#utility.yul\":16008:16035   */\n      swap2\n      pop\n        /* \"#utility.yul\":15964:16045   */\n    tag_582:\n        /* \"#utility.yul\":16092:16094   */\n      0x20\n        /* \"#utility.yul\":16084:16090   */\n      dup3\n        /* \"#utility.yul\":16081:16095   */\n      lt\n        /* \"#utility.yul\":16061:16079   */\n      dup2\n        /* \"#utility.yul\":16058:16096   */\n      sub\n        /* \"#utility.yul\":16055:16139   */\n      tag_583\n      jumpi\n        /* \"#utility.yul\":16111:16129   */\n      tag_584\n      tag_367\n      jump\t// in\n    tag_584:\n        /* \"#utility.yul\":16055:16139   */\n    tag_583:\n        /* \"#utility.yul\":15876:16145   */\n      pop\n        /* \"#utility.yul\":15825:16145   */\n      swap2\n      swap1\n      pop\n      jump\t// out\n        /* \"#utility.yul\":16151:16320   */\n    tag_368:\n        /* \"#utility.yul\":16235:16246   */\n      0x00\n        /* \"#utility.yul\":16269:16275   */\n      dup3\n        /* \"#utility.yul\":16264:16267   */\n      dup3\n        /* \"#utility.yul\":16257:16276   */\n      mstore\n        /* \"#utility.yul\":16309:16313   */\n      0x20\n        /* \"#utility.yul\":16304:16307   */\n      dup3\n        /* \"#utility.yul\":16300:16314   */\n      add\n        /* \"#utility.yul\":16285:16314   */\n      swap1\n      pop\n        /* \"#utility.yul\":16151:16320   */\n      swap3\n      swap2\n      pop\n      pop\n      jump\t// out\n        /* \"#utility.yul\":16326:16498   */\n    tag_369:\n        /* \"#utility.yul\":16466:16490   */\n      0x4d7573742062652070726f706f736564206f776e657200000000000000000000\n        /* \"#utility.yul\":16462:16463   */\n      0x00\n        /* \"#utility.yul\":16454:16460   */\n      dup3\n        /* \"#utility.yul\":16450:16464   */\n      add\n        /* \"#utility.yul\":16443:16491   */\n      mstore\n        /* \"#utility.yul\":16326:16498   */\n      pop\n      jump\t// out\n        /* \"#utility.yul\":16504:16870   */\n    tag_370:\n        /* \"#utility.yul\":16646:16649   */\n      0x00\n        /* \"#utility.yul\":16667:16734   */\n      tag_588\n        /* \"#utility.yul\":16731:16733   */\n      0x16\n        /* \"#utility.yul\":16726:16729   */\n      dup4\n        /* \"#utility.yul\":16667:16734   */\n      tag_368\n      jump\t// in\n    tag_588:\n        /* \"#utility.yul\":16660:16734   */\n      swap2\n      pop\n        /* \"#utility.yul\":16743:16836   */\n      tag_589\n        /* \"#utility.yul\":16832:16835   */\n      dup3\n        /* \"#utility.yul\":16743:16836   */\n      tag_369\n      jump\t// in\n    tag_589:\n        /* \"#utility.yul\":16861:16863   */\n      0x20\n        /* \"#utility.yul\":16856:16859   */\n      dup3\n        /* \"#utility.yul\":16852:16864   */\n      add\n        /* \"#utility.yul\":16845:16864   */\n      swap1\n      pop\n        /* \"#utility.yul\":16504:16870   */\n      swap2\n      swap1\n      pop\n      jump\t// out\n        /* \"#utility.yul\":16876:17295   */\n    tag_91:\n        /* \"#utility.yul\":17042:17046   */\n      0x00\n        /* \"#utility.yul\":17080:17082   */\n      0x20\n        /* \"#utility.yul\":17069:17078   */\n      dup3\n        /* \"#utility.yul\":17065:17083   */\n      add\n        /* \"#utility.yul\":17057:17083   */\n      swap1\n      pop\n        /* \"#utility.yul\":17129:17138   */\n      dup2\n        /* \"#utility.yul\":17123:17127   */\n      dup2\n        /* \"#utility.yul\":17119:17139   */\n      sub\n        /* \"#utility.yul\":17115:17116   */\n      0x00\n        /* \"#utility.yul\":17104:17113   */\n      dup4\n        /* \"#utility.yul\":17100:17117   */\n      add\n        /* \"#utility.yul\":17093:17140   */\n      mstore\n        /* \"#utility.yul\":17157:17288   */\n      tag_591\n        /* \"#utility.yul\":17283:17287   */\n      dup2\n        /* \"#utility.yul\":17157:17288   */\n      tag_370\n      jump\t// in\n    tag_591:\n        /* \"#utility.yul\":17149:17288   */\n      swap1\n      pop\n        /* \"#utility.yul\":16876:17295   */\n      swap2\n      swap1\n      pop\n      jump\t// out\n        /* \"#utility.yul\":17301:17441   */\n    tag_371:\n        /* \"#utility.yul\":17349:17353   */\n      0x00\n        /* \"#utility.yul\":17372:17375   */\n      dup2\n        /* \"#utility.yul\":17364:17375   */\n      swap1\n      pop\n        /* \"#utility.yul\":17395:17398   */\n      dup2\n        /* \"#utility.yul\":17392:17393   */\n      0x00\n        /* \"#utility.yul\":17385:17399   */\n      mstore\n        /* \"#utility.yul\":17429:17433   */\n      0x20\n        /* \"#utility.yul\":17426:17427   */\n      0x00\n        /* \"#utility.yul\":17416:17434   */\n      keccak256\n        /* \"#utility.yul\":17408:17434   */\n      swap1\n      pop\n        /* \"#utility.yul\":17301:17441   */\n      swap2\n      swap1\n      pop\n      jump\t// out\n        /* \"#utility.yul\":17447:17540   */\n    tag_372:\n        /* \"#utility.yul\":17484:17490   */\n      0x00\n        /* \"#utility.yul\":17531:17533   */\n      0x20\n        /* \"#utility.yul\":17526:17528   */\n      0x1f\n        /* \"#utility.yul\":17519:17524   */\n      dup4\n        /* \"#utility.yul\":17515:17529   */\n      add\n        /* \"#utility.yul\":17511:17534   */\n      div\n        /* \"#utility.yul\":17501:17534   */\n      swap1\n      pop\n        /* \"#utility.yul\":17447:17540   */\n      swap2\n      swap1\n      pop\n      jump\t// out\n        /* \"#utility.yul\":17546:17653   */\n    tag_373:\n        /* \"#utility.yul\":17590:17598   */\n      0x00\n        /* \"#utility.yul\":17640:17645   */\n      dup3\n        /* \"#utility.yul\":17634:17638   */\n      dup3\n        /* \"#utility.yul\":17630:17646   */\n      shl\n        /* \"#utility.yul\":17609:17646   */\n      swap1\n      pop\n        /* \"#utility.yul\":17546:17653   */\n      swap3\n      swap2\n      pop\n      pop\n      jump\t// out\n        /* \"#utility.yul\":17659:18052   */\n    tag_374:\n        /* \"#utility.yul\":17728:17734   */\n      0x00\n        /* \"#utility.yul\":17778:17779   */\n      0x08\n        /* \"#utility.yul\":17766:17776   */\n      dup4\n        /* \"#utility.yul\":17762:17780   */\n      mul\n        /* \"#utility.yul\":17801:17898   */\n      tag_596\n        /* \"#utility.yul\":17831:17897   */\n      0xffffffffffffffffffffffffffffffffffffffffffffffffffffffffffffffff\n        /* \"#utility.yul\":17820:17829   */\n      dup3\n        /* \"#utility.yul\":17801:17898   */\n      tag_373\n      jump\t// in\n    tag_596:\n        /* \"#utility.yul\":17919:17958   */\n      tag_597\n        /* \"#utility.yul\":17949:17957   */\n      dup7\n        /* \"#utility.yul\":17938:17947   */\n      dup4\n        /* \"#utility.yul\":17919:17958   */\n      tag_373\n      jump\t// in\n    tag_597:\n        /* \"#utility.yul\":17907:17958   */\n      swap6\n      pop\n        /* \"#utility.yul\":17991:17995   */\n      dup1\n        /* \"#utility.yul\":17987:17996   */\n      not\n        /* \"#utility.yul\":17980:17985   */\n      dup5\n        /* \"#utility.yul\":17976:17997   */\n      and\n        /* \"#utility.yul\":17967:17997   */\n      swap4\n      pop\n        /* \"#utility.yul\":18040:18044   */\n      dup1\n        /* \"#utility.yul\":18030:18038   */\n      dup7\n        /* \"#utility.yul\":18026:18045   */\n      and\n        /* \"#utility.yul\":18019:18024   */\n      dup5\n        /* \"#utility.yul\":18016:18046   */\n      or\n        /* \"#utility.yul\":18006:18046   */\n      swap3\n      pop\n        /* \"#utility.yul\":17735:18052   */\n      pop\n      pop\n        /* \"#utility.yul\":17659:18052   */\n      swap4\n      swap3\n      pop\n      pop\n      pop\n      jump\t// out\n        /* \"#utility.yul\":18058:18135   */\n    tag_375:\n        /* \"#utility.yul\":18095:18102   */\n      0x00\n        /* \"#utility.yul\":18124:18129   */\n      dup2\n        /* \"#utility.yul\":18113:18129   */\n      swap1\n      pop\n        /* \"#utility.yul\":18058:18135   */\n      swap2\n      swap1\n      pop\n      jump\t// out\n        /* \"#utility.yul\":18141:18201   */\n    tag_376:\n        /* \"#utility.yul\":18169:18172   */\n      0x00\n        /* \"#utility.yul\":18190:18195   */\n      dup2\n        /* \"#utility.yul\":18183:18195   */\n      swap1\n      pop\n        /* \"#utility.yul\":18141:18201   */\n      swap2\n      swap1\n      pop\n      jump\t// out\n        /* \"#utility.yul\":18207:18349   */\n    tag_377:\n        /* \"#utility.yul\":18257:18266   */\n      0x00\n        /* \"#utility.yul\":18290:18343   */\n      tag_601\n        /* \"#utility.yul\":18308:18342   */\n      tag_602\n        /* \"#utility.yul\":18317:18341   */\n      tag_603\n        /* \"#utility.yul\":18335:18340   */\n      dup5\n        /* \"#utility.yul\":18317:18341   */\n      tag_375\n      jump\t// in\n    tag_603:\n        /* \"#utility.yul\":18308:18342   */\n      tag_376\n      jump\t// in\n    tag_602:\n        /* \"#utility.yul\":18290:18343   */\n      tag_375\n      jump\t// in\n    tag_601:\n        /* \"#utility.yul\":18277:18343   */\n      swap1\n      pop\n        /* \"#utility.yul\":18207:18349   */\n      swap2\n      swap1\n      pop\n      jump\t// out\n        /* \"#utility.yul\":18355:18430   */\n    tag_378:\n        /* \"#utility.yul\":18398:18401   */\n      0x00\n        /* \"#utility.yul\":18419:18424   */\n      dup2\n        /* \"#utility.yul\":18412:18424   */\n      swap1\n      pop\n        /* \"#utility.yul\":18355:18430   */\n      swap2\n      swap1\n      pop\n      jump\t// out\n        /* \"#utility.yul\":18436:18705   */\n    tag_379:\n        /* \"#utility.yul\":18546:18585   */\n      tag_606\n        /* \"#utility.yul\":18577:18584   */\n      dup4\n        /* \"#utility.yul\":18546:18585   */\n      tag_377\n      jump\t// in\n    tag_606:\n        /* \"#utility.yul\":18607:18698   */\n      tag_607\n        /* \"#utility.yul\":18656:18697   */\n      tag_608\n        /* \"#utility.yul\":18680:18696   */\n      dup3\n        /* \"#utility.yul\":18656:18697   */\n      tag_378\n      jump\t// in\n    tag_608:\n        /* \"#utility.yul\":18648:18654   */\n      dup5\n        /* \"#utility.yul\":18641:18645   */\n      dup5\n        /* \"#utility.yul\":18635:18646   */\n      sload\n        /* \"#utility.yul\":18607:18698   */\n      tag_374\n      jump\t// in\n    tag_607:\n        /* \"#utility.yul\":18601:18605   */\n      dup3\n        /* \"#utility.yul\":18594:18699   */\n      sstore\n        /* \"#utility.yul\":18512:18705   */\n      pop\n        /* \"#utility.yul\":18436:18705   */\n      pop\n      pop\n      pop\n      jump\t// out\n        /* \"#utility.yul\":18711:18784   */\n    tag_380:\n        /* \"#utility.yul\":18756:18759   */\n      0x00\n        /* \"#utility.yul\":18711:18784   */\n      swap1\n      jump\t// out\n        /* \"#utility.yul\":18790:18979   */\n    tag_381:\n        /* \"#utility.yul\":18867:18899   */\n      tag_611\n      tag_380\n      jump\t// in\n    tag_611:\n        /* \"#utility.yul\":18908:18973   */\n      tag_612\n        /* \"#utility.yul\":18966:18972   */\n      dup2\n        /* \"#utility.yul\":18958:18964   */\n      dup5\n        /* \"#utility.yul\":18952:18956   */\n      dup5\n        /* \"#utility.yul\":18908:18973   */\n      tag_379\n      jump\t// in\n    tag_612:\n        /* \"#utility.yul\":18843:18979   */\n      pop\n        /* \"#utility.yul\":18790:18979   */\n      pop\n      pop\n      jump\t// out\n        /* \"#utility.yul\":18985:19171   */\n    tag_382:\n        /* \"#utility.yul\":19045:19165   */\n    tag_614:\n        /* \"#utility.yul\":19062:19065   */\n      dup2\n        /* \"#utility.yul\":19055:19060   */\n      dup2\n        /* \"#utility.yul\":19052:19066   */\n      lt\n        /* \"#utility.yul\":19045:19165   */\n      iszero\n      tag_616\n      jumpi\n        /* \"#utility.yul\":19116:19155   */\n      tag_617\n        /* \"#utility.yul\":19153:19154   */\n      0x00\n        /* \"#utility.yul\":19146:19151   */\n      dup3\n        /* \"#utility.yul\":19116:19155   */\n      tag_381\n      jump\t// in\n    tag_617:\n        /* \"#utility.yul\":19089:19090   */\n      0x01\n        /* \"#utility.yul\":19082:19087   */\n      dup2\n        /* \"#utility.yul\":19078:19091   */\n      add\n        /* \"#utility.yul\":19069:19091   */\n      swap1\n      pop\n        /* \"#utility.yul\":19045:19165   */\n      jump(tag_614)\n    tag_616:\n        /* \"#utility.yul\":18985:19171   */\n      pop\n      pop\n      jump\t// out\n        /* \"#utility.yul\":19177:19718   */\n    tag_383:\n        /* \"#utility.yul\":19277:19279   */\n      0x1f\n        /* \"#utility.yul\":19272:19275   */\n      dup3\n        /* \"#utility.yul\":19269:19280   */\n      gt\n        /* \"#utility.yul\":19266:19711   */\n      iszero\n      tag_619\n      jumpi\n        /* \"#utility.yul\":19311:19348   */\n      tag_620\n        /* \"#utility.yul\":19342:19347   */\n      dup2\n        /* \"#utility.yul\":19311:19348   */\n      tag_371\n      jump\t// in\n    tag_620:\n        /* \"#utility.yul\":19394:19423   */\n      tag_621\n        /* \"#utility.yul\":19412:19422   */\n      dup5\n        /* \"#utility.yul\":19394:19423   */\n      tag_372\n      jump\t// in\n    tag_621:\n        /* \"#utility.yul\":19384:19392   */\n      dup2\n        /* \"#utility.yul\":19380:19424   */\n      add\n        /* \"#utility.yul\":19577:19579   */\n      0x20\n        /* \"#utility.yul\":19565:19575   */\n      dup6\n        /* \"#utility.yul\":19562:19580   */\n      lt\n        /* \"#utility.yul\":19559:19608   */\n      iszero\n      tag_622\n      jumpi\n        /* \"#utility.yul\":19598:19606   */\n      dup2\n        /* \"#utility.yul\":19583:19606   */\n      swap1\n      pop\n        /* \"#utility.yul\":19559:19608   */\n    tag_622:\n        /* \"#utility.yul\":19621:19701   */\n      tag_623\n        /* \"#utility.yul\":19677:19699   */\n      tag_624\n        /* \"#utility.yul\":19695:19698   */\n      dup6\n        /* \"#utility.yul\":19677:19699   */\n      tag_372\n      jump\t// in\n    tag_624:\n        /* \"#utility.yul\":19667:19675   */\n      dup4\n        /* \"#utility.yul\":19663:19700   */\n      add\n        /* \"#utility.yul\":19650:19661   */\n      dup3\n        /* \"#utility.yul\":19621:19701   */\n      tag_382\n      jump\t// in\n    tag_623:\n        /* \"#utility.yul\":19281:19711   */\n      pop\n      pop\n        /* \"#utility.yul\":19266:19711   */\n    tag_619:\n        /* \"#utility.yul\":19177:19718   */\n      pop\n      pop\n      pop\n      jump\t// out\n        /* \"#utility.yul\":19724:19841   */\n    tag_384:\n        /* \"#utility.yul\":19778:19786   */\n      0x00\n        /* \"#utility.yul\":19828:19833   */\n      dup3\n        /* \"#utility.yul\":19822:19826   */\n      dup3\n        /* \"#utility.yul\":19818:19834   */\n      shr\n        /* \"#utility.yul\":19797:19834   */\n      swap1\n      pop\n        /* \"#utility.yul\":19724:19841   */\n      swap3\n      swap2\n      pop\n      pop\n      jump\t// out\n        /* \"#utility.yul\":19847:20016   */\n    tag_385:\n        /* \"#utility.yul\":19891:19897   */\n      0x00\n        /* \"#utility.yul\":19924:19975   */\n      tag_627\n        /* \"#utility.yul\":19972:19973   */\n      0x00\n        /* \"#utility.yul\":19968:19974   */\n      not\n        /* \"#utility.yul\":19960:19965   */\n      dup5\n        /* \"#utility.yul\":19957:19958   */\n      0x08\n        /* \"#utility.yul\":19953:19966   */\n      mul\n        /* \"#utility.yul\":19924:19975   */\n      tag_384\n      jump\t// in\n    tag_627:\n        /* \"#utility.yul\":19920:19976   */\n      not\n        /* \"#utility.yul\":20005:20009   */\n      dup1\n        /* \"#utility.yul\":19999:20003   */\n      dup4\n        /* \"#utility.yul\":19995:20010   */\n      and\n        /* \"#utility.yul\":19985:20010   */\n      swap2\n      pop\n        /* \"#utility.yul\":19898:20016   */\n      pop\n        /* \"#utility.yul\":19847:20016   */\n      swap3\n      swap2\n      pop\n      pop\n      jump\t// out\n        /* \"#utility.yul\":20021:20316   */\n    tag_386:\n        /* \"#utility.yul\":20097:20101   */\n      0x00\n        /* \"#utility.yul\":20243:20272   */\n      tag_629\n        /* \"#utility.yul\":20268:20271   */\n      dup4\n        /* \"#utility.yul\":20262:20266   */\n      dup4\n        /* \"#utility.yul\":20243:20272   */\n      tag_385\n      jump\t// in\n    tag_629:\n        /* \"#utility.yul\":20235:20272   */\n      swap2\n      pop\n        /* \"#utility.yul\":20305:20308   */\n      dup3\n        /* \"#utility.yul\":20302:20303   */\n      0x02\n        /* \"#utility.yul\":20298:20309   */\n      mul\n        /* \"#utility.yul\":20292:20296   */\n      dup3\n        /* \"#utility.yul\":20289:20310   */\n      or\n        /* \"#utility.yul\":20281:20310   */\n      swap1\n      pop\n        /* \"#utility.yul\":20021:20316   */\n      swap3\n      swap2\n      pop\n      pop\n      jump\t// out\n        /* \"#utility.yul\":20321:21711   */\n    tag_106:\n        /* \"#utility.yul\":20436:20472   */\n      tag_631\n        /* \"#utility.yul\":20468:20471   */\n      dup3\n        /* \"#utility.yul\":20436:20472   */\n      tag_338\n      jump\t// in\n    tag_631:\n        /* \"#utility.yul\":20537:20555   */\n      0xffffffffffffffff\n        /* \"#utility.yul\":20529:20535   */\n      dup2\n        /* \"#utility.yul\":20526:20556   */\n      gt\n        /* \"#utility.yul\":20523:20579   */\n      iszero\n      tag_632\n      jumpi\n        /* \"#utility.yul\":20559:20577   */\n      tag_633\n      tag_331\n      jump\t// in\n    tag_633:\n        /* \"#utility.yul\":20523:20579   */\n    tag_632:\n        /* \"#utility.yul\":20603:20641   */\n      tag_634\n        /* \"#utility.yul\":20635:20639   */\n      dup3\n        /* \"#utility.yul\":20629:20640   */\n      sload\n        /* \"#utility.yul\":20603:20641   */\n      tag_53\n      jump\t// in\n    tag_634:\n        /* \"#utility.yul\":20688:20754   */\n      tag_635\n        /* \"#utility.yul\":20747:20753   */\n      dup3\n        /* \"#utility.yul\":20739:20745   */\n      dup3\n        /* \"#utility.yul\":20733:20737   */\n      dup6\n        /* \"#utility.yul\":20688:20754   */\n      tag_383\n      jump\t// in\n    tag_635:\n        /* \"#utility.yul\":20781:20782   */\n      0x00\n        /* \"#utility.yul\":20805:20809   */\n      0x20\n        /* \"#utility.yul\":20792:20809   */\n      swap1\n      pop\n        /* \"#utility.yul\":20837:20839   */\n      0x1f\n        /* \"#utility.yul\":20829:20835   */\n      dup4\n        /* \"#utility.yul\":20826:20840   */\n      gt\n        /* \"#utility.yul\":20854:20855   */\n      0x01\n        /* \"#utility.yul\":20849:21466   */\n      dup2\n      eq\n      tag_637\n      jumpi\n        /* \"#utility.yul\":21510:21511   */\n      0x00\n        /* \"#utility.yul\":21527:21533   */\n      dup5\n        /* \"#utility.yul\":21524:21601   */\n      iszero\n      tag_638\n      jumpi\n        /* \"#utility.yul\":21576:21585   */\n      dup3\n        /* \"#utility.yul\":21571:21574   */\n      dup8\n        /* \"#utility.yul\":21567:21586   */\n      add\n        /* \"#utility.yul\":21561:21587   */\n      mload\n        /* \"#utility.yul\":21552:21587   */\n      swap1\n      pop\n        /* \"#utility.yul\":21524:21601   */\n    tag_638:\n        /* \"#utility.yul\":21627:21694   */\n      tag_639\n        /* \"#utility.yul\":21687:21693   */\n      dup6\n        /* \"#utility.yul\":21680:21685   */\n      dup3\n        /* \"#utility.yul\":21627:21694   */\n      tag_386\n      jump\t// in\n    tag_639:\n        /* \"#utility.yul\":21621:21625   */\n      dup7\n        /* \"#utility.yul\":21614:21695   */\n      sstore\n        /* \"#utility.yul\":21483:21705   */\n      pop\n        /* \"#utility.yul\":20819:21705   */\n      jump(tag_636)\n        /* \"#utility.yul\":20849:21466   */\n    tag_637:\n        /* \"#utility.yul\":20901:20905   */\n      0x1f\n        /* \"#utility.yul\":20897:20906   */\n      not\n        /* \"#utility.yul\":20889:20895   */\n      dup5\n        /* \"#utility.yul\":20885:20907   */\n      and\n        /* \"#utility.yul\":20935:20971   */\n      tag_640\n        /* \"#utility.yul\":20966:20970   */\n      dup7\n        /* \"#utility.yul\":20935:20971   */\n      tag_371\n      jump\t// in\n    tag_640:\n        /* \"#utility.yul\":20993:20994   */\n      0x00\n        /* \"#utility.yul\":21007:21215   */\n    tag_641:\n        /* \"#utility.yul\":21021:21028   */\n      dup3\n        /* \"#utility.yul\":21018:21019   */\n      dup2\n        /* \"#utility.yul\":21015:21029   */\n      lt\n        /* \"#utility.yul\":21007:21215   */\n      iszero\n      tag_643\n      jumpi\n        /* \"#utility.yul\":21100:21109   */\n      dup5\n        /* \"#utility.yul\":21095:21098   */\n      dup10\n        /* \"#utility.yul\":21091:21110   */\n      add\n        /* \"#utility.yul\":21085:21111   */\n      mload\n        /* \"#utility.yul\":21077:21083   */\n      dup3\n        /* \"#utility.yul\":21070:21112   */\n      sstore\n        /* \"#utility.yul\":21151:21152   */\n      0x01\n        /* \"#utility.yul\":21143:21149   */\n      dup3\n        /* \"#utility.yul\":21139:21153   */\n      add\n        /* \"#utility.yul\":21129:21153   */\n      swap2\n      pop\n        /* \"#utility.yul\":21198:21200   */\n      0x20\n        /* \"#utility.yul\":21187:21196   */\n      dup6\n        /* \"#utility.yul\":21183:21201   */\n      add\n        /* \"#utility.yul\":21170:21201   */\n      swap5\n      pop\n        /* \"#utility.yul\":21044:21048   */\n      0x20\n        /* \"#utility.yul\":21041:21042   */\n      dup2\n        /* \"#utility.yul\":21037:21049   */\n      add\n        /* \"#utility.yul\":21032:21049   */\n      swap1\n      pop\n        /* \"#utility.yul\":21007:21215   */\n      jump(tag_641)\n    tag_643:\n        /* \"#utility.yul\":21243:21249   */\n      dup7\n        /* \"#utility.yul\":21234:21241   */\n      dup4\n        /* \"#utility.yul\":21231:21250   */\n      lt\n        /* \"#utility.yul\":21228:21407   */\n      iszero\n      tag_644\n      jumpi\n        /* \"#utility.yul\":21301:21310   */\n      dup5\n        /* \"#utility.yul\":21296:21299   */\n      dup10\n        /* \"#utility.yul\":21292:21311   */\n      add\n        /* \"#utility.yul\":21286:21312   */\n      mload\n        /* \"#utility.yul\":21344:21392   */\n      tag_645\n        /* \"#utility.yul\":21386:21390   */\n      0x1f\n        /* \"#utility.yul\":21378:21384   */\n      dup10\n        /* \"#utility.yul\":21374:21391   */\n      and\n        /* \"#utility.yul\":21363:21372   */\n      dup3\n        /* \"#utility.yul\":21344:21392   */\n      tag_385\n      jump\t// in\n    tag_645:\n        /* \"#utility.yul\":21336:21342   */\n      dup4\n        /* \"#utility.yul\":21329:21393   */\n      sstore\n        /* \"#utility.yul\":21251:21407   */\n      pop\n        /* \"#utility.yul\":21228:21407   */\n    tag_644:\n        /* \"#utility.yul\":21453:21454   */\n      0x01\n        /* \"#utility.yul\":21449:21450   */\n      0x02\n        /* \"#utility.yul\":21441:21447   */\n      dup9\n        /* \"#utility.yul\":21437:21451   */\n      mul\n        /* \"#utility.yul\":21433:21455   */\n      add\n        /* \"#utility.yul\":21427:21431   */\n      dup9\n        /* \"#utility.yul\":21420:21456   */\n      sstore\n        /* \"#utility.yul\":20856:21466   */\n      pop\n      pop\n      pop\n        /* \"#utility.yul\":20819:21705   */\n    tag_636:\n      pop\n        /* \"#utility.yul\":20411:21711   */\n      pop\n      pop\n      pop\n        /* \"#utility.yul\":20321:21711   */\n      pop\n      pop\n      jump\t// out\n        /* \"#utility.yul\":21739:22566   */\n    tag_387:\n        /* \"#utility.yul\":21822:21825   */\n      0x00\n        /* \"#utility.yul\":21859:21864   */\n      dup2\n        /* \"#utility.yul\":21853:21865   */\n      sload\n        /* \"#utility.yul\":21888:21924   */\n      tag_647\n        /* \"#utility.yul\":21914:21923   */\n      dup2\n        /* \"#utility.yul\":21888:21924   */\n      tag_53\n      jump\t// in\n    tag_647:\n        /* \"#utility.yul\":21940:22010   */\n      tag_648\n        /* \"#utility.yul\":22003:22009   */\n      dup2\n        /* \"#utility.yul\":21998:22001   */\n      dup7\n        /* \"#utility.yul\":21940:22010   */\n      tag_339\n      jump\t// in\n    tag_648:\n        /* \"#utility.yul\":21933:22010   */\n      swap5\n      pop\n        /* \"#utility.yul\":22041:22042   */\n      0x01\n        /* \"#utility.yul\":22030:22039   */\n      dup3\n        /* \"#utility.yul\":22026:22043   */\n      and\n        /* \"#utility.yul\":22057:22058   */\n      0x00\n        /* \"#utility.yul\":22052:22216   */\n      dup2\n      eq\n      tag_650\n      jumpi\n        /* \"#utility.yul\":22230:22231   */\n      0x01\n        /* \"#utility.yul\":22225:22560   */\n      dup2\n      eq\n      tag_651\n      jumpi\n        /* \"#utility.yul\":22019:22560   */\n      jump(tag_649)\n        /* \"#utility.yul\":22052:22216   */\n    tag_650:\n        /* \"#utility.yul\":22136:22140   */\n      0xff\n        /* \"#utility.yul\":22132:22141   */\n      not\n        /* \"#utility.yul\":22121:22130   */\n      dup4\n        /* \"#utility.yul\":22117:22142   */\n      and\n        /* \"#utility.yul\":22112:22115   */\n      dup7\n        /* \"#utility.yul\":22105:22143   */\n      mstore\n        /* \"#utility.yul\":22196:22202   */\n      dup2\n        /* \"#utility.yul\":22189:22203   */\n      iszero\n        /* \"#utility.yul\":22182:22204   */\n      iszero\n        /* \"#utility.yul\":22176:22180   */\n      0x20\n        /* \"#utility.yul\":22172:22205   */\n      mul\n        /* \"#utility.yul\":22167:22170   */\n      dup7\n        /* \"#utility.yul\":22163:22206   */\n      add\n        /* \"#utility.yul\":22156:22206   */\n      swap4\n      pop\n        /* \"#utility.yul\":22052:22216   */\n      jump(tag_649)\n        /* \"#utility.yul\":22225:22560   */\n    tag_651:\n        /* \"#utility.yul\":22292:22329   */\n      tag_652\n        /* \"#utility.yul\":22323:22328   */\n      dup6\n        /* \"#utility.yul\":22292:22329   */\n      tag_371\n      jump\t// in\n    tag_652:\n        /* \"#utility.yul\":22351:22352   */\n      0x00\n        /* \"#utility.yul\":22365:22519   */\n    tag_653:\n        /* \"#utility.yul\":22379:22385   */\n      dup4\n        /* \"#utility.yul\":22376:22377   */\n      dup2\n        /* \"#utility.yul\":22373:22386   */\n      lt\n        /* \"#utility.yul\":22365:22519   */\n      iszero\n      tag_655\n      jumpi\n        /* \"#utility.yul\":22453:22460   */\n      dup2\n        /* \"#utility.yul\":22447:22461   */\n      sload\n        /* \"#utility.yul\":22443:22444   */\n      dup2\n        /* \"#utility.yul\":22438:22441   */\n      dup10\n        /* \"#utility.yul\":22434:22445   */\n      add\n        /* \"#utility.yul\":22427:22462   */\n      mstore\n        /* \"#utility.yul\":22503:22504   */\n      0x01\n        /* \"#utility.yul\":22494:22501   */\n      dup3\n        /* \"#utility.yul\":22490:22505   */\n      add\n        /* \"#utility.yul\":22479:22505   */\n      swap2\n      pop\n        /* \"#utility.yul\":22401:22405   */\n      0x20\n        /* \"#utility.yul\":22398:22399   */\n      dup2\n        /* \"#utility.yul\":22394:22406   */\n      add\n        /* \"#utility.yul\":22389:22406   */\n      swap1\n      pop\n        /* \"#utility.yul\":22365:22519   */\n      jump(tag_653)\n    tag_655:\n        /* \"#utility.yul\":22548:22549   */\n      dup1\n        /* \"#utility.yul\":22543:22546   */\n      dup9\n        /* \"#utility.yul\":22539:22550   */\n      add\n        /* \"#utility.yul\":22532:22550   */\n      swap6\n      pop\n        /* \"#utility.yul\":22232:22560   */\n      pop\n      pop\n        /* \"#utility.yul\":22019:22560   */\n    tag_649:\n      pop\n        /* \"#utility.yul\":21826:22566   */\n      pop\n      pop\n        /* \"#utility.yul\":21739:22566   */\n      swap3\n      swap2\n      pop\n      pop\n      jump\t// out\n        /* \"#utility.yul\":22572:23066   */\n    tag_109:\n        /* \"#utility.yul\":22723:22727   */\n      0x00\n        /* \"#utility.yul\":22761:22763   */\n      0x40\n        /* \"#utility.yul\":22750:22759   */\n      dup3\n        /* \"#utility.yul\":22746:22764   */\n      add\n        /* \"#utility.yul\":22738:22764   */\n      swap1\n      pop\n        /* \"#utility.yul\":22810:22819   */\n      dup2\n        /* \"#utility.yul\":22804:22808   */\n      dup2\n        /* \"#utility.yul\":22800:22820   */\n      sub\n        /* \"#utility.yul\":22796:22797   */\n      0x00\n        /* \"#utility.yul\":22785:22794   */\n      dup4\n        /* \"#utility.yul\":22781:22798   */\n      add\n        /* \"#utility.yul\":22774:22821   */\n      mstore\n        /* \"#utility.yul\":22838:22911   */\n      tag_657\n        /* \"#utility.yul\":22906:22910   */\n      dup2\n        /* \"#utility.yul\":22897:22903   */\n      dup6\n        /* \"#utility.yul\":22838:22911   */\n      tag_387\n      jump\t// in\n    tag_657:\n        /* \"#utility.yul\":22830:22911   */\n      swap1\n      pop\n        /* \"#utility.yul\":22958:22967   */\n      dup2\n        /* \"#utility.yul\":22952:22956   */\n      dup2\n        /* \"#utility.yul\":22948:22968   */\n      sub\n        /* \"#utility.yul\":22943:22945   */\n      0x20\n        /* \"#utility.yul\":22932:22941   */\n      dup4\n        /* \"#utility.yul\":22928:22946   */\n      add\n        /* \"#utility.yul\":22921:22969   */\n      mstore\n        /* \"#utility.yul\":22986:23059   */\n      tag_658\n        /* \"#utility.yul\":23054:23058   */\n      dup2\n        /* \"#utility.yul\":23045:23051   */\n      dup5\n        /* \"#utility.yul\":22986:23059   */\n      tag_387\n      jump\t// in\n    tag_658:\n        /* \"#utility.yul\":22978:23059   */\n      swap1\n      pop\n        /* \"#utility.yul\":22572:23066   */\n      swap4\n      swap3\n      pop\n      pop\n      pop\n      jump\t// out\n        /* \"#utility.yul\":23072:23244   */\n    tag_388:\n        /* \"#utility.yul\":23212:23236   */\n      0x4f6e6c792063616c6c61626c65206279206f776e657200000000000000000000\n        /* \"#utility.yul\":23208:23209   */\n      0x00\n        /* \"#utility.yul\":23200:23206   */\n      dup3\n        /* \"#utility.yul\":23196:23210   */\n      add\n        /* \"#utility.yul\":23189:23237   */\n      mstore\n        /* \"#utility.yul\":23072:23244   */\n      pop\n      jump\t// out\n        /* \"#utility.yul\":23250:23616   */\n    tag_389:\n        /* \"#utility.yul\":23392:23395   */\n      0x00\n        /* \"#utility.yul\":23413:23480   */\n      tag_661\n        /* \"#utility.yul\":23477:23479   */\n      0x16\n        /* \"#utility.yul\":23472:23475   */\n      dup4\n        /* \"#utility.yul\":23413:23480   */\n      tag_368\n      jump\t// in\n    tag_661:\n        /* \"#utility.yul\":23406:23480   */\n      swap2\n      pop\n        /* \"#utility.yul\":23489:23582   */\n      tag_662\n        /* \"#utility.yul\":23578:23581   */\n      dup3\n        /* \"#utility.yul\":23489:23582   */\n      tag_388\n      jump\t// in\n    tag_662:\n        /* \"#utility.yul\":23607:23609   */\n      0x20\n        /* \"#utility.yul\":23602:23605   */\n      dup3\n        /* \"#utility.yul\":23598:23610   */\n      add\n        /* \"#utility.yul\":23591:23610   */\n      swap1\n      pop\n        /* \"#utility.yul\":23250:23616   */\n      swap2\n      swap1\n      pop\n      jump\t// out\n        /* \"#utility.yul\":23622:24041   */\n    tag_113:\n        /* \"#utility.yul\":23788:23792   */\n      0x00\n        /* \"#utility.yul\":23826:23828   */\n      0x20\n        /* \"#utility.yul\":23815:23824   */\n      dup3\n        /* \"#utility.yul\":23811:23829   */\n      add\n        /* \"#utility.yul\":23803:23829   */\n      swap1\n      pop\n        /* \"#utility.yul\":23875:23884   */\n      dup2\n        /* \"#utility.yul\":23869:23873   */\n      dup2\n        /* \"#utility.yul\":23865:23885   */\n      sub\n        /* \"#utility.yul\":23861:23862   */\n      0x00\n        /* \"#utility.yul\":23850:23859   */\n      dup4\n        /* \"#utility.yul\":23846:23863   */\n      add\n        /* \"#utility.yul\":23839:23886   */\n      mstore\n        /* \"#utility.yul\":23903:24034   */\n      tag_664\n        /* \"#utility.yul\":24029:24033   */\n      dup2\n        /* \"#utility.yul\":23903:24034   */\n      tag_389\n      jump\t// in\n    tag_664:\n        /* \"#utility.yul\":23895:24034   */\n      swap1\n      pop\n        /* \"#utility.yul\":23622:24041   */\n      swap2\n      swap1\n      pop\n      jump\t// out\n        /* \"#utility.yul\":24047:24227   */\n    tag_121:\n        /* \"#utility.yul\":24095:24172   */\n      0x4e487b7100000000000000000000000000000000000000000000000000000000\n        /* \"#utility.yul\":24092:24093   */\n      0x00\n        /* \"#utility.yul\":24085:24173   */\n      mstore\n        /* \"#utility.yul\":24192:24196   */\n      0x21\n        /* \"#utility.yul\":24189:24190   */\n      0x04\n        /* \"#utility.yul\":24182:24197   */\n      mstore\n        /* \"#utility.yul\":24216:24220   */\n      0x24\n        /* \"#utility.yul\":24213:24214   */\n      0x00\n        /* \"#utility.yul\":24206:24221   */\n      revert\n        /* \"#utility.yul\":24233:24413   */\n    tag_164:\n        /* \"#utility.yul\":24281:24358   */\n      0x4e487b7100000000000000000000000000000000000000000000000000000000\n        /* \"#utility.yul\":24278:24279   */\n      0x00\n        /* \"#utility.yul\":24271:24359   */\n      mstore\n        /* \"#utility.yul\":24378:24382   */\n      0x32\n        /* \"#utility.yul\":24375:24376   */\n      0x04\n        /* \"#utility.yul\":24368:24383   */\n      mstore\n        /* \"#utility.yul\":24402:24406   */\n      0x24\n        /* \"#utility.yul\":24399:24400   */\n      0x00\n        /* \"#utility.yul\":24392:24407   */\n      revert\n        /* \"#utility.yul\":24419:24599   */\n    tag_390:\n        /* \"#utility.yul\":24467:24544   */\n      0x4e487b7100000000000000000000000000000000000000000000000000000000\n        /* \"#utility.yul\":24464:24465   */\n      0x00\n        /* \"#utility.yul\":24457:24545   */\n      mstore\n        /* \"#utility.yul\":24564:24568   */\n      0x11\n        /* \"#utility.yul\":24561:24562   */\n      0x04\n        /* \"#utility.yul\":24554:24569   */\n      mstore\n        /* \"#utility.yul\":24588:24592   */\n      0x24\n        /* \"#utility.yul\":24585:24586   */\n      0x00\n        /* \"#utility.yul\":24578:24593   */\n      revert\n        /* \"#utility.yul\":24605:24838   */\n    tag_166:\n        /* \"#utility.yul\":24644:24647   */\n      0x00\n        /* \"#utility.yul\":24667:24691   */\n      tag_669\n        /* \"#utility.yul\":24685:24690   */\n      dup3\n        /* \"#utility.yul\":24667:24691   */\n      tag_375\n      jump\t// in\n    tag_669:\n        /* \"#utility.yul\":24658:24691   */\n      swap2\n      pop\n        /* \"#utility.yul\":24713:24779   */\n      0xffffffffffffffffffffffffffffffffffffffffffffffffffffffffffffffff\n        /* \"#utility.yul\":24706:24711   */\n      dup3\n        /* \"#utility.yul\":24703:24780   */\n      sub\n        /* \"#utility.yul\":24700:24803   */\n      tag_670\n      jumpi\n        /* \"#utility.yul\":24783:24801   */\n      tag_671\n      tag_390\n      jump\t// in\n    tag_671:\n        /* \"#utility.yul\":24700:24803   */\n    tag_670:\n        /* \"#utility.yul\":24830:24831   */\n      0x01\n        /* \"#utility.yul\":24823:24828   */\n      dup3\n        /* \"#utility.yul\":24819:24832   */\n      add\n        /* \"#utility.yul\":24812:24832   */\n      swap1\n      pop\n        /* \"#utility.yul\":24605:24838   */\n      swap2\n      swap1\n      pop\n      jump\t// out\n        /* \"#utility.yul\":24844:24959   */\n    tag_391:\n        /* \"#utility.yul\":24929:24952   */\n      tag_673\n        /* \"#utility.yul\":24946:24951   */\n      dup2\n        /* \"#utility.yul\":24929:24952   */\n      tag_348\n      jump\t// in\n    tag_673:\n        /* \"#utility.yul\":24924:24927   */\n      dup3\n        /* \"#utility.yul\":24917:24953   */\n      mstore\n        /* \"#utility.yul\":24844:24959   */\n      pop\n      pop\n      jump\t// out\n        /* \"#utility.yul\":24965:25054   */\n    tag_392:\n        /* \"#utility.yul\":25001:25008   */\n      0x00\n        /* \"#utility.yul\":25041:25047   */\n      0xffff\n        /* \"#utility.yul\":25034:25039   */\n      dup3\n        /* \"#utility.yul\":25030:25048   */\n      and\n        /* \"#utility.yul\":25019:25048   */\n      swap1\n      pop\n        /* \"#utility.yul\":24965:25054   */\n      swap2\n      swap1\n      pop\n      jump\t// out\n        /* \"#utility.yul\":25060:25175   */\n    tag_393:\n        /* \"#utility.yul\":25145:25168   */\n      tag_676\n        /* \"#utility.yul\":25162:25167   */\n      dup2\n        /* \"#utility.yul\":25145:25168   */\n      tag_392\n      jump\t// in\n    tag_676:\n        /* \"#utility.yul\":25140:25143   */\n      dup3\n        /* \"#utility.yul\":25133:25169   */\n      mstore\n        /* \"#utility.yul\":25060:25175   */\n      pop\n      pop\n      jump\t// out\n        /* \"#utility.yul\":25181:25296   */\n    tag_394:\n        /* \"#utility.yul\":25266:25289   */\n      tag_678\n        /* \"#utility.yul\":25283:25288   */\n      dup2\n        /* \"#utility.yul\":25266:25289   */\n      tag_358\n      jump\t// in\n    tag_678:\n        /* \"#utility.yul\":25261:25264   */\n      dup3\n        /* \"#utility.yul\":25254:25290   */\n      mstore\n        /* \"#utility.yul\":25181:25296   */\n      pop\n      pop\n      jump\t// out\n        /* \"#utility.yul\":25302:26041   */\n    tag_195:\n        /* \"#utility.yul\":25519:25523   */\n      0x00\n        /* \"#utility.yul\":25557:25560   */\n      0xa0\n        /* \"#utility.yul\":25546:25555   */\n      dup3\n        /* \"#utility.yul\":25542:25561   */\n      add\n        /* \"#utility.yul\":25534:25561   */\n      swap1\n      pop\n        /* \"#utility.yul\":25571:25640   */\n      tag_680\n        /* \"#utility.yul\":25637:25638   */\n      0x00\n        /* \"#utility.yul\":25626:25635   */\n      dup4\n        /* \"#utility.yul\":25622:25639   */\n      add\n        /* \"#utility.yul\":25613:25619   */\n      dup9\n        /* \"#utility.yul\":25571:25640   */\n      tag_391\n      jump\t// in\n    tag_680:\n        /* \"#utility.yul\":25687:25696   */\n      dup2\n        /* \"#utility.yul\":25681:25685   */\n      dup2\n        /* \"#utility.yul\":25677:25697   */\n      sub\n        /* \"#utility.yul\":25672:25674   */\n      0x20\n        /* \"#utility.yul\":25661:25670   */\n      dup4\n        /* \"#utility.yul\":25657:25675   */\n      add\n        /* \"#utility.yul\":25650:25698   */\n      mstore\n        /* \"#utility.yul\":25715:25791   */\n      tag_681\n        /* \"#utility.yul\":25786:25790   */\n      dup2\n        /* \"#utility.yul\":25777:25783   */\n      dup8\n        /* \"#utility.yul\":25715:25791   */\n      tag_341\n      jump\t// in\n    tag_681:\n        /* \"#utility.yul\":25707:25791   */\n      swap1\n      pop\n        /* \"#utility.yul\":25801:25871   */\n      tag_682\n        /* \"#utility.yul\":25867:25869   */\n      0x40\n        /* \"#utility.yul\":25856:25865   */\n      dup4\n        /* \"#utility.yul\":25852:25870   */\n      add\n        /* \"#utility.yul\":25843:25849   */\n      dup7\n        /* \"#utility.yul\":25801:25871   */\n      tag_393\n      jump\t// in\n    tag_682:\n        /* \"#utility.yul\":25881:25951   */\n      tag_683\n        /* \"#utility.yul\":25947:25949   */\n      0x60\n        /* \"#utility.yul\":25936:25945   */\n      dup4\n        /* \"#utility.yul\":25932:25950   */\n      add\n        /* \"#utility.yul\":25923:25929   */\n      dup6\n        /* \"#utility.yul\":25881:25951   */\n      tag_394\n      jump\t// in\n    tag_683:\n        /* \"#utility.yul\":25961:26034   */\n      tag_684\n        /* \"#utility.yul\":26029:26032   */\n      0x80\n        /* \"#utility.yul\":26018:26027   */\n      dup4\n        /* \"#utility.yul\":26014:26033   */\n      add\n        /* \"#utility.yul\":26005:26011   */\n      dup5\n        /* \"#utility.yul\":25961:26034   */\n      tag_361\n      jump\t// in\n    tag_684:\n        /* \"#utility.yul\":25302:26041   */\n      swap7\n      swap6\n      pop\n      pop\n      pop\n      pop\n      pop\n      pop\n      jump\t// out\n        /* \"#utility.yul\":26047:26190   */\n    tag_395:\n        /* \"#utility.yul\":26104:26109   */\n      0x00\n        /* \"#utility.yul\":26135:26141   */\n      dup2\n        /* \"#utility.yul\":26129:26142   */\n      mload\n        /* \"#utility.yul\":26120:26142   */\n      swap1\n      pop\n        /* \"#utility.yul\":26151:26184   */\n      tag_686\n        /* \"#utility.yul\":26178:26183   */\n      dup2\n        /* \"#utility.yul\":26151:26184   */\n      tag_326\n      jump\t// in\n    tag_686:\n        /* \"#utility.yul\":26047:26190   */\n      swap3\n      swap2\n      pop\n      pop\n      jump\t// out\n        /* \"#utility.yul\":26196:26547   */\n    tag_199:\n        /* \"#utility.yul\":26266:26272   */\n      0x00\n        /* \"#utility.yul\":26315:26317   */\n      0x20\n        /* \"#utility.yul\":26303:26312   */\n      dup3\n        /* \"#utility.yul\":26294:26301   */\n      dup5\n        /* \"#utility.yul\":26290:26313   */\n      sub\n        /* \"#utility.yul\":26286:26318   */\n      slt\n        /* \"#utility.yul\":26283:26402   */\n      iszero\n      tag_688\n      jumpi\n        /* \"#utility.yul\":26321:26400   */\n      tag_689\n      tag_323\n      jump\t// in\n    tag_689:\n        /* \"#utility.yul\":26283:26402   */\n    tag_688:\n        /* \"#utility.yul\":26441:26442   */\n      0x00\n        /* \"#utility.yul\":26466:26530   */\n      tag_690\n        /* \"#utility.yul\":26522:26529   */\n      dup5\n        /* \"#utility.yul\":26513:26519   */\n      dup3\n        /* \"#utility.yul\":26502:26511   */\n      dup6\n        /* \"#utility.yul\":26498:26520   */\n      add\n        /* \"#utility.yul\":26466:26530   */\n      tag_395\n      jump\t// in\n    tag_690:\n        /* \"#utility.yul\":26456:26530   */\n      swap2\n      pop\n        /* \"#utility.yul\":26412:26540   */\n      pop\n        /* \"#utility.yul\":26196:26547   */\n      swap3\n      swap2\n      pop\n      pop\n      jump\t// out\n        /* \"#utility.yul\":26553:26726   */\n    tag_396:\n        /* \"#utility.yul\":26693:26718   */\n      0x43616e6e6f74207472616e7366657220746f2073656c66000000000000000000\n        /* \"#utility.yul\":26689:26690   */\n      0x00\n        /* \"#utility.yul\":26681:26687   */\n      dup3\n        /* \"#utility.yul\":26677:26691   */\n      add\n        /* \"#utility.yul\":26670:26719   */\n      mstore\n        /* \"#utility.yul\":26553:26726   */\n      pop\n      jump\t// out\n        /* \"#utility.yul\":26732:27098   */\n    tag_397:\n        /* \"#utility.yul\":26874:26877   */\n      0x00\n        /* \"#utility.yul\":26895:26962   */\n      tag_693\n        /* \"#utility.yul\":26959:26961   */\n      0x17\n        /* \"#utility.yul\":26954:26957   */\n      dup4\n        /* \"#utility.yul\":26895:26962   */\n      tag_368\n      jump\t// in\n    tag_693:\n        /* \"#utility.yul\":26888:26962   */\n      swap2\n      pop\n        /* \"#utility.yul\":26971:27064   */\n      tag_694\n        /* \"#utility.yul\":27060:27063   */\n      dup3\n        /* \"#utility.yul\":26971:27064   */\n      tag_396\n      jump\t// in\n    tag_694:\n        /* \"#utility.yul\":27089:27091   */\n      0x20\n        /* \"#utility.yul\":27084:27087   */\n      dup3\n        /* \"#utility.yul\":27080:27092   */\n      add\n        /* \"#utility.yul\":27073:27092   */\n      swap1\n      pop\n        /* \"#utility.yul\":26732:27098   */\n      swap2\n      swap1\n      pop\n      jump\t// out\n        /* \"#utility.yul\":27104:27523   */\n    tag_203:\n        /* \"#utility.yul\":27270:27274   */\n      0x00\n        /* \"#utility.yul\":27308:27310   */\n      0x20\n        /* \"#utility.yul\":27297:27306   */\n      dup3\n        /* \"#utility.yul\":27293:27311   */\n      add\n        /* \"#utility.yul\":27285:27311   */\n      swap1\n      pop\n        /* \"#utility.yul\":27357:27366   */\n      dup2\n        /* \"#utility.yul\":27351:27355   */\n      dup2\n        /* \"#utility.yul\":27347:27367   */\n      sub\n        /* \"#utility.yul\":27343:27344   */\n      0x00\n        /* \"#utility.yul\":27332:27341   */\n      dup4\n        /* \"#utility.yul\":27328:27345   */\n      add\n        /* \"#utility.yul\":27321:27368   */\n      mstore\n        /* \"#utility.yul\":27385:27516   */\n      tag_696\n        /* \"#utility.yul\":27511:27515   */\n      dup2\n        /* \"#utility.yul\":27385:27516   */\n      tag_397\n      jump\t// in\n    tag_696:\n        /* \"#utility.yul\":27377:27516   */\n      swap1\n      pop\n        /* \"#utility.yul\":27104:27523   */\n      swap2\n      swap1\n      pop\n      jump\t// out\n        /* \"#utility.yul\":27529:27647   */\n    tag_398:\n        /* \"#utility.yul\":27616:27640   */\n      tag_698\n        /* \"#utility.yul\":27634:27639   */\n      dup2\n        /* \"#utility.yul\":27616:27640   */\n      tag_375\n      jump\t// in\n    tag_698:\n        /* \"#utility.yul\":27611:27614   */\n      dup3\n        /* \"#utility.yul\":27604:27641   */\n      mstore\n        /* \"#utility.yul\":27529:27647   */\n      pop\n      pop\n      jump\t// out\n        /* \"#utility.yul\":27653:27875   */\n    tag_231:\n        /* \"#utility.yul\":27746:27750   */\n      0x00\n        /* \"#utility.yul\":27784:27786   */\n      0x20\n        /* \"#utility.yul\":27773:27782   */\n      dup3\n        /* \"#utility.yul\":27769:27787   */\n      add\n        /* \"#utility.yul\":27761:27787   */\n      swap1\n      pop\n        /* \"#utility.yul\":27797:27868   */\n      tag_700\n        /* \"#utility.yul\":27865:27866   */\n      0x00\n        /* \"#utility.yul\":27854:27863   */\n      dup4\n        /* \"#utility.yul\":27850:27867   */\n      add\n        /* \"#utility.yul\":27841:27847   */\n      dup5\n        /* \"#utility.yul\":27797:27868   */\n      tag_398\n      jump\t// in\n    tag_700:\n        /* \"#utility.yul\":27653:27875   */\n      swap3\n      swap2\n      pop\n      pop\n      jump\t// out\n        /* \"#utility.yul\":27881:28072   */\n    tag_236:\n        /* \"#utility.yul\":27921:27924   */\n      0x00\n        /* \"#utility.yul\":27940:27960   */\n      tag_702\n        /* \"#utility.yul\":27958:27959   */\n      dup3\n        /* \"#utility.yul\":27940:27960   */\n      tag_375\n      jump\t// in\n    tag_702:\n        /* \"#utility.yul\":27935:27960   */\n      swap2\n      pop\n        /* \"#utility.yul\":27974:27994   */\n      tag_703\n        /* \"#utility.yul\":27992:27993   */\n      dup4\n        /* \"#utility.yul\":27974:27994   */\n      tag_375\n      jump\t// in\n    tag_703:\n        /* \"#utility.yul\":27969:27994   */\n      swap3\n      pop\n        /* \"#utility.yul\":28017:28018   */\n      dup3\n        /* \"#utility.yul\":28014:28015   */\n      dup3\n        /* \"#utility.yul\":28010:28019   */\n      add\n        /* \"#utility.yul\":28003:28019   */\n      swap1\n      pop\n        /* \"#utility.yul\":28038:28041   */\n      dup1\n        /* \"#utility.yul\":28035:28036   */\n      dup3\n        /* \"#utility.yul\":28032:28042   */\n      gt\n        /* \"#utility.yul\":28029:28065   */\n      iszero\n      tag_704\n      jumpi\n        /* \"#utility.yul\":28045:28063   */\n      tag_705\n      tag_390\n      jump\t// in\n    tag_705:\n        /* \"#utility.yul\":28029:28065   */\n    tag_704:\n        /* \"#utility.yul\":27881:28072   */\n      swap3\n      swap2\n      pop\n      pop\n      jump\t// out\n        /* \"#utility.yul\":28078:28272   */\n    tag_240:\n        /* \"#utility.yul\":28118:28122   */\n      0x00\n        /* \"#utility.yul\":28138:28158   */\n      tag_707\n        /* \"#utility.yul\":28156:28157   */\n      dup3\n        /* \"#utility.yul\":28138:28158   */\n      tag_375\n      jump\t// in\n    tag_707:\n        /* \"#utility.yul\":28133:28158   */\n      swap2\n      pop\n        /* \"#utility.yul\":28172:28192   */\n      tag_708\n        /* \"#utility.yul\":28190:28191   */\n      dup4\n        /* \"#utility.yul\":28172:28192   */\n      tag_375\n      jump\t// in\n    tag_708:\n        /* \"#utility.yul\":28167:28192   */\n      swap3\n      pop\n        /* \"#utility.yul\":28216:28217   */\n      dup3\n        /* \"#utility.yul\":28213:28214   */\n      dup3\n        /* \"#utility.yul\":28209:28218   */\n      sub\n        /* \"#utility.yul\":28201:28218   */\n      swap1\n      pop\n        /* \"#utility.yul\":28240:28241   */\n      dup2\n        /* \"#utility.yul\":28234:28238   */\n      dup2\n        /* \"#utility.yul\":28231:28242   */\n      gt\n        /* \"#utility.yul\":28228:28265   */\n      iszero\n      tag_709\n      jumpi\n        /* \"#utility.yul\":28245:28263   */\n      tag_710\n      tag_390\n      jump\t// in\n    tag_710:\n        /* \"#utility.yul\":28228:28265   */\n    tag_709:\n        /* \"#utility.yul\":28078:28272   */\n      swap3\n      swap2\n      pop\n      pop\n      jump\t// out\n        /* \"#utility.yul\":28278:28458   */\n    tag_399:\n        /* \"#utility.yul\":28326:28403   */\n      0x4e487b7100000000000000000000000000000000000000000000000000000000\n        /* \"#utility.yul\":28323:28324   */\n      0x00\n        /* \"#utility.yul\":28316:28404   */\n      mstore\n        /* \"#utility.yul\":28423:28427   */\n      0x12\n        /* \"#utility.yul\":28420:28421   */\n      0x04\n        /* \"#utility.yul\":28413:28428   */\n      mstore\n        /* \"#utility.yul\":28447:28451   */\n      0x24\n        /* \"#utility.yul\":28444:28445   */\n      0x00\n        /* \"#utility.yul\":28437:28452   */\n      revert\n        /* \"#utility.yul\":28464:28640   */\n    tag_248:\n        /* \"#utility.yul\":28496:28497   */\n      0x00\n        /* \"#utility.yul\":28513:28533   */\n      tag_713\n        /* \"#utility.yul\":28531:28532   */\n      dup3\n        /* \"#utility.yul\":28513:28533   */\n      tag_375\n      jump\t// in\n    tag_713:\n        /* \"#utility.yul\":28508:28533   */\n      swap2\n      pop\n        /* \"#utility.yul\":28547:28567   */\n      tag_714\n        /* \"#utility.yul\":28565:28566   */\n      dup4\n        /* \"#utility.yul\":28547:28567   */\n      tag_375\n      jump\t// in\n    tag_714:\n        /* \"#utility.yul\":28542:28567   */\n      swap3\n      pop\n        /* \"#utility.yul\":28586:28587   */\n      dup3\n        /* \"#utility.yul\":28576:28611   */\n      tag_715\n      jumpi\n        /* \"#utility.yul\":28591:28609   */\n      tag_716\n      tag_399\n      jump\t// in\n    tag_716:\n        /* \"#utility.yul\":28576:28611   */\n    tag_715:\n        /* \"#utility.yul\":28632:28633   */\n      dup3\n        /* \"#utility.yul\":28629:28630   */\n      dup3\n        /* \"#utility.yul\":28625:28634   */\n      mod\n        /* \"#utility.yul\":28620:28634   */\n      swap1\n      pop\n        /* \"#utility.yul\":28464:28640   */\n      swap3\n      swap2\n      pop\n      pop\n      jump\t// out\n        /* \"#utility.yul\":28646:29056   */\n    tag_283:\n        /* \"#utility.yul\":28686:28693   */\n      0x00\n        /* \"#utility.yul\":28709:28729   */\n      tag_718\n        /* \"#utility.yul\":28727:28728   */\n      dup3\n        /* \"#utility.yul\":28709:28729   */\n      tag_375\n      jump\t// in\n    tag_718:\n        /* \"#utility.yul\":28704:28729   */\n      swap2\n      pop\n        /* \"#utility.yul\":28743:28763   */\n      tag_719\n        /* \"#utility.yul\":28761:28762   */\n      dup4\n        /* \"#utility.yul\":28743:28763   */\n      tag_375\n      jump\t// in\n    tag_719:\n        /* \"#utility.yul\":28738:28763   */\n      swap3\n      pop\n        /* \"#utility.yul\":28798:28799   */\n      dup3\n        /* \"#utility.yul\":28795:28796   */\n      dup3\n        /* \"#utility.yul\":28791:28800   */\n      mul\n        /* \"#utility.yul\":28820:28850   */\n      tag_720\n        /* \"#utility.yul\":28838:28849   */\n      dup2\n        /* \"#utility.yul\":28820:28850   */\n      tag_375\n      jump\t// in\n    tag_720:\n        /* \"#utility.yul\":28809:28850   */\n      swap2\n      pop\n        /* \"#utility.yul\":28999:29000   */\n      dup3\n        /* \"#utility.yul\":28990:28997   */\n      dup3\n        /* \"#utility.yul\":28986:29001   */\n      div\n        /* \"#utility.yul\":28983:28984   */\n      dup5\n        /* \"#utility.yul\":28980:29002   */\n      eq\n        /* \"#utility.yul\":28960:28961   */\n      dup4\n        /* \"#utility.yul\":28953:28962   */\n      iszero\n        /* \"#utility.yul\":28933:29016   */\n      or\n        /* \"#utility.yul\":28910:29049   */\n      tag_721\n      jumpi\n        /* \"#utility.yul\":29029:29047   */\n      tag_722\n      tag_390\n      jump\t// in\n    tag_722:\n        /* \"#utility.yul\":28910:29049   */\n    tag_721:\n        /* \"#utility.yul\":28694:29056   */\n      pop\n        /* \"#utility.yul\":28646:29056   */\n      swap3\n      swap2\n      pop\n      pop\n      jump\t// out\n        /* \"#utility.yul\":29062:29164   */\n    tag_400:\n        /* \"#utility.yul\":29104:29112   */\n      0x00\n        /* \"#utility.yul\":29151:29156   */\n      dup2\n        /* \"#utility.yul\":29148:29149   */\n      0x01\n        /* \"#utility.yul\":29144:29157   */\n      shr\n        /* \"#utility.yul\":29123:29157   */\n      swap1\n      pop\n        /* \"#utility.yul\":29062:29164   */\n      swap2\n      swap1\n      pop\n      jump\t// out\n        /* \"#utility.yul\":29170:30018   */\n    tag_401:\n        /* \"#utility.yul\":29231:29236   */\n      0x00\n        /* \"#utility.yul\":29238:29242   */\n      dup1\n        /* \"#utility.yul\":29262:29268   */\n      dup3\n        /* \"#utility.yul\":29253:29268   */\n      swap2\n      pop\n        /* \"#utility.yul\":29286:29291   */\n      dup4\n        /* \"#utility.yul\":29277:29291   */\n      swap1\n      pop\n        /* \"#utility.yul\":29300:30012   */\n    tag_725:\n        /* \"#utility.yul\":29321:29322   */\n      0x01\n        /* \"#utility.yul\":29311:29319   */\n      dup6\n        /* \"#utility.yul\":29308:29323   */\n      gt\n        /* \"#utility.yul\":29300:30012   */\n      iszero\n      tag_727\n      jumpi\n        /* \"#utility.yul\":29416:29420   */\n      dup1\n        /* \"#utility.yul\":29411:29414   */\n      dup7\n        /* \"#utility.yul\":29407:29421   */\n      div\n        /* \"#utility.yul\":29401:29405   */\n      dup2\n        /* \"#utility.yul\":29398:29422   */\n      gt\n        /* \"#utility.yul\":29395:29445   */\n      iszero\n      tag_728\n      jumpi\n        /* \"#utility.yul\":29425:29443   */\n      tag_729\n      tag_390\n      jump\t// in\n    tag_729:\n        /* \"#utility.yul\":29395:29445   */\n    tag_728:\n        /* \"#utility.yul\":29475:29476   */\n      0x01\n        /* \"#utility.yul\":29465:29473   */\n      dup6\n        /* \"#utility.yul\":29461:29477   */\n      and\n        /* \"#utility.yul\":29458:29909   */\n      iszero\n      tag_730\n      jumpi\n        /* \"#utility.yul\":29890:29894   */\n      dup1\n        /* \"#utility.yul\":29883:29888   */\n      dup3\n        /* \"#utility.yul\":29879:29895   */\n      mul\n        /* \"#utility.yul\":29870:29895   */\n      swap2\n      pop\n        /* \"#utility.yul\":29458:29909   */\n    tag_730:\n        /* \"#utility.yul\":29940:29944   */\n      dup1\n        /* \"#utility.yul\":29934:29938   */\n      dup2\n        /* \"#utility.yul\":29930:29945   */\n      mul\n        /* \"#utility.yul\":29922:29945   */\n      swap1\n      pop\n        /* \"#utility.yul\":29970:30002   */\n      tag_731\n        /* \"#utility.yul\":29993:30001   */\n      dup6\n        /* \"#utility.yul\":29970:30002   */\n      tag_400\n      jump\t// in\n    tag_731:\n        /* \"#utility.yul\":29958:30002   */\n      swap5\n      pop\n        /* \"#utility.yul\":29300:30012   */\n      jump(tag_725)\n    tag_727:\n        /* \"#utility.yul\":29170:30018   */\n      swap5\n      pop\n      swap5\n      swap3\n      pop\n      pop\n      pop\n      jump\t// out\n        /* \"#utility.yul\":30024:31097   */\n    tag_402:\n        /* \"#utility.yul\":30078:30083   */\n      0x00\n        /* \"#utility.yul\":30269:30277   */\n      dup3\n        /* \"#utility.yul\":30259:30299   */\n      tag_733\n      jumpi\n        /* \"#utility.yul\":30290:30291   */\n      0x01\n        /* \"#utility.yul\":30281:30291   */\n      swap1\n      pop\n        /* \"#utility.yul\":30292:30297   */\n      jump(tag_732)\n        /* \"#utility.yul\":30259:30299   */\n    tag_733:\n        /* \"#utility.yul\":30318:30322   */\n      dup2\n        /* \"#utility.yul\":30308:30344   */\n      tag_734\n      jumpi\n        /* \"#utility.yul\":30335:30336   */\n      0x00\n        /* \"#utility.yul\":30326:30336   */\n      swap1\n      pop\n        /* \"#utility.yul\":30337:30342   */\n      jump(tag_732)\n        /* \"#utility.yul\":30308:30344   */\n    tag_734:\n        /* \"#utility.yul\":30404:30408   */\n      dup2\n        /* \"#utility.yul\":30452:30453   */\n      0x01\n        /* \"#utility.yul\":30447:30474   */\n      dup2\n      eq\n      tag_736\n      jumpi\n        /* \"#utility.yul\":30488:30489   */\n      0x02\n        /* \"#utility.yul\":30483:30674   */\n      dup2\n      eq\n      tag_737\n      jumpi\n        /* \"#utility.yul\":30397:30674   */\n      jump(tag_735)\n        /* \"#utility.yul\":30447:30474   */\n    tag_736:\n        /* \"#utility.yul\":30465:30466   */\n      0x01\n        /* \"#utility.yul\":30456:30466   */\n      swap2\n      pop\n        /* \"#utility.yul\":30467:30472   */\n      pop\n      jump(tag_732)\n        /* \"#utility.yul\":30483:30674   */\n    tag_737:\n        /* \"#utility.yul\":30528:30531   */\n      0xff\n        /* \"#utility.yul\":30518:30526   */\n      dup5\n        /* \"#utility.yul\":30515:30532   */\n      gt\n        /* \"#utility.yul\":30512:30555   */\n      iszero\n      tag_738\n      jumpi\n        /* \"#utility.yul\":30535:30553   */\n      tag_739\n      tag_390\n      jump\t// in\n    tag_739:\n        /* \"#utility.yul\":30512:30555   */\n    tag_738:\n        /* \"#utility.yul\":30584:30592   */\n      dup4\n        /* \"#utility.yul\":30581:30582   */\n      0x02\n        /* \"#utility.yul\":30577:30593   */\n      exp\n        /* \"#utility.yul\":30568:30593   */\n      swap2\n      pop\n        /* \"#utility.yul\":30619:30622   */\n      dup5\n        /* \"#utility.yul\":30612:30617   */\n      dup3\n        /* \"#utility.yul\":30609:30623   */\n      gt\n        /* \"#utility.yul\":30606:30646   */\n      iszero\n      tag_740\n      jumpi\n        /* \"#utility.yul\":30626:30644   */\n      tag_741\n      tag_390\n      jump\t// in\n    tag_741:\n        /* \"#utility.yul\":30606:30646   */\n    tag_740:\n        /* \"#utility.yul\":30659:30664   */\n      pop\n      jump(tag_732)\n        /* \"#utility.yul\":30397:30674   */\n    tag_735:\n      pop\n        /* \"#utility.yul\":30783:30785   */\n      0x20\n        /* \"#utility.yul\":30773:30781   */\n      dup4\n        /* \"#utility.yul\":30770:30786   */\n      lt\n        /* \"#utility.yul\":30764:30767   */\n      0x0133\n        /* \"#utility.yul\":30758:30762   */\n      dup4\n        /* \"#utility.yul\":30755:30768   */\n      lt\n        /* \"#utility.yul\":30751:30787   */\n      and\n        /* \"#utility.yul\":30733:30735   */\n      0x4e\n        /* \"#utility.yul\":30723:30731   */\n      dup5\n        /* \"#utility.yul\":30720:30736   */\n      lt\n        /* \"#utility.yul\":30715:30717   */\n      0x0b\n        /* \"#utility.yul\":30709:30713   */\n      dup5\n        /* \"#utility.yul\":30706:30718   */\n      lt\n        /* \"#utility.yul\":30702:30737   */\n      and\n        /* \"#utility.yul\":30686:30797   */\n      or\n        /* \"#utility.yul\":30683:30929   */\n      iszero\n      tag_742\n      jumpi\n        /* \"#utility.yul\":30839:30847   */\n      dup3\n        /* \"#utility.yul\":30833:30837   */\n      dup3\n        /* \"#utility.yul\":30829:30848   */\n      exp\n        /* \"#utility.yul\":30820:30848   */\n      swap1\n      pop\n        /* \"#utility.yul\":30874:30877   */\n      dup4\n        /* \"#utility.yul\":30867:30872   */\n      dup2\n        /* \"#utility.yul\":30864:30878   */\n      gt\n        /* \"#utility.yul\":30861:30901   */\n      iszero\n      tag_743\n      jumpi\n        /* \"#utility.yul\":30881:30899   */\n      tag_744\n      tag_390\n      jump\t// in\n    tag_744:\n        /* \"#utility.yul\":30861:30901   */\n    tag_743:\n        /* \"#utility.yul\":30914:30919   */\n      jump(tag_732)\n        /* \"#utility.yul\":30683:30929   */\n    tag_742:\n        /* \"#utility.yul\":30954:30996   */\n      tag_745\n        /* \"#utility.yul\":30992:30995   */\n      dup5\n        /* \"#utility.yul\":30982:30990   */\n      dup5\n        /* \"#utility.yul\":30976:30980   */\n      dup5\n        /* \"#utility.yul\":30973:30974   */\n      0x01\n        /* \"#utility.yul\":30954:30996   */\n      tag_401\n      jump\t// in\n    tag_745:\n        /* \"#utility.yul\":30939:30996   */\n      swap3\n      pop\n      swap1\n      pop\n        /* \"#utility.yul\":31028:31032   */\n      dup2\n        /* \"#utility.yul\":31023:31026   */\n      dup5\n        /* \"#utility.yul\":31019:31033   */\n      div\n        /* \"#utility.yul\":31012:31017   */\n      dup2\n        /* \"#utility.yul\":31009:31034   */\n      gt\n        /* \"#utility.yul\":31006:31057   */\n      iszero\n      tag_746\n      jumpi\n        /* \"#utility.yul\":31037:31055   */\n      tag_747\n      tag_390\n      jump\t// in\n    tag_747:\n        /* \"#utility.yul\":31006:31057   */\n    tag_746:\n        /* \"#utility.yul\":31086:31090   */\n      dup2\n        /* \"#utility.yul\":31079:31084   */\n      dup2\n        /* \"#utility.yul\":31075:31091   */\n      mul\n        /* \"#utility.yul\":31066:31091   */\n      swap1\n      pop\n        /* \"#utility.yul\":30024:31097   */\n    tag_732:\n      swap4\n      swap3\n      pop\n      pop\n      pop\n      jump\t// out\n        /* \"#utility.yul\":31103:31388   */\n    tag_295:\n        /* \"#utility.yul\":31163:31168   */\n      0x00\n        /* \"#utility.yul\":31187:31210   */\n      tag_749\n        /* \"#utility.yul\":31205:31209   */\n      dup3\n        /* \"#utility.yul\":31187:31210   */\n      tag_375\n      jump\t// in\n    tag_749:\n        /* \"#utility.yul\":31179:31210   */\n      swap2\n      pop\n        /* \"#utility.yul\":31231:31258   */\n      tag_750\n        /* \"#utility.yul\":31249:31257   */\n      dup4\n        /* \"#utility.yul\":31231:31258   */\n      tag_375\n      jump\t// in\n    tag_750:\n        /* \"#utility.yul\":31219:31258   */\n      swap3\n      pop\n        /* \"#utility.yul\":31277:31381   */\n      tag_751\n        /* \"#utility.yul\":31314:31380   */\n      0xffffffffffffffffffffffffffffffffffffffffffffffffffffffffffffffff\n        /* \"#utility.yul\":31304:31312   */\n      dup5\n        /* \"#utility.yul\":31298:31302   */\n      dup5\n        /* \"#utility.yul\":31277:31381   */\n      tag_402\n      jump\t// in\n    tag_751:\n        /* \"#utility.yul\":31268:31381   */\n      swap1\n      pop\n        /* \"#utility.yul\":31103:31388   */\n      swap3\n      swap2\n      pop\n      pop\n      jump\t// out\n\n    auxdata: 0xa2646970667358221220612ae72375af7f81888af9bc925e291fee6e7466b83c5b40c3076794783163ed64736f6c63430008130033\n}\n",
				"bytecode": {
					"linkReferences": {},
					"object": "60a06040523480156200001157600080fd5b5060405162002d3038038062002d3083398181016040528101906200003791906200030d565b33806000838073ffffffffffffffffffffffffffffffffffffffff1660808173ffffffffffffffffffffffffffffffffffffffff168152505050600073ffffffffffffffffffffffffffffffffffffffff168273ffffffffffffffffffffffffffffffffffffffff1603620000e3576040517f08c379a0000000000000000000000000000000000000000000000000000000008152600401620000da90620003a0565b60405180910390fd5b816000806101000a81548173ffffffffffffffffffffffffffffffffffffffff021916908373ffffffffffffffffffffffffffffffffffffffff160217905550600073ffffffffffffffffffffffffffffffffffffffff168173ffffffffffffffffffffffffffffffffffffffff16146200016a5762000169816200017460201b60201c565b5b5050505062000434565b3373ffffffffffffffffffffffffffffffffffffffff168173ffffffffffffffffffffffffffffffffffffffff1603620001e5576040517f08c379a0000000000000000000000000000000000000000000000000000000008152600401620001dc9062000412565b60405180910390fd5b80600160006101000a81548173ffffffffffffffffffffffffffffffffffffffff021916908373ffffffffffffffffffffffffffffffffffffffff1602179055508073ffffffffffffffffffffffffffffffffffffffff1660008054906101000a900473ffffffffffffffffffffffffffffffffffffffff1673ffffffffffffffffffffffffffffffffffffffff167fed8889f560326eb138920d842192f0eb3dd22b4f139c87a2c57538e05bae127860405160405180910390a350565b600080fd5b600073ffffffffffffffffffffffffffffffffffffffff82169050919050565b6000620002d582620002a8565b9050919050565b620002e781620002c8565b8114620002f357600080fd5b50565b6000815190506200030781620002dc565b92915050565b600060208284031215620003265762000325620002a3565b5b60006200033684828501620002f6565b91505092915050565b600082825260208201905092915050565b7f43616e6e6f7420736574206f776e657220746f207a65726f0000000000000000600082015250565b6000620003886018836200033f565b9150620003958262000350565b602082019050919050565b60006020820190508181036000830152620003bb8162000379565b9050919050565b7f43616e6e6f74207472616e7366657220746f2073656c66000000000000000000600082015250565b6000620003fa6017836200033f565b91506200040782620003c2565b602082019050919050565b600060208201905081810360008301526200042d81620003eb565b9050919050565b6080516128d962000457600039600081816101b40152610ded01526128d96000f3fe608060405234801561001057600080fd5b50600436106100935760003560e01c806379ba50971161006657806379ba5097146101205780638da5cb5b1461012a5780639681096f14610148578063b1e2174914610178578063f2fde38b1461019657610093565b80630ca76175146100985780633944ea3a146100b45780634b0795a8146100d257806352a81eeb146100f0575b600080fd5b6100b260048036038101906100ad9190611868565b6101b2565b005b6100bc610274565b6040516100c99190611972565b60405180910390f35b6100da610302565b6040516100e79190611972565b60405180910390f35b61010a60048036038101906101059190611cb1565b610390565b6040516101179190611dfa565b60405180910390f35b61012861046a565b005b6101326105ff565b60405161013f9190611e56565b60405180910390f35b610162600480360381019061015d9190611e71565b610628565b60405161016f9190611dfa565b60405180910390f35b610180610651565b60405161018d9190611dfa565b60405180910390f35b6101b060048036038101906101ab9190611f20565b610657565b005b7f000000000000000000000000000000000000000000000000000000000000000073ffffffffffffffffffffffffffffffffffffffff163373ffffffffffffffffffffffffffffffffffffffff1614610237576040517fc6829f8300000000000000000000000000000000000000000000000000000000815260040160405180910390fd5b61024283838361066b565b827f85e1543bf2f84fe80c6badbce3648c8539ad1df4d2b3d822938ca0538be727e660405160405180910390a2505050565b6003805461028190611f7c565b80601f01602080910402602001604051908101604052809291908181526020018280546102ad90611f7c565b80156102fa5780601f106102cf576101008083540402835291602001916102fa565b820191906000526020600020905b8154815290600101906020018083116102dd57829003601f168201915b505050505081565b6004805461030f90611f7c565b80601f016020809104026020016040519081016040528092919081815260200182805461033b90611f7c565b80156103885780601f1061035d57610100808354040283529160200191610388565b820191906000526020600020905b81548152906001019060200180831161036b57829003601f168201915b505050505081565b600061039a610712565b6103a261162c565b6103b58b826107a290919063ffffffff16565b60008a5111156103d7576103d28a826107b390919063ffffffff16565b610401565b60008867ffffffffffffffff161115610400576103ff89898361082c9092919063ffffffff16565b5b5b60008751111561041f5761041e878261093c90919063ffffffff16565b5b60008651111561043d5761043c868261098490919063ffffffff16565b5b610451610449826109cc565b868686610de8565b6002819055506002549150509998505050505050505050565b600160009054906101000a900473ffffffffffffffffffffffffffffffffffffffff1673ffffffffffffffffffffffffffffffffffffffff163373ffffffffffffffffffffffffffffffffffffffff16146104fa576040517f08c379a00000000000000000000000000000000000000000000000000000000081526004016104f19061200a565b60405180910390fd5b60008060009054906101000a900473ffffffffffffffffffffffffffffffffffffffff169050336000806101000a81548173ffffffffffffffffffffffffffffffffffffffff021916908373ffffffffffffffffffffffffffffffffffffffff1602179055506000600160006101000a81548173ffffffffffffffffffffffffffffffffffffffff021916908373ffffffffffffffffffffffffffffffffffffffff1602179055503373ffffffffffffffffffffffffffffffffffffffff168173ffffffffffffffffffffffffffffffffffffffff167f8be0079c531659141344cd1fd0a4f28419497f9722a3daafe3b4186f6b6457e060405160405180910390a350565b60008060009054906101000a900473ffffffffffffffffffffffffffffffffffffffff16905090565b6000610632610712565b61063e85858585610de8565b6002819055506002549050949350505050565b60025481565b61065f610712565b61066881610ecb565b50565b82600254146106b157826040517fd068bf5b0000000000000000000000000000000000000000000000000000000081526004016106a89190611dfa565b60405180910390fd5b81600390816106c091906121e0565b5080600490816106d091906121e0565b50827f7873807bf6ddc50401cd3d29bbe0decee23fd4d68d273f4b5eb83cded4d2f17260036004604051610705929190612336565b60405180910390a2505050565b60008054906101000a900473ffffffffffffffffffffffffffffffffffffffff1673ffffffffffffffffffffffffffffffffffffffff163373ffffffffffffffffffffffffffffffffffffffff16146107a0576040517f08c379a0000000000000000000000000000000000000000000000000000000008152600401610797906123b9565b60405180910390fd5b565b6107af8260008084610ff7565b5050565b60008151036107ee576040517fe889636f00000000000000000000000000000000000000000000000000000000815260040160405180910390fd5b600182602001906002811115610807576108066123d9565b5b9081600281111561081b5761081a6123d9565b5b815250508082608001819052505050565b60006108396101006110a1565b90506108836040518060400160405280600681526020017f736c6f7449440000000000000000000000000000000000000000000000000000815250826110c890919063ffffffff16565b6108998360ff16826110f190919063ffffffff16565b6108e16040518060400160405280600781526020017f76657273696f6e00000000000000000000000000000000000000000000000000815250826110c890919063ffffffff16565b6108f482826110f190919063ffffffff16565b60028460200190600281111561090d5761090c6123d9565b5b90816002811115610921576109206123d9565b5b81525050806000015160000151846080018190525050505050565b6000815103610977576040517ffe936cb700000000000000000000000000000000000000000000000000000000815260040160405180910390fd5b808260a001819052505050565b60008151036109bf576040517ffe936cb700000000000000000000000000000000000000000000000000000000815260040160405180910390fd5b808260c001819052505050565b606060006109db6101006110a1565b9050610a256040518060400160405280600c81526020017f636f64654c6f636174696f6e0000000000000000000000000000000000000000815250826110c890919063ffffffff16565b610a4e83600001516002811115610a3f57610a3e6123d9565b5b8261110190919063ffffffff16565b610a966040518060400160405280600881526020017f6c616e6775616765000000000000000000000000000000000000000000000000815250826110c890919063ffffffff16565b610abf83604001516000811115610ab057610aaf6123d9565b5b8261110190919063ffffffff16565b610b076040518060400160405280600681526020017f736f757263650000000000000000000000000000000000000000000000000000815250826110c890919063ffffffff16565b610b1e8360600151826110c890919063ffffffff16565b60008360a00151511115610bda57610b746040518060400160405280600481526020017f6172677300000000000000000000000000000000000000000000000000000000815250826110c890919063ffffffff16565b610b7d81611151565b60005b8360a0015151811015610bcf57610bbe8460a001518281518110610ba757610ba6612408565b5b6020026020010151836110c890919063ffffffff16565b80610bc890612466565b9050610b80565b50610bd981611179565b5b60008360800151511115610d1b5760006002811115610bfc57610bfb6123d9565b5b83602001516002811115610c1357610c126123d9565b5b03610c4a576040517fa80d31f700000000000000000000000000000000000000000000000000000000815260040160405180910390fd5b610c926040518060400160405280600f81526020017f736563726574734c6f636174696f6e0000000000000000000000000000000000815250826110c890919063ffffffff16565b610cbb83602001516002811115610cac57610cab6123d9565b5b8261110190919063ffffffff16565b610d036040518060400160405280600781526020017f7365637265747300000000000000000000000000000000000000000000000000815250826110c890919063ffffffff16565b610d1a8360800151826111a190919063ffffffff16565b5b60008360c00151511115610dd757610d716040518060400160405280600981526020017f6279746573417267730000000000000000000000000000000000000000000000815250826110c890919063ffffffff16565b610d7a81611151565b60005b8360c0015151811015610dcc57610dbb8460c001518281518110610da457610da3612408565b5b6020026020010151836111a190919063ffffffff16565b80610dc590612466565b9050610d7d565b50610dd681611179565b5b806000015160000151915050919050565b6000807f000000000000000000000000000000000000000000000000000000000000000073ffffffffffffffffffffffffffffffffffffffff1663461d27628688600188886040518663ffffffff1660e01b8152600401610e4d9594939291906124e9565b6020604051808303816000875af1158015610e6c573d6000803e3d6000fd5b505050506040513d601f19601f82011682018060405250810190610e909190612558565b9050807f1131472297a800fee664d1d89cfa8f7676ff07189ecc53f80bbb5f4969099db860405160405180910390a280915050949350505050565b3373ffffffffffffffffffffffffffffffffffffffff168173ffffffffffffffffffffffffffffffffffffffff1603610f39576040517f08c379a0000000000000000000000000000000000000000000000000000000008152600401610f30906125d1565b60405180910390fd5b80600160006101000a81548173ffffffffffffffffffffffffffffffffffffffff021916908373ffffffffffffffffffffffffffffffffffffffff1602179055508073ffffffffffffffffffffffffffffffffffffffff1660008054906101000a900473ffffffffffffffffffffffffffffffffffffffff1673ffffffffffffffffffffffffffffffffffffffff167fed8889f560326eb138920d842192f0eb3dd22b4f139c87a2c57538e05bae127860405160405180910390a350565b6000815103611032576040517f22ce3edd00000000000000000000000000000000000000000000000000000000815260040160405180910390fd5b828460000190600281111561104a576110496123d9565b5b9081600281111561105e5761105d6123d9565b5b81525050818460400190600081111561107a576110796123d9565b5b9081600081111561108e5761108d6123d9565b5b8152505080846060018190525050505050565b6110a961169e565b6110b78160000151836111ca565b506000816020018181525050919050565b6110d58260038351611243565b6110ec8183600001516113ec90919063ffffffff16565b505050565b6110fd82600083611243565b5050565b61112360026005600660ff16901b17836000015161140890919063ffffffff16565b5061114d82826040516020016111399190612600565b6040516020818303038152906040526111a1565b5050565b61115c816004611472565b60018160200181815161116f919061261b565b9150818152505050565b611184816007611472565b600181602001818151611197919061264f565b9150818152505050565b6111ae8260028351611243565b6111c58183600001516113ec90919063ffffffff16565b505050565b6111d26116be565b60006020836111e191906126b2565b1461120d576020826111f391906126b2565b60206111ff919061264f565b8261120a919061261b565b91505b81836020018181525050604051808452600081528281016020018181101561123457600080fd5b80604052505082905092915050565b60178167ffffffffffffffff161161127e576112788160058460ff16901b60ff1617846000015161140890919063ffffffff16565b506113e7565b60ff8167ffffffffffffffff16116112dc576112b1601860058460ff16901b17846000015161140890919063ffffffff16565b506112d68167ffffffffffffffff16600185600001516114989092919063ffffffff16565b506113e6565b61ffff8167ffffffffffffffff161161133b57611310601960058460ff16901b17846000015161140890919063ffffffff16565b506113358167ffffffffffffffff16600285600001516114989092919063ffffffff16565b506113e5565b63ffffffff8167ffffffffffffffff161161139c57611371601a60058460ff16901b17846000015161140890919063ffffffff16565b506113968167ffffffffffffffff16600485600001516114989092919063ffffffff16565b506113e4565b6113bd601b60058460ff16901b17846000015161140890919063ffffffff16565b506113e28167ffffffffffffffff16600885600001516114989092919063ffffffff16565b505b5b5b5b505050565b6113f46116be565b61140083838451611525565b905092915050565b6114106116be565b600083600001515190506000600182611429919061261b565b90508460200151821061144d5761144c8560028361144791906126e3565b611608565b5b84516020838201018581538151831115611465578282525b5050849250505092915050565b611493601f60058360ff16901b17836000015161140890919063ffffffff16565b505050565b6114a06116be565b60008460000151519050600081846114b8919061261b565b905085602001518111156114dd576114dc866002836114d791906126e3565b611608565b5b60006001856101006114ef9190612858565b6114f9919061264f565b905086518281018783198251161781528151841115611516578382525b50508693505050509392505050565b61152d6116be565b825182111561153b57600080fd5b6000846000015151905060008382611553919061261b565b90508560200151811115611578576115778660028361157291906126e3565b611608565b5b60008087518051856020830101935080851115611593578482525b60208901925050505b602086106115da57805182526020826115b5919061261b565b91506020816115c4919061261b565b90506020866115d3919061264f565b955061159c565b60006001876020036101000a0390508019825116818451168181178552505050879450505050509392505050565b60008260000151905061161b83836111ca565b5061162683826113ec565b50505050565b6040518060e001604052806000600281111561164b5761164a6123d9565b5b815260200160006002811115611664576116636123d9565b5b815260200160008081111561167c5761167b6123d9565b5b8152602001606081526020016060815260200160608152602001606081525090565b60405180604001604052806116b16116be565b8152602001600081525090565b604051806040016040528060608152602001600081525090565b6000604051905090565b600080fd5b600080fd5b6000819050919050565b6116ff816116ec565b811461170a57600080fd5b50565b60008135905061171c816116f6565b92915050565b600080fd5b600080fd5b6000601f19601f8301169050919050565b7f4e487b7100000000000000000000000000000000000000000000000000000000600052604160045260246000fd5b6117758261172c565b810181811067ffffffffffffffff821117156117945761179361173d565b5b80604052505050565b60006117a76116d8565b90506117b3828261176c565b919050565b600067ffffffffffffffff8211156117d3576117d261173d565b5b6117dc8261172c565b9050602081019050919050565b82818337600083830152505050565b600061180b611806846117b8565b61179d565b90508281526020810184848401111561182757611826611727565b5b6118328482856117e9565b509392505050565b600082601f83011261184f5761184e611722565b5b813561185f8482602086016117f8565b91505092915050565b600080600060608486031215611881576118806116e2565b5b600061188f8682870161170d565b935050602084013567ffffffffffffffff8111156118b0576118af6116e7565b5b6118bc8682870161183a565b925050604084013567ffffffffffffffff8111156118dd576118dc6116e7565b5b6118e98682870161183a565b9150509250925092565b600081519050919050565b600082825260208201905092915050565b60005b8381101561192d578082015181840152602081019050611912565b60008484015250505050565b6000611944826118f3565b61194e81856118fe565b935061195e81856020860161190f565b6119678161172c565b840191505092915050565b6000602082019050818103600083015261198c8184611939565b905092915050565b600067ffffffffffffffff8211156119af576119ae61173d565b5b6119b88261172c565b9050602081019050919050565b60006119d86119d384611994565b61179d565b9050828152602081018484840111156119f4576119f3611727565b5b6119ff8482856117e9565b509392505050565b600082601f830112611a1c57611a1b611722565b5b8135611a2c8482602086016119c5565b91505092915050565b600060ff82169050919050565b611a4b81611a35565b8114611a5657600080fd5b50565b600081359050611a6881611a42565b92915050565b600067ffffffffffffffff82169050919050565b611a8b81611a6e565b8114611a9657600080fd5b50565b600081359050611aa881611a82565b92915050565b600067ffffffffffffffff821115611ac957611ac861173d565b5b602082029050602081019050919050565b600080fd5b6000611af2611aed84611aae565b61179d565b90508083825260208201905060208402830185811115611b1557611b14611ada565b5b835b81811015611b5c57803567ffffffffffffffff811115611b3a57611b39611722565b5b808601611b478982611a07565b85526020850194505050602081019050611b17565b5050509392505050565b600082601f830112611b7b57611b7a611722565b5b8135611b8b848260208601611adf565b91505092915050565b600067ffffffffffffffff821115611baf57611bae61173d565b5b602082029050602081019050919050565b6000611bd3611bce84611b94565b61179d565b90508083825260208201905060208402830185811115611bf657611bf5611ada565b5b835b81811015611c3d57803567ffffffffffffffff811115611c1b57611c1a611722565b5b808601611c28898261183a565b85526020850194505050602081019050611bf8565b5050509392505050565b600082601f830112611c5c57611c5b611722565b5b8135611c6c848260208601611bc0565b91505092915050565b600063ffffffff82169050919050565b611c8e81611c75565b8114611c9957600080fd5b50565b600081359050611cab81611c85565b92915050565b60008060008060008060008060006101208a8c031215611cd457611cd36116e2565b5b60008a013567ffffffffffffffff811115611cf257611cf16116e7565b5b611cfe8c828d01611a07565b99505060208a013567ffffffffffffffff811115611d1f57611d1e6116e7565b5b611d2b8c828d0161183a565b9850506040611d3c8c828d01611a59565b9750506060611d4d8c828d01611a99565b96505060808a013567ffffffffffffffff811115611d6e57611d6d6116e7565b5b611d7a8c828d01611b66565b95505060a08a013567ffffffffffffffff811115611d9b57611d9a6116e7565b5b611da78c828d01611c47565b94505060c0611db88c828d01611a99565b93505060e0611dc98c828d01611c9c565b925050610100611ddb8c828d0161170d565b9150509295985092959850929598565b611df4816116ec565b82525050565b6000602082019050611e0f6000830184611deb565b92915050565b600073ffffffffffffffffffffffffffffffffffffffff82169050919050565b6000611e4082611e15565b9050919050565b611e5081611e35565b82525050565b6000602082019050611e6b6000830184611e47565b92915050565b60008060008060808587031215611e8b57611e8a6116e2565b5b600085013567ffffffffffffffff811115611ea957611ea86116e7565b5b611eb58782880161183a565b9450506020611ec687828801611a99565b9350506040611ed787828801611c9c565b9250506060611ee88782880161170d565b91505092959194509250565b611efd81611e35565b8114611f0857600080fd5b50565b600081359050611f1a81611ef4565b92915050565b600060208284031215611f3657611f356116e2565b5b6000611f4484828501611f0b565b91505092915050565b7f4e487b7100000000000000000000000000000000000000000000000000000000600052602260045260246000fd5b60006002820490506001821680611f9457607f821691505b602082108103611fa757611fa6611f4d565b5b50919050565b600082825260208201905092915050565b7f4d7573742062652070726f706f736564206f776e657200000000000000000000600082015250565b6000611ff4601683611fad565b9150611fff82611fbe565b602082019050919050565b6000602082019050818103600083015261202381611fe7565b9050919050565b60008190508160005260206000209050919050565b60006020601f8301049050919050565b600082821b905092915050565b60006008830261208c7fffffffffffffffffffffffffffffffffffffffffffffffffffffffffffffffff8261204f565b612096868361204f565b95508019841693508086168417925050509392505050565b6000819050919050565b6000819050919050565b60006120dd6120d86120d3846120ae565b6120b8565b6120ae565b9050919050565b6000819050919050565b6120f7836120c2565b61210b612103826120e4565b84845461205c565b825550505050565b600090565b612120612113565b61212b8184846120ee565b505050565b5b8181101561214f57612144600082612118565b600181019050612131565b5050565b601f821115612194576121658161202a565b61216e8461203f565b8101602085101561217d578190505b6121916121898561203f565b830182612130565b50505b505050565b600082821c905092915050565b60006121b760001984600802612199565b1980831691505092915050565b60006121d083836121a6565b9150826002028217905092915050565b6121e9826118f3565b67ffffffffffffffff8111156122025761220161173d565b5b61220c8254611f7c565b612217828285612153565b600060209050601f83116001811461224a5760008415612238578287015190505b61224285826121c4565b8655506122aa565b601f1984166122588661202a565b60005b828110156122805784890151825560018201915060208501945060208101905061225b565b8683101561229d5784890151612299601f8916826121a6565b8355505b6001600288020188555050505b505050505050565b600081546122bf81611f7c565b6122c981866118fe565b945060018216600081146122e457600181146122fa5761232d565b60ff19831686528115156020028601935061232d565b6123038561202a565b60005b8381101561232557815481890152600182019150602081019050612306565b808801955050505b50505092915050565b6000604082019050818103600083015261235081856122b2565b9050818103602083015261236481846122b2565b90509392505050565b7f4f6e6c792063616c6c61626c65206279206f776e657200000000000000000000600082015250565b60006123a3601683611fad565b91506123ae8261236d565b602082019050919050565b600060208201905081810360008301526123d281612396565b9050919050565b7f4e487b7100000000000000000000000000000000000000000000000000000000600052602160045260246000fd5b7f4e487b7100000000000000000000000000000000000000000000000000000000600052603260045260246000fd5b7f4e487b7100000000000000000000000000000000000000000000000000000000600052601160045260246000fd5b6000612471826120ae565b91507fffffffffffffffffffffffffffffffffffffffffffffffffffffffffffffffff82036124a3576124a2612437565b5b600182019050919050565b6124b781611a6e565b82525050565b600061ffff82169050919050565b6124d4816124bd565b82525050565b6124e381611c75565b82525050565b600060a0820190506124fe60008301886124ae565b81810360208301526125108187611939565b905061251f60408301866124cb565b61252c60608301856124da565b6125396080830184611deb565b9695505050505050565b600081519050612552816116f6565b92915050565b60006020828403121561256e5761256d6116e2565b5b600061257c84828501612543565b91505092915050565b7f43616e6e6f74207472616e7366657220746f2073656c66000000000000000000600082015250565b60006125bb601783611fad565b91506125c682612585565b602082019050919050565b600060208201905081810360008301526125ea816125ae565b9050919050565b6125fa816120ae565b82525050565b600060208201905061261560008301846125f1565b92915050565b6000612626826120ae565b9150612631836120ae565b925082820190508082111561264957612648612437565b5b92915050565b600061265a826120ae565b9150612665836120ae565b925082820390508181111561267d5761267c612437565b5b92915050565b7f4e487b7100000000000000000000000000000000000000000000000000000000600052601260045260246000fd5b60006126bd826120ae565b91506126c8836120ae565b9250826126d8576126d7612683565b5b828206905092915050565b60006126ee826120ae565b91506126f9836120ae565b9250828202612707816120ae565b9150828204841483151761271e5761271d612437565b5b5092915050565b60008160011c9050919050565b6000808291508390505b600185111561277c5780860481111561275857612757612437565b5b60018516156127675780820291505b808102905061277585612725565b945061273c565b94509492505050565b6000826127955760019050612851565b816127a35760009050612851565b81600181146127b957600281146127c3576127f2565b6001915050612851565b60ff8411156127d5576127d4612437565b5b8360020a9150848211156127ec576127eb612437565b5b50612851565b5060208310610133831016604e8410600b84101617156128275782820a90508381111561282257612821612437565b5b612851565b6128348484846001612732565b9250905081840481111561284b5761284a612437565b5b81810290505b9392505050565b6000612863826120ae565b915061286e836120ae565b925061289b7fffffffffffffffffffffffffffffffffffffffffffffffffffffffffffffffff8484612785565b90509291505056fea2646970667358221220612ae72375af7f81888af9bc925e291fee6e7466b83c5b40c3076794783163ed64736f6c63430008130033",
					"opcodes": "PUSH1 0xA0 PUSH1 0x40 MSTORE CALLVALUE DUP1 ISZERO PUSH3 0x11 JUMPI PUSH1 0x0 DUP1 REVERT JUMPDEST POP PUSH1 0x40 MLOAD PUSH3 0x2D30 CODESIZE SUB DUP1 PUSH3 0x2D30 DUP4 CODECOPY DUP2 DUP2 ADD PUSH1 0x40 MSTORE DUP2 ADD SWAP1 PUSH3 0x37 SWAP2 SWAP1 PUSH3 0x30D JUMP JUMPDEST CALLER DUP1 PUSH1 0x0 DUP4 DUP1 PUSH20 0xFFFFFFFFFFFFFFFFFFFFFFFFFFFFFFFFFFFFFFFF AND PUSH1 0x80 DUP2 PUSH20 0xFFFFFFFFFFFFFFFFFFFFFFFFFFFFFFFFFFFFFFFF AND DUP2 MSTORE POP POP POP PUSH1 0x0 PUSH20 0xFFFFFFFFFFFFFFFFFFFFFFFFFFFFFFFFFFFFFFFF AND DUP3 PUSH20 0xFFFFFFFFFFFFFFFFFFFFFFFFFFFFFFFFFFFFFFFF AND SUB PUSH3 0xE3 JUMPI PUSH1 0x40 MLOAD PUSH32 0x8C379A000000000000000000000000000000000000000000000000000000000 DUP2 MSTORE PUSH1 0x4 ADD PUSH3 0xDA SWAP1 PUSH3 0x3A0 JUMP JUMPDEST PUSH1 0x40 MLOAD DUP1 SWAP2 SUB SWAP1 REVERT JUMPDEST DUP2 PUSH1 0x0 DUP1 PUSH2 0x100 EXP DUP2 SLOAD DUP2 PUSH20 0xFFFFFFFFFFFFFFFFFFFFFFFFFFFFFFFFFFFFFFFF MUL NOT AND SWAP1 DUP4 PUSH20 0xFFFFFFFFFFFFFFFFFFFFFFFFFFFFFFFFFFFFFFFF AND MUL OR SWAP1 SSTORE POP PUSH1 0x0 PUSH20 0xFFFFFFFFFFFFFFFFFFFFFFFFFFFFFFFFFFFFFFFF AND DUP2 PUSH20 0xFFFFFFFFFFFFFFFFFFFFFFFFFFFFFFFFFFFFFFFF AND EQ PUSH3 0x16A JUMPI PUSH3 0x169 DUP2 PUSH3 0x174 PUSH1 0x20 SHL PUSH1 0x20 SHR JUMP JUMPDEST JUMPDEST POP POP POP POP PUSH3 0x434 JUMP JUMPDEST CALLER PUSH20 0xFFFFFFFFFFFFFFFFFFFFFFFFFFFFFFFFFFFFFFFF AND DUP2 PUSH20 0xFFFFFFFFFFFFFFFFFFFFFFFFFFFFFFFFFFFFFFFF AND SUB PUSH3 0x1E5 JUMPI PUSH1 0x40 MLOAD PUSH32 0x8C379A000000000000000000000000000000000000000000000000000000000 DUP2 MSTORE PUSH1 0x4 ADD PUSH3 0x1DC SWAP1 PUSH3 0x412 JUMP JUMPDEST PUSH1 0x40 MLOAD DUP1 SWAP2 SUB SWAP1 REVERT JUMPDEST DUP1 PUSH1 0x1 PUSH1 0x0 PUSH2 0x100 EXP DUP2 SLOAD DUP2 PUSH20 0xFFFFFFFFFFFFFFFFFFFFFFFFFFFFFFFFFFFFFFFF MUL NOT AND SWAP1 DUP4 PUSH20 0xFFFFFFFFFFFFFFFFFFFFFFFFFFFFFFFFFFFFFFFF AND MUL OR SWAP1 SSTORE POP DUP1 PUSH20 0xFFFFFFFFFFFFFFFFFFFFFFFFFFFFFFFFFFFFFFFF AND PUSH1 0x0 DUP1 SLOAD SWAP1 PUSH2 0x100 EXP SWAP1 DIV PUSH20 0xFFFFFFFFFFFFFFFFFFFFFFFFFFFFFFFFFFFFFFFF AND PUSH20 0xFFFFFFFFFFFFFFFFFFFFFFFFFFFFFFFFFFFFFFFF AND PUSH32 0xED8889F560326EB138920D842192F0EB3DD22B4F139C87A2C57538E05BAE1278 PUSH1 0x40 MLOAD PUSH1 0x40 MLOAD DUP1 SWAP2 SUB SWAP1 LOG3 POP JUMP JUMPDEST PUSH1 0x0 DUP1 REVERT JUMPDEST PUSH1 0x0 PUSH20 0xFFFFFFFFFFFFFFFFFFFFFFFFFFFFFFFFFFFFFFFF DUP3 AND SWAP1 POP SWAP2 SWAP1 POP JUMP JUMPDEST PUSH1 0x0 PUSH3 0x2D5 DUP3 PUSH3 0x2A8 JUMP JUMPDEST SWAP1 POP SWAP2 SWAP1 POP JUMP JUMPDEST PUSH3 0x2E7 DUP2 PUSH3 0x2C8 JUMP JUMPDEST DUP2 EQ PUSH3 0x2F3 JUMPI PUSH1 0x0 DUP1 REVERT JUMPDEST POP JUMP JUMPDEST PUSH1 0x0 DUP2 MLOAD SWAP1 POP PUSH3 0x307 DUP2 PUSH3 0x2DC JUMP JUMPDEST SWAP3 SWAP2 POP POP JUMP JUMPDEST PUSH1 0x0 PUSH1 0x20 DUP3 DUP5 SUB SLT ISZERO PUSH3 0x326 JUMPI PUSH3 0x325 PUSH3 0x2A3 JUMP JUMPDEST JUMPDEST PUSH1 0x0 PUSH3 0x336 DUP5 DUP3 DUP6 ADD PUSH3 0x2F6 JUMP JUMPDEST SWAP2 POP POP SWAP3 SWAP2 POP POP JUMP JUMPDEST PUSH1 0x0 DUP3 DUP3 MSTORE PUSH1 0x20 DUP3 ADD SWAP1 POP SWAP3 SWAP2 POP POP JUMP JUMPDEST PUSH32 0x43616E6E6F7420736574206F776E657220746F207A65726F0000000000000000 PUSH1 0x0 DUP3 ADD MSTORE POP JUMP JUMPDEST PUSH1 0x0 PUSH3 0x388 PUSH1 0x18 DUP4 PUSH3 0x33F JUMP JUMPDEST SWAP2 POP PUSH3 0x395 DUP3 PUSH3 0x350 JUMP JUMPDEST PUSH1 0x20 DUP3 ADD SWAP1 POP SWAP2 SWAP1 POP JUMP JUMPDEST PUSH1 0x0 PUSH1 0x20 DUP3 ADD SWAP1 POP DUP2 DUP2 SUB PUSH1 0x0 DUP4 ADD MSTORE PUSH3 0x3BB DUP2 PUSH3 0x379 JUMP JUMPDEST SWAP1 POP SWAP2 SWAP1 POP JUMP JUMPDEST PUSH32 0x43616E6E6F74207472616E7366657220746F2073656C66000000000000000000 PUSH1 0x0 DUP3 ADD MSTORE POP JUMP JUMPDEST PUSH1 0x0 PUSH3 0x3FA PUSH1 0x17 DUP4 PUSH3 0x33F JUMP JUMPDEST SWAP2 POP PUSH3 0x407 DUP3 PUSH3 0x3C2 JUMP JUMPDEST PUSH1 0x20 DUP3 ADD SWAP1 POP SWAP2 SWAP1 POP JUMP JUMPDEST PUSH1 0x0 PUSH1 0x20 DUP3 ADD SWAP1 POP DUP2 DUP2 SUB PUSH1 0x0 DUP4 ADD MSTORE PUSH3 0x42D DUP2 PUSH3 0x3EB JUMP JUMPDEST SWAP1 POP SWAP2 SWAP1 POP JUMP JUMPDEST PUSH1 0x80 MLOAD PUSH2 0x28D9 PUSH3 0x457 PUSH1 0x0 CODECOPY PUSH1 0x0 DUP2 DUP2 PUSH2 0x1B4 ADD MSTORE PUSH2 0xDED ADD MSTORE PUSH2 0x28D9 PUSH1 0x0 RETURN INVALID PUSH1 0x80 PUSH1 0x40 MSTORE CALLVALUE DUP1 ISZERO PUSH2 0x10 JUMPI PUSH1 0x0 DUP1 REVERT JUMPDEST POP PUSH1 0x4 CALLDATASIZE LT PUSH2 0x93 JUMPI PUSH1 0x0 CALLDATALOAD PUSH1 0xE0 SHR DUP1 PUSH4 0x79BA5097 GT PUSH2 0x66 JUMPI DUP1 PUSH4 0x79BA5097 EQ PUSH2 0x120 JUMPI DUP1 PUSH4 0x8DA5CB5B EQ PUSH2 0x12A JUMPI DUP1 PUSH4 0x9681096F EQ PUSH2 0x148 JUMPI DUP1 PUSH4 0xB1E21749 EQ PUSH2 0x178 JUMPI DUP1 PUSH4 0xF2FDE38B EQ PUSH2 0x196 JUMPI PUSH2 0x93 JUMP JUMPDEST DUP1 PUSH4 0xCA76175 EQ PUSH2 0x98 JUMPI DUP1 PUSH4 0x3944EA3A EQ PUSH2 0xB4 JUMPI DUP1 PUSH4 0x4B0795A8 EQ PUSH2 0xD2 JUMPI DUP1 PUSH4 0x52A81EEB EQ PUSH2 0xF0 JUMPI JUMPDEST PUSH1 0x0 DUP1 REVERT JUMPDEST PUSH2 0xB2 PUSH1 0x4 DUP1 CALLDATASIZE SUB DUP2 ADD SWAP1 PUSH2 0xAD SWAP2 SWAP1 PUSH2 0x1868 JUMP JUMPDEST PUSH2 0x1B2 JUMP JUMPDEST STOP JUMPDEST PUSH2 0xBC PUSH2 0x274 JUMP JUMPDEST PUSH1 0x40 MLOAD PUSH2 0xC9 SWAP2 SWAP1 PUSH2 0x1972 JUMP JUMPDEST PUSH1 0x40 MLOAD DUP1 SWAP2 SUB SWAP1 RETURN JUMPDEST PUSH2 0xDA PUSH2 0x302 JUMP JUMPDEST PUSH1 0x40 MLOAD PUSH2 0xE7 SWAP2 SWAP1 PUSH2 0x1972 JUMP JUMPDEST PUSH1 0x40 MLOAD DUP1 SWAP2 SUB SWAP1 RETURN JUMPDEST PUSH2 0x10A PUSH1 0x4 DUP1 CALLDATASIZE SUB DUP2 ADD SWAP1 PUSH2 0x105 SWAP2 SWAP1 PUSH2 0x1CB1 JUMP JUMPDEST PUSH2 0x390 JUMP JUMPDEST PUSH1 0x40 MLOAD PUSH2 0x117 SWAP2 SWAP1 PUSH2 0x1DFA JUMP JUMPDEST PUSH1 0x40 MLOAD DUP1 SWAP2 SUB SWAP1 RETURN JUMPDEST PUSH2 0x128 PUSH2 0x46A JUMP JUMPDEST STOP JUMPDEST PUSH2 0x132 PUSH2 0x5FF JUMP JUMPDEST PUSH1 0x40 MLOAD PUSH2 0x13F SWAP2 SWAP1 PUSH2 0x1E56 JUMP JUMPDEST PUSH1 0x40 MLOAD DUP1 SWAP2 SUB SWAP1 RETURN JUMPDEST PUSH2 0x162 PUSH1 0x4 DUP1 CALLDATASIZE SUB DUP2 ADD SWAP1 PUSH2 0x15D SWAP2 SWAP1 PUSH2 0x1E71 JUMP JUMPDEST PUSH2 0x628 JUMP JUMPDEST PUSH1 0x40 MLOAD PUSH2 0x16F SWAP2 SWAP1 PUSH2 0x1DFA JUMP JUMPDEST PUSH1 0x40 MLOAD DUP1 SWAP2 SUB SWAP1 RETURN JUMPDEST PUSH2 0x180 PUSH2 0x651 JUMP JUMPDEST PUSH1 0x40 MLOAD PUSH2 0x18D SWAP2 SWAP1 PUSH2 0x1DFA JUMP JUMPDEST PUSH1 0x40 MLOAD DUP1 SWAP2 SUB SWAP1 RETURN JUMPDEST PUSH2 0x1B0 PUSH1 0x4 DUP1 CALLDATASIZE SUB DUP2 ADD SWAP1 PUSH2 0x1AB SWAP2 SWAP1 PUSH2 0x1F20 JUMP JUMPDEST PUSH2 0x657 JUMP JUMPDEST STOP JUMPDEST PUSH32 0x0 PUSH20 0xFFFFFFFFFFFFFFFFFFFFFFFFFFFFFFFFFFFFFFFF AND CALLER PUSH20 0xFFFFFFFFFFFFFFFFFFFFFFFFFFFFFFFFFFFFFFFF AND EQ PUSH2 0x237 JUMPI PUSH1 0x40 MLOAD PUSH32 0xC6829F8300000000000000000000000000000000000000000000000000000000 DUP2 MSTORE PUSH1 0x4 ADD PUSH1 0x40 MLOAD DUP1 SWAP2 SUB SWAP1 REVERT JUMPDEST PUSH2 0x242 DUP4 DUP4 DUP4 PUSH2 0x66B JUMP JUMPDEST DUP3 PUSH32 0x85E1543BF2F84FE80C6BADBCE3648C8539AD1DF4D2B3D822938CA0538BE727E6 PUSH1 0x40 MLOAD PUSH1 0x40 MLOAD DUP1 SWAP2 SUB SWAP1 LOG2 POP POP POP JUMP JUMPDEST PUSH1 0x3 DUP1 SLOAD PUSH2 0x281 SWAP1 PUSH2 0x1F7C JUMP JUMPDEST DUP1 PUSH1 0x1F ADD PUSH1 0x20 DUP1 SWAP2 DIV MUL PUSH1 0x20 ADD PUSH1 0x40 MLOAD SWAP1 DUP2 ADD PUSH1 0x40 MSTORE DUP1 SWAP3 SWAP2 SWAP1 DUP2 DUP2 MSTORE PUSH1 0x20 ADD DUP3 DUP1 SLOAD PUSH2 0x2AD SWAP1 PUSH2 0x1F7C JUMP JUMPDEST DUP1 ISZERO PUSH2 0x2FA JUMPI DUP1 PUSH1 0x1F LT PUSH2 0x2CF JUMPI PUSH2 0x100 DUP1 DUP4 SLOAD DIV MUL DUP4 MSTORE SWAP2 PUSH1 0x20 ADD SWAP2 PUSH2 0x2FA JUMP JUMPDEST DUP3 ADD SWAP2 SWAP1 PUSH1 0x0 MSTORE PUSH1 0x20 PUSH1 0x0 KECCAK256 SWAP1 JUMPDEST DUP2 SLOAD DUP2 MSTORE SWAP1 PUSH1 0x1 ADD SWAP1 PUSH1 0x20 ADD DUP1 DUP4 GT PUSH2 0x2DD JUMPI DUP3 SWAP1 SUB PUSH1 0x1F AND DUP3 ADD SWAP2 JUMPDEST POP POP POP POP POP DUP2 JUMP JUMPDEST PUSH1 0x4 DUP1 SLOAD PUSH2 0x30F SWAP1 PUSH2 0x1F7C JUMP JUMPDEST DUP1 PUSH1 0x1F ADD PUSH1 0x20 DUP1 SWAP2 DIV MUL PUSH1 0x20 ADD PUSH1 0x40 MLOAD SWAP1 DUP2 ADD PUSH1 0x40 MSTORE DUP1 SWAP3 SWAP2 SWAP1 DUP2 DUP2 MSTORE PUSH1 0x20 ADD DUP3 DUP1 SLOAD PUSH2 0x33B SWAP1 PUSH2 0x1F7C JUMP JUMPDEST DUP1 ISZERO PUSH2 0x388 JUMPI DUP1 PUSH1 0x1F LT PUSH2 0x35D JUMPI PUSH2 0x100 DUP1 DUP4 SLOAD DIV MUL DUP4 MSTORE SWAP2 PUSH1 0x20 ADD SWAP2 PUSH2 0x388 JUMP JUMPDEST DUP3 ADD SWAP2 SWAP1 PUSH1 0x0 MSTORE PUSH1 0x20 PUSH1 0x0 KECCAK256 SWAP1 JUMPDEST DUP2 SLOAD DUP2 MSTORE SWAP1 PUSH1 0x1 ADD SWAP1 PUSH1 0x20 ADD DUP1 DUP4 GT PUSH2 0x36B JUMPI DUP3 SWAP1 SUB PUSH1 0x1F AND DUP3 ADD SWAP2 JUMPDEST POP POP POP POP POP DUP2 JUMP JUMPDEST PUSH1 0x0 PUSH2 0x39A PUSH2 0x712 JUMP JUMPDEST PUSH2 0x3A2 PUSH2 0x162C JUMP JUMPDEST PUSH2 0x3B5 DUP12 DUP3 PUSH2 0x7A2 SWAP1 SWAP2 SWAP1 PUSH4 0xFFFFFFFF AND JUMP JUMPDEST PUSH1 0x0 DUP11 MLOAD GT ISZERO PUSH2 0x3D7 JUMPI PUSH2 0x3D2 DUP11 DUP3 PUSH2 0x7B3 SWAP1 SWAP2 SWAP1 PUSH4 0xFFFFFFFF AND JUMP JUMPDEST PUSH2 0x401 JUMP JUMPDEST PUSH1 0x0 DUP9 PUSH8 0xFFFFFFFFFFFFFFFF AND GT ISZERO PUSH2 0x400 JUMPI PUSH2 0x3FF DUP10 DUP10 DUP4 PUSH2 0x82C SWAP1 SWAP3 SWAP2 SWAP1 PUSH4 0xFFFFFFFF AND JUMP JUMPDEST JUMPDEST JUMPDEST PUSH1 0x0 DUP8 MLOAD GT ISZERO PUSH2 0x41F JUMPI PUSH2 0x41E DUP8 DUP3 PUSH2 0x93C SWAP1 SWAP2 SWAP1 PUSH4 0xFFFFFFFF AND JUMP JUMPDEST JUMPDEST PUSH1 0x0 DUP7 MLOAD GT ISZERO PUSH2 0x43D JUMPI PUSH2 0x43C DUP7 DUP3 PUSH2 0x984 SWAP1 SWAP2 SWAP1 PUSH4 0xFFFFFFFF AND JUMP JUMPDEST JUMPDEST PUSH2 0x451 PUSH2 0x449 DUP3 PUSH2 0x9CC JUMP JUMPDEST DUP7 DUP7 DUP7 PUSH2 0xDE8 JUMP JUMPDEST PUSH1 0x2 DUP2 SWAP1 SSTORE POP PUSH1 0x2 SLOAD SWAP2 POP POP SWAP10 SWAP9 POP POP POP POP POP POP POP POP POP JUMP JUMPDEST PUSH1 0x1 PUSH1 0x0 SWAP1 SLOAD SWAP1 PUSH2 0x100 EXP SWAP1 DIV PUSH20 0xFFFFFFFFFFFFFFFFFFFFFFFFFFFFFFFFFFFFFFFF AND PUSH20 0xFFFFFFFFFFFFFFFFFFFFFFFFFFFFFFFFFFFFFFFF AND CALLER PUSH20 0xFFFFFFFFFFFFFFFFFFFFFFFFFFFFFFFFFFFFFFFF AND EQ PUSH2 0x4FA JUMPI PUSH1 0x40 MLOAD PUSH32 0x8C379A000000000000000000000000000000000000000000000000000000000 DUP2 MSTORE PUSH1 0x4 ADD PUSH2 0x4F1 SWAP1 PUSH2 0x200A JUMP JUMPDEST PUSH1 0x40 MLOAD DUP1 SWAP2 SUB SWAP1 REVERT JUMPDEST PUSH1 0x0 DUP1 PUSH1 0x0 SWAP1 SLOAD SWAP1 PUSH2 0x100 EXP SWAP1 DIV PUSH20 0xFFFFFFFFFFFFFFFFFFFFFFFFFFFFFFFFFFFFFFFF AND SWAP1 POP CALLER PUSH1 0x0 DUP1 PUSH2 0x100 EXP DUP2 SLOAD DUP2 PUSH20 0xFFFFFFFFFFFFFFFFFFFFFFFFFFFFFFFFFFFFFFFF MUL NOT AND SWAP1 DUP4 PUSH20 0xFFFFFFFFFFFFFFFFFFFFFFFFFFFFFFFFFFFFFFFF AND MUL OR SWAP1 SSTORE POP PUSH1 0x0 PUSH1 0x1 PUSH1 0x0 PUSH2 0x100 EXP DUP2 SLOAD DUP2 PUSH20 0xFFFFFFFFFFFFFFFFFFFFFFFFFFFFFFFFFFFFFFFF MUL NOT AND SWAP1 DUP4 PUSH20 0xFFFFFFFFFFFFFFFFFFFFFFFFFFFFFFFFFFFFFFFF AND MUL OR SWAP1 SSTORE POP CALLER PUSH20 0xFFFFFFFFFFFFFFFFFFFFFFFFFFFFFFFFFFFFFFFF AND DUP2 PUSH20 0xFFFFFFFFFFFFFFFFFFFFFFFFFFFFFFFFFFFFFFFF AND PUSH32 0x8BE0079C531659141344CD1FD0A4F28419497F9722A3DAAFE3B4186F6B6457E0 PUSH1 0x40 MLOAD PUSH1 0x40 MLOAD DUP1 SWAP2 SUB SWAP1 LOG3 POP JUMP JUMPDEST PUSH1 0x0 DUP1 PUSH1 0x0 SWAP1 SLOAD SWAP1 PUSH2 0x100 EXP SWAP1 DIV PUSH20 0xFFFFFFFFFFFFFFFFFFFFFFFFFFFFFFFFFFFFFFFF AND SWAP1 POP SWAP1 JUMP JUMPDEST PUSH1 0x0 PUSH2 0x632 PUSH2 0x712 JUMP JUMPDEST PUSH2 0x63E DUP6 DUP6 DUP6 DUP6 PUSH2 0xDE8 JUMP JUMPDEST PUSH1 0x2 DUP2 SWAP1 SSTORE POP PUSH1 0x2 SLOAD SWAP1 POP SWAP5 SWAP4 POP POP POP POP JUMP JUMPDEST PUSH1 0x2 SLOAD DUP2 JUMP JUMPDEST PUSH2 0x65F PUSH2 0x712 JUMP JUMPDEST PUSH2 0x668 DUP2 PUSH2 0xECB JUMP JUMPDEST POP JUMP JUMPDEST DUP3 PUSH1 0x2 SLOAD EQ PUSH2 0x6B1 JUMPI DUP3 PUSH1 0x40 MLOAD PUSH32 0xD068BF5B00000000000000000000000000000000000000000000000000000000 DUP2 MSTORE PUSH1 0x4 ADD PUSH2 0x6A8 SWAP2 SWAP1 PUSH2 0x1DFA JUMP JUMPDEST PUSH1 0x40 MLOAD DUP1 SWAP2 SUB SWAP1 REVERT JUMPDEST DUP2 PUSH1 0x3 SWAP1 DUP2 PUSH2 0x6C0 SWAP2 SWAP1 PUSH2 0x21E0 JUMP JUMPDEST POP DUP1 PUSH1 0x4 SWAP1 DUP2 PUSH2 0x6D0 SWAP2 SWAP1 PUSH2 0x21E0 JUMP JUMPDEST POP DUP3 PUSH32 0x7873807BF6DDC50401CD3D29BBE0DECEE23FD4D68D273F4B5EB83CDED4D2F172 PUSH1 0x3 PUSH1 0x4 PUSH1 0x40 MLOAD PUSH2 0x705 SWAP3 SWAP2 SWAP1 PUSH2 0x2336 JUMP JUMPDEST PUSH1 0x40 MLOAD DUP1 SWAP2 SUB SWAP1 LOG2 POP POP POP JUMP JUMPDEST PUSH1 0x0 DUP1 SLOAD SWAP1 PUSH2 0x100 EXP SWAP1 DIV PUSH20 0xFFFFFFFFFFFFFFFFFFFFFFFFFFFFFFFFFFFFFFFF AND PUSH20 0xFFFFFFFFFFFFFFFFFFFFFFFFFFFFFFFFFFFFFFFF AND CALLER PUSH20 0xFFFFFFFFFFFFFFFFFFFFFFFFFFFFFFFFFFFFFFFF AND EQ PUSH2 0x7A0 JUMPI PUSH1 0x40 MLOAD PUSH32 0x8C379A000000000000000000000000000000000000000000000000000000000 DUP2 MSTORE PUSH1 0x4 ADD PUSH2 0x797 SWAP1 PUSH2 0x23B9 JUMP JUMPDEST PUSH1 0x40 MLOAD DUP1 SWAP2 SUB SWAP1 REVERT JUMPDEST JUMP JUMPDEST PUSH2 0x7AF DUP3 PUSH1 0x0 DUP1 DUP5 PUSH2 0xFF7 JUMP JUMPDEST POP POP JUMP JUMPDEST PUSH1 0x0 DUP2 MLOAD SUB PUSH2 0x7EE JUMPI PUSH1 0x40 MLOAD PUSH32 0xE889636F00000000000000000000000000000000000000000000000000000000 DUP2 MSTORE PUSH1 0x4 ADD PUSH1 0x40 MLOAD DUP1 SWAP2 SUB SWAP1 REVERT JUMPDEST PUSH1 0x1 DUP3 PUSH1 0x20 ADD SWAP1 PUSH1 0x2 DUP2 GT ISZERO PUSH2 0x807 JUMPI PUSH2 0x806 PUSH2 0x23D9 JUMP JUMPDEST JUMPDEST SWAP1 DUP2 PUSH1 0x2 DUP2 GT ISZERO PUSH2 0x81B JUMPI PUSH2 0x81A PUSH2 0x23D9 JUMP JUMPDEST JUMPDEST DUP2 MSTORE POP POP DUP1 DUP3 PUSH1 0x80 ADD DUP2 SWAP1 MSTORE POP POP POP JUMP JUMPDEST PUSH1 0x0 PUSH2 0x839 PUSH2 0x100 PUSH2 0x10A1 JUMP JUMPDEST SWAP1 POP PUSH2 0x883 PUSH1 0x40 MLOAD DUP1 PUSH1 0x40 ADD PUSH1 0x40 MSTORE DUP1 PUSH1 0x6 DUP2 MSTORE PUSH1 0x20 ADD PUSH32 0x736C6F7449440000000000000000000000000000000000000000000000000000 DUP2 MSTORE POP DUP3 PUSH2 0x10C8 SWAP1 SWAP2 SWAP1 PUSH4 0xFFFFFFFF AND JUMP JUMPDEST PUSH2 0x899 DUP4 PUSH1 0xFF AND DUP3 PUSH2 0x10F1 SWAP1 SWAP2 SWAP1 PUSH4 0xFFFFFFFF AND JUMP JUMPDEST PUSH2 0x8E1 PUSH1 0x40 MLOAD DUP1 PUSH1 0x40 ADD PUSH1 0x40 MSTORE DUP1 PUSH1 0x7 DUP2 MSTORE PUSH1 0x20 ADD PUSH32 0x76657273696F6E00000000000000000000000000000000000000000000000000 DUP2 MSTORE POP DUP3 PUSH2 0x10C8 SWAP1 SWAP2 SWAP1 PUSH4 0xFFFFFFFF AND JUMP JUMPDEST PUSH2 0x8F4 DUP3 DUP3 PUSH2 0x10F1 SWAP1 SWAP2 SWAP1 PUSH4 0xFFFFFFFF AND JUMP JUMPDEST PUSH1 0x2 DUP5 PUSH1 0x20 ADD SWAP1 PUSH1 0x2 DUP2 GT ISZERO PUSH2 0x90D JUMPI PUSH2 0x90C PUSH2 0x23D9 JUMP JUMPDEST JUMPDEST SWAP1 DUP2 PUSH1 0x2 DUP2 GT ISZERO PUSH2 0x921 JUMPI PUSH2 0x920 PUSH2 0x23D9 JUMP JUMPDEST JUMPDEST DUP2 MSTORE POP POP DUP1 PUSH1 0x0 ADD MLOAD PUSH1 0x0 ADD MLOAD DUP5 PUSH1 0x80 ADD DUP2 SWAP1 MSTORE POP POP POP POP POP JUMP JUMPDEST PUSH1 0x0 DUP2 MLOAD SUB PUSH2 0x977 JUMPI PUSH1 0x40 MLOAD PUSH32 0xFE936CB700000000000000000000000000000000000000000000000000000000 DUP2 MSTORE PUSH1 0x4 ADD PUSH1 0x40 MLOAD DUP1 SWAP2 SUB SWAP1 REVERT JUMPDEST DUP1 DUP3 PUSH1 0xA0 ADD DUP2 SWAP1 MSTORE POP POP POP JUMP JUMPDEST PUSH1 0x0 DUP2 MLOAD SUB PUSH2 0x9BF JUMPI PUSH1 0x40 MLOAD PUSH32 0xFE936CB700000000000000000000000000000000000000000000000000000000 DUP2 MSTORE PUSH1 0x4 ADD PUSH1 0x40 MLOAD DUP1 SWAP2 SUB SWAP1 REVERT JUMPDEST DUP1 DUP3 PUSH1 0xC0 ADD DUP2 SWAP1 MSTORE POP POP POP JUMP JUMPDEST PUSH1 0x60 PUSH1 0x0 PUSH2 0x9DB PUSH2 0x100 PUSH2 0x10A1 JUMP JUMPDEST SWAP1 POP PUSH2 0xA25 PUSH1 0x40 MLOAD DUP1 PUSH1 0x40 ADD PUSH1 0x40 MSTORE DUP1 PUSH1 0xC DUP2 MSTORE PUSH1 0x20 ADD PUSH32 0x636F64654C6F636174696F6E0000000000000000000000000000000000000000 DUP2 MSTORE POP DUP3 PUSH2 0x10C8 SWAP1 SWAP2 SWAP1 PUSH4 0xFFFFFFFF AND JUMP JUMPDEST PUSH2 0xA4E DUP4 PUSH1 0x0 ADD MLOAD PUSH1 0x2 DUP2 GT ISZERO PUSH2 0xA3F JUMPI PUSH2 0xA3E PUSH2 0x23D9 JUMP JUMPDEST JUMPDEST DUP3 PUSH2 0x1101 SWAP1 SWAP2 SWAP1 PUSH4 0xFFFFFFFF AND JUMP JUMPDEST PUSH2 0xA96 PUSH1 0x40 MLOAD DUP1 PUSH1 0x40 ADD PUSH1 0x40 MSTORE DUP1 PUSH1 0x8 DUP2 MSTORE PUSH1 0x20 ADD PUSH32 0x6C616E6775616765000000000000000000000000000000000000000000000000 DUP2 MSTORE POP DUP3 PUSH2 0x10C8 SWAP1 SWAP2 SWAP1 PUSH4 0xFFFFFFFF AND JUMP JUMPDEST PUSH2 0xABF DUP4 PUSH1 0x40 ADD MLOAD PUSH1 0x0 DUP2 GT ISZERO PUSH2 0xAB0 JUMPI PUSH2 0xAAF PUSH2 0x23D9 JUMP JUMPDEST JUMPDEST DUP3 PUSH2 0x1101 SWAP1 SWAP2 SWAP1 PUSH4 0xFFFFFFFF AND JUMP JUMPDEST PUSH2 0xB07 PUSH1 0x40 MLOAD DUP1 PUSH1 0x40 ADD PUSH1 0x40 MSTORE DUP1 PUSH1 0x6 DUP2 MSTORE PUSH1 0x20 ADD PUSH32 0x736F757263650000000000000000000000000000000000000000000000000000 DUP2 MSTORE POP DUP3 PUSH2 0x10C8 SWAP1 SWAP2 SWAP1 PUSH4 0xFFFFFFFF AND JUMP JUMPDEST PUSH2 0xB1E DUP4 PUSH1 0x60 ADD MLOAD DUP3 PUSH2 0x10C8 SWAP1 SWAP2 SWAP1 PUSH4 0xFFFFFFFF AND JUMP JUMPDEST PUSH1 0x0 DUP4 PUSH1 0xA0 ADD MLOAD MLOAD GT ISZERO PUSH2 0xBDA JUMPI PUSH2 0xB74 PUSH1 0x40 MLOAD DUP1 PUSH1 0x40 ADD PUSH1 0x40 MSTORE DUP1 PUSH1 0x4 DUP2 MSTORE PUSH1 0x20 ADD PUSH32 0x6172677300000000000000000000000000000000000000000000000000000000 DUP2 MSTORE POP DUP3 PUSH2 0x10C8 SWAP1 SWAP2 SWAP1 PUSH4 0xFFFFFFFF AND JUMP JUMPDEST PUSH2 0xB7D DUP2 PUSH2 0x1151 JUMP JUMPDEST PUSH1 0x0 JUMPDEST DUP4 PUSH1 0xA0 ADD MLOAD MLOAD DUP2 LT ISZERO PUSH2 0xBCF JUMPI PUSH2 0xBBE DUP5 PUSH1 0xA0 ADD MLOAD DUP3 DUP2 MLOAD DUP2 LT PUSH2 0xBA7 JUMPI PUSH2 0xBA6 PUSH2 0x2408 JUMP JUMPDEST JUMPDEST PUSH1 0x20 MUL PUSH1 0x20 ADD ADD MLOAD DUP4 PUSH2 0x10C8 SWAP1 SWAP2 SWAP1 PUSH4 0xFFFFFFFF AND JUMP JUMPDEST DUP1 PUSH2 0xBC8 SWAP1 PUSH2 0x2466 JUMP JUMPDEST SWAP1 POP PUSH2 0xB80 JUMP JUMPDEST POP PUSH2 0xBD9 DUP2 PUSH2 0x1179 JUMP JUMPDEST JUMPDEST PUSH1 0x0 DUP4 PUSH1 0x80 ADD MLOAD MLOAD GT ISZERO PUSH2 0xD1B JUMPI PUSH1 0x0 PUSH1 0x2 DUP2 GT ISZERO PUSH2 0xBFC JUMPI PUSH2 0xBFB PUSH2 0x23D9 JUMP JUMPDEST JUMPDEST DUP4 PUSH1 0x20 ADD MLOAD PUSH1 0x2 DUP2 GT ISZERO PUSH2 0xC13 JUMPI PUSH2 0xC12 PUSH2 0x23D9 JUMP JUMPDEST JUMPDEST SUB PUSH2 0xC4A JUMPI PUSH1 0x40 MLOAD PUSH32 0xA80D31F700000000000000000000000000000000000000000000000000000000 DUP2 MSTORE PUSH1 0x4 ADD PUSH1 0x40 MLOAD DUP1 SWAP2 SUB SWAP1 REVERT JUMPDEST PUSH2 0xC92 PUSH1 0x40 MLOAD DUP1 PUSH1 0x40 ADD PUSH1 0x40 MSTORE DUP1 PUSH1 0xF DUP2 MSTORE PUSH1 0x20 ADD PUSH32 0x736563726574734C6F636174696F6E0000000000000000000000000000000000 DUP2 MSTORE POP DUP3 PUSH2 0x10C8 SWAP1 SWAP2 SWAP1 PUSH4 0xFFFFFFFF AND JUMP JUMPDEST PUSH2 0xCBB DUP4 PUSH1 0x20 ADD MLOAD PUSH1 0x2 DUP2 GT ISZERO PUSH2 0xCAC JUMPI PUSH2 0xCAB PUSH2 0x23D9 JUMP JUMPDEST JUMPDEST DUP3 PUSH2 0x1101 SWAP1 SWAP2 SWAP1 PUSH4 0xFFFFFFFF AND JUMP JUMPDEST PUSH2 0xD03 PUSH1 0x40 MLOAD DUP1 PUSH1 0x40 ADD PUSH1 0x40 MSTORE DUP1 PUSH1 0x7 DUP2 MSTORE PUSH1 0x20 ADD PUSH32 0x7365637265747300000000000000000000000000000000000000000000000000 DUP2 MSTORE POP DUP3 PUSH2 0x10C8 SWAP1 SWAP2 SWAP1 PUSH4 0xFFFFFFFF AND JUMP JUMPDEST PUSH2 0xD1A DUP4 PUSH1 0x80 ADD MLOAD DUP3 PUSH2 0x11A1 SWAP1 SWAP2 SWAP1 PUSH4 0xFFFFFFFF AND JUMP JUMPDEST JUMPDEST PUSH1 0x0 DUP4 PUSH1 0xC0 ADD MLOAD MLOAD GT ISZERO PUSH2 0xDD7 JUMPI PUSH2 0xD71 PUSH1 0x40 MLOAD DUP1 PUSH1 0x40 ADD PUSH1 0x40 MSTORE DUP1 PUSH1 0x9 DUP2 MSTORE PUSH1 0x20 ADD PUSH32 0x6279746573417267730000000000000000000000000000000000000000000000 DUP2 MSTORE POP DUP3 PUSH2 0x10C8 SWAP1 SWAP2 SWAP1 PUSH4 0xFFFFFFFF AND JUMP JUMPDEST PUSH2 0xD7A DUP2 PUSH2 0x1151 JUMP JUMPDEST PUSH1 0x0 JUMPDEST DUP4 PUSH1 0xC0 ADD MLOAD MLOAD DUP2 LT ISZERO PUSH2 0xDCC JUMPI PUSH2 0xDBB DUP5 PUSH1 0xC0 ADD MLOAD DUP3 DUP2 MLOAD DUP2 LT PUSH2 0xDA4 JUMPI PUSH2 0xDA3 PUSH2 0x2408 JUMP JUMPDEST JUMPDEST PUSH1 0x20 MUL PUSH1 0x20 ADD ADD MLOAD DUP4 PUSH2 0x11A1 SWAP1 SWAP2 SWAP1 PUSH4 0xFFFFFFFF AND JUMP JUMPDEST DUP1 PUSH2 0xDC5 SWAP1 PUSH2 0x2466 JUMP JUMPDEST SWAP1 POP PUSH2 0xD7D JUMP JUMPDEST POP PUSH2 0xDD6 DUP2 PUSH2 0x1179 JUMP JUMPDEST JUMPDEST DUP1 PUSH1 0x0 ADD MLOAD PUSH1 0x0 ADD MLOAD SWAP2 POP POP SWAP2 SWAP1 POP JUMP JUMPDEST PUSH1 0x0 DUP1 PUSH32 0x0 PUSH20 0xFFFFFFFFFFFFFFFFFFFFFFFFFFFFFFFFFFFFFFFF AND PUSH4 0x461D2762 DUP7 DUP9 PUSH1 0x1 DUP9 DUP9 PUSH1 0x40 MLOAD DUP7 PUSH4 0xFFFFFFFF AND PUSH1 0xE0 SHL DUP2 MSTORE PUSH1 0x4 ADD PUSH2 0xE4D SWAP6 SWAP5 SWAP4 SWAP3 SWAP2 SWAP1 PUSH2 0x24E9 JUMP JUMPDEST PUSH1 0x20 PUSH1 0x40 MLOAD DUP1 DUP4 SUB DUP2 PUSH1 0x0 DUP8 GAS CALL ISZERO DUP1 ISZERO PUSH2 0xE6C JUMPI RETURNDATASIZE PUSH1 0x0 DUP1 RETURNDATACOPY RETURNDATASIZE PUSH1 0x0 REVERT JUMPDEST POP POP POP POP PUSH1 0x40 MLOAD RETURNDATASIZE PUSH1 0x1F NOT PUSH1 0x1F DUP3 ADD AND DUP3 ADD DUP1 PUSH1 0x40 MSTORE POP DUP2 ADD SWAP1 PUSH2 0xE90 SWAP2 SWAP1 PUSH2 0x2558 JUMP JUMPDEST SWAP1 POP DUP1 PUSH32 0x1131472297A800FEE664D1D89CFA8F7676FF07189ECC53F80BBB5F4969099DB8 PUSH1 0x40 MLOAD PUSH1 0x40 MLOAD DUP1 SWAP2 SUB SWAP1 LOG2 DUP1 SWAP2 POP POP SWAP5 SWAP4 POP POP POP POP JUMP JUMPDEST CALLER PUSH20 0xFFFFFFFFFFFFFFFFFFFFFFFFFFFFFFFFFFFFFFFF AND DUP2 PUSH20 0xFFFFFFFFFFFFFFFFFFFFFFFFFFFFFFFFFFFFFFFF AND SUB PUSH2 0xF39 JUMPI PUSH1 0x40 MLOAD PUSH32 0x8C379A000000000000000000000000000000000000000000000000000000000 DUP2 MSTORE PUSH1 0x4 ADD PUSH2 0xF30 SWAP1 PUSH2 0x25D1 JUMP JUMPDEST PUSH1 0x40 MLOAD DUP1 SWAP2 SUB SWAP1 REVERT JUMPDEST DUP1 PUSH1 0x1 PUSH1 0x0 PUSH2 0x100 EXP DUP2 SLOAD DUP2 PUSH20 0xFFFFFFFFFFFFFFFFFFFFFFFFFFFFFFFFFFFFFFFF MUL NOT AND SWAP1 DUP4 PUSH20 0xFFFFFFFFFFFFFFFFFFFFFFFFFFFFFFFFFFFFFFFF AND MUL OR SWAP1 SSTORE POP DUP1 PUSH20 0xFFFFFFFFFFFFFFFFFFFFFFFFFFFFFFFFFFFFFFFF AND PUSH1 0x0 DUP1 SLOAD SWAP1 PUSH2 0x100 EXP SWAP1 DIV PUSH20 0xFFFFFFFFFFFFFFFFFFFFFFFFFFFFFFFFFFFFFFFF AND PUSH20 0xFFFFFFFFFFFFFFFFFFFFFFFFFFFFFFFFFFFFFFFF AND PUSH32 0xED8889F560326EB138920D842192F0EB3DD22B4F139C87A2C57538E05BAE1278 PUSH1 0x40 MLOAD PUSH1 0x40 MLOAD DUP1 SWAP2 SUB SWAP1 LOG3 POP JUMP JUMPDEST PUSH1 0x0 DUP2 MLOAD SUB PUSH2 0x1032 JUMPI PUSH1 0x40 MLOAD PUSH32 0x22CE3EDD00000000000000000000000000000000000000000000000000000000 DUP2 MSTORE PUSH1 0x4 ADD PUSH1 0x40 MLOAD DUP1 SWAP2 SUB SWAP1 REVERT JUMPDEST DUP3 DUP5 PUSH1 0x0 ADD SWAP1 PUSH1 0x2 DUP2 GT ISZERO PUSH2 0x104A JUMPI PUSH2 0x1049 PUSH2 0x23D9 JUMP JUMPDEST JUMPDEST SWAP1 DUP2 PUSH1 0x2 DUP2 GT ISZERO PUSH2 0x105E JUMPI PUSH2 0x105D PUSH2 0x23D9 JUMP JUMPDEST JUMPDEST DUP2 MSTORE POP POP DUP2 DUP5 PUSH1 0x40 ADD SWAP1 PUSH1 0x0 DUP2 GT ISZERO PUSH2 0x107A JUMPI PUSH2 0x1079 PUSH2 0x23D9 JUMP JUMPDEST JUMPDEST SWAP1 DUP2 PUSH1 0x0 DUP2 GT ISZERO PUSH2 0x108E JUMPI PUSH2 0x108D PUSH2 0x23D9 JUMP JUMPDEST JUMPDEST DUP2 MSTORE POP POP DUP1 DUP5 PUSH1 0x60 ADD DUP2 SWAP1 MSTORE POP POP POP POP POP JUMP JUMPDEST PUSH2 0x10A9 PUSH2 0x169E JUMP JUMPDEST PUSH2 0x10B7 DUP2 PUSH1 0x0 ADD MLOAD DUP4 PUSH2 0x11CA JUMP JUMPDEST POP PUSH1 0x0 DUP2 PUSH1 0x20 ADD DUP2 DUP2 MSTORE POP POP SWAP2 SWAP1 POP JUMP JUMPDEST PUSH2 0x10D5 DUP3 PUSH1 0x3 DUP4 MLOAD PUSH2 0x1243 JUMP JUMPDEST PUSH2 0x10EC DUP2 DUP4 PUSH1 0x0 ADD MLOAD PUSH2 0x13EC SWAP1 SWAP2 SWAP1 PUSH4 0xFFFFFFFF AND JUMP JUMPDEST POP POP POP JUMP JUMPDEST PUSH2 0x10FD DUP3 PUSH1 0x0 DUP4 PUSH2 0x1243 JUMP JUMPDEST POP POP JUMP JUMPDEST PUSH2 0x1123 PUSH1 0x2 PUSH1 0x5 PUSH1 0x6 PUSH1 0xFF AND SWAP1 SHL OR DUP4 PUSH1 0x0 ADD MLOAD PUSH2 0x1408 SWAP1 SWAP2 SWAP1 PUSH4 0xFFFFFFFF AND JUMP JUMPDEST POP PUSH2 0x114D DUP3 DUP3 PUSH1 0x40 MLOAD PUSH1 0x20 ADD PUSH2 0x1139 SWAP2 SWAP1 PUSH2 0x2600 JUMP JUMPDEST PUSH1 0x40 MLOAD PUSH1 0x20 DUP2 DUP4 SUB SUB DUP2 MSTORE SWAP1 PUSH1 0x40 MSTORE PUSH2 0x11A1 JUMP JUMPDEST POP POP JUMP JUMPDEST PUSH2 0x115C DUP2 PUSH1 0x4 PUSH2 0x1472 JUMP JUMPDEST PUSH1 0x1 DUP2 PUSH1 0x20 ADD DUP2 DUP2 MLOAD PUSH2 0x116F SWAP2 SWAP1 PUSH2 0x261B JUMP JUMPDEST SWAP2 POP DUP2 DUP2 MSTORE POP POP POP JUMP JUMPDEST PUSH2 0x1184 DUP2 PUSH1 0x7 PUSH2 0x1472 JUMP JUMPDEST PUSH1 0x1 DUP2 PUSH1 0x20 ADD DUP2 DUP2 MLOAD PUSH2 0x1197 SWAP2 SWAP1 PUSH2 0x264F JUMP JUMPDEST SWAP2 POP DUP2 DUP2 MSTORE POP POP POP JUMP JUMPDEST PUSH2 0x11AE DUP3 PUSH1 0x2 DUP4 MLOAD PUSH2 0x1243 JUMP JUMPDEST PUSH2 0x11C5 DUP2 DUP4 PUSH1 0x0 ADD MLOAD PUSH2 0x13EC SWAP1 SWAP2 SWAP1 PUSH4 0xFFFFFFFF AND JUMP JUMPDEST POP POP POP JUMP JUMPDEST PUSH2 0x11D2 PUSH2 0x16BE JUMP JUMPDEST PUSH1 0x0 PUSH1 0x20 DUP4 PUSH2 0x11E1 SWAP2 SWAP1 PUSH2 0x26B2 JUMP JUMPDEST EQ PUSH2 0x120D JUMPI PUSH1 0x20 DUP3 PUSH2 0x11F3 SWAP2 SWAP1 PUSH2 0x26B2 JUMP JUMPDEST PUSH1 0x20 PUSH2 0x11FF SWAP2 SWAP1 PUSH2 0x264F JUMP JUMPDEST DUP3 PUSH2 0x120A SWAP2 SWAP1 PUSH2 0x261B JUMP JUMPDEST SWAP2 POP JUMPDEST DUP2 DUP4 PUSH1 0x20 ADD DUP2 DUP2 MSTORE POP POP PUSH1 0x40 MLOAD DUP1 DUP5 MSTORE PUSH1 0x0 DUP2 MSTORE DUP3 DUP2 ADD PUSH1 0x20 ADD DUP2 DUP2 LT ISZERO PUSH2 0x1234 JUMPI PUSH1 0x0 DUP1 REVERT JUMPDEST DUP1 PUSH1 0x40 MSTORE POP POP DUP3 SWAP1 POP SWAP3 SWAP2 POP POP JUMP JUMPDEST PUSH1 0x17 DUP2 PUSH8 0xFFFFFFFFFFFFFFFF AND GT PUSH2 0x127E JUMPI PUSH2 0x1278 DUP2 PUSH1 0x5 DUP5 PUSH1 0xFF AND SWAP1 SHL PUSH1 0xFF AND OR DUP5 PUSH1 0x0 ADD MLOAD PUSH2 0x1408 SWAP1 SWAP2 SWAP1 PUSH4 0xFFFFFFFF AND JUMP JUMPDEST POP PUSH2 0x13E7 JUMP JUMPDEST PUSH1 0xFF DUP2 PUSH8 0xFFFFFFFFFFFFFFFF AND GT PUSH2 0x12DC JUMPI PUSH2 0x12B1 PUSH1 0x18 PUSH1 0x5 DUP5 PUSH1 0xFF AND SWAP1 SHL OR DUP5 PUSH1 0x0 ADD MLOAD PUSH2 0x1408 SWAP1 SWAP2 SWAP1 PUSH4 0xFFFFFFFF AND JUMP JUMPDEST POP PUSH2 0x12D6 DUP2 PUSH8 0xFFFFFFFFFFFFFFFF AND PUSH1 0x1 DUP6 PUSH1 0x0 ADD MLOAD PUSH2 0x1498 SWAP1 SWAP3 SWAP2 SWAP1 PUSH4 0xFFFFFFFF AND JUMP JUMPDEST POP PUSH2 0x13E6 JUMP JUMPDEST PUSH2 0xFFFF DUP2 PUSH8 0xFFFFFFFFFFFFFFFF AND GT PUSH2 0x133B JUMPI PUSH2 0x1310 PUSH1 0x19 PUSH1 0x5 DUP5 PUSH1 0xFF AND SWAP1 SHL OR DUP5 PUSH1 0x0 ADD MLOAD PUSH2 0x1408 SWAP1 SWAP2 SWAP1 PUSH4 0xFFFFFFFF AND JUMP JUMPDEST POP PUSH2 0x1335 DUP2 PUSH8 0xFFFFFFFFFFFFFFFF AND PUSH1 0x2 DUP6 PUSH1 0x0 ADD MLOAD PUSH2 0x1498 SWAP1 SWAP3 SWAP2 SWAP1 PUSH4 0xFFFFFFFF AND JUMP JUMPDEST POP PUSH2 0x13E5 JUMP JUMPDEST PUSH4 0xFFFFFFFF DUP2 PUSH8 0xFFFFFFFFFFFFFFFF AND GT PUSH2 0x139C JUMPI PUSH2 0x1371 PUSH1 0x1A PUSH1 0x5 DUP5 PUSH1 0xFF AND SWAP1 SHL OR DUP5 PUSH1 0x0 ADD MLOAD PUSH2 0x1408 SWAP1 SWAP2 SWAP1 PUSH4 0xFFFFFFFF AND JUMP JUMPDEST POP PUSH2 0x1396 DUP2 PUSH8 0xFFFFFFFFFFFFFFFF AND PUSH1 0x4 DUP6 PUSH1 0x0 ADD MLOAD PUSH2 0x1498 SWAP1 SWAP3 SWAP2 SWAP1 PUSH4 0xFFFFFFFF AND JUMP JUMPDEST POP PUSH2 0x13E4 JUMP JUMPDEST PUSH2 0x13BD PUSH1 0x1B PUSH1 0x5 DUP5 PUSH1 0xFF AND SWAP1 SHL OR DUP5 PUSH1 0x0 ADD MLOAD PUSH2 0x1408 SWAP1 SWAP2 SWAP1 PUSH4 0xFFFFFFFF AND JUMP JUMPDEST POP PUSH2 0x13E2 DUP2 PUSH8 0xFFFFFFFFFFFFFFFF AND PUSH1 0x8 DUP6 PUSH1 0x0 ADD MLOAD PUSH2 0x1498 SWAP1 SWAP3 SWAP2 SWAP1 PUSH4 0xFFFFFFFF AND JUMP JUMPDEST POP JUMPDEST JUMPDEST JUMPDEST JUMPDEST POP POP POP JUMP JUMPDEST PUSH2 0x13F4 PUSH2 0x16BE JUMP JUMPDEST PUSH2 0x1400 DUP4 DUP4 DUP5 MLOAD PUSH2 0x1525 JUMP JUMPDEST SWAP1 POP SWAP3 SWAP2 POP POP JUMP JUMPDEST PUSH2 0x1410 PUSH2 0x16BE JUMP JUMPDEST PUSH1 0x0 DUP4 PUSH1 0x0 ADD MLOAD MLOAD SWAP1 POP PUSH1 0x0 PUSH1 0x1 DUP3 PUSH2 0x1429 SWAP2 SWAP1 PUSH2 0x261B JUMP JUMPDEST SWAP1 POP DUP5 PUSH1 0x20 ADD MLOAD DUP3 LT PUSH2 0x144D JUMPI PUSH2 0x144C DUP6 PUSH1 0x2 DUP4 PUSH2 0x1447 SWAP2 SWAP1 PUSH2 0x26E3 JUMP JUMPDEST PUSH2 0x1608 JUMP JUMPDEST JUMPDEST DUP5 MLOAD PUSH1 0x20 DUP4 DUP3 ADD ADD DUP6 DUP2 MSTORE8 DUP2 MLOAD DUP4 GT ISZERO PUSH2 0x1465 JUMPI DUP3 DUP3 MSTORE JUMPDEST POP POP DUP5 SWAP3 POP POP POP SWAP3 SWAP2 POP POP JUMP JUMPDEST PUSH2 0x1493 PUSH1 0x1F PUSH1 0x5 DUP4 PUSH1 0xFF AND SWAP1 SHL OR DUP4 PUSH1 0x0 ADD MLOAD PUSH2 0x1408 SWAP1 SWAP2 SWAP1 PUSH4 0xFFFFFFFF AND JUMP JUMPDEST POP POP POP JUMP JUMPDEST PUSH2 0x14A0 PUSH2 0x16BE JUMP JUMPDEST PUSH1 0x0 DUP5 PUSH1 0x0 ADD MLOAD MLOAD SWAP1 POP PUSH1 0x0 DUP2 DUP5 PUSH2 0x14B8 SWAP2 SWAP1 PUSH2 0x261B JUMP JUMPDEST SWAP1 POP DUP6 PUSH1 0x20 ADD MLOAD DUP2 GT ISZERO PUSH2 0x14DD JUMPI PUSH2 0x14DC DUP7 PUSH1 0x2 DUP4 PUSH2 0x14D7 SWAP2 SWAP1 PUSH2 0x26E3 JUMP JUMPDEST PUSH2 0x1608 JUMP JUMPDEST JUMPDEST PUSH1 0x0 PUSH1 0x1 DUP6 PUSH2 0x100 PUSH2 0x14EF SWAP2 SWAP1 PUSH2 0x2858 JUMP JUMPDEST PUSH2 0x14F9 SWAP2 SWAP1 PUSH2 0x264F JUMP JUMPDEST SWAP1 POP DUP7 MLOAD DUP3 DUP2 ADD DUP8 DUP4 NOT DUP3 MLOAD AND OR DUP2 MSTORE DUP2 MLOAD DUP5 GT ISZERO PUSH2 0x1516 JUMPI DUP4 DUP3 MSTORE JUMPDEST POP POP DUP7 SWAP4 POP POP POP POP SWAP4 SWAP3 POP POP POP JUMP JUMPDEST PUSH2 0x152D PUSH2 0x16BE JUMP JUMPDEST DUP3 MLOAD DUP3 GT ISZERO PUSH2 0x153B JUMPI PUSH1 0x0 DUP1 REVERT JUMPDEST PUSH1 0x0 DUP5 PUSH1 0x0 ADD MLOAD MLOAD SWAP1 POP PUSH1 0x0 DUP4 DUP3 PUSH2 0x1553 SWAP2 SWAP1 PUSH2 0x261B JUMP JUMPDEST SWAP1 POP DUP6 PUSH1 0x20 ADD MLOAD DUP2 GT ISZERO PUSH2 0x1578 JUMPI PUSH2 0x1577 DUP7 PUSH1 0x2 DUP4 PUSH2 0x1572 SWAP2 SWAP1 PUSH2 0x26E3 JUMP JUMPDEST PUSH2 0x1608 JUMP JUMPDEST JUMPDEST PUSH1 0x0 DUP1 DUP8 MLOAD DUP1 MLOAD DUP6 PUSH1 0x20 DUP4 ADD ADD SWAP4 POP DUP1 DUP6 GT ISZERO PUSH2 0x1593 JUMPI DUP5 DUP3 MSTORE JUMPDEST PUSH1 0x20 DUP10 ADD SWAP3 POP POP POP JUMPDEST PUSH1 0x20 DUP7 LT PUSH2 0x15DA JUMPI DUP1 MLOAD DUP3 MSTORE PUSH1 0x20 DUP3 PUSH2 0x15B5 SWAP2 SWAP1 PUSH2 0x261B JUMP JUMPDEST SWAP2 POP PUSH1 0x20 DUP2 PUSH2 0x15C4 SWAP2 SWAP1 PUSH2 0x261B JUMP JUMPDEST SWAP1 POP PUSH1 0x20 DUP7 PUSH2 0x15D3 SWAP2 SWAP1 PUSH2 0x264F JUMP JUMPDEST SWAP6 POP PUSH2 0x159C JUMP JUMPDEST PUSH1 0x0 PUSH1 0x1 DUP8 PUSH1 0x20 SUB PUSH2 0x100 EXP SUB SWAP1 POP DUP1 NOT DUP3 MLOAD AND DUP2 DUP5 MLOAD AND DUP2 DUP2 OR DUP6 MSTORE POP POP POP DUP8 SWAP5 POP POP POP POP POP SWAP4 SWAP3 POP POP POP JUMP JUMPDEST PUSH1 0x0 DUP3 PUSH1 0x0 ADD MLOAD SWAP1 POP PUSH2 0x161B DUP4 DUP4 PUSH2 0x11CA JUMP JUMPDEST POP PUSH2 0x1626 DUP4 DUP3 PUSH2 0x13EC JUMP JUMPDEST POP POP POP POP JUMP JUMPDEST PUSH1 0x40 MLOAD DUP1 PUSH1 0xE0 ADD PUSH1 0x40 MSTORE DUP1 PUSH1 0x0 PUSH1 0x2 DUP2 GT ISZERO PUSH2 0x164B JUMPI PUSH2 0x164A PUSH2 0x23D9 JUMP JUMPDEST JUMPDEST DUP2 MSTORE PUSH1 0x20 ADD PUSH1 0x0 PUSH1 0x2 DUP2 GT ISZERO PUSH2 0x1664 JUMPI PUSH2 0x1663 PUSH2 0x23D9 JUMP JUMPDEST JUMPDEST DUP2 MSTORE PUSH1 0x20 ADD PUSH1 0x0 DUP1 DUP2 GT ISZERO PUSH2 0x167C JUMPI PUSH2 0x167B PUSH2 0x23D9 JUMP JUMPDEST JUMPDEST DUP2 MSTORE PUSH1 0x20 ADD PUSH1 0x60 DUP2 MSTORE PUSH1 0x20 ADD PUSH1 0x60 DUP2 MSTORE PUSH1 0x20 ADD PUSH1 0x60 DUP2 MSTORE PUSH1 0x20 ADD PUSH1 0x60 DUP2 MSTORE POP SWAP1 JUMP JUMPDEST PUSH1 0x40 MLOAD DUP1 PUSH1 0x40 ADD PUSH1 0x40 MSTORE DUP1 PUSH2 0x16B1 PUSH2 0x16BE JUMP JUMPDEST DUP2 MSTORE PUSH1 0x20 ADD PUSH1 0x0 DUP2 MSTORE POP SWAP1 JUMP JUMPDEST PUSH1 0x40 MLOAD DUP1 PUSH1 0x40 ADD PUSH1 0x40 MSTORE DUP1 PUSH1 0x60 DUP2 MSTORE PUSH1 0x20 ADD PUSH1 0x0 DUP2 MSTORE POP SWAP1 JUMP JUMPDEST PUSH1 0x0 PUSH1 0x40 MLOAD SWAP1 POP SWAP1 JUMP JUMPDEST PUSH1 0x0 DUP1 REVERT JUMPDEST PUSH1 0x0 DUP1 REVERT JUMPDEST PUSH1 0x0 DUP2 SWAP1 POP SWAP2 SWAP1 POP JUMP JUMPDEST PUSH2 0x16FF DUP2 PUSH2 0x16EC JUMP JUMPDEST DUP2 EQ PUSH2 0x170A JUMPI PUSH1 0x0 DUP1 REVERT JUMPDEST POP JUMP JUMPDEST PUSH1 0x0 DUP2 CALLDATALOAD SWAP1 POP PUSH2 0x171C DUP2 PUSH2 0x16F6 JUMP JUMPDEST SWAP3 SWAP2 POP POP JUMP JUMPDEST PUSH1 0x0 DUP1 REVERT JUMPDEST PUSH1 0x0 DUP1 REVERT JUMPDEST PUSH1 0x0 PUSH1 0x1F NOT PUSH1 0x1F DUP4 ADD AND SWAP1 POP SWAP2 SWAP1 POP JUMP JUMPDEST PUSH32 0x4E487B7100000000000000000000000000000000000000000000000000000000 PUSH1 0x0 MSTORE PUSH1 0x41 PUSH1 0x4 MSTORE PUSH1 0x24 PUSH1 0x0 REVERT JUMPDEST PUSH2 0x1775 DUP3 PUSH2 0x172C JUMP JUMPDEST DUP2 ADD DUP2 DUP2 LT PUSH8 0xFFFFFFFFFFFFFFFF DUP3 GT OR ISZERO PUSH2 0x1794 JUMPI PUSH2 0x1793 PUSH2 0x173D JUMP JUMPDEST JUMPDEST DUP1 PUSH1 0x40 MSTORE POP POP POP JUMP JUMPDEST PUSH1 0x0 PUSH2 0x17A7 PUSH2 0x16D8 JUMP JUMPDEST SWAP1 POP PUSH2 0x17B3 DUP3 DUP3 PUSH2 0x176C JUMP JUMPDEST SWAP2 SWAP1 POP JUMP JUMPDEST PUSH1 0x0 PUSH8 0xFFFFFFFFFFFFFFFF DUP3 GT ISZERO PUSH2 0x17D3 JUMPI PUSH2 0x17D2 PUSH2 0x173D JUMP JUMPDEST JUMPDEST PUSH2 0x17DC DUP3 PUSH2 0x172C JUMP JUMPDEST SWAP1 POP PUSH1 0x20 DUP2 ADD SWAP1 POP SWAP2 SWAP1 POP JUMP JUMPDEST DUP3 DUP2 DUP4 CALLDATACOPY PUSH1 0x0 DUP4 DUP4 ADD MSTORE POP POP POP JUMP JUMPDEST PUSH1 0x0 PUSH2 0x180B PUSH2 0x1806 DUP5 PUSH2 0x17B8 JUMP JUMPDEST PUSH2 0x179D JUMP JUMPDEST SWAP1 POP DUP3 DUP2 MSTORE PUSH1 0x20 DUP2 ADD DUP5 DUP5 DUP5 ADD GT ISZERO PUSH2 0x1827 JUMPI PUSH2 0x1826 PUSH2 0x1727 JUMP JUMPDEST JUMPDEST PUSH2 0x1832 DUP5 DUP3 DUP6 PUSH2 0x17E9 JUMP JUMPDEST POP SWAP4 SWAP3 POP POP POP JUMP JUMPDEST PUSH1 0x0 DUP3 PUSH1 0x1F DUP4 ADD SLT PUSH2 0x184F JUMPI PUSH2 0x184E PUSH2 0x1722 JUMP JUMPDEST JUMPDEST DUP2 CALLDATALOAD PUSH2 0x185F DUP5 DUP3 PUSH1 0x20 DUP7 ADD PUSH2 0x17F8 JUMP JUMPDEST SWAP2 POP POP SWAP3 SWAP2 POP POP JUMP JUMPDEST PUSH1 0x0 DUP1 PUSH1 0x0 PUSH1 0x60 DUP5 DUP7 SUB SLT ISZERO PUSH2 0x1881 JUMPI PUSH2 0x1880 PUSH2 0x16E2 JUMP JUMPDEST JUMPDEST PUSH1 0x0 PUSH2 0x188F DUP7 DUP3 DUP8 ADD PUSH2 0x170D JUMP JUMPDEST SWAP4 POP POP PUSH1 0x20 DUP5 ADD CALLDATALOAD PUSH8 0xFFFFFFFFFFFFFFFF DUP2 GT ISZERO PUSH2 0x18B0 JUMPI PUSH2 0x18AF PUSH2 0x16E7 JUMP JUMPDEST JUMPDEST PUSH2 0x18BC DUP7 DUP3 DUP8 ADD PUSH2 0x183A JUMP JUMPDEST SWAP3 POP POP PUSH1 0x40 DUP5 ADD CALLDATALOAD PUSH8 0xFFFFFFFFFFFFFFFF DUP2 GT ISZERO PUSH2 0x18DD JUMPI PUSH2 0x18DC PUSH2 0x16E7 JUMP JUMPDEST JUMPDEST PUSH2 0x18E9 DUP7 DUP3 DUP8 ADD PUSH2 0x183A JUMP JUMPDEST SWAP2 POP POP SWAP3 POP SWAP3 POP SWAP3 JUMP JUMPDEST PUSH1 0x0 DUP2 MLOAD SWAP1 POP SWAP2 SWAP1 POP JUMP JUMPDEST PUSH1 0x0 DUP3 DUP3 MSTORE PUSH1 0x20 DUP3 ADD SWAP1 POP SWAP3 SWAP2 POP POP JUMP JUMPDEST PUSH1 0x0 JUMPDEST DUP4 DUP2 LT ISZERO PUSH2 0x192D JUMPI DUP1 DUP3 ADD MLOAD DUP2 DUP5 ADD MSTORE PUSH1 0x20 DUP2 ADD SWAP1 POP PUSH2 0x1912 JUMP JUMPDEST PUSH1 0x0 DUP5 DUP5 ADD MSTORE POP POP POP POP JUMP JUMPDEST PUSH1 0x0 PUSH2 0x1944 DUP3 PUSH2 0x18F3 JUMP JUMPDEST PUSH2 0x194E DUP2 DUP6 PUSH2 0x18FE JUMP JUMPDEST SWAP4 POP PUSH2 0x195E DUP2 DUP6 PUSH1 0x20 DUP7 ADD PUSH2 0x190F JUMP JUMPDEST PUSH2 0x1967 DUP2 PUSH2 0x172C JUMP JUMPDEST DUP5 ADD SWAP2 POP POP SWAP3 SWAP2 POP POP JUMP JUMPDEST PUSH1 0x0 PUSH1 0x20 DUP3 ADD SWAP1 POP DUP2 DUP2 SUB PUSH1 0x0 DUP4 ADD MSTORE PUSH2 0x198C DUP2 DUP5 PUSH2 0x1939 JUMP JUMPDEST SWAP1 POP SWAP3 SWAP2 POP POP JUMP JUMPDEST PUSH1 0x0 PUSH8 0xFFFFFFFFFFFFFFFF DUP3 GT ISZERO PUSH2 0x19AF JUMPI PUSH2 0x19AE PUSH2 0x173D JUMP JUMPDEST JUMPDEST PUSH2 0x19B8 DUP3 PUSH2 0x172C JUMP JUMPDEST SWAP1 POP PUSH1 0x20 DUP2 ADD SWAP1 POP SWAP2 SWAP1 POP JUMP JUMPDEST PUSH1 0x0 PUSH2 0x19D8 PUSH2 0x19D3 DUP5 PUSH2 0x1994 JUMP JUMPDEST PUSH2 0x179D JUMP JUMPDEST SWAP1 POP DUP3 DUP2 MSTORE PUSH1 0x20 DUP2 ADD DUP5 DUP5 DUP5 ADD GT ISZERO PUSH2 0x19F4 JUMPI PUSH2 0x19F3 PUSH2 0x1727 JUMP JUMPDEST JUMPDEST PUSH2 0x19FF DUP5 DUP3 DUP6 PUSH2 0x17E9 JUMP JUMPDEST POP SWAP4 SWAP3 POP POP POP JUMP JUMPDEST PUSH1 0x0 DUP3 PUSH1 0x1F DUP4 ADD SLT PUSH2 0x1A1C JUMPI PUSH2 0x1A1B PUSH2 0x1722 JUMP JUMPDEST JUMPDEST DUP2 CALLDATALOAD PUSH2 0x1A2C DUP5 DUP3 PUSH1 0x20 DUP7 ADD PUSH2 0x19C5 JUMP JUMPDEST SWAP2 POP POP SWAP3 SWAP2 POP POP JUMP JUMPDEST PUSH1 0x0 PUSH1 0xFF DUP3 AND SWAP1 POP SWAP2 SWAP1 POP JUMP JUMPDEST PUSH2 0x1A4B DUP2 PUSH2 0x1A35 JUMP JUMPDEST DUP2 EQ PUSH2 0x1A56 JUMPI PUSH1 0x0 DUP1 REVERT JUMPDEST POP JUMP JUMPDEST PUSH1 0x0 DUP2 CALLDATALOAD SWAP1 POP PUSH2 0x1A68 DUP2 PUSH2 0x1A42 JUMP JUMPDEST SWAP3 SWAP2 POP POP JUMP JUMPDEST PUSH1 0x0 PUSH8 0xFFFFFFFFFFFFFFFF DUP3 AND SWAP1 POP SWAP2 SWAP1 POP JUMP JUMPDEST PUSH2 0x1A8B DUP2 PUSH2 0x1A6E JUMP JUMPDEST DUP2 EQ PUSH2 0x1A96 JUMPI PUSH1 0x0 DUP1 REVERT JUMPDEST POP JUMP JUMPDEST PUSH1 0x0 DUP2 CALLDATALOAD SWAP1 POP PUSH2 0x1AA8 DUP2 PUSH2 0x1A82 JUMP JUMPDEST SWAP3 SWAP2 POP POP JUMP JUMPDEST PUSH1 0x0 PUSH8 0xFFFFFFFFFFFFFFFF DUP3 GT ISZERO PUSH2 0x1AC9 JUMPI PUSH2 0x1AC8 PUSH2 0x173D JUMP JUMPDEST JUMPDEST PUSH1 0x20 DUP3 MUL SWAP1 POP PUSH1 0x20 DUP2 ADD SWAP1 POP SWAP2 SWAP1 POP JUMP JUMPDEST PUSH1 0x0 DUP1 REVERT JUMPDEST PUSH1 0x0 PUSH2 0x1AF2 PUSH2 0x1AED DUP5 PUSH2 0x1AAE JUMP JUMPDEST PUSH2 0x179D JUMP JUMPDEST SWAP1 POP DUP1 DUP4 DUP3 MSTORE PUSH1 0x20 DUP3 ADD SWAP1 POP PUSH1 0x20 DUP5 MUL DUP4 ADD DUP6 DUP2 GT ISZERO PUSH2 0x1B15 JUMPI PUSH2 0x1B14 PUSH2 0x1ADA JUMP JUMPDEST JUMPDEST DUP4 JUMPDEST DUP2 DUP2 LT ISZERO PUSH2 0x1B5C JUMPI DUP1 CALLDATALOAD PUSH8 0xFFFFFFFFFFFFFFFF DUP2 GT ISZERO PUSH2 0x1B3A JUMPI PUSH2 0x1B39 PUSH2 0x1722 JUMP JUMPDEST JUMPDEST DUP1 DUP7 ADD PUSH2 0x1B47 DUP10 DUP3 PUSH2 0x1A07 JUMP JUMPDEST DUP6 MSTORE PUSH1 0x20 DUP6 ADD SWAP5 POP POP POP PUSH1 0x20 DUP2 ADD SWAP1 POP PUSH2 0x1B17 JUMP JUMPDEST POP POP POP SWAP4 SWAP3 POP POP POP JUMP JUMPDEST PUSH1 0x0 DUP3 PUSH1 0x1F DUP4 ADD SLT PUSH2 0x1B7B JUMPI PUSH2 0x1B7A PUSH2 0x1722 JUMP JUMPDEST JUMPDEST DUP2 CALLDATALOAD PUSH2 0x1B8B DUP5 DUP3 PUSH1 0x20 DUP7 ADD PUSH2 0x1ADF JUMP JUMPDEST SWAP2 POP POP SWAP3 SWAP2 POP POP JUMP JUMPDEST PUSH1 0x0 PUSH8 0xFFFFFFFFFFFFFFFF DUP3 GT ISZERO PUSH2 0x1BAF JUMPI PUSH2 0x1BAE PUSH2 0x173D JUMP JUMPDEST JUMPDEST PUSH1 0x20 DUP3 MUL SWAP1 POP PUSH1 0x20 DUP2 ADD SWAP1 POP SWAP2 SWAP1 POP JUMP JUMPDEST PUSH1 0x0 PUSH2 0x1BD3 PUSH2 0x1BCE DUP5 PUSH2 0x1B94 JUMP JUMPDEST PUSH2 0x179D JUMP JUMPDEST SWAP1 POP DUP1 DUP4 DUP3 MSTORE PUSH1 0x20 DUP3 ADD SWAP1 POP PUSH1 0x20 DUP5 MUL DUP4 ADD DUP6 DUP2 GT ISZERO PUSH2 0x1BF6 JUMPI PUSH2 0x1BF5 PUSH2 0x1ADA JUMP JUMPDEST JUMPDEST DUP4 JUMPDEST DUP2 DUP2 LT ISZERO PUSH2 0x1C3D JUMPI DUP1 CALLDATALOAD PUSH8 0xFFFFFFFFFFFFFFFF DUP2 GT ISZERO PUSH2 0x1C1B JUMPI PUSH2 0x1C1A PUSH2 0x1722 JUMP JUMPDEST JUMPDEST DUP1 DUP7 ADD PUSH2 0x1C28 DUP10 DUP3 PUSH2 0x183A JUMP JUMPDEST DUP6 MSTORE PUSH1 0x20 DUP6 ADD SWAP5 POP POP POP PUSH1 0x20 DUP2 ADD SWAP1 POP PUSH2 0x1BF8 JUMP JUMPDEST POP POP POP SWAP4 SWAP3 POP POP POP JUMP JUMPDEST PUSH1 0x0 DUP3 PUSH1 0x1F DUP4 ADD SLT PUSH2 0x1C5C JUMPI PUSH2 0x1C5B PUSH2 0x1722 JUMP JUMPDEST JUMPDEST DUP2 CALLDATALOAD PUSH2 0x1C6C DUP5 DUP3 PUSH1 0x20 DUP7 ADD PUSH2 0x1BC0 JUMP JUMPDEST SWAP2 POP POP SWAP3 SWAP2 POP POP JUMP JUMPDEST PUSH1 0x0 PUSH4 0xFFFFFFFF DUP3 AND SWAP1 POP SWAP2 SWAP1 POP JUMP JUMPDEST PUSH2 0x1C8E DUP2 PUSH2 0x1C75 JUMP JUMPDEST DUP2 EQ PUSH2 0x1C99 JUMPI PUSH1 0x0 DUP1 REVERT JUMPDEST POP JUMP JUMPDEST PUSH1 0x0 DUP2 CALLDATALOAD SWAP1 POP PUSH2 0x1CAB DUP2 PUSH2 0x1C85 JUMP JUMPDEST SWAP3 SWAP2 POP POP JUMP JUMPDEST PUSH1 0x0 DUP1 PUSH1 0x0 DUP1 PUSH1 0x0 DUP1 PUSH1 0x0 DUP1 PUSH1 0x0 PUSH2 0x120 DUP11 DUP13 SUB SLT ISZERO PUSH2 0x1CD4 JUMPI PUSH2 0x1CD3 PUSH2 0x16E2 JUMP JUMPDEST JUMPDEST PUSH1 0x0 DUP11 ADD CALLDATALOAD PUSH8 0xFFFFFFFFFFFFFFFF DUP2 GT ISZERO PUSH2 0x1CF2 JUMPI PUSH2 0x1CF1 PUSH2 0x16E7 JUMP JUMPDEST JUMPDEST PUSH2 0x1CFE DUP13 DUP3 DUP14 ADD PUSH2 0x1A07 JUMP JUMPDEST SWAP10 POP POP PUSH1 0x20 DUP11 ADD CALLDATALOAD PUSH8 0xFFFFFFFFFFFFFFFF DUP2 GT ISZERO PUSH2 0x1D1F JUMPI PUSH2 0x1D1E PUSH2 0x16E7 JUMP JUMPDEST JUMPDEST PUSH2 0x1D2B DUP13 DUP3 DUP14 ADD PUSH2 0x183A JUMP JUMPDEST SWAP9 POP POP PUSH1 0x40 PUSH2 0x1D3C DUP13 DUP3 DUP14 ADD PUSH2 0x1A59 JUMP JUMPDEST SWAP8 POP POP PUSH1 0x60 PUSH2 0x1D4D DUP13 DUP3 DUP14 ADD PUSH2 0x1A99 JUMP JUMPDEST SWAP7 POP POP PUSH1 0x80 DUP11 ADD CALLDATALOAD PUSH8 0xFFFFFFFFFFFFFFFF DUP2 GT ISZERO PUSH2 0x1D6E JUMPI PUSH2 0x1D6D PUSH2 0x16E7 JUMP JUMPDEST JUMPDEST PUSH2 0x1D7A DUP13 DUP3 DUP14 ADD PUSH2 0x1B66 JUMP JUMPDEST SWAP6 POP POP PUSH1 0xA0 DUP11 ADD CALLDATALOAD PUSH8 0xFFFFFFFFFFFFFFFF DUP2 GT ISZERO PUSH2 0x1D9B JUMPI PUSH2 0x1D9A PUSH2 0x16E7 JUMP JUMPDEST JUMPDEST PUSH2 0x1DA7 DUP13 DUP3 DUP14 ADD PUSH2 0x1C47 JUMP JUMPDEST SWAP5 POP POP PUSH1 0xC0 PUSH2 0x1DB8 DUP13 DUP3 DUP14 ADD PUSH2 0x1A99 JUMP JUMPDEST SWAP4 POP POP PUSH1 0xE0 PUSH2 0x1DC9 DUP13 DUP3 DUP14 ADD PUSH2 0x1C9C JUMP JUMPDEST SWAP3 POP POP PUSH2 0x100 PUSH2 0x1DDB DUP13 DUP3 DUP14 ADD PUSH2 0x170D JUMP JUMPDEST SWAP2 POP POP SWAP3 SWAP6 SWAP9 POP SWAP3 SWAP6 SWAP9 POP SWAP3 SWAP6 SWAP9 JUMP JUMPDEST PUSH2 0x1DF4 DUP2 PUSH2 0x16EC JUMP JUMPDEST DUP3 MSTORE POP POP JUMP JUMPDEST PUSH1 0x0 PUSH1 0x20 DUP3 ADD SWAP1 POP PUSH2 0x1E0F PUSH1 0x0 DUP4 ADD DUP5 PUSH2 0x1DEB JUMP JUMPDEST SWAP3 SWAP2 POP POP JUMP JUMPDEST PUSH1 0x0 PUSH20 0xFFFFFFFFFFFFFFFFFFFFFFFFFFFFFFFFFFFFFFFF DUP3 AND SWAP1 POP SWAP2 SWAP1 POP JUMP JUMPDEST PUSH1 0x0 PUSH2 0x1E40 DUP3 PUSH2 0x1E15 JUMP JUMPDEST SWAP1 POP SWAP2 SWAP1 POP JUMP JUMPDEST PUSH2 0x1E50 DUP2 PUSH2 0x1E35 JUMP JUMPDEST DUP3 MSTORE POP POP JUMP JUMPDEST PUSH1 0x0 PUSH1 0x20 DUP3 ADD SWAP1 POP PUSH2 0x1E6B PUSH1 0x0 DUP4 ADD DUP5 PUSH2 0x1E47 JUMP JUMPDEST SWAP3 SWAP2 POP POP JUMP JUMPDEST PUSH1 0x0 DUP1 PUSH1 0x0 DUP1 PUSH1 0x80 DUP6 DUP8 SUB SLT ISZERO PUSH2 0x1E8B JUMPI PUSH2 0x1E8A PUSH2 0x16E2 JUMP JUMPDEST JUMPDEST PUSH1 0x0 DUP6 ADD CALLDATALOAD PUSH8 0xFFFFFFFFFFFFFFFF DUP2 GT ISZERO PUSH2 0x1EA9 JUMPI PUSH2 0x1EA8 PUSH2 0x16E7 JUMP JUMPDEST JUMPDEST PUSH2 0x1EB5 DUP8 DUP3 DUP9 ADD PUSH2 0x183A JUMP JUMPDEST SWAP5 POP POP PUSH1 0x20 PUSH2 0x1EC6 DUP8 DUP3 DUP9 ADD PUSH2 0x1A99 JUMP JUMPDEST SWAP4 POP POP PUSH1 0x40 PUSH2 0x1ED7 DUP8 DUP3 DUP9 ADD PUSH2 0x1C9C JUMP JUMPDEST SWAP3 POP POP PUSH1 0x60 PUSH2 0x1EE8 DUP8 DUP3 DUP9 ADD PUSH2 0x170D JUMP JUMPDEST SWAP2 POP POP SWAP3 SWAP6 SWAP2 SWAP5 POP SWAP3 POP JUMP JUMPDEST PUSH2 0x1EFD DUP2 PUSH2 0x1E35 JUMP JUMPDEST DUP2 EQ PUSH2 0x1F08 JUMPI PUSH1 0x0 DUP1 REVERT JUMPDEST POP JUMP JUMPDEST PUSH1 0x0 DUP2 CALLDATALOAD SWAP1 POP PUSH2 0x1F1A DUP2 PUSH2 0x1EF4 JUMP JUMPDEST SWAP3 SWAP2 POP POP JUMP JUMPDEST PUSH1 0x0 PUSH1 0x20 DUP3 DUP5 SUB SLT ISZERO PUSH2 0x1F36 JUMPI PUSH2 0x1F35 PUSH2 0x16E2 JUMP JUMPDEST JUMPDEST PUSH1 0x0 PUSH2 0x1F44 DUP5 DUP3 DUP6 ADD PUSH2 0x1F0B JUMP JUMPDEST SWAP2 POP POP SWAP3 SWAP2 POP POP JUMP JUMPDEST PUSH32 0x4E487B7100000000000000000000000000000000000000000000000000000000 PUSH1 0x0 MSTORE PUSH1 0x22 PUSH1 0x4 MSTORE PUSH1 0x24 PUSH1 0x0 REVERT JUMPDEST PUSH1 0x0 PUSH1 0x2 DUP3 DIV SWAP1 POP PUSH1 0x1 DUP3 AND DUP1 PUSH2 0x1F94 JUMPI PUSH1 0x7F DUP3 AND SWAP2 POP JUMPDEST PUSH1 0x20 DUP3 LT DUP2 SUB PUSH2 0x1FA7 JUMPI PUSH2 0x1FA6 PUSH2 0x1F4D JUMP JUMPDEST JUMPDEST POP SWAP2 SWAP1 POP JUMP JUMPDEST PUSH1 0x0 DUP3 DUP3 MSTORE PUSH1 0x20 DUP3 ADD SWAP1 POP SWAP3 SWAP2 POP POP JUMP JUMPDEST PUSH32 0x4D7573742062652070726F706F736564206F776E657200000000000000000000 PUSH1 0x0 DUP3 ADD MSTORE POP JUMP JUMPDEST PUSH1 0x0 PUSH2 0x1FF4 PUSH1 0x16 DUP4 PUSH2 0x1FAD JUMP JUMPDEST SWAP2 POP PUSH2 0x1FFF DUP3 PUSH2 0x1FBE JUMP JUMPDEST PUSH1 0x20 DUP3 ADD SWAP1 POP SWAP2 SWAP1 POP JUMP JUMPDEST PUSH1 0x0 PUSH1 0x20 DUP3 ADD SWAP1 POP DUP2 DUP2 SUB PUSH1 0x0 DUP4 ADD MSTORE PUSH2 0x2023 DUP2 PUSH2 0x1FE7 JUMP JUMPDEST SWAP1 POP SWAP2 SWAP1 POP JUMP JUMPDEST PUSH1 0x0 DUP2 SWAP1 POP DUP2 PUSH1 0x0 MSTORE PUSH1 0x20 PUSH1 0x0 KECCAK256 SWAP1 POP SWAP2 SWAP1 POP JUMP JUMPDEST PUSH1 0x0 PUSH1 0x20 PUSH1 0x1F DUP4 ADD DIV SWAP1 POP SWAP2 SWAP1 POP JUMP JUMPDEST PUSH1 0x0 DUP3 DUP3 SHL SWAP1 POP SWAP3 SWAP2 POP POP JUMP JUMPDEST PUSH1 0x0 PUSH1 0x8 DUP4 MUL PUSH2 0x208C PUSH32 0xFFFFFFFFFFFFFFFFFFFFFFFFFFFFFFFFFFFFFFFFFFFFFFFFFFFFFFFFFFFFFFFF DUP3 PUSH2 0x204F JUMP JUMPDEST PUSH2 0x2096 DUP7 DUP4 PUSH2 0x204F JUMP JUMPDEST SWAP6 POP DUP1 NOT DUP5 AND SWAP4 POP DUP1 DUP7 AND DUP5 OR SWAP3 POP POP POP SWAP4 SWAP3 POP POP POP JUMP JUMPDEST PUSH1 0x0 DUP2 SWAP1 POP SWAP2 SWAP1 POP JUMP JUMPDEST PUSH1 0x0 DUP2 SWAP1 POP SWAP2 SWAP1 POP JUMP JUMPDEST PUSH1 0x0 PUSH2 0x20DD PUSH2 0x20D8 PUSH2 0x20D3 DUP5 PUSH2 0x20AE JUMP JUMPDEST PUSH2 0x20B8 JUMP JUMPDEST PUSH2 0x20AE JUMP JUMPDEST SWAP1 POP SWAP2 SWAP1 POP JUMP JUMPDEST PUSH1 0x0 DUP2 SWAP1 POP SWAP2 SWAP1 POP JUMP JUMPDEST PUSH2 0x20F7 DUP4 PUSH2 0x20C2 JUMP JUMPDEST PUSH2 0x210B PUSH2 0x2103 DUP3 PUSH2 0x20E4 JUMP JUMPDEST DUP5 DUP5 SLOAD PUSH2 0x205C JUMP JUMPDEST DUP3 SSTORE POP POP POP POP JUMP JUMPDEST PUSH1 0x0 SWAP1 JUMP JUMPDEST PUSH2 0x2120 PUSH2 0x2113 JUMP JUMPDEST PUSH2 0x212B DUP2 DUP5 DUP5 PUSH2 0x20EE JUMP JUMPDEST POP POP POP JUMP JUMPDEST JUMPDEST DUP2 DUP2 LT ISZERO PUSH2 0x214F JUMPI PUSH2 0x2144 PUSH1 0x0 DUP3 PUSH2 0x2118 JUMP JUMPDEST PUSH1 0x1 DUP2 ADD SWAP1 POP PUSH2 0x2131 JUMP JUMPDEST POP POP JUMP JUMPDEST PUSH1 0x1F DUP3 GT ISZERO PUSH2 0x2194 JUMPI PUSH2 0x2165 DUP2 PUSH2 0x202A JUMP JUMPDEST PUSH2 0x216E DUP5 PUSH2 0x203F JUMP JUMPDEST DUP2 ADD PUSH1 0x20 DUP6 LT ISZERO PUSH2 0x217D JUMPI DUP2 SWAP1 POP JUMPDEST PUSH2 0x2191 PUSH2 0x2189 DUP6 PUSH2 0x203F JUMP JUMPDEST DUP4 ADD DUP3 PUSH2 0x2130 JUMP JUMPDEST POP POP JUMPDEST POP POP POP JUMP JUMPDEST PUSH1 0x0 DUP3 DUP3 SHR SWAP1 POP SWAP3 SWAP2 POP POP JUMP JUMPDEST PUSH1 0x0 PUSH2 0x21B7 PUSH1 0x0 NOT DUP5 PUSH1 0x8 MUL PUSH2 0x2199 JUMP JUMPDEST NOT DUP1 DUP4 AND SWAP2 POP POP SWAP3 SWAP2 POP POP JUMP JUMPDEST PUSH1 0x0 PUSH2 0x21D0 DUP4 DUP4 PUSH2 0x21A6 JUMP JUMPDEST SWAP2 POP DUP3 PUSH1 0x2 MUL DUP3 OR SWAP1 POP SWAP3 SWAP2 POP POP JUMP JUMPDEST PUSH2 0x21E9 DUP3 PUSH2 0x18F3 JUMP JUMPDEST PUSH8 0xFFFFFFFFFFFFFFFF DUP2 GT ISZERO PUSH2 0x2202 JUMPI PUSH2 0x2201 PUSH2 0x173D JUMP JUMPDEST JUMPDEST PUSH2 0x220C DUP3 SLOAD PUSH2 0x1F7C JUMP JUMPDEST PUSH2 0x2217 DUP3 DUP3 DUP6 PUSH2 0x2153 JUMP JUMPDEST PUSH1 0x0 PUSH1 0x20 SWAP1 POP PUSH1 0x1F DUP4 GT PUSH1 0x1 DUP2 EQ PUSH2 0x224A JUMPI PUSH1 0x0 DUP5 ISZERO PUSH2 0x2238 JUMPI DUP3 DUP8 ADD MLOAD SWAP1 POP JUMPDEST PUSH2 0x2242 DUP6 DUP3 PUSH2 0x21C4 JUMP JUMPDEST DUP7 SSTORE POP PUSH2 0x22AA JUMP JUMPDEST PUSH1 0x1F NOT DUP5 AND PUSH2 0x2258 DUP7 PUSH2 0x202A JUMP JUMPDEST PUSH1 0x0 JUMPDEST DUP3 DUP2 LT ISZERO PUSH2 0x2280 JUMPI DUP5 DUP10 ADD MLOAD DUP3 SSTORE PUSH1 0x1 DUP3 ADD SWAP2 POP PUSH1 0x20 DUP6 ADD SWAP5 POP PUSH1 0x20 DUP2 ADD SWAP1 POP PUSH2 0x225B JUMP JUMPDEST DUP7 DUP4 LT ISZERO PUSH2 0x229D JUMPI DUP5 DUP10 ADD MLOAD PUSH2 0x2299 PUSH1 0x1F DUP10 AND DUP3 PUSH2 0x21A6 JUMP JUMPDEST DUP4 SSTORE POP JUMPDEST PUSH1 0x1 PUSH1 0x2 DUP9 MUL ADD DUP9 SSTORE POP POP POP JUMPDEST POP POP POP POP POP POP JUMP JUMPDEST PUSH1 0x0 DUP2 SLOAD PUSH2 0x22BF DUP2 PUSH2 0x1F7C JUMP JUMPDEST PUSH2 0x22C9 DUP2 DUP7 PUSH2 0x18FE JUMP JUMPDEST SWAP5 POP PUSH1 0x1 DUP3 AND PUSH1 0x0 DUP2 EQ PUSH2 0x22E4 JUMPI PUSH1 0x1 DUP2 EQ PUSH2 0x22FA JUMPI PUSH2 0x232D JUMP JUMPDEST PUSH1 0xFF NOT DUP4 AND DUP7 MSTORE DUP2 ISZERO ISZERO PUSH1 0x20 MUL DUP7 ADD SWAP4 POP PUSH2 0x232D JUMP JUMPDEST PUSH2 0x2303 DUP6 PUSH2 0x202A JUMP JUMPDEST PUSH1 0x0 JUMPDEST DUP4 DUP2 LT ISZERO PUSH2 0x2325 JUMPI DUP2 SLOAD DUP2 DUP10 ADD MSTORE PUSH1 0x1 DUP3 ADD SWAP2 POP PUSH1 0x20 DUP2 ADD SWAP1 POP PUSH2 0x2306 JUMP JUMPDEST DUP1 DUP9 ADD SWAP6 POP POP POP JUMPDEST POP POP POP SWAP3 SWAP2 POP POP JUMP JUMPDEST PUSH1 0x0 PUSH1 0x40 DUP3 ADD SWAP1 POP DUP2 DUP2 SUB PUSH1 0x0 DUP4 ADD MSTORE PUSH2 0x2350 DUP2 DUP6 PUSH2 0x22B2 JUMP JUMPDEST SWAP1 POP DUP2 DUP2 SUB PUSH1 0x20 DUP4 ADD MSTORE PUSH2 0x2364 DUP2 DUP5 PUSH2 0x22B2 JUMP JUMPDEST SWAP1 POP SWAP4 SWAP3 POP POP POP JUMP JUMPDEST PUSH32 0x4F6E6C792063616C6C61626C65206279206F776E657200000000000000000000 PUSH1 0x0 DUP3 ADD MSTORE POP JUMP JUMPDEST PUSH1 0x0 PUSH2 0x23A3 PUSH1 0x16 DUP4 PUSH2 0x1FAD JUMP JUMPDEST SWAP2 POP PUSH2 0x23AE DUP3 PUSH2 0x236D JUMP JUMPDEST PUSH1 0x20 DUP3 ADD SWAP1 POP SWAP2 SWAP1 POP JUMP JUMPDEST PUSH1 0x0 PUSH1 0x20 DUP3 ADD SWAP1 POP DUP2 DUP2 SUB PUSH1 0x0 DUP4 ADD MSTORE PUSH2 0x23D2 DUP2 PUSH2 0x2396 JUMP JUMPDEST SWAP1 POP SWAP2 SWAP1 POP JUMP JUMPDEST PUSH32 0x4E487B7100000000000000000000000000000000000000000000000000000000 PUSH1 0x0 MSTORE PUSH1 0x21 PUSH1 0x4 MSTORE PUSH1 0x24 PUSH1 0x0 REVERT JUMPDEST PUSH32 0x4E487B7100000000000000000000000000000000000000000000000000000000 PUSH1 0x0 MSTORE PUSH1 0x32 PUSH1 0x4 MSTORE PUSH1 0x24 PUSH1 0x0 REVERT JUMPDEST PUSH32 0x4E487B7100000000000000000000000000000000000000000000000000000000 PUSH1 0x0 MSTORE PUSH1 0x11 PUSH1 0x4 MSTORE PUSH1 0x24 PUSH1 0x0 REVERT JUMPDEST PUSH1 0x0 PUSH2 0x2471 DUP3 PUSH2 0x20AE JUMP JUMPDEST SWAP2 POP PUSH32 0xFFFFFFFFFFFFFFFFFFFFFFFFFFFFFFFFFFFFFFFFFFFFFFFFFFFFFFFFFFFFFFFF DUP3 SUB PUSH2 0x24A3 JUMPI PUSH2 0x24A2 PUSH2 0x2437 JUMP JUMPDEST JUMPDEST PUSH1 0x1 DUP3 ADD SWAP1 POP SWAP2 SWAP1 POP JUMP JUMPDEST PUSH2 0x24B7 DUP2 PUSH2 0x1A6E JUMP JUMPDEST DUP3 MSTORE POP POP JUMP JUMPDEST PUSH1 0x0 PUSH2 0xFFFF DUP3 AND SWAP1 POP SWAP2 SWAP1 POP JUMP JUMPDEST PUSH2 0x24D4 DUP2 PUSH2 0x24BD JUMP JUMPDEST DUP3 MSTORE POP POP JUMP JUMPDEST PUSH2 0x24E3 DUP2 PUSH2 0x1C75 JUMP JUMPDEST DUP3 MSTORE POP POP JUMP JUMPDEST PUSH1 0x0 PUSH1 0xA0 DUP3 ADD SWAP1 POP PUSH2 0x24FE PUSH1 0x0 DUP4 ADD DUP9 PUSH2 0x24AE JUMP JUMPDEST DUP2 DUP2 SUB PUSH1 0x20 DUP4 ADD MSTORE PUSH2 0x2510 DUP2 DUP8 PUSH2 0x1939 JUMP JUMPDEST SWAP1 POP PUSH2 0x251F PUSH1 0x40 DUP4 ADD DUP7 PUSH2 0x24CB JUMP JUMPDEST PUSH2 0x252C PUSH1 0x60 DUP4 ADD DUP6 PUSH2 0x24DA JUMP JUMPDEST PUSH2 0x2539 PUSH1 0x80 DUP4 ADD DUP5 PUSH2 0x1DEB JUMP JUMPDEST SWAP7 SWAP6 POP POP POP POP POP POP JUMP JUMPDEST PUSH1 0x0 DUP2 MLOAD SWAP1 POP PUSH2 0x2552 DUP2 PUSH2 0x16F6 JUMP JUMPDEST SWAP3 SWAP2 POP POP JUMP JUMPDEST PUSH1 0x0 PUSH1 0x20 DUP3 DUP5 SUB SLT ISZERO PUSH2 0x256E JUMPI PUSH2 0x256D PUSH2 0x16E2 JUMP JUMPDEST JUMPDEST PUSH1 0x0 PUSH2 0x257C DUP5 DUP3 DUP6 ADD PUSH2 0x2543 JUMP JUMPDEST SWAP2 POP POP SWAP3 SWAP2 POP POP JUMP JUMPDEST PUSH32 0x43616E6E6F74207472616E7366657220746F2073656C66000000000000000000 PUSH1 0x0 DUP3 ADD MSTORE POP JUMP JUMPDEST PUSH1 0x0 PUSH2 0x25BB PUSH1 0x17 DUP4 PUSH2 0x1FAD JUMP JUMPDEST SWAP2 POP PUSH2 0x25C6 DUP3 PUSH2 0x2585 JUMP JUMPDEST PUSH1 0x20 DUP3 ADD SWAP1 POP SWAP2 SWAP1 POP JUMP JUMPDEST PUSH1 0x0 PUSH1 0x20 DUP3 ADD SWAP1 POP DUP2 DUP2 SUB PUSH1 0x0 DUP4 ADD MSTORE PUSH2 0x25EA DUP2 PUSH2 0x25AE JUMP JUMPDEST SWAP1 POP SWAP2 SWAP1 POP JUMP JUMPDEST PUSH2 0x25FA DUP2 PUSH2 0x20AE JUMP JUMPDEST DUP3 MSTORE POP POP JUMP JUMPDEST PUSH1 0x0 PUSH1 0x20 DUP3 ADD SWAP1 POP PUSH2 0x2615 PUSH1 0x0 DUP4 ADD DUP5 PUSH2 0x25F1 JUMP JUMPDEST SWAP3 SWAP2 POP POP JUMP JUMPDEST PUSH1 0x0 PUSH2 0x2626 DUP3 PUSH2 0x20AE JUMP JUMPDEST SWAP2 POP PUSH2 0x2631 DUP4 PUSH2 0x20AE JUMP JUMPDEST SWAP3 POP DUP3 DUP3 ADD SWAP1 POP DUP1 DUP3 GT ISZERO PUSH2 0x2649 JUMPI PUSH2 0x2648 PUSH2 0x2437 JUMP JUMPDEST JUMPDEST SWAP3 SWAP2 POP POP JUMP JUMPDEST PUSH1 0x0 PUSH2 0x265A DUP3 PUSH2 0x20AE JUMP JUMPDEST SWAP2 POP PUSH2 0x2665 DUP4 PUSH2 0x20AE JUMP JUMPDEST SWAP3 POP DUP3 DUP3 SUB SWAP1 POP DUP2 DUP2 GT ISZERO PUSH2 0x267D JUMPI PUSH2 0x267C PUSH2 0x2437 JUMP JUMPDEST JUMPDEST SWAP3 SWAP2 POP POP JUMP JUMPDEST PUSH32 0x4E487B7100000000000000000000000000000000000000000000000000000000 PUSH1 0x0 MSTORE PUSH1 0x12 PUSH1 0x4 MSTORE PUSH1 0x24 PUSH1 0x0 REVERT JUMPDEST PUSH1 0x0 PUSH2 0x26BD DUP3 PUSH2 0x20AE JUMP JUMPDEST SWAP2 POP PUSH2 0x26C8 DUP4 PUSH2 0x20AE JUMP JUMPDEST SWAP3 POP DUP3 PUSH2 0x26D8 JUMPI PUSH2 0x26D7 PUSH2 0x2683 JUMP JUMPDEST JUMPDEST DUP3 DUP3 MOD SWAP1 POP SWAP3 SWAP2 POP POP JUMP JUMPDEST PUSH1 0x0 PUSH2 0x26EE DUP3 PUSH2 0x20AE JUMP JUMPDEST SWAP2 POP PUSH2 0x26F9 DUP4 PUSH2 0x20AE JUMP JUMPDEST SWAP3 POP DUP3 DUP3 MUL PUSH2 0x2707 DUP2 PUSH2 0x20AE JUMP JUMPDEST SWAP2 POP DUP3 DUP3 DIV DUP5 EQ DUP4 ISZERO OR PUSH2 0x271E JUMPI PUSH2 0x271D PUSH2 0x2437 JUMP JUMPDEST JUMPDEST POP SWAP3 SWAP2 POP POP JUMP JUMPDEST PUSH1 0x0 DUP2 PUSH1 0x1 SHR SWAP1 POP SWAP2 SWAP1 POP JUMP JUMPDEST PUSH1 0x0 DUP1 DUP3 SWAP2 POP DUP4 SWAP1 POP JUMPDEST PUSH1 0x1 DUP6 GT ISZERO PUSH2 0x277C JUMPI DUP1 DUP7 DIV DUP2 GT ISZERO PUSH2 0x2758 JUMPI PUSH2 0x2757 PUSH2 0x2437 JUMP JUMPDEST JUMPDEST PUSH1 0x1 DUP6 AND ISZERO PUSH2 0x2767 JUMPI DUP1 DUP3 MUL SWAP2 POP JUMPDEST DUP1 DUP2 MUL SWAP1 POP PUSH2 0x2775 DUP6 PUSH2 0x2725 JUMP JUMPDEST SWAP5 POP PUSH2 0x273C JUMP JUMPDEST SWAP5 POP SWAP5 SWAP3 POP POP POP JUMP JUMPDEST PUSH1 0x0 DUP3 PUSH2 0x2795 JUMPI PUSH1 0x1 SWAP1 POP PUSH2 0x2851 JUMP JUMPDEST DUP2 PUSH2 0x27A3 JUMPI PUSH1 0x0 SWAP1 POP PUSH2 0x2851 JUMP JUMPDEST DUP2 PUSH1 0x1 DUP2 EQ PUSH2 0x27B9 JUMPI PUSH1 0x2 DUP2 EQ PUSH2 0x27C3 JUMPI PUSH2 0x27F2 JUMP JUMPDEST PUSH1 0x1 SWAP2 POP POP PUSH2 0x2851 JUMP JUMPDEST PUSH1 0xFF DUP5 GT ISZERO PUSH2 0x27D5 JUMPI PUSH2 0x27D4 PUSH2 0x2437 JUMP JUMPDEST JUMPDEST DUP4 PUSH1 0x2 EXP SWAP2 POP DUP5 DUP3 GT ISZERO PUSH2 0x27EC JUMPI PUSH2 0x27EB PUSH2 0x2437 JUMP JUMPDEST JUMPDEST POP PUSH2 0x2851 JUMP JUMPDEST POP PUSH1 0x20 DUP4 LT PUSH2 0x133 DUP4 LT AND PUSH1 0x4E DUP5 LT PUSH1 0xB DUP5 LT AND OR ISZERO PUSH2 0x2827 JUMPI DUP3 DUP3 EXP SWAP1 POP DUP4 DUP2 GT ISZERO PUSH2 0x2822 JUMPI PUSH2 0x2821 PUSH2 0x2437 JUMP JUMPDEST JUMPDEST PUSH2 0x2851 JUMP JUMPDEST PUSH2 0x2834 DUP5 DUP5 DUP5 PUSH1 0x1 PUSH2 0x2732 JUMP JUMPDEST SWAP3 POP SWAP1 POP DUP2 DUP5 DIV DUP2 GT ISZERO PUSH2 0x284B JUMPI PUSH2 0x284A PUSH2 0x2437 JUMP JUMPDEST JUMPDEST DUP2 DUP2 MUL SWAP1 POP JUMPDEST SWAP4 SWAP3 POP POP POP JUMP JUMPDEST PUSH1 0x0 PUSH2 0x2863 DUP3 PUSH2 0x20AE JUMP JUMPDEST SWAP2 POP PUSH2 0x286E DUP4 PUSH2 0x20AE JUMP JUMPDEST SWAP3 POP PUSH2 0x289B PUSH32 0xFFFFFFFFFFFFFFFFFFFFFFFFFFFFFFFFFFFFFFFFFFFFFFFFFFFFFFFFFFFFFFFF DUP5 DUP5 PUSH2 0x2785 JUMP JUMPDEST SWAP1 POP SWAP3 SWAP2 POP POP JUMP INVALID LOG2 PUSH5 0x6970667358 0x22 SLT KECCAK256 PUSH2 0x2AE7 0x23 PUSH22 0xAF7F81888AF9BC925E291FEE6E7466B83C5B40C30767 SWAP5 PUSH25 0x3163ED64736F6C634300081300330000000000000000000000 "
				},
				"gasEstimates": {
					"creation": {
						"codeDepositCost": "2091400",
						"executionCost": "infinite",
						"totalCost": "infinite"
					},
					"external": {
						"acceptOwnership()": "54540",
						"handleOracleFulfillment(bytes32,bytes,bytes)": "infinite",
						"owner()": "2544",
						"s_lastError()": "infinite",
						"s_lastRequestId()": "2495",
						"s_lastResponse()": "infinite",
						"sendRequest(string,bytes,uint8,uint64,string[],bytes[],uint64,uint32,bytes32)": "infinite",
						"sendRequestCBOR(bytes,uint64,uint32,bytes32)": "infinite",
						"transferOwnership(address)": "30742"
					},
					"internal": {
						"fulfillRequest(bytes32,bytes memory,bytes memory)": "infinite"
					}
				},
				"methodIdentifiers": {
					"acceptOwnership()": "79ba5097",
					"handleOracleFulfillment(bytes32,bytes,bytes)": "0ca76175",
					"owner()": "8da5cb5b",
					"s_lastError()": "4b0795a8",
					"s_lastRequestId()": "b1e21749",
					"s_lastResponse()": "3944ea3a",
					"sendRequest(string,bytes,uint8,uint64,string[],bytes[],uint64,uint32,bytes32)": "52a81eeb",
					"sendRequestCBOR(bytes,uint64,uint32,bytes32)": "9681096f",
					"transferOwnership(address)": "f2fde38b"
				}
			},
			"storageLayout": {
				"storage": [
					{
						"astId": 816,
						"contract": "docs.chain.link/samples/ChainlinkFunctions/FunctionsConsumerExample.sol:FunctionsConsumerExample",
						"label": "s_owner",
						"offset": 0,
						"slot": "0",
						"type": "t_address"
					},
					{
						"astId": 818,
						"contract": "docs.chain.link/samples/ChainlinkFunctions/FunctionsConsumerExample.sol:FunctionsConsumerExample",
						"label": "s_pendingOwner",
						"offset": 0,
						"slot": "1",
						"type": "t_address"
					},
					{
						"astId": 2285,
						"contract": "docs.chain.link/samples/ChainlinkFunctions/FunctionsConsumerExample.sol:FunctionsConsumerExample",
						"label": "s_lastRequestId",
						"offset": 0,
						"slot": "2",
						"type": "t_bytes32"
					},
					{
						"astId": 2287,
						"contract": "docs.chain.link/samples/ChainlinkFunctions/FunctionsConsumerExample.sol:FunctionsConsumerExample",
						"label": "s_lastResponse",
						"offset": 0,
						"slot": "3",
						"type": "t_bytes_storage"
					},
					{
						"astId": 2289,
						"contract": "docs.chain.link/samples/ChainlinkFunctions/FunctionsConsumerExample.sol:FunctionsConsumerExample",
						"label": "s_lastError",
						"offset": 0,
						"slot": "4",
						"type": "t_bytes_storage"
					}
				],
				"types": {
					"t_address": {
						"encoding": "inplace",
						"label": "address",
						"numberOfBytes": "20"
					},
					"t_bytes32": {
						"encoding": "inplace",
						"label": "bytes32",
						"numberOfBytes": "32"
					},
					"t_bytes_storage": {
						"encoding": "bytes",
						"label": "bytes",
						"numberOfBytes": "32"
					}
				}
			},
			"userdoc": {
				"kind": "user",
				"methods": {
					"acceptOwnership()": {
						"notice": "Allows an ownership transfer to be completed by the recipient."
					},
					"handleOracleFulfillment(bytes32,bytes,bytes)": {
						"notice": "Chainlink Functions response handler called by the Functions Router during fullilment from the designated transmitter node in an OCR round."
					},
					"owner()": {
						"notice": "Get the current owner"
					},
					"sendRequest(string,bytes,uint8,uint64,string[],bytes[],uint64,uint32,bytes32)": {
						"notice": "Send a simple request"
					},
					"sendRequestCBOR(bytes,uint64,uint32,bytes32)": {
						"notice": "Send a pre-encoded CBOR request"
					},
					"transferOwnership(address)": {
						"notice": "Allows an owner to begin transferring ownership to a new address."
					}
				},
				"notice": "THIS IS AN EXAMPLE CONTRACT THAT USES HARDCODED VALUES FOR CLARITY. THIS IS AN EXAMPLE CONTRACT THAT USES UN-AUDITED CODE. DO NOT USE THIS CODE IN PRODUCTION.",
				"version": 1
			}
		}
	}
}